:020000040000FA
:1000000020240020150200001D0200001F02000035
:100010002102000023020000250200000000000071
:1000200000000000000000000000000027020000A7
:1000300029020000000000002B0200002D02000039
:100040002F020000A50200005D0600002F02000044
:100050002F0200002F0200002F0200002F020000DC
:100060002F0200002F0200002F0200002F020000CC
:100070002F0200002F0200002F0200002F020000BC
:100080002F0200002F0200002F0200002F020000AC
:10009000010300002F0200002F0200002F020000C9
:1000A0002F0200002F020000310600002F02000086
:1000B0002F0200002F0200000000000000000000DE
:1000C0002F0200002F0200002F0200002F0200006C
:1000D0002F0200002F0200002F020000000000008D
:1000E0000000000000000000000000000000000010
:1000F0000000000000000000000000000000000000
:1001000000000000000000000000000000000000EF
:1001100000000000000000000000000000000000DF
:1001200000000000000000000000000000000000CF
:1001300000000000000000000000000000000000BF
:1001400000000000000000000000000000000000AF
:10015000000000000000000000000000000000009F
:10016000000000000000000000000000000000008F
:10017000000000000000000000000000000000007F
:10018000000000000000000000000000000000006F
:10019000000000000000000000000000000000005F
:1001A000000000000000000000000000000000004F
:1001B000000000000000000000000000000000003F
:1001C000000000000000000000000000000000002F
:1001D000000000000000000000000000000000001F
:1001E000000000000000000000000000000000000F
:1001F00000000000000000000000000000000000FF
:10020000DFF80CD000F03CF800480047310A00004D
:10021000202400200648804706480047FEE7FEE706
:10022000FEE7FEE7FEE7FEE7FEE7FEE7FEE7FEE7A6
:10023000590300000102000040EA01039B0703D0BC
:1002400009E008C9121F08C0042AFAD203E011F815
:10025000013B00F8013B521EF9D27047D2B201E0D7
:1002600000F8012B491EFBD270470022F6E710B5BB
:1002700013460A4604461946FFF7F0FF204610BD14
:10028000064C074D06E0E06840F0010394E80700E3
:1002900098471034AC42F6D3FFF7B6FFB013000016
:1002A000D013000070B5144CD4F80001002628B11A
:1002B000D4F80403C00701D0C4F80061D4F80C01DD
:1002C0000E4D40B1D4F80403000704D5C4F80C6106
:1002D000286900B18047D4F8100100280BD0D4F869
:1002E0000403C00607D5C4F81061E868002802D0EE
:1002F000BDE87040004770BD0010004008000020BD
:100300007CB5144C606A01902078002821D001202F
:1003100000F0B7F9656800266660012000F0C2F9B8
:10032000E169002915D0E80703D08DF80060684620
:100330008847A80705D501208DF80000E1696846C7
:100340008847680705D502208DF80000E1696846F6
:1003500088477CBD08000020F0B5A449A4484FF0B0
:1003600080540B68D4F830210078D4F83411551C2F
:10037000C0F3031006D0944601270026BCF1060FF7
:1003800003D00AE003F0FF0CF6E7B4F82453DFF8DB
:1003900064C2C5F30425CCF80050DDB2062D06D1A9
:1003A000032804D1DFF854C2934DCCF87450551C87
:1003B00004D09446BCF1060F03D00AE003F0FF0C12
:1003C000F8E7D4F84452DFF838C2C5F34235CCF828
:1003D0000050DDB2062D08D1032806D1894DD5F88D
:1003E00000C02CF0807CC5F800C0551C04D0944699
:1003F000BCF1060F03D00BE003F0FF0CF8E74FF061
:100400008045C5F80C61C5F810617D4D2D1F2E602B
:10041000DDB2062D08D1032806D1DFF8E4C103259B
:100420000CF1640CCCF80050DDB2062D10D103287D
:100430000ED1DFF8D4C10525CCF80050724D7835C7
:100440002F60714D08352E600CF104063F25356094
:10045000551C04D016460D46062E03D05BE0DEB2D6
:100460000546F9E7ED1E012D55D9684D2D68684EFA
:100470003560664D2D1D2D68361D3560634D083580
:100480002D68361D3560614D0C352D68361D356083
:100490005E4D10352D68361D35605C4D14352D6868
:1004A000361D3560594D18352D68594E203635604A
:1004B000564D1C352D68361D3560544D20352D6840
:1004C000361D3560514D24352D68361D35604F4D34
:1004D00028352D68361D35604C4D2C352D68361D60
:1004E00035604A4D30352D68494E40363560474DB0
:1004F00034352D68361D3560444D38352D68361D30
:100500003560424D3C352D68361D35603F4D4035D8
:100510002D68361D3560551C03D01646062E02D0B8
:1005200007E0DEB2FAE7D4F858523A4E05F04F052C
:100530003560551C03D01346062B02D008E0DBB211
:10054000FAE735480368DB0702D06FF00103036068
:10055000062A07D1C91E022904D93048016841F48E
:100560008061016027487438016841F470010160BE
:10057000BFF34F8FBFF36F8FD4E94C104FF01022B1
:10058000062907D1C01E032804D9D2F808021C4945
:100590001C310860D2F80002002803DBD2F8040204
:1005A00000281FDA012000F0D1FC1521C2F800124A
:1005B0001B480368002BFCD0C2F804120168002914
:1005C000FCD0002000F0C2FCBFF34F8F0D48F03884
:1005D0000168144A01F4E06111430160BFF34F8FD9
:1005E00000BFFDE7114910480860F0BDE00F00F0C2
:1005F000E80F00F0403501400DF0ADBA00C00740F3
:100600003C050040FCED00E01056004004040010E2
:1006100020C50040E40E0040000400403C170040AC
:1006200000E401400400FA050090D00350000020CF
:100630000748D0F84011002909D00021C0F8401126
:1006400004484078032802D103490120086170471B
:1006500000A0014008000020001000400148006890
:100660000047000000000020002809DB00F01F0206
:10067000012191404009800000F1E020C0F8801283
:10068000704700280DDB00F01F0201219140400956
:10069000800000F1E020C0F88011BFF34F8FBFF35E
:1006A0006F8F7047002809DB00F01F020121914085
:1006B0004009800000F1E020C0F8001170470028D8
:1006C00009DB00F01F02012191404009800000F188
:1006D000E020C0F8001270474907090E002804DB2B
:1006E00000F1E02080F80014704700F00F0000F1E6
:1006F000E02080F8141D704702E008C8121F08C1EE
:10070000002AFAD170477047002001E001C1121F92
:10071000002AFBD17047006890FAA0F000BA00BA36
:100720007047000072B609480068C00700D000BEDC
:10073000BFF34F8F0548E4380168054A01F4E061D2
:1007400011430160BFF34F8F00BFFDE7F0ED00E004
:100750000400FA050EB500210091CDE901106A46AA
:1007600044F20100FFF7DEFF0EBD0000F0B54FF0D0
:100770008050D0F80411C1F307222949422A0AD136
:10078000284A136823F0010313600A6822F001026B
:1007900042F080720A60D0F80401C0F307204528B7
:1007A0003AD12148407C052838D04FF07F431F487C
:1007B00000681E4A1840121D12681A4090422BD140
:1007C0001A4A083210681368C0B2C3F3072C1368C2
:1007D0001268C3F30747160E144A0C321368DDB2D1
:1007E0001368C3F3072413681268C3F30743120E98
:1007F00060450BD0B84209D0B04207D0A84205D01E
:10080000A04203D0984201D0904205D1086820F060
:10081000010040F0807008600020F0BD044BC6E786
:1008200074170040501600403C0000201C1500408A
:100830000000FFFF2DE9FC410646C0074FF0000510
:100840000ED0104F00240122385D00950023114680
:10085000019500F053FB641C042CF4D300F01CF849
:10086000B0070DD5074E0024361D0022305D03234E
:1008700000951146019500F041FB641C042CF4D353
:10088000BDE8FC81A81300000249085C012100F0CA
:1008900052BB0000A813000010B500242046FFF74B
:1008A000F3FF641C042CF9D310BD006890FAA0F08B
:1008B00000BA704770B50F4DA8680F4CC4F800021D
:1008C0000E486969C07C88470E490D4808600021C0
:1008D000C4F8101101202061D4F81021002AFBD0A7
:1008E000C4F81011A96841F00401C4F80012606056
:1008F00070BD000008000020001000407C000020B7
:100900005E030020041500404FF080400021C0F835
:1009100000110121C0F80010D0F800110029FBD00F
:100920007047000000B51AA08BB00068089019A0AD
:1009300019A100680990D1E90001CDE9060118224A
:1009400017496846FFF778FC08208DF8130001204E
:100950008DF800008DF808008DF801001148019015
:1009600000208DF81400684600F0DCF800280DD156
:1009700008A800F0AFF9002808D109A800F0E2F9B2
:10098000002803D1082106A800F02AFA0BB000BD08
:10099000E7E7E7E7C2C2C2C2E7C2C3C4C5C6C7C869
:1009A00090130000990A000070B500F0D1FB1E49B9
:1009B0000020A1F5947300BF00EB800202EB40120F
:1009C0001A4441F82020401C0828F5DB1649002075
:1009D0002C3101F5947200BF00EB800404EB40144D
:1009E0000C4442F82040401C0828F5DB00200F4A48
:1009F0004FEA000100EB800404EB4014E51800EB23
:100A00004004401C42F8245002EB84040828217161
:100A1000A160EFDB054A002012F1600242F82010CD
:100A2000401C0828FADB70BDBC01002080030020B8
:100A30000120FFF7FFFEFFF767FFFFF773FF08B125
:100A4000FFF788FE00F01AFA08B1FFF783FE20BF17
:100A5000FDE7000070B50C494FF4705008600B4C76
:100A600000256570257000F073FB20210848FFF712
:100A7000FCFBE56214202563FFF703FE0549032014
:100A8000C1F80002002070BD08F5014008000020F8
:100A9000000400200010004010B5007800283DD070
:100AA00001283BD0022839D11D4800F0CFF800289A
:100AB00034D11B4CA079410703D000F00700042873
:100AC00001D9012100E00021112000F029FAA079CC
:100AD00000F00700012801D9052801D9012100E013
:100AE0000021122000F01CFAA07900F00700022873
:100AF00001D9062801D9012100E00021132000F0CE
:100B00000FFAA07900F00700032801D8012100E0C6
:100B10000021BDE81040142000F002BA10BD000012
:100B20005400002070B505006AD03B4C207818B105
:100B3000FFF790FF002864D16868E0611822294619
:100B40003648FFF779FB0025656020213448FFF720
:100B50008CFBE562256300F0A3FB002852D03149ED
:100B60004FF0E7300860091D4FF043300860091D61
:100B70002D480860091D2D480860FFF715FF2C4916
:100B8000042008602A48083805602A4840F20221FB
:100B9000C0F80012294A28491160111D0860264832
:100BA000001D091D086023481030091D0860091D3B
:100BB000234808602048F038091D08602048001DBF
:100BC000091D0860091D1F480860144E707C00F064
:100BD00007010120FFF780FDB07C00F00701142021
:100BE000FFF77AFD1420FFF75DFD6570012020708E
:100BF0000007D0F80401C0F30720452804D008E01E
:100C00000E2070BD072070BD0F48016841F480615F
:100C10000160002070BD0000080000207C00002062
:100C2000000400201C150040E743C323A363E31323
:100C300010A5004000A000400011004060F50140F8
:100C400040A10040001000403C17004070B5054630
:100C50001E48007880B385B31D4CA06A70B3012094
:100C6000FFF70FFD606A54F820100A782A7054F8D4
:100C700020104978697054F820108978A97054F8C8
:100C800020100979297154F82010C978E97054F8B6
:100C90002010681D491DFFF7CFFA606A401C606292
:100CA000082801D300206062A06A401EA0620120D3
:100CB000FFF7F8FC002070BD01E002E003E008202F
:100CC000F9E70E20F7E70520F5E70000080000200F
:100CD0001003002070B5184E0446707808B111203A
:100CE00070BD44B14FF08050D0F80401C0F307202C
:100CF000422802D012E00E2070BD0F483430407CF4
:100D0000052814D04FF07F452046FFF704FD284208
:100D100004D10A48006810F0FF0F0AD02068706301
:100D2000012000F06FFABDE87040FFF71FBD044DD1
:100D3000EAE7072070BD00000800002024150040ED
:100D40000000FFFF70B5234D0446687808B11120FC
:100D500070BD44B14FF08050D0F80401C0F30720BB
:100D6000422802D029E00E2070BD1A483430407C61
:100D700005282BD04FF07F462046FFF7CCFC3042B1
:100D80001BD11549086810F47F4F21D0086810F472
:100D90007F0F1DD00868000E1AD0091D0868000ECC
:100DA00016D0086810F47F0F12D0086810F47F4F37
:100DB0000ED0086810F0FF0F0AD02068A863022048
:100DC00000F020FABDE87040FFF7D0BC034ED3E737
:100DD000072070BD08000020241500400000FFFF20
:100DE00070B50C462249497809B1112070BD60B137
:100DF000082C3AD84FF08051D1F804111C4DC1F3A2
:100E000007213435422902D01CE00E2070BD697CD8
:100E100005290FD04FF07F412CB1164A12680A42C3
:100E200001D102780AB3134A121D12680A4209D18D
:100E3000012105E01049EFE7425CB2B1491CC9B29B
:100E4000A142F9D301460A4822463C30FFF7F4F9A3
:100E5000C4F10801FF202C74C840A874042000F0DD
:100E6000D1F9BDE87040FFF781BC072070BD0000DC
:100E7000080000201C1500400000FFFF70B51A4854
:100E8000417809B1112070BD184C4FF0FF31C4F802
:100E900008130025C4F810511549C160816841F05C
:100EA0000401C4F800121021C4F804130421417095
:100EB0000D48104A3430817C11600E49C07C2839BD
:100EC0000860091F0C48086001209434FFF7CCFB30
:100ED0000120FFF7E7FB25676567E567012044F818
:100EE000900C002070BD00000800002000100040A1
:100EF000650F0000301500405E03002070B541EA28
:100F00004201DDE904564FF0A04441EA830141EA81
:100F1000052104EB800041EA0641C0F8001770BDCE
:100F200001224FF0A043824011B1C3F80825704759
:100F3000C3F80C25704701224FF0A043824011B145
:100F4000C3F808257047C3F80C25704703490860AB
:100F5000034801680029FCD07047000004E5014007
:100F600000E401402DE9F05F61480022012700689C
:100F700018B16048806A082803D3BDE8F05FFFF726
:100F800099BCDFF86C9109F10809D9F800005949BA
:100F9000F03101EB800509F104010C68554B2E88F6
:100FA0004E33B442587805D1AC78B4EB500F01D130
:100FB000012200274008A87008689B4628804E48F8
:100FC000DFF838A1017D19B19BF80110C90710D0D5
:100FD000DAF808104A4B41F00801C3F800124749FB
:100FE000444C0078496900262C34A8B301285BD111
:100FF00002E0FFF75FFC64E0DFF808E1DEF828C0FC
:10100000BCF1000F42D0D9F800804B460EF50970B4
:1010100050F82880B8F1000F38D01B68D04650F83F
:1010200023301B68CAF81830EB78012B1DD1E2B9C8
:10103000D9F80020BCF1010C50F822301E7150F894
:1010400022309B6840F82230CEF828C005D023B16A
:101050001868C8F8180002E020E0C8F81860D8F84E
:10106000040040F00100C8F80400D8F8180068B186
:101070000122EA7000788847D8F8181008782070A4
:1010800011F8052BA01CFFF7D7F803E0EE70002045
:10109000884726709BF80100607005E000208847B3
:1010A0009BF800002070667005218AF80110D9F8BD
:1010B0000010154A1160144928390C601349CAF808
:1010C0000C10002F12D0A978D9F80000C0B200F09F
:1010D0004DF800280AD0DAF8041041F00401CAF8EB
:1010E0000410BDE8F05F1420FFF7E9BABDE8F09FF7
:1010F00000140040100300207C00002008000020A5
:1011000000100040BC0100202C150040111100000F
:1011100010B5094CA068094940F00400C1F800026C
:1011200007486169C07C8847074906480860074846
:10113000E0600420607010BD080000200010004036
:101140007C0000205E03002004150040650F0000B5
:101150000549002008624862886201F5AA710862A8
:101160004862886270470000BC0100202DE9F04110
:10117000224C07468846A06A08283DD2A4F525716E
:1011800020460A780026006A01F2E225012A03D0EF
:101190004A7842B1C97C02E0297820292CD854F839
:1011A0002020117002E054F820100E7054F8200036
:1011B000A91C10F8052BFFF73FF8206A54F82010FF
:1011C0004F700F49096854F82020917054F820207E
:1011D00082F80480697854F8202041F30001491C0A
:1011E000401CD1702062082800D32662A06A401CEF
:1011F000A0620120BDE8F0810020FBE71003002081
:101200004815004010B50446C00704D00F48FFF74A
:1012100082FA0F490860A00706D50C48001DFFF7A9
:101220007AFA0B49091D086060070DD50748083098
:10123000FFF73BFB06490831086004480C30FFF714
:1012400034FB03490C31086010BD00003C00002055
:101250001C1500400F4A10B50F48117A0160492350
:101260000E48052914D2DFE801F005030705030045
:10127000302102E0836201E0FA2181629389816A70
:101280003E318B4202D2806A3E309081012010BDF7
:10129000002010BD7C000020101500400800002038
:1012A00070B500F03FF8FFF7D5FF1849184A0B78E2
:1012B0007BB1012B0BD00023034016484D7A041F4D
:1012C000B5B1012D0ED0022D07D0002417E0124B2E
:1012D00000E0124B53610123EEE74FF6FF76066004
:1012E0000F4803E0FF26066040F20710206002E08E
:1012F0000026066026600748083805600124C87C7F
:1013000051691C408847204670BD00007C000020C9
:10131000080000203C150040651300003913000050
:101320002110010002480349807A086070470000DC
:101330007C0000200C150040084A0749116008494C
:10134000497C491E090441EA0021014341F08070B3
:10135000111D0860704700000001010014150040D5
:101360003C00002007490648086007480749407CC0
:10137000401E41EA00400349091D08607047000013
:1013800006000300141500403C000020200000016E
:10139000010000000000000001020000FA0003004C
:1013A0000001022000000000111213140D0E0F1096
:1013B000D01300000000002054000000F8060000D8
:1013C0002414000054000020CC2300000807000073
:1013D000000000000000000000000000000000000D
:1013E00013010000000000000000000000000000E9
:1013F00000000000000000000000000000000000ED
:10140000000000000000000000000000E7E7E7E740
:10141000C2C2C2C2E7C2C3C4C5C6C7C80805FF026C
:041420000090D00365
:0400000500000201F4
:00000001FF
