{
  "txid": "6b97a5579b4e088d472c1b8c2a30b216be1603dd006af7a42d75c12b0a75d6db",
  "hash": "6b97a5579b4e088d472c1b8c2a30b216be1603dd006af7a42d75c12b0a75d6db",
  "version": 2,
  "size": 340,
  "vsize": 340,
  "weight": 1360,
  "locktime": 0,
  "vin": [
    {
      "txid": "b1b577d0f0184c7149e24bb952acb461c95c152a7d79fe6d01545dd55ab6d880",
      "vout": 0,
      "scriptSig": {
        "asm": "3045022100845d30a3e8a283bf2c4cdf9dd4f37186b135c83100918e0871947028ea636aed022025f403ed184bfdb51c140e36f324e3ae489038df64f9c1347f5ac278b586059b[ALL] 023230848585885f63803a0a8aecdd6538792d5c539215c91698e315bf0253b43d",
        "hex": "483045022100845d30a3e8a283bf2c4cdf9dd4f37186b135c83100918e0871947028ea636aed022025f403ed184bfdb51c140e36f324e3ae489038df64f9c1347f5ac278b586059b0121023230848585885f63803a0a8aecdd6538792d5c539215c91698e315bf0253b43d"
      },
      "sequence": 4294967293
    },
    {
      "txid": "5b250f8fdf5c71884965b1b69c99b160d3336f6ebf6f75799bd25bd32480f892",
      "vout": 1,
      "scriptSig": {
        "asm": "3045022100d342718f073a36139d9644f668acf9172e578e477e0b1fa82be55992403d4c7b0220526f794995b3941a822fda45e9a42c972d81b5ae62221e91a05237e869c1b07b[ALL] 023230848585885f63803a0a8aecdd6538792d5c539215c91698e315bf0253b43d",
        "hex": "483045022100d342718f073a36139d9644f668acf9172e578e477e0b1fa82be55992403d4c7b0220526f794995b3941a822fda45e9a42c972d81b5ae62221e91a05237e869c1b07b0121023230848585885f63803a0a8aecdd6538792d5c539215c91698e315bf0253b43d"
      },
      "sequence": 4294967293
    }
  ],
  "vout": [
    {
      "value": 1.119945,
      "n": 0,
      "scriptPubKey": {
        "asm": "OP_DUP OP_HASH160 24a56db43cf6f2b02e838ea493f95d8d60474231 OP_EQUALVERIFY OP_CHECKSIG",
        "hex": "76a91424a56db43cf6f2b02e838ea493f95d8d6047423188ac",
        "reqSigs": 1,
        "type": "pubkeyhash",
        "addresses": [
          "Xe2cLLPxqahT3XkkuuPJrAXhsved39jeqa"
        ]
      }
    }
  ],
  "hex": "020000000280d8b65ad55d54016dfe797d2a155cc961b4ac52b94be249714c18f0d077b5b1000000006b483045022100845d30a3e8a283bf2c4cdf9dd4f37186b135c83100918e0871947028ea636aed022025f403ed184bfdb51c140e36f324e3ae489038df64f9c1347f5ac278b586059b0121023230848585885f63803a0a8aecdd6538792d5c539215c91698e315bf0253b43dfdffffff92f88024d35bd29b79756fbf6e6f33d360b1999cb6b1654988715cdf8f0f255b010000006b483045022100d342718f073a36139d9644f668acf9172e578e477e0b1fa82be55992403d4c7b0220526f794995b3941a822fda45e9a42c972d81b5ae62221e91a05237e869c1b07b0121023230848585885f63803a0a8aecdd6538792d5c539215c91698e315bf0253b43dfdffffff0184e6ac06000000001976a91424a56db43cf6f2b02e838ea493f95d8d6047423188ac00000000",
  "blockhash": "0a029eac59385bea0d39630ba91489f1947fee7458365ba1a69c2d43aa970d9a",
  "confirmations": 183192,
  "time": 1557185424,
  "blocktime": 1557185424
}