:020000040000FA
:1000000008200020150200001D0200001F02000051
:100010002102000023020000250200000000000071
:1000200000000000000000000000000027020000A7
:1000300029020000000000002B0200002D02000039
:100040002F0200002F0200002F0200002F020000EC
:100050002F0200002F0200002F0200002F020000DC
:100060002F0200002F0200002F0200002F020000CC
:100070002F0200002F0200002F0200002F020000BC
:100080002F0200002F0200002F0200002F020000AC
:100090002F0200002F0200002F0200002F0200009C
:1000A0002F0200002F0200002F0200002F0200008C
:1000B0002F0200002F0200000000000000000000DE
:1000C0002F0200002F0200002F0200002F0200006C
:1000D0002F0200002F0200002F0200002F0200005C
:1000E0002F0200002F0200002F020000000000007D
:1000F000000000002F020000000000002F0200009E
:1001000000000000000000000000000000000000EF
:1001100000000000000000000000000000000000DF
:1001200000000000000000000000000000000000CF
:1001300000000000000000000000000000000000BF
:1001400000000000000000000000000000000000AF
:10015000000000000000000000000000000000009F
:10016000000000000000000000000000000000008F
:10017000000000000000000000000000000000007F
:10018000000000000000000000000000000000006F
:10019000000000000000000000000000000000005F
:1001A000000000000000000000000000000000004F
:1001B000000000000000000000000000000000003F
:1001C000000000000000000000000000000000002F
:1001D000000000000000000000000000000000001F
:1001E000000000000000000000000000000000000F
:1001F00000000000000000000000000000000000FF
:10020000DFF80CD000F018F800480047FD040000AB
:10021000082000200648804706480047FEE7FEE722
:10022000FEE7FEE7FEE7FEE7FEE7FEE7FEE7FEE7A6
:100230005D02000001020000064C074D06E0E06888
:1002400040F0010394E8070098471034AC42F6D31D
:10025000FFF7DAFFD0050000F005000030B54FF0E1
:1002600080520023D2E94C10082906D1CC06C4F8EC
:100270000C31C4F81031624C2360082955D1614B10
:100280001B68614C23605F4B1B1D1B68241D236092
:100290005C4B08331B68241D23605A4B0C331B68CE
:1002A000241D2360574B10331B68241D2360554BBE
:1002B00014331B68241D2360524B18331B68524CA7
:1002C000203423604F4B1C331B68241D23604D4B8F
:1002D00020331B68241D23604A4B24331B68241DD4
:1002E0002360484B28331B68241D2360454B2C3367
:1002F0001B68241D2360434B30331B68424C403441
:100300002360404B34331B68241D23603D4B38333E
:100310001B68241D23603B4B3C331B68241D23605A
:10032000384B40331B68241D2360082904D1030087
:1003300002D1374C354B2360082904D1030002D188
:10034000344CFB232360082908D1030006D1324B2B
:1003500092F858521C6865F303041C60082904D104
:10036000030002D12D4C8B012360082906D12C48B3
:100370000168C90702D06FF00101016029480168D6
:1003800041F470010160BFF34F8FBFF36F8FD2E96B
:100390004C104FF01022082906D1032804D9D2F8B6
:1003A0000802174920310860D2F80002002803DB58
:1003B000D2F8040200281FDA012000F0F3F812211D
:1003C000C2F8001218480368002BFCD0C2F80412CF
:1003D00001680029FCD0002000F0E4F8BFF34F8F43
:1003E00010487C380168114A01F4E0611143016052
:1003F000BFF34F8F00BFFDE70E490D48086030BDC9
:10040000380500400404001020C500404881030066
:100410008C56004018F50040E40E00404096024023
:100420000004004088ED00E000E401400400FA050B
:100430000090D0030000002002E008C8121F08C18D
:10044000002AFAD170477047002001E001C1121F55
:10045000002AFBD1704700002DE9FC410646C00789
:100460004FF000050ED0104F00240122385D00959A
:1004700000231146019500F059F8641C042CF4D3B4
:1004800000F032F8B0070DD5074E0024361D0022CB
:10049000305D032300951146019500F047F8641C78
:1004A000042CF4D3BDE8FC81C6050000094908B559
:1004B000085C0090684600F053F8D0F80425009BD3
:1004C0000121994021EA0203C0F808351140C0F823
:1004D0000C1508BDC60500000249085C012100F0AA
:1004E0004DB80000C605000010B500242046FFF7F7
:1004F000F3FF641C042CF9D310BD00000120FFF7AA
:10050000ABFF094C4FF4FA784FF47A470026304697
:10051000FFF7CCFF4546611C384688476D1EFAD16F
:10052000761C042EF3DBF1E7C00500002DE9FF4146
:100530001C46DDE90A7815460E46684600F010F8BC
:1005400046EA450141EA840141EA072242EA0841BC
:10055000009A00EB8200C0F80017BDE8FF810000A0
:100560000168202902D24FF0A040704701F01F011E
:1005700001600148704700000003005038B50124B5
:100580000090684631B1FFF7EBFF00998C40C0F84E
:10059000084538BDFFF7E4FF00998C40C0F80C45D2
:1005A00038BD000003490860034801680029FCD0F9
:1005B0007047000004E5014000E401400000000035
:1005C0000338FDD870470D0E0F100B0C18190000E2
:1005D000F0050000000000200400000038040000C6
:1005E000F40500000400002004200000480400007E
:0405F0000090D003A4
:0400000500000201F4
:00000001FF
