:020000040000FA
:1000000008100020150200001D0200001F02000061
:100010002102000023020000250200000000000071
:1000200000000000000000000000000027020000A7
:1000300029020000000000002B0200002D02000039
:100040002F0200002F0200002F0200002F020000EC
:100050002F020000000000002F020000000000003E
:100060002F0200002F0200002F0200002F020000CC
:100070002F0200002F0200002F0200002F020000BC
:100080002F0200002F0200002F0200002F020000AC
:100090002F0200002F0200002F0200002F0200009C
:1000A0002F0200002F0200002F02000000000000BD
:1000B0000000000000000000000000000000000040
:1000C0000000000000000000000000000000000030
:1000D0000000000000000000000000002F020000EF
:1000E0000000000000000000000000000000000010
:1000F0000000000000000000000000000000000000
:1001000000000000000000000000000000000000EF
:1001100000000000000000000000000000000000DF
:1001200000000000000000000000000000000000CF
:1001300000000000000000000000000000000000BF
:1001400000000000000000000000000000000000AF
:10015000000000000000000000000000000000009F
:10016000000000000000000000000000000000008F
:10017000000000000000000000000000000000007F
:10018000000000000000000000000000000000006F
:10019000000000000000000000000000000000005F
:1001A000000000000000000000000000000000004F
:1001B000000000000000000000000000000000003F
:1001C000000000000000000000000000000000002F
:1001D000000000000000000000000000000000001F
:1001E000000000000000000000000000000000000F
:1001F00000000000000000000000000000000000FF
:10020000DFF80CD000F018F800480047AD040000FB
:10021000081000200648804706480047FEE7FEE732
:10022000FEE7FEE7FEE7FEE7FEE7FEE7FEE7FEE7A6
:100230005D02000001020000064C074D06E0E06888
:1002400040F0010394E8070098471034AC42F6D31D
:10025000FFF7DAFF400500006005000000B54FF031
:1002600080500022D0E94C100D2901D0102907D16F
:100270004FF08043C3F80C21C3F81021534B1A6090
:100280000D2901D0102955D1514A1268514B1A60DD
:100290004F4A121D12681B1D1A604D4A083212681F
:1002A0001B1D1A604A4A0C3212681B1D1A60484A0C
:1002B000103212681B1D1A60454A143212681B1D49
:1002C0001A60434A18321268424B20331A60404A7F
:1002D0001C3212681B1D1A603D4A203212681B1D19
:1002E0001A603B4A243212681B1D1A60384A2832B1
:1002F00012681B1D1A60364A2C3212681B1D1A60C8
:10030000334A30321268334B40331A60304A343249
:1003100012681B1D1A602E4A383212681B1D1A60A3
:100320002B4A3C3212681B1D1A60294A403212685F
:100330001B1D1A600D2901D0102906D1264A136809
:10034000DB0702D06FF0010313604FF010220D297C
:1003500002D0102904D00DE060B1012805D109E0D8
:1003600040B1012806D0022804D0D2F8080217496B
:1003700020310860D2F80002002803DBD2F8040222
:1003800000281EDA012000F0C7F81221C2F800127E
:1003900012480368002BFCD0C2F80412016800293F
:1003A000FCD0002000F0B8F8BFF34F8F0C48016874
:1003B0000C4A01F4E06111430160BFF34F8F00BFAD
:1003C000FDE70A490848086000BD00003805004004
:1003D0000404001020C500400004004000E4014077
:1003E0000CED00E00400FA050090D00300000020AE
:1003F00002E008C8121F08C1002AFAD170477047EE
:10040000002001E001C1121F002AFBD1704700004B
:100410002DE9FC410646C0074FF000050ED0104FF5
:1004200000240122385D009500231146019500F05B
:1004300055F8641C042CF4D300F02EF8B0070DD549
:10044000074E0024361D0022305D0323009511461F
:10045000019500F043F8641C042CF4D3BDE8FC8142
:100460003605000007490B5C4FF0A041D1F8042588
:100470000120984020EA0203C1F808351040C1F875
:100480000C057047360500000249085C012100F0A8
:1004900037B800003605000010B500242046FFF7ED
:1004A000F3FF641C042CF9D310BD00000120FFF7FA
:1004B000AFFF094C4FF4FA784FF47A4700263046E4
:1004C000FFF7D0FF4546611C384688476D1EFAD1BC
:1004D000761C042EF3DBF1E73005000070B541EA2D
:1004E0004201DDE904564FF0A04441EA830141EAAC
:1004F000052104EB800041EA0641C0F8001770BDF9
:1005000001224FF0A043824011B1C3F80825704783
:10051000C3F80C25704700000349086003480168D0
:100520000029FCD07047000004E5014000E40140D0
:100530000338FDD870470D0E0F100B0C1819000072
:10054000600500000000002004000000F00300002F
:1005500064050000040000200410000000040000F6
:040560000090D00334
:0400000500000201F4
:00000001FF
