:020000040000FA
:10000000D04A0020150300001D0300001F0300005C
:10001000210300002303000025030000000000006E
:1000200000000000000000000000000027030000A6
:1000300029030000000000002B0300002D03000036
:100040002F0300002F0300000D2F00002F030000DE
:100050002F0300002F0300002F0300002F030000D8
:100060002F0300002F0300002F0300002F030000C8
:100070002F030000A92C00002F0300002F03000015
:100080002F0300002F0300002F0300002F030000A8
:100090002F0300002F0300002F0300002F03000098
:1000A0002F0300002F0300002F0300002F03000088
:1000B0002F0300002F0300000000000000000000DC
:1000C0002F0300002F0300002F0300002F03000068
:1000D0002F0300002F0300002F0300002F03000058
:1000E0002F0300002F0300000504000000000000A3
:1000F000000000002F030000000000002F0300009C
:1001000000000000000000000000000000000000EF
:1001100000000000000000000000000000000000DF
:1001200000000000000000000000000000000000CF
:1001300000000000000000000000000000000000BF
:1001400000000000000000000000000000000000AF
:10015000000000000000000000000000000000009F
:10016000000000000000000000000000000000008F
:10017000000000000000000000000000000000007F
:10018000000000000000000000000000000000006F
:10019000000000000000000000000000000000005F
:1001A000000000000000000000000000000000004F
:1001B000000000000000000000000000000000003F
:1001C000000000000000000000000000000000002F
:1001D000000000000000000000000000000000001F
:1001E000000000000000000000000000000000000F
:1001F00000000000000000000000000000000000FF
:10020000DFF80CD000F0ECF800480047953A000009
:10021000D04A002000B583B002900091019244F2D0
:10022000010071466A4602F03BFF03B000BD0000CA
:1002300030B4044654E8000F0D4644E80053002B48
:10024000F8D1156030BC704730B4044654E8000F54
:1002500040EA010544E80053002BF7D1156030BC9B
:10026000704730B4044654E8000F00EA010544E842
:100270000053002BF7D1156030BC704730B40446F2
:1002800054E8000F80EA010544E80053002BF7D141
:10029000156030BC704730B4044654E8000F00EBE2
:1002A000010544E80053002BF7D1156030BC7047BE
:1002B00030B4044654E8000FA0EB010544E80053B5
:1002C000002BF7D1156030BC704770B404464FF076
:1002D000000054E8006F0D68AE4207BF44E80023F9
:1002E000012044E800630E60002B1CBF0020F0E7F3
:1002F00070BC704730B4044654E8000F88422CBFED
:10030000451A054644E80053002BF5D1156030BC72
:10031000704700000648804706480047FEE7FEE7B2
:10032000FEE7FEE7FEE7FEE7FEE7FEE7FEE7FEE7A5
:10033000312D00000102000000487047B462000047
:1003400010B5441A0346944209D28418114403E0BC
:1003500011F8013D04F8013D521EF9D210BD40EAEA
:100360000104A40703D009E010C9121F10C3042A16
:10037000FAD203E011F8014B03F8014B521EF9D2F7
:1003800010BDD2B201E000F8012B491EFBD270472C
:100390000022F6E710B513460A4604461946FFF751
:1003A000F0FF204610BD421C10F8011B0029FBD1B4
:1003B000801A704730B504460020034600E05B1CFD
:1003C000934203D2E05CCD5C401BF8D030BD0346C5
:1003D00011F8012B00F8012B002AF9D118467047BB
:1003E000064C074D06E0E06840F0010394E8070082
:1003F00098471034AC42F6D3FFF706FF4C6F00006D
:100400006C6F00000B490C4B0C4A4FF0FF3008603A
:100410001B68BFF35B8F52E8001F42E800300028E2
:10042000F9D1BFF35B8F9942F3D1BFF35F8F044AD9
:100430001360704704BA025000BA0250C42A002068
:1004400008BA0250F0B5BDB004460E466846F02129
:1004500017461D4601F034FF042C2FD8DFE804F0C6
:1004600030351F2E0300032300938023294A17935E
:10047000294B2A4C3994CDE93A236846A047284CA9
:10048000A0421BD032D828B3B0F5720F3BD1254C17
:100490006846F02101F014FF20463DB0F0BD224C2B
:1004A000224A39940123009340231793204B684636
:1004B000CDE93A23A0471A4CA042E3D11D4CE7E70F
:1004C000194C1A4A39940023EDE7174C174A39940E
:1004D0000223E8E78FB1DEB1019BBBB93A46314652
:1004E000684602F0E5FAA042E8D004D9124B9842DF
:1004F00009D1124CCCE70028C6D12946684600F045
:1005000023F80446C4E74FF47504C1E70C4CBFE779
:100510000C4CBDE7B11D0000E50D0000BD10000052
:100520000100F2000002F00069100000891B0000C9
:10053000610D00000102F0000200F2000202F00072
:100540000C02F0000302F00070B5002837D00E4610
:10055000002937D0026E0446DAB9114601236360E0
:100560002046D4F8E8309847B0B9D4F8EC302046AB
:1005700098470546C0B923682066032B1CD8144A47
:1005800004F1080152F82320304601F095FE284678
:1005900070BD00F16401E1E7A0F57203022B13D8EE
:1005A000A0F5FF35284670BDA0F57203022B0BD8CD
:1005B000A0F5FF35284670BD064D284670BD064D96
:1005C000284670BD054DE2E74FF47505DFE700BF33
:1005D000E86900000102F0000002F0000502F000EE
:1005E000002849D038B50D46F021044601F068FED8
:1005F000042D04D8DFE805F01E2A310305001F484A
:1006000038BD1F491F4A204BC4F8E430C4E93A12F0
:10061000032580202560E065204698471B4B9842C3
:10062000EDD021D80028EBD0B0F5720F21D1A0F584
:10063000FF3038BD164B1749174AC4F8E43000257F
:100640004020C4E93A122560E065E5E7104B114906
:10065000114AC4F8E4300225F2E70D4B0D490E4A69
:10066000C4F8E4300125EBE70C4B984201D10C486B
:1006700038BD4FF4750038BD0A4870470102F000DC
:10068000B11D0000E50D0000BD1000000100F200EA
:1006900069100000891B0000610D00000200F200DB
:1006A0000202F0000002F0002DE9F041002853D0D2
:1006B000154622B30E46002961D0D0F804800446C6
:1006C000B8F1000F20D1D0E91723D01AB0FBF2F710
:1006D00002FB1707AF4228BF2F4687BB9A4224D0A0
:1006E000B5FBF2F702FB07F747B1D4F8E8303A461A
:1006F000314620469847A0BB3E44ED1B4DB94FF014
:1007000000084046BDE8F081DFF88C804046BDE837
:10071000F081206E19302A46314604EB800001F04A
:10072000CBFD226E2A442266EBE7D4F8E83004F1D0
:10073000640120469847A0B9E26D2066D0E704F135
:10074000640018443A4601F0B7FDD4E917233B444E
:100750003E44ED1B2366C1E7DFF838804046BDE824
:10076000F0810B4B984210D0013398420AD0094BCC
:10077000B0F5720F14BF4FF475089846C1E7DFF863
:100780001C80BEE7DFF81880BBE7DFF81880B8E709
:100790000100F2000002F0000C02F0000302F00081
:1007A0000202F0000102F00070B3F0B51F4B0268C6
:1007B0009A4291B0044624D10D4639B3D0F8843022
:1007C00000F18806032B3046694634BF4027802756
:1007D000FFF7BAFE08B111B0F0BDD4F8841030466E
:1007E000FFF7FEFE0028F6D13A46211D3046FFF7FE
:1007F0005BFF0028EFD1D4F88430042B08D90C48D3
:10080000E9E70C4811B0F0BD0B4870470B48E2E730
:100810000B4A6946D25C3046FFF746FF0028DAD122
:1008200029463046FFF790FED5E700BF896745238C
:100830000103F0000203F0000003F0000503F000E4
:10084000C8690000002864D02DE9F0419046B0B09E
:10085000002A60D01E46002B57D002290D460446C0
:100860001FD9CB1E012B1ED880274FF4BC71204608
:1008700001F026FD802110A801F022FDBE42324683
:10088000414614D96B462846FFF7DCFD60B9042DBC
:1008900009D8224B694633F8152010A801F00CFD49
:1008A00008E04027E1E71E4830B0BDE8F08110A81D
:1008B00001F002FDBE08201D10A9002251F8043BE2
:1008C000013283F05C33B24240F8043BF6D300219E
:1008D00010AA1368013183F036338E4242F8043B8C
:1008E000F7D804F1880630462946FFF779FE00283C
:1008F000DAD13A4610A93046FFF7D6FE0028D3D108
:10090000084BC4F884502360CEE7074830B0BDE8F8
:10091000F081064870470648C6E700BFBC69000082
:100920000103F000896745230703F0000003F0008E
:100930000603F000B0B170B40B4D0668AE4205D1AD
:1009400039B162B170BC8830FFF7AEBE074870BCE9
:100950007047002A064870BC08BF00207047104648
:1009600070BC704703487047896745230203F00055
:100970000303F0000003F00070B5002849D00D46D5
:10098000002943D0244E04464FF0FF31306801F077
:10099000B7FC90BB002001F0DFFC50BB20462A468C
:1009A000012101F077FE0446012001F0D5FCB8B921
:1009B000306801F0BFFC50B9012001F0CDFC08B94E
:1009C000204670BD154801F01DFC204670BD14483E
:1009D00001F018FC012001F0BFFC0028F0D0F1E785
:1009E0000E4801F00FFC306801F0A4FC0028E3D0B1
:1009F000EDE70C4801F006FCD0E70B4801F002FCE3
:100A0000002001F0A9FC0028C8D0F2E7074C2046DE
:100A100070BD074C204670BDD44A00207C690000A0
:100A2000646900009C6900004C690000200CF00023
:100A3000250CF00000284CD0F0B50D4689B00029F7
:100A400038D00446E42101F03BFC01A9204601F026
:100A5000F5F910B1204809B0F0BD204F4FF0FF313B
:100A6000386801F04DFC80BB002001F075FC40BBF4
:100A700001A92A46204600F0D1FE0646012001F0D9
:100A80006BFCD0B9386801F055FC78B9002EE1D183
:100A90002046E42101F014FC29462046FFF76CFFB4
:100AA0000F4B002818BF184609B0F0BD0D4801F0E3
:100AB000A9FBEBE70C4809B0F0BD0C4801F0A2FB24
:100AC000E0E70B4801F09EFBD2E70A4801F09AFBF1
:100AD000CAE70948704700BF110CF000D44A002053
:100AE000120CF00064690000200CF0007C6900002A
:100AF0009C6900004C690000250CF0002DE9F041D4
:100B0000002800F081801D46036A072B0F4604462B
:100B100016D055B9032B0FD1036B6BB9C0E90F5534
:100B2000C0E9115500F13C0710252B4639462046F7
:100B3000BDE8F04100F0B6BE2E463046BDE8F0817B
:100B4000436B002B37D1B5F5805F39D215B9236BD4
:100B5000002B35D167484FF0FF3101F0D1FB002861
:100B600040F09780002001F0F7FB002840F09980CA
:100B7000614B01221A60236A032B23DC002B23DA4A
:100B80005E4E5F4A1368002BFCD15B495D4A0B60E7
:100B9000106840F0400001F0BDFA012001F0DCFBDC
:100BA00000287AD1534801F0C5FB0028C5D056482B
:100BB00001F028FBC1E7012BC8D1B5F5803FC5D3B3
:100BC000524EBAE7072BDBD1636A012B78D8636BEF
:100BD000012B57D8A36B012B00F28480204600F034
:100BE000E9F906460028CCD1A36A012B6AD033F07C
:100BF000020271D0236A013B062B13D8DFE803F011
:100C000009440912121209004FF471063046BDE87A
:100C1000F0813F4B22681A6062685A60A2689A604D
:100C2000E268DA603B493C4A01230B601560002D05
:100C30003BD1226B0AB9394A1360314B1E68002E32
:100C4000FCD1236A013B062B9BD801A252F823F06A
:100C50006D0C00008D0C00006D0C0000830B00007B
:100C6000830B0000830B00006D0C0000284A2C4B06
:100C7000126822601A6862605A68A26008331B68B2
:100C8000E3607EE7274E7CE7274BC3E7264A274BE6
:100C9000EEE7274801F0B6FA64E7264801F0B2FA19
:100CA00080E7254801F0AEFA62E7636B012B1BD0A9
:100CB000224A234B176010201D6001F033FABCE775
:100CC000204E5EE7204B22691A6062695A60A26971
:100CD0009A60E269DA608DE71C491D4A0B600123C6
:100CE000136087E71B4E4CE71B4A1C4B17604020E4
:100CF0001D60E2E7E44A002010B802500100F10054
:100D000010B9025004BA0250586D00000500F100FD
:100D100040B402507CB40250BCB4025024B502501E
:100D200044B402500300F10060B4025064B40250B5
:100D3000406D0000006D0000206D000030BC0250CE
:100D400034BC02500200F10000B4025038BA025024
:100D500078B402500400F10028BC02502CBC0250B0
:100D600000283BD0F0B482B0436A0193836893FAC1
:100D700083FC019BD0E90712D0E90376D0E9055442
:100D80001BBA4362436C019309BA836AC16112BA08
:100D900002623FBAD0E90F1236BA2DBA24BAC0E9BE
:100DA00002C7C0E90465C76A066B456B846193FAA4
:100DB00083FC846B019B3FBA36BA2DBA24BA09BAB8
:100DC00012BA1BBAC0E90AC7C0E90C65C0E90E41F6
:100DD000C0E91023002002B0F0BC70474FF472004D
:100DE000704700BF002800F098802DE9F0414C4B7F
:100DF000826D9A42E0B0804603D04A4860B0BDE8B8
:100E0000F081016E00F148052846C900042200F077
:100E10008BF8D8F8543020A84FF4807200211CBA07
:100E200001F04CFAD8F85C20E308B3FBF2F402FBC3
:100E30001434141B102C98BFA41820ABA4F110007C
:100E400018442946102280258DF8805001F034FA8C
:100E50002A46684608F1640101F02EFAD8E9172302
:100E60000DEB05010DEB0300D21A01F025FAD8E9CC
:100E70001753ED1AADB26946404600F039F9A54264
:100E80003FD3D8E90641D8E90823D8E90207D8E9D1
:100E9000046500BA3FBA24BA09BA12BAC8E90270A6
:100EA00036BAD8F83400C8F81C402DBAD8F830400B
:100EB000C8F818101BBAC8F82420D8E90F12D8F8BF
:100EC0003870C8F81460C8F81050D8F82860D8F8FE
:100ED0002C50C8F82030D8F8443024BA00BAC8E9F9
:100EE0000C0436BA2DBA3FBA09BA12BA1BBA00209E
:100EF000C8E90A56C8E90E17C8E9103260B0BDE863
:100F0000F08120AB59196846D8F85C2001F0D4F97B
:100F10006946404600F0ECF8B3E74FF472007047C2
:100F2000785634120200F200F0B48AB3051F2B4643
:100F300005EB8206970053F8044F24BA9E421C60CA
:100F4000F9D13C1F03595918015116D3931E00EBD8
:100F5000830150F82340661CA64240F823600CD859
:100F60000BB90AE03BB151F8044D651CA54203F1F1
:100F7000FF330D60F6D94AB1051F2846002150F80D
:100F8000043F01311BBA8A420360F8D8F0BC7047B5
:100F900050F8043C5B1840F8043CF7D350F8084C78
:100FA000631C9C4240F8083CA0F10801EED36FF0AE
:100FB0000103D8E738B5224B224A012105461960C2
:100FC0001368002BFCD1204A1368002BFCD11F4A68
:100FD0001368002BFCD11E4A1368002BFCD11D4B5B
:100FE0001C68002CFCD14FF0FF3001F087F82B6A11
:100FF00023F00403032B184B18680CBF20F04000AB
:1010000020F0800001F086F8144B00221A602B6A51
:1010100023F00402032A18BF6C6A114A4FEA8303C3
:1010200018BF04F0010403F01C031C4314602B6A76
:10103000072B02D10B4B01221A60002038BD00BFE4
:1010400000B9025070B4025020BD025020BC0250C2
:1010500038BD025038BC025004BA0250BCB4025031
:10106000C0B402507CB40250E8B110B50468012C41
:1010700004D0022C10D044B10C4810BD0C490830EB
:10108000202201F019F9002010BD0A49083014226D
:1010900001F012F9204610BD07490830202201F066
:1010A0000BF9002010BD4FF4720070470100F200F0
:1010B0002C6A0000F86900000C6A000078B110B5D5
:1010C0000368032B044601D0064810BD06494022A0
:1010D000083001F0F1F8054BA365002010BD4FF476
:1010E000720070470100F2000C690000785634125B
:1010F0002DE9F04F2DED028BADF5597D00F108057E
:101100000C464022002128A8FFF744F9294628A8C8
:10111000402201F0D1F82A9B1493319B1593329B06
:101120001693339B1793349B1893359B1993369BD7
:101130001A93379B1B93289B1293299B2B9A2D98CC
:101140002F9F309E2C99139308EE105A784B2E9DAA
:101150001C921E9021971F961D91209504F1040C5E
:1011600001930D92DDE915420292179A0392189AA3
:10117000149B0B92199A0093DDE91AAB03460C926B
:101180003046DDE912620DF1E009CDE90607CDF840
:1011900020A0CDF824B00A9104951746CA469B4674
:1011A00012E002990B9103990C9100990A9106990A
:1011B000DDF834B00096CDE902140D97CDF818E0B3
:1011C00044461E461746704683044FEA844EA103E8
:1011D0004EEA903E43EA943841EA90410B9BC205A7
:1011E000850302988EEA010142EA542283EA000E46
:1011F00006984A4045EA9445E10588EA05030EEA67
:10120000000E0C9D249241EA502103980B9ADDF8C0
:101210009090594045400C9B2591DCF800005CF80B
:10122000041C25405D408EEA0202964690FA80F842
:10123000259A259509BA3D01CAE9008101982599A9
:1012400045EA1678B50745EA970519EB0E0388EAD3
:101250000505F0E9028941EB0202710641EAD71166
:101260004D4001900A9900982495350145EA177E72
:101270000143BD070A9845EA96058EEA05058646AC
:10128000009831400EEA000E41EA0E010D982291BD
:10129000790641EAD61113EB080385EA01054BEA0A
:1012A000000142EB09023940FAE8028925950BEA70
:1012B00000050D43DDF890E022992395089D0998DB
:1012C00013EB080342EB09025B1942EB00000246F4
:1012D000DDF894800498239D11EB0E0145EB080581
:1012E00010EB030E0798CDF81CB040EB0208CDE9D7
:1012F0002215CB180B99089158A945EB02020A98C0
:101300000C9D049051450CF1080C09957FF449AFF0
:101310001946084B0E93B6ABCDF83CB0CDE9074665
:10132000DDF800B00997CDE9001236A8119314E05A
:10133000486A0000C86A0000069A0292079A03925F
:10134000DDE908B20D92009A0892019A0992CDE95E
:101350000034CDE906E8CE46D046D0E91E64F3005D
:10136000620343EA547342EAD6425A40A30643EA70
:101370009613D0E9047C5A404FEAC409730343EA48
:10138000D44349EA5676056D5E4086EA94164FEAE4
:10139000CC73446DA91843EA57094FEA0C6344EB38
:1013A000060643EA17234FEA884489EA030344EA1E
:1013B0009E394FEA883444EA9E44C0E9221689EAFD
:1013C0000404F0E9029ACDE9049A4FEA4C6949EA2B
:1013D000D71983EA090326934FEA0769FB0743EA13
:1013E0005C0349EA1C275F404FEACE53029A069DF0
:1013F000DDF898A043EA58235C40249414466C40DE
:1014000004EA0E04079D5440039A87EADC174FEA6A
:101410008E434FEA8E3C27974CEA984C82EA0507A8
:1014200043EA9833049D83EA0C0307EA08074FEA6E
:10143000C85C57404CEA5E2C4A19059D83EA0C03B0
:10144000DDF89CC0259345EB060612EB0A0246EB3D
:101450000C01019E249B009D2494DDE92494259792
:10146000370147EA15770E9DDDF894C0C0F880205B
:1014700013EB0903F5E9029A0E95009D109144EBD8
:101480000C044FEA857C009DC0F88410CDE9049AD5
:101490004CEA960C4FEA0519009D009987EA0C0763
:1014A00049EA16794FEA867C089E4CEA950C009D25
:1014B00089EA0C094BEA060C0CEA050C049D5B1941
:1014C000059D45EB0404019D4FEA416A4AEAD51A9D
:1014D000009987EA0A0A6F0647EAD117099D0D9914
:1014E00089EA07070BEA06094CEA090CCDF888C01F
:1014F0009B1841EA050C01EA0502109D019E45EB8F
:1015000004040B9DCDE924A75B190C9D0CEA060C85
:101510004CEA020244EB0505DDF888C091462C46F2
:10152000259A0A9DCDF828B01CEB0A0749EB020268
:1015300015EB03090F9D0F9145EB040AFB1842EBD5
:101540000404CDE92272029A0B92039A0C92119A2A
:1015500082427FF4F1AE129A0898219E159FD3180B
:10156000139ADDE9001542EB0404149A52181C99F1
:10157000009241EB05051D99099A2B9509181E98B3
:10158000019140EB020220980D99049210EB0B00A0
:1015900046EB01011F9E08901698069A049D09913A
:1015A00016EB090647EB0A0710EB0E0E179840EBF7
:1015B0000808189810EB020C1998079A40EB0209DA
:1015C0001A98029A10EB020A1B98039A2D95099D0E
:1015D0002F95009D2A95019D2C9540EB020B089DAF
:1015E000CDF8C8E038A84FF420720021CDE92834A6
:1015F000CDF8D0C03197CDF8CC80CDF8D490CDF8CF
:10160000DCB02E953096CDF8D8A000F057FE18EE3D
:10161000100A28A9402200F04FFE0DF5597DBDECBF
:10162000028BBDE8F08F00BF002861D02DE9F041AA
:101630004C1EB4F5047F27D233B32AB3CD00012B5F
:1016400005F1FF3E30D000218C460F460E4603F1D7
:10165000FF384C0901F01F0550F824401F2D24FAD3
:1016600005F418BF04F0010421B90126B44631463F
:101670002746EEE7B34213D0A74201D10CF1010C8B
:10168000464504D1624502D21A48BDE8F0813C4685
:1016900001318E4506F10106EAD20020BDE8F08155
:1016A00000264FF0010CF3E70026B44637463446D7
:1016B000610904F01F0350F821101F2B21FA03F1D8
:1016C00018BF01F001013CB15FB98C4501D0614602
:1016D00008E00136614605E0012634468C460127C4
:1016E000E6E73E46B242CFD30134AC42F6D1D4E76E
:1016F00000487047370CF10030B585B004460D4600
:10170000104803924FF0FF3100F0FAFD039A68B9D8
:10171000204600950123002100F0D0F90446094835
:1017200000F008FE38B9204605B030BD064800F08C
:1017300069FD039AECE7054800F064FD204605B01A
:1017400030BD00BFE44A0020D06C0000E86C00000F
:101750000B6802E0082B0B6006D8426813424FEA80
:101760004303F7D00020704700487047310CF10068
:101770000138072805D8DFE800F00A0E0412040437
:101780000406094870478B698B6000207047CB685E
:101790008B60002070470B698B60002070474B699D
:1017A0008B600020704700BF310CF10030B4DDE9E0
:1017B0000234049D02940024CDE9035430BC01F0AE
:1017C00045B800BFF0B4C900002401F1FF3C264633
:1017D000274606E09F4216D00126654519D82C46BB
:1017E0001F46630904F01F0150F823301F2923FA14
:1017F00001F304F1010518BF03F00103002CE9D146
:1018000001263546EBE701369642E6D10248F0BCA8
:1018100070470020F0BC7047360CF10010B586B060
:1018200005AB0124CDE901240093002204AB01F0B3
:101830000DF806B010BD00BF084B094A0021196021
:101840001368002BFCD107480749084A03604FF48E
:1018500080604FF0FF330860136070472CB1025076
:1018600010B90250C4B1025008BA025008B1025077
:1018700038B504464FF4806000F054FC054D06482E
:101880000649074A00232B6003600B68236013603E
:1018900038BD00BFC8B102502CB1025004B1025093
:1018A00008B10250002800F0BF80F8B51D46436B18
:1018B0000E4617460446002B35D0012B02D1B5F554
:1018C000803F33D265484FF0FF3100F019FD00280A
:1018D00057D1002000F040FD00284ED1604B01227E
:1018E0001A60236A032B28DC002B28DA5D4A136870
:1018F000002BFCD15A4A1360236A23F00403032B04
:10190000594B18680CBF40F0400040F0800000F0D8
:1019100001FC012000F020FD002836D14F4800F0E6
:1019200009FD28B9F8BDB5F5805FCBD34F48F8BDA8
:101930004F4800F067FC0020F8BD072BD6D1636A42
:10194000012BD3D8636B012BD0D8A36B012BCDD83F
:101950002046FFF72FFB0028C8D1A36A012B6CD0CB
:1019600033F0020263D0236A5A1E062A1BD8DFE82E
:1019700002F0104B101A1A1A10003E4800F042FCF8
:10198000ACE73D4800F03EFCA3E73C4800F03AFCE1
:10199000C4E73B4B22681A6062685A60A2689A608A
:1019A000E268DA60236A23F00403032B31D0A36BCF
:1019B000012B4CD0334A344B176020201D60636BE1
:1019C000012B2CD0314A324B16601D6000F0AAFB6F
:1019D000244A1368002BFCD1236A013B062B10D844
:1019E000DFE803F00414040F0F0F0400244A294B0E
:1019F000126822601A6862605A68A26008331B6825
:101A0000E3600123236371E7234BC3E7224A234B9F
:101A1000EEE7636B012B01D01020D3E74020204A72
:101A2000204B16601D60D1E74FF4710070471E49CE
:101A30001E4A0B600123136095E71D4B22691A6053
:101A400062695A60A2699A60E269DA608BE7194AB2
:101A5000194B176080201D60B1E700BFE44A0020E9
:101A600010B8025010B9025004BA02500500F1003B
:101A7000586D0000206D0000406D0000006D0000FA
:101A800040B4025030BD025034BD025030BC025050
:101A900034BC025044B4025060B4025064B40250EA
:101AA00028BC02502CBC025038BA025078B4025004
:101AB00000B4025028BD02502CBD0250F8B5069E5D
:101AC000002E33D001292FD8012B31D81C4C0746CA
:101AD00000251C4825600468002CFCD11A4D2C6898
:101AE000002CFCD1194D2C68002CFCD1184D2C6811
:101AF000002CFCD1174D2C68002CFCD1012B19D0E7
:101B00001548164B026020201E6001290BBF144BA4
:101B1000144B154A154A17601E6000F003FB144B66
:101B200018680028FCD1F8BD1248F8BD1248F8BD6D
:101B30001248F8BD1248134B026080201E60E4E793
:101B400000B9025070B4025020BD025020BC0250B7
:101B500038BD025038BC025030BD025034BD025076
:101B60002CBC025034BC025028BC025030BC025085
:101B700010B902500200F4000100F4000300F40068
:101B800028BD02502CBD0250002800F0DE80F8B5C0
:101B900003680E4615460446002B00F0B480013B56
:101BA000012B00F2C3806A484FF0FF31022700F09A
:101BB000A7FB002840F0B080002000F0CDFB0028FB
:101BC00040F0BB80634A1368002BFCD1624A136863
:101BD000002BFCD161480368002BFCD14FF0FF3093
:101BE00000F08CFA5E4B186820F0400000F092FA8A
:101BF0005C485D4A5D4901230360072010600B606B
:101C0000A2F59A72A36C1360594BE16C51601F608E
:101C100023685BB1013B012B17D8564B626A1A60EF
:101C2000226A43F8042CE26943F8082C524BA2695B
:101C30001A60626943F8042C226943F8082CE268B0
:101C400043F80C2CA26843F8102C434A1368002B6D
:101C5000FCD1002D53D06368012B04BF474A1360A9
:101C6000474A484B166040201D6000F05BFA3A4A34
:101C70001368002BFCD1394A1368002BFCD1236870
:101C80005BB1013B012B17D83A4A3F4B12686262A5
:101C90001A682262043B1B68E361374A3B4B1268B7
:101CA000A2611A68626153F8042C226153F8082C6F
:101CB000E2600C3B1B68A360354A364B1268A26495
:101CC0001B682A4D2D483449E364234A002301242C
:101CD0002C6003600B601368002BFCD12149204A63
:101CE0000B60106840F0400000F014FA012000F092
:101CF00033FB30BB164800F01DFBC8B9F8BD264BBE
:101D000004221A60B3E712484FF0FF31012700F0B8
:101D1000F7FA00283FF450AF204800F073FA002093
:101D200000F01AFB00283FF44DAF06E01C48F8BD58
:101D30001C4800F067FA0020F8BD1B4800F062FA6A
:101D400040E71A4800F05EFAD4E74FF4720070479B
:101D5000E44A00201CB9025010B9025020BC0250C5
:101D600004BA025018B8025000B90250C4B7025069
:101D7000C0B702505CB6025050B6025084B6025052
:101D800028BC02502CBC025058B602504CB602502F
:101D9000CCB70250D0B70250C8B70250B06D0000A7
:101DA0000100F200C86D0000906D0000706D000031
:101DB00000283CD02DE9F0431E4B9046826D9A429C
:101DC000A1B0064603D01C4821B0BDE8F083D0F88E
:101DD0005C90B8FBF9F707FB09F30C460422D90025
:101DE0004830FFF7A1F814F0030514D0C1450ED810
:101DF000F26D00252146684600F05EFA69463046DD
:101E0000FFF776F90135F26DAF421444F2D80020A5
:101E100021B0BDE8F083C145F9D821463046FFF72F
:101E200067F90135F36DAF421C44F6D8EFE74FF484
:101E300072007047785634120200F20030B5042266
:101E400085B00123C0F8D0200B6068460023CDE99F
:101E50000033CDE902330C4600F0F8FA0546C8B964
:101E6000DDE90030DDE90212E360003BC4E9040172
:101E700018BF0123A26108B143F0020309B143F086
:101E800004030AB143F00803002228466360A260FD
:101E900005B030BD014800F0B5F9E1E7E06D0000A4
:101EA00038B349B31AB338B512F00F051BD1046A21
:101EB00024F00404032C01D003B31D4613462A4624
:101EC000FFF7F0FC58B1A0F57100052818D80528D7
:101ED00016D8DFE800F005030A0303080A4838BDF6
:101EE0004FF4700038BD094838BD094838BD07486F
:101EF00070474FF47000704706487047064838BD79
:101F00004FF4750038BD00BF0200F0000A00F00079
:101F10000600F0000800F0000900F000F8B5079F87
:101F200048B30E460546002A35D0994239D8002FCD
:101F300041D02B6A23F00401032906991FD0002900
:101F400032D03968B14233D3300703D0012B1CD8CB
:101F5000EB6A23B311463346069A2846FEF7CEFDB8
:101F6000044660B3A0F57104052C37D8DFE804F00F
:101F70000310251010174FF470042046F8BDA9B1C6
:101F800039680F2914D93107E4D0032BE2D1DFE7F8
:101F9000144C2046F8BD0029C9D0134CEDE7134C72
:101FA000EBE7134C2046F8BD002ED3D0114CE4E7EC
:101FB000114C2046F8BD114CDFE7114CDDE72B6AD0
:101FC00023F00403032B01D03E60D6E70698294690
:101FD000102200F071F910233B60CEE74FF4750436
:101FE000CBE700BF0200F0000800F0000A00F0009C
:101FF0000C00F0000900F0000D00F0001100F000EE
:102000000600F00078B3032A70B50E461546044664
:1020100001D9052A1CD1012E18D8ABB9022D19D02F
:10202000052D17D04C21204600F04AF9052D88BF18
:102030004FF0FF3213D900200123C4E90826C4E978
:102040000B00C4E90D3370BD094870BD094870BD6F
:10205000094870BD56B94C21204600F031F9074BB4
:1020600053F82520E7E74FF470007047044870BD2F
:102070000E00F0000600F0000200F000D069000041
:102080001200F00070B108B5036A013B022B05D8BD
:1020900031B1102200F010F9002008BD034808BD3E
:1020A000034808BD4FF47000704700BF0200F00005
:1020B0000100F000C8B110B50C4682B18CB9082BF4
:1020C0000DD15368102B0ED1136843B101238362E5
:1020D000D2E90012103000F0EFF8204610BD04489D
:1020E00010BD044810BD044810BD4FF47000704787
:1020F0000400F0000500F0000300F000014B186040
:10210000704700BF08BA0250014B002018607047AA
:10211000C42A0020014B1860704700BF04BA025067
:102120000020704710B5044682B0C0B1124A134B6C
:10213000C14311601B680193019B18420AD1104AE8
:1021400020BFBFF35B8F1368BFF35B8F0193019BCD
:102150002342F5D00B4B1C60019802B010BD0A4819
:1021600000F050F8044A054B4FF0FF3111601B6836
:102170000193019BE3E700BF04BA025000BA02508A
:10218000C42A002008BA0250106E000008B5FFF7FC
:10219000C7FFBDE8084000F02DB900BF10B500F042
:1021A00045F8A0B9FFF7B0FF20B1032400F022F9F1
:1021B000204610BD00F0D0F8034680B90D4A1268E1
:1021C000120EF02A06D00524FFF7AAFFEEE704243A
:1021D000204610BD0849094A0968914201D00624E9
:1021E000F2E7074A0120136000F0B6F80446002821
:1021F000DED0E8E728B9025024BA02500000E020FF
:102200000CBA0250BFF34F8F0549064BCA6802F45F
:10221000E0621343CB60BFF34F8F00BFFDE700BF09
:1022200000ED00E00400FA05704700BF08B518484B
:1022300000F04AF898B9174800F046F8B8B91648BF
:1022400000F042F8D8B9154B124A15481A6000F050
:102250003BF8C0B9134B124A1A60002008BD12485F
:10226000FFF7D0FF0B4800F02FF80028E7D00F4809
:10227000FFF7C8FF084800F027F80028E3D00C4813
:10228000FFF7C0FFDFE70B48FFF7BCFFE2E700BF47
:10229000E44A0020D84A0020E04A0020D44A002026
:1022A000DC4A0020D04A0020406E00005C6E000036
:1022B000986E0000786E0000FEF742B8FEF76AB82C
:1022C0000A460021FEF766B810B5044610B100209A
:1022D000206010BD0248FFF795FF0020206010BD70
:1022E000B86E000010B5044610B10020206010BD8B
:1022F0000248FFF787FF0020206010BDB86E000085
:1023000010B5044680B10123BFF35B8F54E8002F62
:1023100044E800310029F9D1BFF35B8F012AF3D0E3
:10232000BFF35F8F002010BD0148FFF76BFFEAE7A6
:10233000DC6E000010B5044620B1BFF35F8F0020B3
:10234000206010BD0348FFF75DFFBFF35F8F0020E3
:10235000206010BDFC6E000038B54FF0FF31044620
:102360001E48FFF7CDFF08BB1D4A54B11368C3B127
:10237000012B1CD0013B1360BDE838401748FFF724
:10238000D9BF106858B9174C174B18490125C4F824
:1023900000554FF480645C600B68002BFCD1013069
:1023A0001060BDE838400D48FFF7C4BF38BD0F4985
:1023B0000B68002BFCD10B480B49C0F800354FF4DB
:1023C0008063C1F88430BFF34F8FBFF36F8F084B2A
:1023D0006FF07E4119601368CCE700BFE04A00202F
:1023E000C82A002000A0025000E100E010B902500D
:1023F00004BA025008B5FFF717FF0F48FFF772FF46
:1024000004210D48FFF75CFF0C48FFF76BFF0B48FA
:102410000421FFF755FF0A48FFF764FF40B9094858
:10242000FFF760FFBDE8084006480421FFF748BFFA
:102430000548FFF7E7FEF2E7E44A0020D84A00200B
:10244000E04A0020DC4A0020986E000000234FF490
:10245000FA714FF47A72C0E900228160C3601846B5
:10246000704700BF2DE9F04F864C80469E460F46D0
:1024700094460FCCB7B00DF11C0A55460FC594E831
:102480000F0004F1100685E80F000FCE0FAD0FC549
:1024900096E80F00303485E80F000FCC17AD0FC55C
:1024A0000FCC0FC594E80F00D8F8D040CDF80CE061
:1024B000042C85E80F0001D0082C6BD1409A231D15
:1024C000B2EB830F4FEA830B03D06F4837B0BDE800
:1024D000F08F07EB0C019CFA8CF30CF118060CF151
:1024E00009003B609BFA8BF5802326F00F06321A19
:1024F0007D6038440B720021FFF7E0FE409B1B0912
:10250000ABF1100B00F0BB80042C47D0DDF80C9031
:10251000CDF808B04B4617ADB1464FF0000823ACDC
:10252000BB461E4624E0029FCDF814A00697FFF795
:10253000C1FD03462946204610353BBBFFF7A2FDEF
:1025400084464FF0100E4B465A4649462046BCF191
:10255000000F1BD10DEB0E07CDE90067CDF810E0A1
:10256000FFF7DCFC103688B9409BB8EB131F58D23C
:102570000023194602222046FFF744FD014608F1D8
:102580000108082305AA20460029CCD03F4837B0CF
:10259000BDE8F08F3E4837B0BDE8F08FDDF80C9015
:1025A000CDF808B033460FAD4E464FF0000823ACCF
:1025B000BB46994626E0029FCDF814A00697FFF788
:1025C00079FD0346294620461035002BDED1FFF762
:1025D00059FD84464FF0100E4B465A464946204658
:1025E000BCF1000FD2D10DEB0E07CDE90067CDF89D
:1025F00010E0FFF793FC10360028C7D1409BB8EBE2
:10260000131F0ED20023194602222046FFF7FAFCC0
:10261000014608F10108082305AA20460029CAD06E
:10262000B4E7DDF808B0039D0023194601222046D7
:10263000CDE9055BFFF7E6FC01460028A6D108239B
:1026400005AA2046FFF736FD00289FD105EB0B01B8
:102650002046FFF717FD0146002897D1409A2846EB
:10266000FFF72CFE409B009540A901912A46204689
:102670001946FFF753FC00283FF428AF86E723AC48
:10268000D1E700BF9C680000230CF000360CF0007E
:10269000210CF0002DE9F0438FB0884607A91746BA
:1026A0000446FFF7CBFB054600284ED1D4F8D050A6
:1026B000042D01D0082D4ED1D4F8C4300C2B62D893
:1026C000B8F1000F45D02E1D760106AA04ABCDE966
:1026D0000032029707A905AB002220460596FFF7B6
:1026E00065F800283CD1069B0498D4F8C42023F058
:1026F0000303083304F18409184492004946FFF7A4
:10270000DBFDD4F8C400069A04992B1D9E0002EB51
:10271000800200964B4620460692FFF7A3FE054630
:1027200050B9B8F1010F33D003462246494620463E
:1027300000F050F8B0B105462046E421FFF7C0FD97
:1027400038464FF4BF51FFF7BBFD28460FB0BDE838
:10275000F0836E01B9E71B4D28460FB0BDE8F0834A
:10276000194DE9E7D4F8D430012243F00103C4F84D
:10277000D430C4F8CC2000234846C4F8C4304021EB
:10278000FFF79EFDDCE7114D28460FB0BDE8F08352
:1027900031462046FFF794FD2B4622464946204607
:1027A00000F018F80028C6D1D4F8D430084AC4F88C
:1027B000CC8023F4803343F00103C4F8D430C4F850
:1027C000DC20D8E7210CF000260CF000040CF0000F
:1027D000CDAB2301F0B5054699B01F4600230E4648
:1027E000144605A819460322D5F8D050FFF70AFC75
:1027F00038BB0146AD00082303AA05A8CDE903456F
:10280000FFF758FCE8B9611905A8FFF73BFCC0B910
:1028100037B923461022314605A8FFF741FB80B99E
:1028200005F1100302A9019100941946324605A84A
:102830000293FFF773FB044B002818BF184619B02A
:10284000F0BD014819B0F0BD360CF0002DE9F04F95
:1028500089B01D46149BDDF84CA004460E46174671
:102860004BB94FF08053D3F8002C013200F0A9800F
:10287000D3F800BC08E04FF08053D3F80C2C0132A1
:1028800000F0A280D3F80CBC7C480AF5C1622A6033
:10289000129A00234FF0FF311360FFF731FD00283B
:1028A00040F08680764A774B774910600432196091
:1028B00013680693069BD907FAD5714A714B00211C
:1028C00011601B680793043213680793079BDB07AB
:1028D000FAD56C4B6D4A1B680793DDF81C901368A2
:1028E0000793079BD807FAD56448FFF723FD002814
:1028F0005AD1654B994540F0B680D4F8D43013F4E2
:1029000000790ED1D90512D52B68129A1B68136075
:102910003BB1D4F8D4309B055BD5484609B0BDE83F
:10292000F08FDFF87C91484609B0BDE8F08F002FAA
:1029300000F08780564A574B1168B2681B689A426C
:1029400045D10A2943D194F8DB3005930AF5C26AD0
:10295000042500274FF0805804A8FEF789FF04984B
:10296000820602D510F01A0039D0D4F8D810059A92
:102970000B0A03F47F030B4323F07F43082AC4F8B8
:10298000D83077D0149B4FEA420CCDE90073002277
:1029900005AB31462046CDF814C000F0DBF8002826
:1029A0005FD1013DD8D1B4E73B48FFF72BFCA0E74E
:1029B0003A48DFF8F090FFF725FC484609B0BDE83B
:1029C000F08F4FF0900B5FE74FF4047B5CE7DFF88C
:1029D000D890FEF731FF484609B0BDE8F08F129B52
:1029E0005246C3F800B05946FEF786FE002838D19B
:1029F000D8F8043C129A013318BFD8F8043C116887
:102A000008BF51230293D8F8083C01332ED0D8F8E0
:102A1000083C03934B1EB3F5047F0FD2029A029138
:102A20005046FEF7CFFE48B90299039A4FF48063EF
:102A30005046FEF7F9FD00283FF46BAF129B1F6074
:102A400093E723F00F03C4F8D430149B0122CDE99F
:102A50000093314605AB204600F07CF800283FF497
:102A600075AF814655E7DFF83C9056E740F23733C3
:102A70000393CFE7DFF834904BE700BFE44A002030
:102A800004BF025000BF025012FA12FA08BF0250EF
:102A900038B1025030B10250346F00001C6F00009A
:102AA000330CF000350CF000300CF100320CF1006A
:102AB0002DE9F0410546D0E917301E1AB6FBF3F4B4
:102AC00003FB1464944228BF1446174688469CBBF7
:102AD000984224D0B7FBF3F403FB04F46CB1D5F8AF
:102AE000E8302246414628469847064610B93E1B24
:102AF000A0442EB93046BDE8F0813E46002EF9D004
:102B0000286E193005EB800032464146FFF7D4FBB2
:102B10002A6E32442A6600263046BDE8F0811A4605
:102B200005F16401D5F8E8302846984706460028A4
:102B3000E0D1EB6D2866CDE705F164031844224629
:102B4000FFF7BAFBD5E917302044A0443F1B2866A5
:102B5000BEE700BF002877D0F8B50C46002971D039
:102B60001D46002B6ED0064622B1012200232A60AA
:102B7000C0F8D8302B68002B62D029462046FEF7DB
:102B8000E7FD00285BD128682146FEF7F1FD00280B
:102B900055D1364B3649374A01271F609C460F6096
:102BA000CCF80070A368136011688B42F8D1324FE3
:102BB0003249334A334B4FF0000CC7F800C00427AA
:102BC0000F600A2111606FF03A021A60079B012B17
:102BD0004FF080533AD0D3F8002C013243D0D3F8D1
:102BE000002C294BA3FB02321209A368274C284969
:102BF000284F03FB02F303EB4303DB039B09236032
:102C0000254B2C680C601A60069A244C3A604FF4ED
:102C10008062226001224FF0FF3441F8C44C43F837
:102C20000C2CD6F8D8302A6823F07F4343EA02639D
:102C3000C6F8D8302A6843EA0223C6F8D830F8BD6F
:102C40001748F8BD1748F8BD16487047D3F80C2C44
:102C5000013206D0D3F80C2C0B4BA3FB0232FA4006
:102C6000C3E71622C1E70622BFE700BFC4B1025086
:102C700040B1025030B102502CB102500CB10250A0
:102C800038B1025000B10250ABAAAAAAD8B1025082
:102C9000CCB10250D0B10250D4B1025008BA0250A7
:102CA000310CF100350CF100064882B000210160C2
:102CB00000680090044800680449C0B2496802B046
:102CC0000847000000D1004008D5004080000020E7
:102CD00000F04AB970B50E46144900EB400001EB14
:102CE000C0051446E86A183520B101280FD0022823
:102CF00005D113E0284600F06BF9A04201D2002470
:102D000011E022463146284600F09AF90BE02846A9
:102D100000F05EF9A042F4D20446F2E731462846BC
:102D200000F061F90446204670BD00003C220020FE
:102D300030B54FF080520023D2E94C10082906D15B
:102D4000CC06C4F80C31C4F81031624C2360082959
:102D500055D1614B1B68614C23605F4B1B1D1B6889
:102D6000241D23605C4B08331B68241D23605A4BD1
:102D70000C331B68241D2360574B10331B68241D24
:102D80002360554B14331B68241D2360524B1833AA
:102D90001B68524C203423604F4B1C331B68241D8E
:102DA00023604D4B20331B68241D23604A4B243382
:102DB0001B68241D2360484B28331B68241D236097
:102DC000454B2C331B68241D2360434B30331B6859
:102DD000424C40342360404B34331B68241D236035
:102DE0003D4B38331B68241D23603B4B3C331B6831
:102DF000241D2360384B40331B68241D23600829A1
:102E000004D1030002D1374C354B2360082904D18B
:102E1000030002D1344CFB232360082908D10300AE
:102E200006D1324B92F858521C6865F303041C60BB
:102E3000082904D1030002D12D4C8B0123600829FD
:102E400006D12C480168C90702D06FF0010101606A
:102E50002948016841F470010160BFF34F8FBFF34F
:102E60006F8FD2E94C104FF01022082906D10328A9
:102E700004D9D2F80802174920310860D2F80002BC
:102E8000002803DBD2F8040200281FDA012002F038
:102E9000CDFC1221C2F8001218480368002BFCD0A8
:102EA000C2F8041201680029FCD0002002F0BEFC28
:102EB000BFF34F8F10487C380168114A01F4E0617C
:102EC00011430160BFF34F8F00BFFDE70E490D486E
:102ED000086030BD380500400404001020C50040E3
:102EE000488103008C56004018F50040E40E004075
:102EF000409602400004004088ED00E000E40140FC
:102F00000400FA050090D0030C01002010B5054C18
:102F1000206818B904A12B2000F022FA2068BDE82F
:102F200010400047780000202E2E5C2E2E5C2E2EA6
:102F30005C2E2E5C2E2E5C2E2E5C2E2E5C6D6F6415
:102F4000756C65735C6E7266785C647269766572C6
:102F5000735C7372635C7072735C6E7266785F70C0
:102F600072732E630000000010B5124C0220206125
:102F7000606111A0A06104F17800E0614FF400608D
:102F800020620020A06260620BA1A164E06204F6EE
:102F90007801E1641021A065C4E91410E06509A17D
:102FA000E01DFDF714FA08A12046FDF710FA2020D5
:102FB000A07110BD3C2200205465726D696E616C79
:102FC000000000005254540053454747455200004A
:102FD0000269C1688A4203D88068401A104400E040
:102FE000501A401E70472DE9F047C46817468946BD
:102FF00006464FF000083069A04201D9051B02E0E7
:10300000B168201A0D1AB0686D1E001BA84200D8C6
:103010000546BD4200D33D4670682A4620444946D5
:10302000FDF78EF9B0687F1B2C44A844A944A04248
:1030300000D10024F460002FDDD14046BDE8F087C8
:103040002DE9F04104468846D4E90207C51BE16832
:10305000606816460844B54206D94146FDF770F946
:10306000B819E060BDE8F0812A464146FDF768F9ED
:10307000761B08EB050132466068FDF761F9E660F2
:10308000F0E702E008C8121F08C1002AFAD1704711
:103090007047002001E001C1121F002AFBD17047D8
:1030A000FEB514460E46074672B601F0D7FE00BFC5
:1030B00001F014FD0028FBD11D4A1E496FF4804029
:1030C0003B18A2EB01014FF001004FEAD10100EBE8
:1030D000014519D0012B284610D0324616A101F027
:1030E0001BFE1B480068C00700D000BE224603B08C
:1030F00031463846BDE8F04000F058B8D4E9003217
:1031000014A101F010FEECE7A06802F009F80346F4
:10311000D4E90001CDE900100296284614A1A26866
:1031200001F009FE28461CA101F0F2FDD9E70000DC
:10313000C46F0000946F0000554E4B4E4F574E2009
:103140004641554C54206174203078253038580061
:10315000F0ED00E0415353455254494F4E20464153
:10316000494C45442061742025733A2575000000C0
:103170004552524F52202575205B25735D206174A6
:103180002025733A25750D0A50432061743A20308A
:103190007825303878000000456E64206F66206521
:1031A00072726F72207265706F72740008B50123BD
:1031B0008DF800309DF80030144B186059609A600B
:1031C0006FF48041401807D001280FD1DA60D86829
:1031D00000689861D86807E01A61186980685861CA
:1031E00018690068986118694068D861186858685B
:1031F0009868D868186958699869D86972B600BF24
:103200009DF800000028FBD162B608BD241C0020F8
:1032100010B502F081FB012803D004491D2000F005
:103220009FF8BDE8104000F013B80000FC620000F9
:1032300010B502F071FB012803D004492B2000F0E7
:103240008FF8BDE8104000F00BB80000FC620000F1
:1032500072B602480168491C01607047880000206E
:1032600003490868401E086000D162B6704700003C
:103270008800002070B5054608680C46411C04D043
:1032800001F010FB206801F075FA6068411C02D063
:10329000002101F05DFA2968A069C1F82405607D6C
:1032A000227D29681043C1F86C05D4E90012286812
:1032B000C0F81425C0F80C15207D012814D1A06891
:1032C000411C02D0002101F043FAE068411C04D007
:1032D00001F0E8FAE06801F04DFAD4E9021228683A
:1032E000C0F80825C0F8101570BD70B5054608680F
:1032F0000C46411C04D001F0DFFA206801F044FACA
:103300006068411C02D0002101F02BFA2968A069F5
:10331000C1F82405607D217D2A680843C2F86C0548
:10332000D4E900122868C0F80C15C0F81425207DD7
:10333000012814D1A068411C02D0002101F011FA2B
:10334000E068411C04D001F0B7FAE06801F01CFA13
:10335000D4E902122868C0F80825C0F8101570BD1D
:103360001CB56A46CDE90001002144F20200FFF7D6
:1033700097FE1CBD2DE9F0470546861C91460F4679
:103380004FF0010A0020FFF743FF1B4C04F21C48DA
:1033900060683860D4E90101184F401A3968081A8A
:1033A0000EE00121404600F08DFC00F019FB0146C3
:1033B000404600F087FCD4E90101401A3968081A38
:1033C000401C8642EDD8B9F1000F03D0052065F30B
:1033D000891002E0062065F39F5061683A68114049
:1033E00004EB8101C8606068304460600020FFF732
:1033F0001FFF5046BDE8F0871C1E0020B8000020CB
:1034000070B50D4604460A2902D10D21FFF7F8FFD9
:10341000A0682268411CA1601554D4E901018142D1
:1034200004D32046BDE8704000F0F6BF70BD000038
:10343000044881684068814201D101207047002022
:10344000704700001C1E002070B504460020154681
:103450000E46106000F0B6F890B1314604F1080055
:10346000FDF7A2F9064600F0C9F8304602F06EFA00
:103470000146002E03D16068C0682860084670BD10
:1034800048F2045070BD00002DE9F0410446406848
:1034900015460E46007D78B101280FD01648174911
:1034A000401AC008012101EB004015A101F030FCD9
:1034B00048F20350BDE8F081022700E004270846E7
:1034C00001F054FE88B100F07DF888B1ABB232460D
:1034D000394604F10800FDF7B5F9044600F08EF80E
:1034E0002046BDE8F04102F031BA48F21250E1E75F
:1034F00048F20450DEE70000C46F0000946F000043
:103500004861736820616C676F726974686D206EC2
:103510006F7420737570706F7274656420627920A7
:103520004343333130206261636B656E6420777290
:1035300061707065720000002DE9F0470D46064687
:103540001446284601F012FE60B100F03BF868B165
:103550004FF480384FF6FF7906F1080A444508D346
:103560004E4607E048F21250BDE8F08748F204509A
:10357000FAE72646324629465046FDF7DBF90700B2
:10358000A4EB0604354401D1002CE7D100F036F855
:103590003846BDE8F04702F0D9B90000084810B538
:1035A00000210160BFF35F8FFEF7F8FD01004FF0CF
:1035B000030004D1BDE81040084600F031BE10BD44
:1035C0006000002010B50548012100F086FBBFF324
:1035D0005F8F08B1002010BD012010BD60000020E9
:1035E00010B50548012100F078FBBFF35F8F08B1EB
:1035F000002010BD012010BD6000002010B5064C59
:103600002068012803D005A16D20FFF7A9FEBFF3B4
:103610005F8F0020206010BD600000202E2E5C2EE9
:103620002E5C2E2E5C2E2E5C2E2E5C2E2E5C2E2ED4
:103630005C636F6D706F6E656E74735C6C696272E3
:1036400061726965735C6D757465785C6E72665FD6
:103650006D74782E6800000010B5064C20680128B3
:1036600003D005A16D20FFF77BFEBFF35F8F002025
:10367000206010BD600000202E2E5C2E2E5C2E2EB1
:103680005C2E2E5C2E2E5C2E2E5C2E2E5C636F6DBF
:10369000706F6E656E74735C6C696272617269657D
:1036A000735C6D757465785C6E72665F6D74782E90
:1036B0006800000010B50021084600F0B1FD0028A8
:1036C00002D1FEF763FD002010BD000010B50021FF
:1036D000024800F002FB80F3100010BD38220020E9
:1036E0002DE9FF4FCD6883B05819401EB0FBF5F7A8
:1036F000DDF840B099468A464FF00008FF2F04D904
:1037000048F2145007B0BDE8F08F002634463BE085
:10371000601C8DF80000DDE913235146039800F08A
:10372000EBFC0028EED134B12A461299039800F040
:103730000BFD0028E6D1BBF1000006D00146119A2E
:10374000039800F001FD0028DCD1012269460398AE
:1037500000F0FAFC0028D5D101AA0195129903982E
:1037600000F0AFFCB0F10008CCD19DF80000B842E9
:1037700001D02A4601E0A9EB0602059812993044CF
:10378000FCF7DEFD2E44641CBC42C1D34046B9E7C1
:103790002DE9FC5F0E008346DDE90C47C6F1000011
:1037A00098469246814600D40846012503E000BFB2
:1037B00090FBFAF06D1C5045FADAA84500D9454651
:1037C00024B1002E01DB780700D5641EB80702D5AE
:1037D000B8F1000F0AD0F80708D13CB1A54205D2D4
:1037E00020215846641EFFF70BFEF6E7002E02DA92
:1037F0004E462D2102E0780703D52B215846FFF7CE
:10380000FFFD07F0030002280BD1B8F1000F08D12B
:103810003CB1A54205D230215846641EFFF7F0FDA9
:10382000F6E7CDE90047434652463146584602F096
:10383000BFFBBDE8FC9F000070B50E460546006862
:103840004FF48E7101F07BFC4FF4A271286801F0F7
:1038500076FC28681549C0F804132868082E40F340
:10386000073403D312A14520FFF77AFD7007000E3D
:10387000002C04DB04F1E02484F8000405E004F0EB
:103880000F0101F1E02181F8140D286840F30730A1
:10389000002809DB00F01F0201219140400980004F
:1038A00000F1E020C0F8001170BD000080000200AF
:1038B0002E2E5C2E2E5C2E2E5C2E2E5C2E2E5C2E42
:1038C0002E5C2E2E5C696E746567726174696F6E12
:1038D0005C6E7266785C6E7266785F676C75652E7A
:1038E0006800000070B50E46044600684FF4887109
:1038F00001F036FC4FF49071206801F031FC4FF478
:103900009271206801F02CFC4FF4A271206801F044
:1039100027FC4FF4AC71206801F022FC20681549A7
:10392000C0F804132068082E40F3073503D312A112
:103930004520FFF715FD7007000E002D04DB05F193
:10394000E02585F8000405E005F00F0101F1E02114
:1039500081F8140D206840F30730002809DB00F0DF
:103960001F02012191404009800000F1E020C0F8D1
:10397000001170BD100342002E2E5C2E2E5C2E2EE8
:103980005C2E2E5C2E2E5C2E2E5C2E2E5C696E74B0
:103990006567726174696F6E5C6E7266785C6E7278
:1039A00066785F676C75652E68000000024600202F
:1039B0001268530713D502F00300012802D0022831
:1039C0000CD105E0C2F383100B68801C184404E09E
:1039D0000223086803EB92521044086001207047EC
:1039E0002DE9FF410026274800F069F92548001F0E
:1039F000074600F064F9244C2449A06800900D6843
:103A000000E000986946284004EB80000C30FFF786
:103A1000CDFF0028F5D101AA009901EA050304EBC6
:103A20008303491CDB6842F82030401C00910228C7
:103A3000F2D3019800F0030001281AD002280ED01A
:103A400013494FF4AF70FFF78BFC384600F034F9A0
:103A500008B10098A06004B03046BDE8F08101983C
:103A6000032101EB90500099BDF80A6001EB900032
:103A700005E00198BDF80A60C0F383100844009087
:103A8000E3E70000342200201C1E0020B8000020C4
:103A90009C67000088B02A2000210790084601F0AA
:103AA000B1F918B121A23A21FCF7B4FB00F0EEFF06
:103AB00000F062FB18B11DA24721FCF7ABFB1F48C9
:103AC0001F49401AC508032000EB054004461DA10C
:103AD00001F01EF90DF10C0C00230A221F490D20E4
:103AE0008CE80F00A1F10D021621A2F116008DE85D
:103AF00007001B4A07AB1B4902F12C0000F008FA33
:103B000018B10AA25621FCF785FB14492A220A3172
:103B10001348FCF74FFC30B1012000EB054012A127
:103B200001F0F6F8FEE7204615A1F9E72E2E5C2EEF
:103B30002E5C2E2E5C6D61696E2E6300C46F0000DA
:103B4000946F0000484B4446206578616D706C6549
:103B500020737461727465642E00000023000020DD
:103B60001001002084600000484B444620657861C5
:103B70006D706C65206661696C65642121210000AF
:103B8000484B4446206578616D706C6520657865AA
:103B90006375746564207375636365737366756CB0
:103BA0006C792E002DE9F05F1E46DDF828B09146B5
:103BB0008A46040003D124A19020FFF7D1FBB4F87A
:103BC0000680607908FB00F8A8F10408464503D395
:103BD0001DA19E20FFF7C4FBE788301DB0FBF7F165
:103BE000B0FBF7F207FB1200D9F80050AA194245C2
:103BF00001D9A8EB0605C9F8005001E02468491E68
:103C00000029FBD13E1A8846AE4215D817E000BF06
:103C10002044001D0AEB0803BBF1000F324602D01E
:103C20000146184600E01946FCF78AFB002024688C
:103C3000AD1BB044AF4201D92E4600E03E46002DF8
:103C4000E6D1BDE8F09F00002E2E5C2E2E5C2E2EBD
:103C50005C2E2E5C2E2E5C2E2E5C2E2E5C636F6DE9
:103C6000706F6E656E74735C6C69627261726965A7
:103C7000735C6D656D6F626A5C6E72665F6D656DBB
:103C80006F626A2E6300000030B5024651B101F048
:103C9000CDF80021074C08E034F821301568AB421C
:103CA00002D11160002030BD491C8142F4D30520AF
:103CB00030BD000000000000002100F009B8012123
:103CC00000F010B808B56A46FCF7E5FA009808BDA0
:103CD00008B56A46FCF7C5FA08BD08B56A46FCF7A0
:103CE000A7FA08BD08B56A46FCF7AEFA009808BD09
:103CF00008B56A46FCF7DCFA009808BD70B5040008
:103D000003D113A1FE20FFF72BFB00252846FFF768
:103D10007FFA206862680168914214D9491E0160E7
:103D20000D781CB91AA1C220FFF71AFB208AE1689E
:103D300005FB00152068217A0278891A0279C9B238
:103D40008A4200D201710020FFF772FA284670BD46
:103D50002E2E5C2E2E5C2E2E5C2E2E5C2E2E5C2E9D
:103D60002E5C2E2E5C636F6D706F6E656E74735C6F
:103D70006C69627261726965735C62616C6C6F63BD
:103D80005C6E72665F62616C6C6F632E6300000034
:103D90002E2E5C2E2E5C2E2E5C2E2E5C2E2E5C2E5D
:103DA0002E5C2E2E5C636F6D706F6E656E74735C2F
:103DB0006C69627261726965735C62616C6C6F637D
:103DC0005C6E72665F62616C6C6F632E63000000F4
:103DD00070B50C46050004D110A140F22110FFF788
:103DE000BFFA24B90DA14FF49170FFF7B9FA002082
:103DF000FFF70EFA1DB91949CF20FFF7B1FAE868AD
:103E00002A68211A288AB1FBF0F11068431C13605C
:103E10000170BDE870400020FFF70ABA2E2E5C2E1C
:103E20002E5C2E2E5C2E2E5C2E2E5C2E2E5C2E2ECC
:103E30005C636F6D706F6E656E74735C6C696272DB
:103E400061726965735C62616C6C6F635C6E7266F3
:103E50005F62616C6C6F632E63000000903D000038
:103E600010B5040002D0206830B901E00E2010BD6A
:103E700017A1D920FFF774FA606818B914A1DA20E5
:103E8000FFF76EFAA06818B911A1DB20FFF768FAF6
:103E9000E06818B90EA1DC20FFF762FA208A18B991
:103EA0000BA1DD20FFF75CFA207A61682268401AD6
:103EB000C0B2116004E0226811684B1C13600870E6
:103EC000401EC0B2F7D221680020087110BD00006A
:103ED0002E2E5C2E2E5C2E2E5C2E2E5C2E2E5C2E1C
:103EE0002E5C2E2E5C636F6D706F6E656E74735CEE
:103EF0006C69627261726965735C62616C6C6F633C
:103F00005C6E72665F62616C6C6F632E63000000B2
:103F10002DE9FF4FA9B06C460F0004F1E001D4E990
:103F20003B8C91E82202D4E936BA4FF04000C4F845
:103F300098001A68A5461E4648F21050C4F894200E
:103F400030D0D4F8AC3053B37AB35FEA0B02A54655
:103F500028D05FEA0A0248F21150A54622D011B1DA
:103F6000002DA5461ED05FEA090203D05FEA0802D1
:103F7000A54617D000203060D4F8A400D0B1C4F812
:103F80009C0000BFBCF1000F23D086B004F11402E6
:103F9000CDF80090CDE90182CDE903BA46E048F2C0
:103FA0001350A5462DB0BDE8F08FFFE748F214503E
:103FB000A546F7E73869C01D20F00700ADEB000DFE
:103FC000684610B1C4F89CD0DCE748F21550A5460D
:103FD000E8E769B9FD68402D03D91E498520FFF740
:103FE000BFF9294604F11400FCF7D2F904F11401D9
:103FF00084B004F19803CDF80CA08DE8220804F1F8
:1040000054023946D4F8A40000F026F804B008B1F0
:10401000A546C7E786B0D4F8982004F1540304F10C
:104020001400CDE90203CDE9009804923946D4F892
:104030009430D4F8AC20D4F89C00FFF751FB06B0C4
:1040400008B1A546AEE7D4F8940030600020A5463C
:10405000A8E70000B86200002DE9F0476C4617465B
:1040600004F120021E4692E80C02D4F82C80B9B16B
:10407000D0B10546284600F03FF810B1A546BDE88E
:10408000F08742464946284600F05EF808B1A5464A
:10409000F5E732463946284600F013F8A546EEE724
:1040A00048F21050A546EAE70869C01D20F0070055
:1040B000ADEB000D6D46002DDCD148F21550A54644
:1040C000DDE770B515460E46044601F0CBFF00282B
:1040D00007D13EB160682968C268914205D248F2B2
:1040E000145070BD48F2135070BD83682A463146A3
:1040F0002046BDE8704018472DE9F0411E4617469E
:104100000D46044600F058F898B1ACB148F2105092
:10411000002D0CD0002F0AD08EB165602B68204690
:10412000324639469847002801D106492160BDE84A
:10413000F0814FF40540FAE748F20150F7E748F202
:104140001150F4E711BADEBA70B515460E460446B2
:1041500001F088FF00280BD146B155B160682A46AE
:10416000314643682046BDE87040184748F2105079
:1041700070BD48F2115070BD2DE9F0410B480C4D57
:104180000C4F401BC60801203870002406E000BF19
:1041900055F834008047002805D1641CB442F7D399
:1041A000022038700020BDE8F0810000746F00002C
:1041B0006C6F00005700002003480078022801D0EF
:1041C0000020704701207047570000200548017803
:1041D000022904D00078012801D000207047012076
:1041E000704700005700002070B50D460446006877
:1041F0000A49884201D1002070BDFFF7F1F950B1A2
:104200002946201DFCF716FC01F0DCFB0446FFF7F5
:1042100023FA204670BD48F2045070BD6169614DBB
:104220002DE9F0416C460D46074600F053FF70B192
:104230001B481C49401AC008012101EB00401AA18B
:1042400000F066FDA54648F21950BDE8F081FFF781
:10425000BDFF48B11B4A1C4E106848B15068B042BF
:1042600006D10020A546F0E74FF40540A546ECE74F
:1042700048F21750002FA546E7D1002DA546E4D1FE
:104280001248154600F1E8011060FFF7ADFF002865
:10429000A546DAD16E602A680D491160A546D4E7BB
:1042A000C46F0000946F0000537461636B206F76DD
:1042B0006572666C6F772064657465637465642EDF
:1042C00000000000580000206572E54BBC02002091
:1042D0006169614D2DE9F041054604781C4888B0BC
:1042E0000F4640F824200869194916460831012C68
:1042F00041F8240005D1787F18B916A15020FFF7A6
:104300002FF8DFF84C80797FA8F10408202208F804
:10431000041039466846FCF713F80494297818F815
:10432000010050B10EB11A4A00E000226946281D72
:1043300001F0FEF808B0BDE8F0810EB1154A00E0CA
:104340000022694605F10C0000F098FFF2E700003A
:10435000680000202E2E5C2E2E5C2E2E5C2E2E5CF5
:104360002E2E5C2E2E5C2E2E5C696E74656772613B
:1043700074696F6E5C6E7266785C6C656761637998
:104380005C6E72665F6472765F756172742E630034
:104390006D5E0000AD5C00000FB438B5040003D1C1
:1043A00010A11C20FEF7DCFF606918B90DA11D20CB
:1043B000FEF7D6FF206818B90AA11E20FEF7D0FF2D
:1043C000606818B907A11F20FEF7CAFF05990029E8
:1043D00005D006A800906A46204600F049F838BC8F
:1043E0005DF814FB2E2E5C2E2E5C2E2E5C2E2E5C89
:1043F0002E2E5C2E2E5C2E2E5C65787465726E619E
:104400006C5C667072696E74665C6E72665F667014
:1044100072696E74662E630010B5040003D107A1A3
:104420000B20FEF79DFFA268002A05D0D4E9040303
:10443000216898470020A06010BD00002E2E5C2E41
:104440002E5C2E2E5C2E2E5C2E2E5C2E2E5C2E2EA6
:104450005C65787465726E616C5C667072696E74AE
:10446000665C6E72665F667072696E74662E63005B
:104470002DE9FC4791460C465FEA000804D183A170
:1044800040F25220FEF76CFFD8F8140020B97FA14B
:104490004FF41570FEF764FFD8F8000020B97BA137
:1044A00040F25520FEF75CFFD8F8040020B977A150
:1044B00040F25620FEF754FF002C76D014F8011B72
:1044C00039B125290ED04046FEF79AFF2078002802
:1044D000F4D198F80C00002867D04046BDE8FC47AE
:1044E000FFF79ABF0020012221782B291BD02D290C
:1044F00002D0302908D102E040F0010001E040F094
:104500000200641C002AEFD100252A290ED0217850
:10451000A1F130020A2A11D205EB850201EB420516
:10452000641C303DF1E740F00400EAE7D9F80010E0
:104530000B1DC9F800300968641C0D442178002364
:104540002E290BD114F8011FA1F130020A2A05D23D
:1045500003EB830201EB4203303BF3E76C290DD000
:1045600068290BD0692921D00BDC252918D05829BE
:1045700031D063290ED0642915D117E014F8011F3A
:10458000ECE7702969D0732932D075291BD07829BE
:1045900009D120E0D9F80000011DC9F80010017808
:1045A0004046FEF72DFF641C90E76CE0D9F8001040
:1045B0000A1DC9F800200968CDE900500A224046CA
:1045C000FFF7E6F8EFE7D9F800100A1DC9F8002058
:1045D00009680A2206E0D9F800100A1DC9F800206F
:1045E00009681022CDE90050404601F0E1FCDAE70D
:1045F000D9F8001000270A1DC9F800200E68C0076E
:1046000005D112E04046761C7F1CFEF7F9FE31789A
:104610000029F7D104E0202140466D1EFEF7F0FE90
:10462000BD42C0D9002DF6D1BDE74EB13046FBF7F3
:10463000BAFE074604E0202140466D1EFEF7E0FE6C
:10464000BD4206D9002DF6D103E04046761CFEF7A8
:10465000D7FE31780029F8D1A5E7D9F80000011D6F
:10466000C9F80010056830214046FEF7C9FE7821E0
:104670004046FEF7C5FE08200021CDE900010346B3
:1046800010222946B0E7BDE8FC8700002E2E5C2EE4
:104690002E5C2E2E5C2E2E5C2E2E5C2E2E5C2E2E54
:1046A0005C65787465726E616C5C667072696E745C
:1046B000665C6E72665F667072696E74665F666F66
:1046C000726D61742E6300002DE9FF411C46DDE927
:1046D0000A7815460E46684600F060F846EA45013D
:1046E00041EA840141EA072242EA0841009A00EBCC
:1046F0008200C0F80017BDE8FF812DE9FF411C468C
:10470000DDE90A7815460E46684600F089F846EA63
:10471000450141EA840141EA072242EA0841009A40
:1047200000EB8200C0F80017BDE8FF811CB5002136
:1047300000910B4601220191FFF7C6FF1CBD1CB57D
:10474000002100910B4601220191FFF7D6FF1CBD0D
:104750001CB500220B46009211460192FFF7B4FFF0
:104760001CBD1CB500220B46009211460192FFF7BA
:10477000C4FF1CBD1CB5002100910B460122019114
:104780001146FFF7A1FF1CBD1CB5002100910B468F
:10479000012201911146FFF7B0FF1CBD10B5016861
:1047A00004464A094FF0000002D0012A05D102E078
:1047B0004FF0FF3001E04FF6FF7001F01F020121C2
:1047C0009140014204D108A14FF4E370FEF7C8FD07
:1047D0002068202802D24FF0A04010BD00F01F003A
:1047E00020600E4810BD00002E2E5C2E2E5C2E2E5A
:1047F0005C2E2E5C2E2E5C2E2E5C2E2E5C6D6F643D
:10480000756C65735C6E7266785C68616C2F6E7235
:10481000665F6770696F2E6800000000000300503B
:1048200010B5016804464A094FF0000002D0012A81
:1048300005D102E04FF0FF3001E04FF6FF7001F0CC
:104840001F0201219140014204D108A14FF4E370FD
:10485000FEF786FD2068202802D24FF0A04010BD50
:1048600000F01F0020600E4810BD00002E2E5C2EB0
:104870002E5C2E2E5C2E2E5C2E2E5C2E2E5C2E2E72
:104880005C6D6F64756C65735C6E7266785C686194
:104890006C2F6E72665F6770696F2E680000000093
:1048A0000003005001B56846FFF778FF009A012128
:1048B0009140C0F8081508BD01B56846FFF7B0FF84
:1048C000009A01219140C0F8081508BD30B5154A7D
:1048D00001460020D2F8104423460AE0DB681D7927
:1048E000854205D1401C0A28F6DB4FF0FF3030BD71
:1048F0001B68002BF2D1431CF9D0CB681871D2F899
:10490000103443B1DB68CC681B682360D2F81024F4
:10491000D268116030BDC2F81014C96800220A6064
:1049200030BD00001C1E00207047FEF7D1B9704753
:1049300008B5034A00924023024A00F005F808BD7A
:10494000155B0000441C0020F0B595B01C461546D0
:104950000F4608461A9E00F039FB182109A8FBF7FC
:1049600017FD0E96CDE909540023082203A9384605
:1049700000F042FB05980690BDF81000ADF81C0051
:10498000BDF81200ADF81E0000208DF8210003983C
:10499000082600F00300012802D0022818D032E0D7
:1049A00003983346850AC0F3C2008DF820000398AF
:1049B0000FA9C0F38314A200384600F01DFB09A81C
:1049C000009006AB22460FA9284600F05BFA1AE0D9
:1049D0000398840DC0F3C2008DF82000082C01D28A
:1049E000254600E0082533462A460FA9384600F040
:1049F00003FB2E44641B09AB06AA29460FA800F04E
:104A0000A9F9002CEAD1384600F0E6FA15B0F0BD5D
:104A10007047002001F068B9084810B50178084ACD
:104A2000515C19B1001D00F07DFE02E00C3000F079
:104A300017FDBDE81040002001F056B99400002099
:104A40006400002008B5034A00924023024AFFF7A1
:104A50007BFF08BD655B0000841C00200A4A012919
:104A600002EBC00007D0022907D0032907D0042990
:104A700007D000207047022070470420704700795B
:104A80007047407970470000946F000010B5FFF741
:104A90004CFF04210F48FFF719FF002803DA0E49E5
:104AA0001B20FEF75DFC0B480124C0684471FFF732
:104AB000B0FF084804211030FFF708FF002803DA90
:104AC00005492220FEF74CFC02481030C0684471B2
:104AD00010BD0000746F00004C6700002DE9F04726
:104AE0008CB0FEF7A5FC18B100200CB0BDE8F08733
:104AF0007D4C0020C4F81804BFF34F8F7B49A06899
:104B000002900D684FF00008284004EB80000BE095
:104B1000D4F8180470B961680298814201D8A16084
:104B2000E2E7284004EB80000C3002A9FEF73EFFCC
:104B30000028EDD1002003AA029901EA050304EB45
:104B40008303491CDB6842F82030401C0291022894
:104B5000F2D3039800F00300022802D001284DD0C0
:104B6000A7E003985022810D8946B2EB905F00D8F0
:104B700050210E4666F39F50039008315C4800F0C8
:104B8000DCF9070078D000F021FA4346082203A997
:104B9000384600F061FA029908F1080A2940681ABB
:104BA0008000001D864222D94F4D0C3530B1C2B273
:104BB00004EB8101301A90460C3104E02946F2B230
:104BC000002590462846C6B25346384600F044FABF
:104BD0000AEB080325B132462946384600F03CFA74
:104BE000029909F1030001EB900002903BE004EB15
:104BF00081015346324638460C31EFE70398C0F343
:104C00008310062800D30620039960F38911C1F3AD
:104C10008310801C03918100354800F08EF9070055
:104C200047D000F0D3F94346082203A9384600F0E4
:104C300013FA08F1080800260FE00298434600EA3C
:104C40000501401C04EB81010290042238460C311E
:104C500000F002FA08F10408761C0398C0F38310F0
:104C6000B042EAD847B1D4F81054D4F8180478B157
:104C7000384600F0B1F931E01BE0E86840790128DE
:104C800004D12A682846394612689047E8680568C2
:104C9000002DF2D1384600F09FF90020FEF7B8FA57
:104CA000D4F8180408B90298A0600020FEF7C0FAF2
:104CB00014E0D4F8104405E021682046896888474C
:104CC000E0680468002CF7D10A480B49401AC00874
:104CD000022101EB004009A100F01AF8FEF7A8FB41
:104CE00080F0010001E700001C1E0020B800002039
:104CF000CC6F0000C46F0000946F00004261636BD2
:104D0000656E647320666C757368656400000000EE
:104D100000231A4600F04ABF08B5012300926A46F4
:104D200000F044FF08BD1CB5CDE9002302236A460C
:104D300000F03CFF1CBD70B586B00DF1280C9CE85E
:104D400070008DE87C0005236A4600F02FFF06B056
:104D500070BD00002DE9F0470E4680461C46924685
:104D6000082940D894F80C9000202073194610466A
:104D700000F086FD0025B54206D218F805201BA1DB
:104D80002046FFF709FB03E01AA12046FFF704FBCA
:104D90006D1C082DEFD318A12046FFF7FDFA002562
:104DA000B54212D218F805707E2F08D8FBF7C4FA66
:104DB0000068C05D10F03E0F01D03A4600E02E22A0
:104DC0000EA12046FFF7E8FA03E00DA12046FFF709
:104DD000E3FA6D1C082DE3D301222146504600F072
:104DE00031FD84F80C90BDE8F087000020253032BA
:104DF00078000000202020007C00000025630000D7
:104E000020000000064910B501200870054800F098
:104E1000E1F8002803D1044800F04EF9002010BD4D
:104E20001C1E0020CC6F00002462000002480349D1
:104E3000401AC00870470000CC6F0000946F00005B
:104E400013B56846FEF720FF08B100201CBD0248DC
:104E5000009950F831001CBD946F000070B50848EF
:104E60000125D0F81044057007E0E068457121681D
:104E7000204649688847E0680468002CF5D170BD79
:104E80001C1E00202DE9FF4781460C9D00200C468A
:104E90002F7B2873984616462946184600F0F0FCEA
:104EA000072E42D2DFE806F004090F161F2A36004B
:104EB00049462846FFF770FA37E0494628462268F7
:104EC000FFF76AFA31E0D4E9002349462846FFF7A4
:104ED00063FA2AE0A0680090D4E9002349462846F6
:104EE000FFF75AFA21E0D4E90201CDE90001D4E943
:104EF000002349462846FFF74FFA16E004F1080060
:104F000007C88DE80700D4E9002349462846FFF783
:104F100043FA0AE004F108000FC88DE80F00D4E955
:104F2000002349462846FFF737FA00222946404623
:104F300000F088FC2F73BDE8FF872DE9F041058A5A
:104F400080462D1F4819C01CB0FBF5F0C6B2404684
:104F5000FEF7D4FE041E19D00020207101206071DC
:104F6000E58000272546761EC4F800800BE0404609
:104F7000FEF7C4FE60B16179491C61712860054685
:104F80007F1CC0F80080B742F1D32046BDE8F08115
:104F9000204600F002F80020F8E72DE9F0414579BD
:104FA00001466B1E002201E00968521C9A42FBD3A5
:104FB0000F680146002605E038460C68FEF708FF3A
:104FC0002146761CAE42F7D3BDE8F0810121001DD9
:104FD000FEF778BEFEF744BF10B504460121001D60
:104FE000FEF786FE10F0FF0F04D12046BDE810400A
:104FF000FFF7D3BF10BD00001CB514460122CDE958
:10500000002401AAFEF7CEFD0198A04203D002A120
:10501000DA20FEF7A5F91CBD2E2E5C2E2E5C2E2E5E
:105020005C2E2E5C2E2E5C2E2E5C2E2E5C636F6D05
:10503000706F6E656E74735C6C69627261726965C3
:10504000735C6D656D6F626A5C6E72665F6D656DD7
:105050006F626A2E630000001CB514460022CDE981
:10506000002401AAFEF79EFD0198A04203D002A1F0
:10507000D020FEF775F91CBD2E2E5C2E2E5C2E2E38
:105080005C2E2E5C2E2E5C2E2E5C2E2E5C636F6DA5
:10509000706F6E656E74735C6C6962726172696563
:1050A000735C6D656D6F626A5C6E72665F6D656D77
:1050B0006F626A2E6300000082680021916082683E
:1050C0001161826851618268D16082685160806834
:1050D0000160704703496846884201D20120704749
:1050E00000207047D02A00200C4A10B502F58C73BE
:1050F0000EE0991AC91001EBD171491002EBC10100
:105100000C68844201D90B4602E005D201F1080285
:105110009A42EED3002010BD486810BDC860000060
:1051200000B5FFF7E1FF002800D1014800BD0000F5
:10513000B46000004058002800D00120704708B536
:10514000002242504058009008BDD0F804030840A7
:1051500000D0012070474058002800D0012070473F
:1051600008B5002242504058009008BD0121B1EB23
:10517000507F01D101207047002070470121B1EB21
:10518000507F01D1012070470020704770B50D4657
:10519000040003D10DA15120FEF7E2F8204600F0F3
:1051A000C9FB04000FD00020FEF732F8207920B1AF
:1051B0000020FEF73DF8112070BD01202560207110
:1051C0000020FEF735F8002070BD00002E2E5C2E6A
:1051D0002E5C2E2E5C2E2E5C2E2E5C2E2E5C2E2E09
:1051E0005C6D6F64756C65735C6E7266785C64721E
:1051F00069766572735C7372635C7072735C6E72F5
:1052000066785F7072732E630000000010B50400B2
:1052100003D106A17520FEF7A3F8204600F08AFB13
:10522000002802D000210160017110BD2E2E5C2EDD
:105230002E5C2E2E5C2E2E5C2E2E5C2E2E5C2E2EA8
:105240005C6D6F64756C65735C6E7266785C6472BD
:1052500069766572735C7372635C7072735C6E7294
:1052600066785F7072732E63000000000149024887
:1052700000F066BDD41B0020002000402DE9F04165
:1052800017460D00064603D11AA18420FEF768F8E0
:105290003079274A00EB400101EBC00102EB8104A9
:1052A00094F82A1011B10820BDE8F081214951F885
:1052B00020103068FFF76AFF08B11120F4E7294693
:1052C0003046FDF7D7FF6760286920601FB1297F4E
:1052D0003046FEF7B1FA30680421C0F8001500200E
:1052E000A061E06184F8290044F8140F0121A17540
:1052F000DAE700002E2E5C2E2E5C2E2E5C2E2E5C0D
:105300002E2E5C2E2E5C2E2E5C6D6F64756C65737C
:105310005C6E7266785C647269766572735C7372D7
:10532000635C6E7266785F756172742E6300000054
:10533000D41B00209C6000002DE9F05F0546007939
:105340000F4600EB400101EBC0002D49164601EB72
:10535000800494F82A00012803D02AA1F220FDF746
:10536000FFFF1FB927A1F320FDF7FAFF1EB925A102
:10537000F420FDF7F5FF284600F062F810B1112087
:10538000BDE8F09F66614FF00009C4F82090A76067
:1053900084F828904FF48E784E4641462868FFF7EF
:1053A000CEFE28684FF0010AC0F808A02146286800
:1053B00000F052FC606800BBD5F800B067690EE0F1
:1053C00094F8280008B10F2615E041465846FFF72B
:1053D000B1FE0028F4D02146584600F03DFC206A7A
:1053E000B842F2D3574641462868FFF7A3FE00288B
:1053F000F9D02868C760C4F814903046C0E70000B0
:10540000D41B00202E2E5C2E2E5C2E2E5C2E2E5CAD
:105410002E2E5C2E2E5C2E2E5C6D6F64756C65736B
:105420005C6E7266785C647269766572735C7372C6
:10543000635C6E7266785F756172742E6300000043
:10544000007900EB400101EBC000044901EB800052
:105450004069002800D0012070470000D41B0020C4
:105460002DE9F047044600794FF0000900EB4001B8
:1054700001EBC000284901EB80072068C0F80095C7
:105480007868B0B120682549C0F80813206840F357
:10549000073000280DDB00F01F0201219140400978
:1054A000800000F1E020C0F88011BFF34F8FBFF300
:1054B0006F8F2068D0F80C25D0F81485D0F80865D7
:1054C000D0F810554FF0FF31C0F81415C0F80C1586
:1054D0002068C0F80815C0F81015501C02D01046FE
:1054E000FFF724F9B8F1FF3F02D04046FFF71EF95D
:1054F000681C02D02846FFF719F9701C02D030460C
:10550000FFF714F92068FFF781FE87F82A90C7F8A3
:105510000490BDE8F0870000D41B00208402020044
:105520000149024800F0BABC001C002000200040E5
:105530002DE9F04117460D00064603D118A1A92018
:10554000FDF70EFF3079254A00EBC00102EB810424
:1055500094F8201011B10820BDE8F081204951F8DD
:1055600020103068FFF712FE08B11120F4E7294639
:105570003046FDF7BAFE6760286920601FB1297FB9
:105580003046FEF7AFF930680821C0F8001500205A
:10559000A061E0616061012184F82010DCE7000077
:1055A0002E2E5C2E2E5C2E2E5C2E2E5C2E2E5C2E35
:1055B0002E5C2E2E5C6D6F64756C65735C6E72660E
:1055C000785C647269766572735C7372635C6E7228
:1055D00066785F75617274652E630000001C0020A0
:1055E000A06000002DE9F04704460F4600793649D7
:1055F00000EBC00001EB8005164695F8200001285D
:1056000004D032A140F22D10FDF7AAFE27B92FA138
:105610004FF49770FDF7A4FE26B92CA140F22F108D
:10562000FDF79EFE207910B9B6F5803F04D327A17F
:105630004FF49870FDF794FE3846FFF79FFD30B1A8
:10564000204600F061F820B11120BDE8F08710205D
:10565000FBE76E61AF604FF490774FF0000839467A
:105660002068FFF77DFD4FF4AC7631462068FFF7E8
:1056700077FD2068AA686969C0F84425C0F8481514
:1056800020684FF00109C0F808906868D0B9BA46A0
:1056900051462068FFF75FFD074631462068FFF757
:1056A0005AFD0743F4D010B14FF00F0808E020680E
:1056B000C0F80C9031462068FFF74DFD0028F9D066
:1056C000002068614046C0E7001C00202E2E5C2EA2
:1056D0002E5C2E2E5C2E2E5C2E2E5C2E2E5C2E2E04
:1056E0005C6D6F64756C65735C6E7266785C647219
:1056F00069766572735C7372635C6E7266785F75EF
:10570000617274652E6300000079054900EBC000EA
:1057100001EB80004069002800D0012070470000A4
:10572000001C00202DE9F047064600793D4900EBBA
:10573000C00001EB8005346868680127A8B13A49C8
:10574000C4F80813306840F3073000280DDB00F080
:105750001F0107FA01F14009800000F1E020C0F8C4
:105760008011BFF34F8FBFF36F8FD4F8000220F08A
:105770002000C4F80002A8694FF4A27820B1414685
:105780002046FFF7EDFC67604FF4AC7949462046B0
:10579000FFF7E6FCE760474649462046FFF7DBFC9B
:1057A0000028F9D0A86928B139462046FFF7D3FC74
:1057B0000028F1D04FF0000AC4F800A53068D0F8F6
:1057C0000C25D0F81495D0F80885D0F810754FF056
:1057D000FF31C0F80C15C0F814153068C0F8081572
:1057E000C0F81015501C02D01046FEF7A8FFB9F102
:1057F000FF3F02D04846FEF7A2FF781C02D0384691
:10580000FEF79DFFB8F1FF3F02D04046FEF797FF3D
:105810002046FFF7FBFC85F820A0C5F804A0BDE8F2
:10582000F0870000001C00201003420003490860BC
:10583000034801680029FCD07047000004E50140DE
:1058400000E4014010B50C46017A052908D0407AE1
:1058500038B1084808A102682046FEF79DFD00E027
:105860001AB106A12046FEF797FD2046BDE810407C
:10587000FEF7D2BDE8000020257300000D0A0000ED
:1058800038B5C3880D46044633B114A0009015A264
:1058900016A12846FEF780FD217A05291CD0607AE2
:1058A00048B1A088FFF7DAF8164951F8202016A170
:1058B0002846FEF771FDA0880021FFF7C1FA0346D4
:1058C0001049207A143951F8202001B02846BDE84B
:1058D00030400EA1FEF760BD38BD00001B5B306D8F
:1058E000000000001B5B313B33316D0025734C6FB2
:1058F00067732064726F70706564202825642925A1
:10590000730D0A00E8000020257300003C25733E5B
:105910002025733A20000000EFF30580C005C00D7C
:1059200001D001207047EFF3148040F30000401CC9
:10593000704700000349884201D1034870470020A6
:105940007047000000200040780000201A4A811AA9
:10595000904221D012DC194AA0EB020190421BD0E8
:1059600007DC002814D0164940180FD002281FD198
:105970000FE0012919D002291AD110E0072917D206
:10598000DFE801F0161316161616100048F2015043
:10599000704748F20250704748F21050704748F282
:1059A0001350704748F21750704748F21150704733
:1059B00048F21650704700000603F0000303F000A1
:1059C00000FD0FFF374A811A90424CD025DC364A41
:1059D000A0EB020190425BD016DC344AA0EB02013E
:1059E00090424CD009DC00283CD03149401840D0CE
:1059F00001283BD0032851D13EE001293FD00229A4
:105A000040D003294AD146E0092947D2DFE801F016
:105A100046464646462E462E2B0015293ED012DC21
:105A2000112929D008DC01291DD0032936D00F29DE
:105A300022D0102932D125E0122920D013290FD0ED
:105A400014292BD121E016390F2927D2DFE801F0E4
:105A50001D2626262626262626111A17260E0E0075
:105A600048F21750704748F27050704748F20350A0
:105A7000704748F21350704748F21050704748F290
:105A80001150704748F21450704748F20150704767
:105A900048F20250704748F27150704748F2165071
:105AA00070470000110CF000080CF000040CF0002E
:105AB00000F40FFF70B5054688690C4600284FF4C6
:105AC000847128460AD0FFF73AFBD5F81805626AB8
:105AD000E1688854606A401C606270BDFFF72FFB6C
