:020000040000FA
:1000000060240020DD020000E5020000E70200009D
:10001000E9020000EB020000ED0200000000000019
:10002000000000000000000000000000EF020000DF
:10003000F102000000000000F3020000F5020000E1
:10004000D1060000F7020000610A0000F70200007C
:10005000F70200000905000065040000F702000037
:10006000F7020000F7020000F7020000F7020000AC
:10007000F7020000F7020000F7020000F70200009C
:10008000F702000029070000F7020000F702000055
:10009000F7020000F7020000F7020000F70200007C
:1000A000F7020000F7020000F7020000110A00004A
:1000B000F7020000F702000000000000000000004E
:1000C000F7020000F7020000F7020000F70200004C
:1000D000F7020000F7020000F70200000000000035
:1000E0000000000000000000000000000000000010
:1000F0000000000000000000000000000000000000
:1001000000000000000000000000000000000000EF
:1001100000000000000000000000000000000000DF
:1001200000000000000000000000000000000000CF
:1001300000000000000000000000000000000000BF
:1001400000000000000000000000000000000000AF
:10015000000000000000000000000000000000009F
:10016000000000000000000000000000000000008F
:10017000000000000000000000000000000000007F
:10018000000000000000000000000000000000006F
:10019000000000000000000000000000000000005F
:1001A000000000000000000000000000000000004F
:1001B000000000000000000000000000000000003F
:1001C000000000000000000000000000000000002F
:1001D000000000000000000000000000000000001F
:1001E000000000000000000000000000000000000F
:1001F00000000000000000000000000000000000FF
:10020000DFF80CD000F0F0F800480047E1180000DB
:100210006024002030B450E8012F93B2C4892344F5
:100220008489A34228BF1B1B0489A34202BFBFF3DA
:100230002F8F002007E0C3EA020340E80134002CBE
:10024000E9D14FF001000A6030BC704750E8012F3F
:10025000C2EA024240E801210029F7D1704730B4D8
:1002600050E8022F1FFAA2F3C488A34202BFBFF3D3
:100270002F8F00200DE0C48923448489A34228BF26
:100280001B1BC2EA034340E80234002CE8D14FF0C4
:1002900001000A6030BC704750E8022FC2EA2242D7
:1002A00040E802210029F7D17047034653E8022FA6
:1002B000D988B2EB324F4FF0000017BF92B241EA3B
:1002C000014142EA014104E05A68B2EB324F08BFF3
:1002D000012043E80212002AE8D17047064880470F
:1002E00006480047FEE7FEE7FEE7FEE7FEE7FEE71B
:1002F000FEE7FEE7FEE7FEE7390700000102000027
:100300002DE9F05F0546002092469B46884606464A
:10031000814640241BE0284641464746224600F0DD
:100320002FF853465A46C01A914110D31146184629
:10033000224600F016F82D1A67EB01084F462246B8
:100340000120002100F00DF817EB00094E41201E9E
:10035000A4F10104DFDC484631462A464346BDE8A5
:10036000F09F202A04DB203A00FA02F100207047B7
:100370009140C2F1200320FA03F3194390407047E3
:10038000202A04DB203A21FA02F00021704721FAEA
:1003900002F3D040C2F12002914008431946704751
:1003A00040EA01039B0703D009E008C9121F08C0F7
:1003B000042AFAD203E011F8013B00F8013B521E77
:1003C000F9D27047D2B201E000F8012B491EFBD2EE
:1003D00070470022F6E710B513460A460446194650
:1003E000FFF7F0FF204610BD064C074D06E0E06821
:1003F00040F0010394E8070098471034AC42F6D36C
:10040000FFF702FFAC330000CC33000070B58C184E
:1004100010F8015B15F0070301D110F8013B2A1118
:1004200006D110F8012B03E010F8016B01F8016B05
:100430005B1EF9D12B0705D40023521E0DD401F801
:10044000013BFAE710F8013BCB1A921C03E013F8CA
:10045000015B01F8015B521EF9D5A142D8D30020FF
:1004600070BD00002DE9F8430025DFF894804FF4BB
:10047000807601242F460095304601F03FFF38B1C9
:10048000D8F80403204203D0304601F02DFF254365
:10049000361D64007F1CB6B2082FEDD34FF4BE7436
:1004A000204601F02BFF48B1204601F01DFF45F02A
:1004B00000456A460121002001F0E6FE15F0FF0F1D
:1004C00016D0012600242E420ED008EB8401D1F86C
:1004D0001005D1F81015C0F304200A4AC1F30141F8
:1004E00052F8242002B190477600641C082CEAD30D
:1004F000002D02DA684602F097FCBDE8F8830000A0
:1005000000600040900200202DE9FF5F4FF48274EC
:10051000204601F0FBFE48B1022001F007FF28B1A0
:10052000204601F0FBFE022002F098F94FF48C7097
:1005300001F0ECFEDFF88491614F624E624C4FF0A7
:1005400000084FF4947A4FF4867B78B3402001F092
:10055000EDFE58B34FF48C7001F0E0FEB069CDE9C8
:100560000008D9F80000039054481430006855463C
:10057000C0F30B001038C0F3CC000290504601F0DD
:10058000C5FE60B1381501F0D1FE40B1386800F009
:100590000D000190284601F0C1FE0D203860616811
:1005A00009B168468847584601F0B8FE4FF4887094
:1005B00001F0ACFEA0B1102001F0B8FE80B14FF404
:1005C000887001F0ABFE06F128000FC88DE80F001F
:1005D0003E491820C1F80803616809B16846884798
:1005E0004FF4A67001F092FE354D083D28B34FF44C
:1005F000002001F09BFE00B34FF4A67001F08EFEC8
:100600004FF48C7001F08AFE504601F087FE584688
:1006100001F084FE4FF4887001F080FE002002F0AB
:1006200091F90D203860286006F138000FC88DE878
:100630000F00616809B1684688474FF48E7A5046CA
:1006400001F064FEC0B1802001F070FEA0B12F68FF
:10065000504601F063FE483696E80F008DE80F0023
:10066000F80707D0012028608DF80480616809B17F
:10067000684688470D2028605D46584601F046FED2
:10068000002819D0082001F051FE002814D0284677
:1006900001F044FE616800290ED008200090D9F8CE
:1006A0000000029005480C30006840F2FF1202EA98
:1006B000D000019068468847BDE8FF9F1055004074
:1006C0000C540040E0320000EC02002000500040DA
:1006D00070B54FF48076304601F015FD114CB5052C
:1006E00060B1304601F016FD0120C5F808036079BD
:1006F00020B9012060712168002088474FF482767C
:10070000304601F000FD00280AD0304601F002FD1D
:100710000220C5F808032168BDE8704001200847A1
:1007200070BD00007800002002490248091F0968D6
:1007300000680847FC000020F0B5A449A4484FF029
:1007400080540B68D4F830210078D4F83411551C4B
:10075000C0F3031006D0944601270026BCF1060F13
:1007600003D00AE003F0FF0CF6E7B4F82453DFF8F7
:1007700064C2C5F30425CCF80050DDB2062D06D1C5
:10078000032804D1DFF854C2934DCCF87450551CA3
:1007900004D09446BCF1060F03D00AE003F0FF0C2E
:1007A000F8E7D4F84452DFF838C2C5F34235CCF844
:1007B0000050DDB2062D08D1032806D1894DD5F8A9
:1007C00000C02CF0807CC5F800C0551C04D09446B5
:1007D000BCF1060F03D00BE003F0FF0CF8E74FF07D
:1007E0008045C5F80C61C5F810617D4D2D1F2E6048
:1007F000DDB2062D08D1032806D1DFF8E4C10325B8
:100800000CF1640CCCF80050DDB2062D10D1032899
:100810000ED1DFF8D4C10525CCF80050724D7835E3
:100820002F60714D08352E600CF104063F253560B0
:10083000551C04D016460D46062E03D05BE0DEB2F2
:100840000546F9E7ED1E012D55D9684D2D68684E16
:100850003560664D2D1D2D68361D3560634D08359C
:100860002D68361D3560614D0C352D68361D35609F
:100870005E4D10352D68361D35605C4D14352D6884
:10088000361D3560594D18352D68594E2036356066
:10089000564D1C352D68361D3560544D20352D685C
:1008A000361D3560514D24352D68361D35604F4D50
:1008B00028352D68361D35604C4D2C352D68361D7C
:1008C00035604A4D30352D68494E40363560474DCC
:1008D00034352D68361D3560444D38352D68361D4C
:1008E0003560424D3C352D68361D35603F4D4035F5
:1008F0002D68361D3560551C03D01646062E02D0D5
:1009000007E0DEB2FAE7D4F858523A4E05F04F0548
:100910003560551C03D01346062B02D008E0DBB22D
:10092000FAE735480368DB0702D06FF00103036084
:10093000062A07D1C91E022904D93048016841F4AA
:100940008061016027487438016841F470010160DA
:10095000BFF34F8FBFF36F8FD4E94C104FF01022CD
:10096000062907D1C01E032804D9D2F808021C4961
:100970001C310860D2F80002002803DBD2F8040220
:1009800000281FDA012002F005FA1521C2F8001232
:100990001B480368002BFCD0C2F804120168002930
:1009A000FCD0002002F0F6F9BFF34F8F0D48F0386D
:1009B0000168144A01F4E06111430160BFF34F8FF5
:1009C00000BFFDE7114910480860F0BDE00F00F0DE
:1009D000E80F00F0403501400DF0ADBA00C007400F
:1009E0003C050040FCED00E01056004004040010FF
:1009F00020C50040E40E0040000400403C170040C9
:100A000000E401400400FA050090D0033401002006
:100A10002DE9F047104E062700244FF4A0784FF43C
:100A2000803900BF08EB840509FA04F0715961B1FF
:100A3000D6F80413014208D02946304601F020FDC3
:100A40000648D0E9002128469047641CE4B2BC4225
:100A5000E8D3BDE8F087000000B00140FC020020B0
:100A600001480068004700008C000020002809DBD6
:100A700000F01F02012191404009800000F1E020B8
:100A8000C0F88012704702E008C8121F08C1002A8F
:100A9000FAD170477047002001E001C1121F002AFF
:100AA000FBD1704770B5254CA0421ED1F1B1012990
:100AB00036D0022928D0032917D1072000F094FF4F
:100AC000002812D194F8680094F8691088420CD17B
:100AD00094F86A00002808D10023D4E901501A468E
:100AE0000321A847012084F86A0070BD052000F0AA
:100AF0007BFF0028F9D1A06864680023A446BDE804
:100B000070401A460121604710461900EDD00028B8
:100B1000EBD00278302AE8D1BDE8704000F084BF05
:100B2000082000F061FF28B9A068002364681A4615
:100B30000221A047BDE8704001F02AB8D40300208C
:100B4000022000F03FB9000070B50024064D06E019
:100B50006868012110F8340001F01EFD641C28783B
:100B60008442F5D3002070BD98000020F8B51646E9
:100B70000C4605460A2A01D20720F8BD01F006FE00
:100B800018B901F0C9FD0028F7D1134F10211348FF
:100B90007D603C70BE60FFF71CFC0020C7E90400CC
:100BA0000F4E0DE005EBC4003168009181788DF89F
:100BB000011000780B4A694601F03EFD0028DCD1A7
:100BC000641EE4B2EED2BDE8F84005480021064AB2
:100BD000001D00F035B80000980000200803002038
:100BE0003833000071160000E112000072B60948A7
:100BF0000068C00700D000BEBFF34F8F0548E4383F
:100C00000168054A01F4E06111430160BFF34F8FB1
:100C100000BFFDE7F0ED00E00400FA050EB500218D
:100C20000091CDE901106A4644F20100FFF7DEFFB2
:100C30000EBD0000014800F0B0BB0000D80000204D
:100C400010B55AB100684FF0FF3401294261C0E984
:100C5000024400D000210161002010BD072010BD1A
:100C600038B5114808235822416800910F4900689F
:100C700001F002FA002815D10D4A69460D4800F02E
:100C800091FB04000ED101210A4800F0D8FB01239A
:100C9000094A1946074800F058FB0649012008395F
:100CA0000870204638BD00004033000028030020B3
:100CB000752F0000D8000020FFFF7F0070B50446AC
:100CC00016460D46002000F03CF8D4E90201C0436E
:100CD00070EA010004D0002000F035F8002070BD5B
:100CE00000F0ACFC401941F10001C4E90201002010
:100CF00000F029F8A661206900B125612146BDE810
:100D00007040002002F082BA10B50446002000F0C6
:100D100018F8D4E90201C04370EA01000CD04FF08A
:100D2000FF30C4E90200002000F00DF82146BDE8C4
:100D30001040012002F06ABA002000F004F8002000
:100D400010BD00F003B800F009B8000072B6024808
:100D50000168491C01607047F400002003490868DD
:100D6000401E086000D162B670470000F400002009
:100D70002DE9FC410646C0074FF000050ED0104F8C
:100D800000240122385D009500231146019501F0F1
:100D900045FA641C042CF4D300F046F8B0070DD5D6
:100DA000074E0024361D0022305D032300951146B6
:100DB000019501F033FA641C042CF4D3BDE8FC81E6
:100DC000A832000007490B5C4FF0A041D1F8042580
:100DD0000120984020EA0203C1F808351040C1F80C
:100DE0000C057047A83200000249085C012101F09F
:100DF00070BA0000A83200000249085C002101F02E
:100E000068BA0000A83200000649095C4FF0A04013
:100E1000D0F80405C84010F0010000D0012080F097
:100E200001007047A832000010B500242046FFF7EB
:100E3000DBFF641C042CF9D310BD10B50024204640
:100E4000FFF7DAFF641C042CF9D310BD10B502467D
:100E5000064B4FF0FF3000215C5C944201D1084604
:100E600010BD491C0429F7D310BD0000AC320000AE
:100E70002DE9F0470D468146FFF7E8FF04460428B8
:100E800036D2DFF874801B481C4EA8F10C0725B33E
:100E9000012D0ED0022D2BD104EB440030444578B7
:100EA000002D25D0B968002922D02846BDE8F0479A
:100EB000084704EB4401755C0E44717849B10E4A51
:100EC0004FF48041093A8068FFF7F8FE08B987F8C7
:100ED0000390B17808F80410E2E78068FFF714FF88
:100EE00004EB4401314418F804008D78A842D7D0AF
:100EF000BDE8F087B032000014000020700200202E
:100F000070B50023042810D20D4D00EB4004012AD7
:100F100002D101290CD00022094E00EB40003044E0
:100F200061B1012906D0022906D00723184670BDF9
:100F30000E30C2B22A55F9E74270F7E78270F5E742
:100F4000700200200B490E2808D00F2809D0102865
:100F50000DD011280AD14FF4801004E04FF4003076
:100F600001E04FF4802048600120087070474FF482
:100F70000020F8E70000002070B506461E48002457
:100F8000C0E90161B00720D500250122114628469D
:100F9000FFF7B6FF6D1C0446042D02D2002CF4D0DE
:100FA00013E094B940F2333204211448FFF7DEFD18
:100FB00004000AD1FFF7C8FD040006D10F48104A0B
:100FC0000021001FFFF73CFE0446F00712D001206D
:100FD000FFF7CEFE74B909480A4A00210C38FFF722
:100FE0002FFE040006D10548074A01210838FFF703
:100FF00027FE0446204670BD08000020BC320000D9
:10100000FD11000011180000410B00002DE9F05FF8
:101010006E4C054600266078B34618B184F801B0DE
:1010200000F0DEFB6A4F4FF47A694FF4C87A4FF054
:101030000108182D69D2DFE805F00C131338475466
:10104000696E727B727BC58484848484B3B6B9BCB8
:10105000C5C500F0C5FB3868FFF756FE06465CE0E4
:101060000020FFF7D1FE00284FF0000008D0FFF766
:10107000BBFE022D02D14FF4E16008E0484606E0D5
:10108000FFF7BAFE022D01D1C82000E05046410C06
:10109000C0034FF47A72801841F1000125705200AC
:1010A0000023FFF72DF901462AE00020FFF7ACFEF0
:1010B00000284FF0000004D0FFF796FE4FF4487070
:1010C000E5E7FFF799FEDFE70020FFF79DFE002828
:1010D0004FF0000002D0FFF787FECFE7FFF78CFE4E
:1010E000D4E70020FFF790FE00284FF0000002D068
:1010F000FFF77AFE01E0FFF77FFE257040F6CD4155
:1011000000223868FFF7DAFD064646E00020FFF7C8
:1011100059FE257008E0002051E025703DE084F87C
:1011200001800120FFF74EFE002240F26661E8E7F1
:1011300084F801800120FFF745FE00224FF40051A2
:10114000DFE77868FFF7E0FD0646D5F1110000D033
:101150002EB10220FFF748FE84F802B01DE00128FE
:1011600016D980B2C8214843C117C90341EA50418A
:10117000C0034FF47A72801841F10001520000233D
:10118000FFF7BEF8014600227868FFF797FD064694
:101190000220FFF731FE84F802803046BDE8F09F60
:1011A00000F01EFBB9E700F01BFBB4E700F018FBF2
:1011B00004E000F015FB0020FFF71EFE0120FFF702
:1011C0001BFEAAE7FFF739FEA7E700000800002092
:1011D000B0320000034630B5074800210478426869
:1011E00006E000BF02EBC10005789D4203D0491C18
:1011F000A142F7DB002030BD9800002000780221DA
:10120000FFF736BE05494FF0FF32082841F820208D
:1012100002D3084480F84820704700009002002064
:10122000F0B54FF0FF3512B10023082601E0082386
:101230000C260C4C05E000BF54F823707F1C04D032
:101240005B1CB342F8D32846F0BD26185DB286F881
:10125000305044F82310002AF5D1E11881F84800F5
:10126000F1E70000900200200249084490F93000A4
:10127000704700009002002070B5084C050009D0AE
:1012800010342168002907D0086820604968284682
:101290008847F6E70834F4E770BD00007C020020C0
:1012A000002801D101F074BC70470000054A0121FB
:1012B00020B1012805D19170FFF7DEBF51700020E9
:1012C000FAE770477C02002010B5D0E90234D1E97A
:1012D0000220D11AA04101D3012010BD002010BD71
:1012E00070B500240F4D10E0686800EBC40630783C
:1012F00001F008FA7178012901D0012100E00021F4
:101300004140307800F024F9641C28788442EBDBFB
:10131000D5E90401084303D0BDE8704001F092BF55
:1013200070BD0000980000204FF480328A400168B0
:10133000C1F848230068C0F8082370474FF4A07232
:1013400002EB810189B200F06FB92DE9F041054649
:101350000E464FF4A07000EB860081B228684FF46F
:101360008034B440984622F07F47C0F8084328688C
:10137000C0F84843286801F053F8286800EB86005D
:10138000C0F840752868C0F84443B8F1000F02D097
:101390002868C0F80443BDE8F0810068D0F804056F
:1013A0007047000010B543791C4C44F82320427963
:1013B000231D03EBC20212790AB1082010BD026896
:1013C0000C88C2F8084590F904208978002A4FEA71
:1013D000411104DB02F1E02282F8001405E002F082
:1013E0000F0202F1E02282F8141D90F9041001228C
:1013F000002909DB01F01F0402FA04F449098900FD
:1014000001F1E021C1F80041417903EBC1010A710A
:10141000417943F83100002010BD0000F8000020A1
:1014200090F90400002809DB00F01F02012191401F
:101430004009800000F1E020C0F8001270470A4621
:10144000022100F07BB84FF4827100F0EDB8006823
:1014500001210160704700680121416070472DE95A
:10146000F05F07460C464FF4A07000EB84001FFAB3
:1014700080FA38684FF48036A6409B4622F07F45BC
:10148000C0F848633868C0F808633868D0F8048545
:1014900000EB8402D2F84095C2F840855146386886
:1014A00000F0BEFFA9EB080020F07F40012806D124
:1014B000102001F069F85146386800F0B1FF386833
:1014C000D0F80485C0F84463A5EB080121F07F4102
:1014D0003868012900EB840010D0C0F84055386806
:1014E000D0F804156FF07F4C6A1A521E22F07F422A
:1014F000ACEB0B03934217D362B118E06D1CC0F83C
:101500004055102001F040F83868D0F804054045F7
:101510000AD10CE000EB84006D1CC0F8405538681F
:10152000D0F80405884202D00D20BDE8F09F0122CA
:101530003146384600F002F80020F6E70368C3F8A9
:101540004413002A02D00068C0F80413704700005A
:101550002DE9F0470E463249804601EB5001C007A5
:10156000097801D00F0901E001F00F074246012080
:101570000021FEF7F6FEDFF8AC9004460D46052F7D
:101580004BD2DFE807F0031419262A00002E44D0BE
:101590000121404601F09EFD0020FFF7D2FB4846A6
:1015A000D0E904120C431543C9E9044530E00EB1FB
:1015B000022114E0002112E04EB10321404601F067
:1015C00089FD4046BDE8F047012101F047BE0121F9
:1015D00005E0002E21D1042101E02EB10321404677
:1015E000BDE8F04701F076BD0021404601F072FDF4
:1015F0000021404601F032FE0020FFF7A2FB4A46E0
:10160000E043D2E90434184024EA0501C9E90401A1
:10161000BDE8F0470020FFF796BBBDE8F08700006B
:10162000080300209800002010B5006842581AB145
:1016300000F0F6FE012010BD002010BD10B50B48D3
:10164000FFF7ABFE094A083AD2E90434C018D2E9E0
:10165000063244F10001C31A71EB020204D24FF0CA
:101660008072801841F1000110BD0000D8000020F8
:1016700010B5C0B2FFF7AEFD0446007801F042F8A5
:1016800001466078012801D0012000E0002090EAA6
:10169000010F08D00449D1E90401084303D1BDE892
:1016A000104001F0CFBD10BD980000200268134625
:1016B00002E08A4204D01268002AFAD10B6001606D
:1016C000704700002DE9F04104464078D8B3A17876
:1016D000884238D9E078B0B3E068A0B354211B4801
:1016E000FEF777FE1948142221460C30FEF758FE0B
:1016F000164D0126174A6E70A078E1780844A8803C
:1017000000202870E068A860287B85F82000E06849
:10171000A86220696862FF2085F821000C4805F165
:101720002001E86201F11000074600F083F800286C
:101730000AD1AE70A078E1780844C1B23846BDE85D
:10174000F04100F06FB80720BDE8F0818003002071
:10175000683300005917000070B5194919480A6824
:10176000002A2ADC02464478D37B928864B1447B09
:10177000E51A954206DC00224270848042690BE043
:10178000521D0BE0D1180CE0847BE518954207D37D
:101790000122427084800269002AF1D10A6001E0CE
:1017A000D11A818001790748303000F03BF80028D9
:1017B00005D0BDE87040FFF731BAFF3AEEE770BDE3
:1017C00028010020800300200146014800F060B895
:1017D000B0030020014800F071B80000B003002001
:1017E0000A4810B5807860B1002401E0022C06D0D0
:1017F0002046FFF7F9FA641C042CF7D310BD03242C
:10180000F6E7BDE81040FFF70FBB0000080000201E
:1018100003480179C90702D00078FFF7F7BB70478A
:101820000800002082788A4201D207207047C170E8
:101830000020704770B58261044608788E68207079
:101840008868A0608868E060486820624878A07076
:10185000C86800250D4A2946E061FFF7F1F9002824
:1018600012D14FF0A041032046B1F20703D001EBA3
:101870008502C2F8000776086D1CF5E7204601F0E6
:10188000BBFA01202071002070BD0000ED2E000089
:1018900070B50446022020710D462046E16001F03B
:1018A000ABFAA0682843A06000202075A569A0615C
:1018B000204601F01BFB0020A56170BD70B50446F9
:1018C000C0690068FFF720FA0546204601F094FA47
:1018D0000DB1284670BD01202071002070BD0000B0
:1018E00086B000F059FC08B1FFF798F9002000F02D
:1018F00071FCFFF7B5F908B1FFF790F914221F4901
:101900006846FEF74DFD4FF40040019040100290F4
:10191000C8208DF8010004208DF8020001208DF808
:1019200003006846FFF7CEFE08B1FFF777F91449C8
:101930000220FFF721FB08B1FFF770F900F090F9E2
:10194000104C4FF4003060606068FFF73DFF08B155
:10195000FFF764F9002520BF20780028FBD0257010
:10196000FFF738FF08B1FFF759F96068FFF72CFF60
:101970000028F0D0FFF752F9EDE7000094320000A4
:10198000450F00000000002010B51C46934200D90E
:1019900014462246FEF704FD204610BD10B51C4635
:1019A000934200D914460A462146FEF70BFD204615
:1019B00010BD00000B4900F1100213464A610A698C
:1019C00013448B6128B14FF47C73CB614FF4806377
:1019D00001E00023CB61C01C104480080B6281F839
:1019E00069007047D403002070B50D4D0D4A0021E9
:1019F0002C7800BF01EB4103D65CA6420AD1134408
:101A00005B78834206D101EB410010448078287056
:101A1000002070BD491C0E29ECD3082070BD0000C9
:101A2000D40300203801002070B50446022920D1DB
:101A30000620FFF7D9FF00281BD10E4964784B69B7
:101A4000A2002046934208D88D69103D954204D3E8
:101A5000C968C3EB8400084403E000F017F80548A8
:101A60003830102100F04EFA2046BDE8704000F0FA
:101A7000B3B870BDD4030020034902684A624268CB
:101A80008A62008988857047D40300202DE9F041DF
:101A9000334E8400102529463046FEF79AFCA6F105
:101AA00038077869A0420BD9021B39192B463046FA
:101AB0002431FFF769FFD0F11005044406444CD0EF
:101AC000B869A0420CD978693969201A0A1AF968EC
:101AD0002B4601443046FFF757FF2D1A04440644B5
:101AE000002D3AD0B869A0420ED1396A61B1F969C6
:101AF000884209D02B460122FE213046FFF74EFFD7
:101B00002D1A0444064428D0F869A04209D9021BC2
:101B10002B4600213046FFF741FF2D1A04440644AE
:101B20001BD0386AA04210D9021B2B46FF21304639
:101B3000FFF734FFF969611AC1F10E01A94201D81A
:101B40003F2272542D1A064407D02B463046BDE87A
:101B5000F0411A460021FFF721BFBDE8F0810000E7
:101B60000C04002070B50C460546914201D90C20AA
:101B700070BD0120FFF738FF08B1082070BD05B91E
:101B800000240248C0E90354002070BDD4030020A3
:101B900070B5002103230A460C460E4801260CE0CE
:101BA00006FA03F50D43E9B25B1E05D5831883F8E9
:101BB000481007230021521C641C90F86950A5426C
:101BC000EEDC024482F84810002100F8681F8170A2
:101BD00070BD0000D4030020F0B5C208514200EBF4
:101BE000C1010024124BC1F107010125042813D3C0
:101BF00005FA01F603EB020CF7B29CF848603E428E
:101C000004D0BE438CF848602E4600E0002693F8CE
:101C100068703E4483F86860491E01D50721521C54
:101C2000401C10F0FF0002D0641C042CDEDBF0BD71
:101C3000D403002010B5012909D002290DD1FFF7E6
:101C4000F3F806484068BDE81040FFF7BDBDFFF758
:101C5000C1FDBDE81040FFF7F0B810BD0000002046
:101C60001CB54FF48070019000210F4800F098F9E6
:101C700008B1FEF7D3FF01A800900C4B18220C49C5
:101C8000012000F0B7F908B1FEF7C8FF0748019935
:101C900000F066F908B1FEF7C1FF00F0CFF80028A8
:101CA00001D0FEF7BBFF1CBD351C000070010020F9
:101CB0007C3200002DE9F8439046894607004FF03A
:101CC000000606D0B8F1000F03D03D680DB1002426
:101CD00022E00E20BDE8F88324B1611C884207D1C0
:101CE000402106E0012801D0802102E0C02100E06F
:101CF0000021D8F800006B46801B00904A462868F7
:101D000000F01FF80028E5D10098B9F1000F064453
:101D100000D08144641C2D1DB868A042DCD800208E
:101D2000C8F80060D6E7D0E901329A4201D3042016
:101D30007047036843F822108168491C81600020C5
:101D400070472DE9F843144698460A4605004FF0BF
:101D500000074FD06878297A4618B61D00B1761C66
:101D60008CB332F0C00002D00720BDE8F883D8F869
:101D70000000B04201D20420F7E722702B78601CEB
:101D80001A4322702A7A00F8012B21460746041DC7
:101D9000687828B104F8010B087840F00800087052
:101DA0002A7A2046E968FEF7FBFA287A6A78044422
:101DB0002AB120466968FEF7F3FA68780444D8F837
:101DC0000000801B0090287840B12B6993B16A46CF
:101DD0002146686998470028C7D101E0002000909B
:101DE00014B1009800BA3860009831180020C8F883
:101DF0000010BAE70E20B8E70068022803D00428D4
:101E000004D100F08FB9024800F0A2B97047000079
:101E10002C010020084810B50649416000210160EE
:101E200000F0BAF9852803D0002800D0032010BDA7
:101E3000002010BDA11200002C01002010B50420CC
:101E4000FFF7D2FD08B1082010BD00F087F8002090
:101E500010BD000010B518B10A2902D00C2010BD29
:101E60000248FFF709FE002010BD0000913300007A
:101E7000FEB5224847780A2F23D0214A0324072F92
:101E8000167855789378D1788DF800608DF80150E8
:101E900086EA05008DF802301AD04B4058408DF884
:101EA00003108DF80400FF2204210DF10500FEF758
:101EB00089FA00BF8DF809400A216846FFF7CAFF7A
:101EC000FEBD03B00A21BDE8F0400D48FFF7C2BFD8
:101ED00083F0880358408DF803008DF804101379BF
:101EE0008DF8053050798DF80600927959405040B0
:101EF00041408DF807208DF80810DBE764010020D1
:101F0000500400201CB5CDE900100321684600F004
:101F100045FE1CBD1CB50E4BD3E90223CDE90023C1
:101F20000C4AC2E90101507838B9072050700A21E3
:101F3000094800F08FFD002808D1FFF799FFFFF74F
:101F400069FF002802D1684600F018FD1CBD0000A2
:101F50009C330000640100205004002000F020BCED
:101F600010B54FF47772FFF7FDFD040013D10B4855
:101F70000322016900F8342FFE2902D841700220A3
:101F800005E0FF2242700A0A8270C1700420FFF748
:101F900011FDFFF7FDFD204610BD0000D403002019
:101FA00070B50E46050005D00020FFF71DFD18B1E5
:101FB000082070BD072070BD0B4C0C48C4E90156C9
:101FC0001434FFF759FDFF20A076E076E12020775A
:101FD000102060777C20A0770F20E077BDE870406C
:101FE00001490348FFF796BFD40300209133000056
:101FF000A50A000070B51D46134B0C468EB0D3E900
:102000000113129ECDE907130DA906910E498DF813
:1020100024008DF82C200A9418220C316846FEF713
:10202000BFF909A80590694606A8FFF77CFE0028BD
:1020300005D134B13246294606A8FFF73BFE0EB063
:1020400070BD0E20FBE700006C33000070B5154634
:10205000044661B1207A2A68904201D3042070BD01
:1020600020780870481C227A6168FEF799F9207A76
:10207000401C2860002070BD10B531B1B2FBF3F4F4
:1020800003FB14241CB1092010BD0E2010BD0160FB
:102090000021416081608281C381084610BD70B516
:1020A0000C460546FEF7B6F8002802D021882868BD
:1020B000084470BD10B50A8849888A4203D1FEF7EA
:1020C000EBF8012010BD002010BD70B50C46054690
:1020D000FEF7C5F8002802D061882868084470BD62
:1020E00010B50A8849888A4203D1FEF7AFF801206B
:1020F00010BD002010BDC20800F007030120895C5C
:1021000098400840704700F180400068002800D0E7
:102110000120704708B500F180400021016000688F
:10212000009008BD10B50020FEF70BFE074C60685C
:10213000401E6060606818B900F0D2F9002060703D
:10214000BDE810400020FEF7FEBD00007C0200202C
:1021500070B5104D0446687838B114B1616800203C
:1021600088470020FEF7EDFD0CE00020FEF7E9FDBA
:1021700024B1084821460830FFF798FA686808B982
:1021800000F0A2F96868401C6860BDE8704000205B
:10219000FEF7D9BD7C02002070B50C4C01252078DB
:1021A00008B185260BE00020A06060602061E0603F
:1021B000074800F0B3F9064600F070F9257000F00A
:1021C00065F900B1A570304670BD00007C020020AA
:1021D000AD12000070B5104D0446A87838B114B1A6
:1021E0006168012088470020FEF7ABFD0CE000206D
:1021F000FEF7A7FD24B1084821461030FFF756FA34
:10220000E86808B900F09AF9E868401CE860BDE8A1
:1022100070400020FEF797BD7C02002070B541EAB7
:102220004201DDE904564FF0A04441EA830141EA4E
:10223000052104EB800041EA0641C0F8001770BD9B
:1022400070B541EA4201DDE904564FF0A04441EA8D
:10225000830141EA052104EB800041EA0641C0F810
:10226000001770BD4FF0A04202EB8000D0F80027AD
:1022700022F44032C0F80027D0F8002742EA01419A
:10228000C0F800177047000038B5094B44181B68A8
:1022900000936B4608E000BF53F82010D1F820559A
:1022A00020C2C1F82055401C8442F5D838BD00003A
:1022B000DC32000042094FF0000100D1491E00F05D
:1022C0001F00012282400A4201D0012070470020F5
:1022D000704701224FF0A043824011B1C3F8082596
:1022E0007047C3F80C257047034908B5084400211E
:1022F00001600068009008BD00600040024940583D
:10230000012800D00020704700600040024940587A
:10231000002800D00120704700500040024A0021F0
:102320008150BFF34F8F7047005000400449D1F8EF
:102330000413014201D001207047002070470000C3
:1023400000500040C02903D0E9B1802902D00DE03F
:1023500040210BE010F8012B10F8013B120442EA77
:10236000032210F8013B1A430F4B1A6010F8012B9F
:1023700010F8013B120442EA032210F8013B1A4311
:10238000094B1B1F1A600268C07812BA22F0FF02C4
:10239000024305480838026003480830026822F00A
:1023A000C0020A43026070479855004030B401688B
:1023B00009B129201BE012490A78124C302A03D0B7
:1023C0000A78A22A0AD00CE06568002D16D043686E
:1023D000A068AC4630BC0A4A022160474068062823
:1023E00008D008785028E4D101202070282030BC83
:1023F00000F012BB30BC044800F0B0BB30BC7047EA
:1024000040040020640100209C33000003490A6856
:1024100022F0600242EA401008607047A455004074
:1024200008B5002242504058009008BD70B50D46D6
:102430000646446804E0B2682946904718B124680B
:1024400020680028F7D120682860256070BD4068AA
:102450000068704741680868002801D002680A6077
:10246000704702460020526806E08B4203D108689C
:102470001060012070471A461368002BF5D1704791
:1024800008B5002242504058009008BD024800683C
:10249000002800D00120704700040140084800686F
:1024A000012110F0010F06D14FF0E020C02280F88A
:1024B00000248430C1670349012008607047000090
:1024C00000E100E01805004010B54FF48070FFF700
:1024D00021FE01208107C1F80403086010BD00003F
:1024E000012010B58107C1F808030002FFF712FEB2
:1024F00007490120086007494FF001100A6802F0FF
:1025000001128242FAD004490020487110BD000037
:10251000040000400C0400407800002006490246F8
:1025200000200B790BB1852070470A6001220A71E7
:1025300000224A71704700007800002070B54FF407
:102540008270FFF7E7FD02204107C1F804030B4B3F
:10255000196841F0807018600948026842F001046F
:10256000046044684FF40A554668361BAE42FBD3FC
:102570000260196003490120086070BDFCED00E0B5
:10258000001000E008000040002802D0014980014E
:1025900008477047613300002DE9F0410E460546BB
:1025A00000F012FC0028284619D0FEF75DFE08381E
:1025B00000F094FC032802D001280ED007E04FF071
:1025C000A040D0F81005E84010F0010F05D003211D
:1025D0002846BDE8F041FFF745BE0221F8E700F0CC
:1025E000FFFB002822D02846FEF73EFE04464FF4AB
:1025F000807000EB84000E4F81B207EB8400D0F8AE
:10260000102542F00102C0F810250846FFF76CFEC5
:10261000002E0BD02846FEF727FE064951F8200071
:10262000002803D00120A040C7F80403BDE8F081D2
:1026300000600040900200202DE9FC41DFF8B880E6
:10264000044608EB0400002790F930001346C01739
:102650000E46401C01D008274AE0B0781946C0F366
:1026600040022046FEF7DCFD0546401C3FD0B07816
:10267000410717D4C0070AD04FF0A04000EB8400F8
:10268000D0F8001721F00201C0F8001707E0002180
:102690007378204600910A460191FFF7D1FD20464C
:1026A00000F084FBB078800718D51448317800EB2F
:1026B0008500D0F81025124B1A40C0F810254FF4B1
:1026C000F8524FF4403302EA042203EA01410A437C
:1026D000D0F810150A43C0F8102509E008EB0500F2
:1026E000327810F8481F41EA8211017000E0042797
:1026F0003846BDE8FC8100009002002000600040E8
:10270000FFE0FCFF4FF0A041D1F81015C14011F0DF
:10271000010000D00120704770B5194D95F85800A0
:1027200008B1082070BD0024661E2046FFF7C2FDD8
:1027300010B1281980F83060641CE4B2202CF4D366
:1027400000242046FEF75EFD641CE4B20C2CF8D396
:1027500000200D4968650B4CC02081F8000401265B
:102760004020891FC1F800014FF4BE70FFF7BCFD87
:10277000A004C4F8040385F85860002070BD000070
:10278000900200200060004006E000E0034890F85E
:102790005800002800D0012070470000900200205F
:1027A00005490D200860054A0121083203481160DF
:1027B0000349C0F80413704704540040005000401F
:1027C0008200080070B50546FFF716FB28681D4C0F
:1027D00040281DD00DDC04281FD0102830D11A4805
:1027E00000F0BCF96568002D2AD000231A460321A9
:1027F00019E080281CD0B0F5002F21D1124800F03C
:10280000ADF96568002D1BD000231A4619460AE071
:10281000281DBDE87040FFF7C9BD6568002D0FD0C9
:1028200000231A460121A068AC46BDE8704060470D
:102830002879002804D12078002801D000202070B9
:1028400070BD0000640100209C3300000248006855
:10285000800700D0012070473C54004071B585B01E
:102860009DF81400032807D1FFF7F0FF08B10220FC
:1028700000E001208DF814009DF8140000250126C9
:10288000164C012814D0022810D1607A00280DD1EE
:10289000134800F0CBF9124800F0F8F910488560B1
:1028A00066720220009014E06846884706B070BD4A
:1028B000607A0028FAD00B490A4808310E604FF4BC
:1028C0008F61C0F80813657204200090012000F0A9
:1028D00039F861680029E7D1E8E70000EC02002040
:1028E00080000020005000407FB5FFF7AFFF0F4988
:1028F000002508B18D607FBD8868401C886007286E
:10290000F9D90B4B0FCB8DE80F00084800F0B0F958
:10291000084C6572012000F015F800F0CBF86168F2
:102920000029E8D0684688477FBD0000800000206D
:10293000E8320000EC020020B0F5A07F01D1FFF7E3
:10294000D3BF7047044908B1881402E00348808966
:1029500080B208607047000008550040EC0200207B
:1029600005490320086004489430016821F01F01E4
:1029700041F00401016070470C550040FEB5214C48
:10298000217A09B10820FEBDD0E900102160606005
:10299000FFF7E6FF0520FEF769F81B49C02081F824
:1029A000000401252020491FC1F800011749184AD9
:1029B000D1E90001CDE9010101A9164800F08AF929
:1029C0000028E0D113480068D0F810050021C2B2F9
:1029D0004FF4C860FDF7D4FC0246012300210D48E6
:1029E000009500F061F90721684600F033F80646CB
:1029F000C0216846FFF7A6FC25722803E060304638
:102A0000FEBD0000EC02002005E000E0E032000026
:102A1000392900008000002010B501210B4C292825
:102A200001D0204408E00A480068C00702D00748E7
:102A3000283001E00548243001600120FFF782FFC3
:102A40004FF48F60C4F8080310BD00000050004030
:102A50002054004030B5042905D0072903D00A29A5
:102A600001D0092030BD124A1468121D1268104BA3
:102A700008331B680470250A240C45708470D4B296
:102A8000C470042912D0150A0571150C120E457177
:102A900082710A2902D0882C06D007E0C371190A76
:102AA0000172190C417201E09921C170002030BD02
:102AB00050040010F0B5264BA1B01868244982B22A
:102AC000883168460C6822499831096811F0C001C4
:102AD00018D01F4D8C352D6880290BD11C4E903697
:102AE0003668370C8DF80070370A8DF801708DF854
:102AF0000260C01C2E0C00F8016B2E0A00F8016B5E
:102B000000F8015B250E0570250C4570250A8570BF
:102B1000C4700F489C3000680E4DC0F34116D5F8C4
:102B200004430D48002707600768012707601A6003
:102B3000684605F54175FFF705FC3046FFF766FC72
:102B4000FFF70EFF2C604FF48F60686021B0F0BD7E
:102B50000855004000500040FC5F0040094A4168B1
:102B600000881160111DC0F308000860064807497D
:102B7000008800F48C60C1F80403044901201C3172
:102B80000860704710550040EC02002000500040E3
:102B9000014A012181507047005000402DE9F04169
:102BA000044600688846002568B10020FEF7C9F891
:102BB0004FF48670FFF7AAFB40B10820FFF7B6FB81
:102BC00020B1112526E00920BDE8F081144F01262F
:102BD0003E61144A208861681160111DC0F308002D
:102BE000086020884FF6FF7101EAC0000D49C0F36C
:102BF0000B000C310860111FC1F800800020FFF7A6
:102C0000A1FE0948007800F01800C7F80403044842
:102C10000C3006600020FEF796F82846D4E7000046
:102C20000050004010550040EC02002000680121D7
:102C3000C16070472DE9F04106460D464FF48034DF
:102C400000681746AC404BB14FF4A07101EB850111
:102C5000FFF716FC3068C0F8044301E0C0F80843F1
:102C6000306800EB8500C0F84075BDE8F0810000D9
:102C70000268012111610079034A00EB400002EB78
:102C80008000017270470000FC02002001680122F0
:102C90000A600079034A00EB400002EB8000022149
:102CA00001727047FC020020F0B40468049E40F2F8
:102CB0000115D4F800728D40AF43C4F80072046867
:102CC000D4F800521D43C4F800523346F0BCFFF75D
:102CD000B1BF00002DE9F04104460E4600792C49B1
:102CE00000EB400001EB8007387A10B10820BDE806
:102CF000F0813A60706800254FF4A078786006E0B3
:102D000008EB85012068FFF7BBFB6D1CEDB2607915
:102D1000A842F5D82068F17840F3073000284FEA40
:102D2000411104DB00F1E02080F8001405E000F020
:102D30000F0000F1E02080F8141D2068012140F30D
:102D40000730002809DB00F01F0201FA02F24009F7
:102D5000800000F1E020C0F8002120687278D0F8EF
:102D6000043562F30103C0F804352068B278D0F866
:102D7000083562F30103C0F8083520683278D0F8CE
:102D8000103562F30303C0F8103539720020AEE746
:102D9000FC02002003490860034801680029FCD0B8
:102DA0007047000004E5014000E4014010B505490A
:102DB000C20800F00703885C01249C40204388542B
:102DC00010BD0000E40200200449084490F93000DE
:102DD000082801DB01207047002070479002002086
:102DE0000449084490F93000082801D201207047B6
:102DF00000207047900200200378026AC16813B176
:102E0000C2F80C1501E0C2F80815002141707047A6
:102E10000378026AC16813B1C2F8081501E0C2F86C
:102E20000C150121417070472DE9F05F2A4F0646CD
:102E30004FF0A04A4FF0010B0024381990F95010C0
:102E4000491C3CD090F85000314620F0C00528467F
:102E5000FFF751F920B3204600F040F881460AEB15
:102E60008500D0F80007C0F30148B8F1020F18D070
:102E700002212846FFF7F6F90BFA05F1CAF82015EA
:102E80002846FEF7F1F957F820204AB14846B9F133
:102E9000030F11D0B8F1020F05D0B8F1030F07D01E
:102EA0000DE00321E5E74846B9F1010F04D006E043
:102EB0004846B9F1020F02D1014628469047641CEA
:102EC000042CBAD3324601210020FFF7DDF9306827
:102ED0000028B1D1BDE8F09F9002002002490844CB
:102EE00090F85000800970479002002070B50446A9
:102EF000007D052660B12046FFF77EFF002020758B
:102F0000A078E178411A11FB00F006EB20201FE0C9
:102F1000A16921B1204688472079022828D1E57887
:102F2000A078A84203D12046FFF772FF0EE02046AA
:102F300055B1FFF76DFFA07810FB05F006EB1020F0
:102F400020610120207504E0FFF756FFA078401DA6
:102F50002061207902280BD1E069216922460068AE
:102F6000FDF7ACFE002803D0BDE87040FDF756BE6B
:102F700070BD000070B50546FEF765FA134C40B110
:102F8000D4E904024FF08071411842F10000C4E915
:102F9000041000212846FEF7D1F930B1606820B155
:102FA000606800F0AFF80020606001212846FEF75D
:102FB000C5F918B1FEF742FBC4E90601284600F046
:102FC000E5F82846BDE8704000F038B8D000002091
:102FD0002DE9F04100260E70D0E902740D468046BE
:102FE000FEF72CFB381A002364EB01011A461B1A6A
:102FF0008A4115DAB0F5350F04D3FDF71BFE0D49F4
:10300000421800E03A464FF4960300210A48FEF7C2
:1030100026FA10B10D2807D00AE00120BDE8F081A2
:1030200000210548FEF780F9404600F06BF8287053
:103030000020F3E7FFFFB400D8000020F8B5204CD3
:10304000064600251F48FFF702FA10B3D0E9021028
:10305000CA4372EA000224D0626882B16368D3E98D
:103060000223891A984127D26068D0E90210C94327
:1030700071EA000103D061681248FFF7D7F900F048
:1030800023F807466946FFF7A3FFB0B1606858B15F
:103090000DE0606800280FD13046BDE8F840FEF72B
:1030A000DAB900F011F8CDE73046FEF7D0F96760E5
:1030B0009DF800000028C5D1F8BD6560C2E700009A
:1030C000D0000020483300000148FFF7C3B90000DA
:1030D00048330000C207002A03D000BF4FF00F02A0
:1030E00001E04FF0F00201D04FEA0111044B03EB75
:1030F0005003187800EA020040EA01001870704797
:103100000803002070B504461E480025007860B30F
:103110005CB3FEF793FAD4E90223801A994125D3D0
:103120000020FDF70EFE206910B9681EC4E90200F8
:103130000020FDF708FED4E9051088470020FDF7C0
:1031400000FE226972B1D4E90210CB4373EA000396
:1031500008D0891840F10000C4E902100020FDF7F2
:10316000F2FD07E00020FDF7EEFD08E0D04370EA35
:10317000030004D021460448FFF758F901252846EA
:1031800070BD0000D00000204833000038B51D4D50
:1031900069462868FEF799FF1B4C30E0017821B1A1
:1031A00001290ED0022922D117E04168D1E902207D
:1031B000D24372EA00021AD012480830FFF736F9FB
:1031C00015E041686068814202D1002060600EE035
:1031D0000C480830FFF745F909E0FFF775FF20B10B
:1031E0004FF0FF31C0E90211F7E701202070694676
:1031F0002868FEF75FFF69462868FEF766FF00282B
:10320000CCD138BD40330000D0000020F8B50B4CC5
:103210000D46064669462068FEF741FF58B1067024
:10322000456069462068FEF75BFF10B10448FEF771
:10323000F7F80020F8BD0420F8BD0000403300007E
:10324000D8000020034880684108034800224068F5
:10325000FDF734BD980000203833000070B50C46EF
:103260000546FDF7B7FF002807D04268002A04D0C2
:1032700021462846BDE87040104770BD6E6F7264ED
:10328000696373656D692E636F6D2F7374617274FA
:103290003532646B00DC0005000001000000000016
:1032A00000001E0000000050111213140D0E0F102C
:1032B0001800002038000020580000200D000300F6
:1032C000710E00000E000300710E00000F000300DD
:1032D000710E000010000300710E0000000000508D
:1032E00004000006000000000400000000000000D0
:1032F000000000000000000040000000000000008E
:1033000000000000000000001000000000000000AD
:1033100000000000000000000000080000000000A5
:10332000000000000000000080000000000000001D
:10333000000000000000000003000000B0000020BA
:10334000180300200100060000000000F00000202B
:10335000C912000000000000000000000000000092
:103360000338FDD87047000008010020000000006D
:10337000010000000000000001000000000000004B
:1033800001000000903300004D200000000000000C
:10339000550001020304050607080900100000009B
:1033A0004004002050040000C5270000CC3300007A
:1033B00000000020700100000C0400001834000020
:1033C00070010020F0220000960A000001205AFF40
:1033D000010956201114B00140023206091F581588
:1033E000100140110A50045841201C90D0030406DB
:1033F000050408030409020507040508030509027A
:10340000030504030902100A010101020204030278
:083410000A1A02092912C10089
:0400000500000201F4
:00000001FF
