:020000040000FA
:1000000058310020150300001D0300001F030000ED
:10001000210300002303000025030000000000006E
:1000200000000000000000000000000027030000A6
:1000300029030000000000002B0300002D03000036
:100040002F0300002F030000090600002F0300000B
:100050002F030000000000002F030000000000003C
:100060002F0300002F0300002F0300002F030000C8
:100070002F030000ED0300002F0300002F030000FA
:100080002F0300002F0300002F0300002F030000A8
:100090002F0300002F0300002F0300002F03000098
:1000A0002F0300002F0300002F03000000000000BA
:1000B0000000000000000000000000000000000040
:1000C0000000000000000000000000000000000030
:1000D0000000000000000000000000002F030000EE
:1000E0000000000000000000000000000000000010
:1000F0000000000000000000000000000000000000
:1001000000000000000000000000000000000000EF
:1001100000000000000000000000000000000000DF
:1001200000000000000000000000000000000000CF
:1001300000000000000000000000000000000000BF
:1001400000000000000000000000000000000000AF
:10015000000000000000000000000000000000009F
:10016000000000000000000000000000000000008F
:10017000000000000000000000000000000000007F
:10018000000000000000000000000000000000006F
:10019000000000000000000000000000000000005F
:1001A000000000000000000000000000000000004F
:1001B000000000000000000000000000000000003F
:1001C000000000000000000000000000000000002F
:1001D000000000000000000000000000000000001F
:1001E000000000000000000000000000000000000F
:1001F00000000000000000000000000000000000FF
:10020000DFF80CD000F0E0F800480047BD11000016
:100210005831002000B583B002900091019244F261
:10022000010071466A4600F0B9FA03B000BD000053
:1002300030B4044654E8000F0D4644E80053002B48
:10024000F8D1156030BC704730B4044654E8000F54
:1002500040EA010544E80053002BF7D1156030BC9B
:10026000704730B4044654E8000F00EA010544E842
:100270000053002BF7D1156030BC704730B40446F2
:1002800054E8000F80EA010544E80053002BF7D141
:10029000156030BC704730B4044654E8000F00EBE2
:1002A000010544E80053002BF7D1156030BC7047BE
:1002B00030B4044654E8000FA0EB010544E80053B5
:1002C000002BF7D1156030BC704770B404464FF076
:1002D000000054E8006F0D68AE4207BF44E80023F9
:1002E000012044E800630E60002B1CBF0020F0E7F3
:1002F00070BC704730B4044654E8000F88422CBFED
:10030000451A054644E80053002BF5D1156030BC72
:10031000704700000648804706480047FEE7FEE7B2
:10032000FEE7FEE7FEE7FEE7FEE7FEE7FEE7FEE7A5
:100330007504000001020000004870475C6E000078
:1003400010B5441A0346944209D28418114403E0BC
:1003500011F8013D04F8013D521EF9D210BD40EAEA
:100360000104A40703D009E010C9121F10C3042A16
:10037000FAD203E011F8014B03F8014B521EF9D2F7
:1003800010BDD2B201E000F8012B491EFBD270472C
:100390000022F6E710B513460A4604461946FFF751
:1003A000F0FF204610BD421C10F8011B0029FBD1B4
:1003B000801A7047034611F8012B00F8012B002A20
:1003C000F9D1184670470000064C074D06E0E0687A
:1003D00040F0010394E8070098471034AC42F6D38C
:1003E000FFF712FF0074000020740000064882B07E
:1003F0000021016000680090044800680449C0B210
:10040000496802B00847000000D1004008D500400C
:100410004000002000F026B970B50E46144900EBEC
:10042000400001EBC0051446E86A183520B10128E8
:100430000FD0022805D113E0284600F047F9A0426A
:1004400001D2002411E022463146284600F076F918
:100450000BE0284600F03AF9A042F4D20446F2E755
:100460003146284600F03DF90446204670BD0000A4
:10047000D008002000B54FF080500022D0E94C1089
:100480000D2901D0102907D14FF08043C3F80C216A
:10049000C3F81021534B1A600D2901D0102955D1F2
:1004A000514A1268514B1A604F4A121D12681B1DA7
:1004B0001A604D4A083212681B1D1A604A4A0C32F3
:1004C00012681B1D1A60484A103212681B1D1A6000
:1004D000454A143212681B1D1A60434A18321268CA
:1004E000424B20331A60404A1C3212681B1D1A60AE
:1004F0003D4A203212681B1D1A603B4A24321268A2
:100500001B1D1A60384A283212681B1D1A60364AB1
:100510002C3212681B1D1A60334A30321268334B7A
:1005200040331A60304A343212681B1D1A602E4A5A
:10053000383212681B1D1A602B4A3C3212681B1D90
:100540001A60294A403212681B1D1A600D2901D019
:10055000102906D1264A1368DB0702D06FF0010389
:1005600013604FF010220D2902D0102904D00DE0A5
:1005700060B1012805D109E040B1012806D0022868
:1005800004D0D2F80802174920310860D2F80002DE
:10059000002803DBD2F8040200281EDA012003F051
:1005A00083FE1221C2F8001212480368002BFCD00F
:1005B000C2F8041201680029FCD0002003F074FE88
:1005C000BFF34F8F0C4801680C4A01F4E0611143FE
:1005D0000160BFF34F8F00BFFDE70A49084808607C
:1005E00000BD0000380500400404001020C5004094
:1005F0000004004000E401400CED00E00400FA05B6
:100600000090D003D000002010B5054C206818B928
:1006100004A1252000F022FA2068BDE81040004720
:10062000380000202E2E5C2E2E5C2E2E5C2E2E5C92
:100630002E2E5C2E2E5C2E2E5C6D6F64756C657399
:100640005C6E7266785C647269766572735C7372F4
:10065000635C7072735C6E7266785F7072732E6327
:100660000000000010B5124C02202061606111A052
:10067000A06104F17800E0614FF400602062002086
:10068000A06260620BA1A164E06204F67801E164FB
:100690001021A065C4E91410E06509A1E01DFFF771
:1006A00089FE08A12046FFF785FE2020A07110BD1D
:1006B000D00800205465726D696E616C0000000006
:1006C0005254540053454747455200000269C168DF
:1006D0008A4203D88068401A104400E0501A401E35
:1006E00070472DE9F047C4681746894606464FF023
:1006F00000083069A04201D9051B02E0B168201A48
:100700000D1AB0686D1E001BA84200D80546BD42F8
:1007100000D33D4670682A4620444946FFF710FE44
:10072000B0687F1B2C44A844A944A04200D10024F7
:10073000F460002FDDD14046BDE8F0872DE9F0419F
:1007400004468846D4E90207C51BE168606816467E
:100750000844B54206D94146FFF7F2FDB819E060FA
:10076000BDE8F0812A464146FFF7EAFD761B08EB1B
:10077000050132466068FFF7E3FDE660F0E702E05E
:1007800008C8121F08C1002AFAD17047704700201C
:1007900001E001C1121F002AFBD17047FEB51446CB
:1007A0000E46074672B602F0D3FD00BF02F0BCFB56
:1007B0000028FBD11D4A1E496FF480403B18A2EB74
:1007C00001014FF001004FEAD10100EB014519D0C2
:1007D000012B284610D0324616A102F017FD1B4807
:1007E0000068C00700D000BE224603B0314638463C
:1007F000BDE8F04000F058B8D4E9003214A102F08E
:100800000CFDECE7A06803F0A3F80346D4E900016F
:10081000CDE900100296284614A1A26802F005FD59
:1008200028461CA102F0EEFCD9E700007874000015
:1008300048740000554E4B4E4F574E204641554C84
:10084000542061742030782530385800F0ED00E0F5
:10085000415353455254494F4E204641494C45441B
:100860002061742025733A25750000004552524FCF
:1008700052202575205B25735D2061742025733A15
:1008800025750D0A50432061743A203078253038A0
:1008900078000000456E64206F66206572726F728A
:1008A000207265706F72740008B501238DF80030F6
:1008B0009DF80030144B186059609A606FF48041C5
:1008C000401807D001280FD1DA60D8680068986115
:1008D000D86807E01A61186980685861186900686B
:1008E000986118694068D861186858689868D8682D
:1008F000186958699869D86972B600BF9DF80000F8
:100900000028FBD162B608BDB802002010B503F084
:1009100041FD012803D004491D2000F09FF8BDE8E7
:10092000104000F013B80000606E000010B503F036
:1009300031FD012803D004492B2000F08FF8BDE8D9
:10094000104000F00BB80000606E000072B6024864
:100950000168491C0160704748000020034908688D
:10096000401E086000D162B67047000048000020B9
:1009700070B5054608680C46411C04D002F0B2F977
:10098000206802F01BF96068411C02D0002102F0CF
:1009900003F92968A069C1F82405607D227D2968D2
:1009A0001043C1F86C05D4E900122868C0F814257A
:1009B000C0F80C15207D012814D1A068411C02D07C
:1009C000002102F0E9F8E068411C04D002F08AF945
:1009D000E06802F0F3F8D4E902122868C0F80825AC
:1009E000C0F8101570BD70B5054608680C46411C6E
:1009F00004D002F081F9206802F0EAF86068411C36
:100A000002D0002102F0D1F82968A069C1F82405BC
:100A1000607D217D2A680843C2F86C05D4E9001284
:100A20002868C0F80C15C0F81425207D012814D1C1
:100A3000A068411C02D0002102F0B7F8E068411C18
:100A400004D002F059F9E06802F0C2F8D4E90212C9
:100A50002868C0F80825C0F8101570BD1CB56A4696
:100A6000CDE90001002144F20200FFF797FE1CBD12
:100A70002DE9F04FADF53F7D14460E468346B2F5A5
:100A8000C07F05D96FF037000DF53F7DBDE8F08FD1
:100A90004FF4D0716846FFF77BFC68A800F055FC66
:100AA000200E8DF81000200C8DF81100200A8DF812
:100AB000120020208DF8170006AD8DF81340224655
:100AC00031462846FFF73CFC8020285504F11908E0
:100AD0000020BAA90854401C1028FBDB802268A81B
:100AE00000F038FC070051D10025AA466E46CDF82B
:100AF000B8A2CDF8BCA2CDF8C0A244460DF52E791F
:100B0000CDF8C4A217E000204946335C0A5C5A4085
:100B10000A54401C1028F8DB1036102C01D310208A
:100B200000E02046241AAEAB1A46012168A800F066
:100B3000F9FB07002AD1002CE5D1B2A828441022E5
:100B4000AEA9FFF7FDFB9DF803001035401C8DF8A2
:100B50000300202DCADB8022B2A968A800F0FAFBAE
:100B6000070013D1B6AE5C46002533461A46012174
:100B700068A800F0D7FB070008D1102231462046B4
:100B8000FFF7DEFB10341035202DEEDB68A800F0F7
:100B9000D5FB4FF4D071684601F032FA2021B2A89B
:100BA00001F02EFA1021BAA801F02AFA1021AEA8FD
:100BB00001F026FA1FB12021584601F021FA3846EB
:100BC00062E700002DE9F0470546861C91460F4676
:100BD0004FF0010A0020FFF799FE1B4C04F21C485D
:100BE00060683860D4E90101184F401A3968081A62
:100BF0000EE00121404601F09DFA00F085FA014621
:100C0000404601F097FAD4E90101401A3968081A00
:100C1000401C8642EDD8B9F1000F03D0052065F3E2
:100C2000891002E0062065F39F5061683A68114020
:100C300004EB8101C8606068304460600020FFF709
:100C400075FE5046BDE8F087B00400207800002013
:100C500070B50D4604460A2902D10D21FFF7F8FFB1
:100C6000A0682268411CA1601554D4E901018142A9
:100C700004D32046BDE8704001F0F2BD70BD000015
:100C8000044881684068814201D1012070470020FA
:100C900070470000B004002002681368526831B148
:100CA0009A4202D38068801A07E0981A70479A42E5
:100CB00001D3D01A70478068C01A401C70472DE9D4
:100CC000F04389B0884604466E4620213046FFF73F
:100CD0005FFB002504F120091020211811F8012DD7
:100CE000521C12F0FF020A7002D1401E0028F4DCF0
:100CF000334622460121484600F014FB070017D175
:100D000010351036202DE7DB694618F800200B5C03
:100D100053400B54401C2028F7DB8022484600F04B
:100D200019FB070004D104AD95E80F0084E80F001B
:100D30002021684601F064F909B03846BDE8F08327
:100D400010B50021024801F000FA80F3100010BD38
:100D5000CC08002010B50846114601F03FFC0020E9
:100D600010BD00002DE9F0410D460600174609D0E0
:100D70005DB1144C14496068884209D048F20250B1
:100D8000BDE8F08148F21350FAE748F21450F7E753
:100D900013462A463146206801F04CFBA0F5054178
:100DA0007139EDD100221146104601F0A5FB002853
:100DB000E6D13B462A4631462068BDE8F04101F0C5
:100DC00039BB00001C0000206572E54B2DE9F0479F
:100DD0000024884607461E461546FF212046DDF8BA
:100DE00020A005E02A5C0AB1295C03E0401C08341D
:100DF000B042F7D3002049000A0A03D1401C641C0A
:100E00000828F8D3BFB3BEB3B8F1000148F21050C0
:100E10002FD0002D2DD03246284600F063F960B364
:100E2000DFF86C90534632463946D9F8000001F09D
:100E300001FB00281DD1E1083846FFF7A9FA600739
:100E400008D007EBD40004F007030178FF22DA4052
:100E50001140017041463246384600F043F90028FF
:100E6000E0D032463946284600F03CF90028D9D077
:100E70000020BDE8F08701E003E005E048F21350F0
:100E8000F7E748F21450F4E748F21750F1E7000092
:100E90001C0000202DE9FC5F0E008346DDE90C47B5
:100EA000C6F1000098469246814600D408460125C6
:100EB00003E000BF90FBFAF06D1C5045FADAA8453C
:100EC00000D9454624B1002E01DB780700D5641E09
:100ED000B80702D5B8F1000F0AD0F80708D13CB125
:100EE000A54205D220215846641EFFF7B1FEF6E761
:100EF000002E02DA4E462D2102E0780703D52B2181
:100F00005846FFF7A5FE07F0030002280BD1B8F101
:100F1000000F08D13CB1A54205D230215846641ECD
:100F2000FFF796FEF6E7CDE90047434652463146C5
:100F3000584603F015FDBDE8FC9F000070B50E4655
:100F4000054600684FF48E7102F011FD4FF4A27156
:100F5000286802F00CFD28681549C0F804132868B9
:100F6000082E40F3073403D312A14520FFF776FD86
:100F70007007000E002C04DB04F1E02484F8000468
:100F800005E004F00F0101F1E02181F8140D28685B
:100F900040F30730002809DB00F01F0201219140D7
:100FA0004009800000F1E020C0F8001170BD000091
:100FB000800002002E2E5C2E2E5C2E2E5C2E2E5CCF
:100FC0002E2E5C2E2E5C2E2E5C696E74656772610F
:100FD00074696F6E5C6E7266785C6E7266785F675D
:100FE0006C75652E6800000070B50E4604460068FA
:100FF0004FF4887102F0CCFC4FF49071206802F03D
:10100000C7FC4FF49271206802F0C2FC4FF4A27149
:10101000206802F0BDFC4FF4AC71206802F0B8FC0F
:1010200020681549C0F804132068082E40F30735DE
:1010300003D312A14520FFF711FD7007000E002D0C
:1010400004DB05F1E02585F8000405E005F00F015B
:1010500001F1E02181F8140D206840F307300028E9
:1010600009DB00F01F02012191404009800000F1DE
:10107000E020C0F8001170BD100342002E2E5C2E3F
:101080002E5C2E2E5C2E2E5C2E2E5C2E2E5C2E2E9A
:101090005C696E746567726174696F6E5C6E7266AE
:1010A000785C6E7266785F676C75652E680000000C
:1010B000024600201268530713D502F003000128EE
:1010C00002D002280CD105E0C2F383100B68801C0B
:1010D000184404E00223086803EB925210440860AD
:1010E0000120704730B500230AE0C45CCD5CAC42FF
:1010F00005D02006B0EB056F04D8002030BD5B1C86
:101100009342F2D3012030BD2DE9FF41002627484C
:1011100001F00DF82548001F074601F008F8244C9F
:101120002449A06800900D6800E0009869462840B6
:1011300004EB80000C30FFF7BBFF0028F5D101AABB
:10114000009901EA050304EB8303491CDB6842F8BC
:101150002030401C00910228F2D3019800F00300D7
:1011600001281AD002280ED013494FF4AF70FFF7B0
:1011700075FC384600F0D8FF08B10098A06004B0B4
:101180003046BDE8F0810198032101EB90500099B1
:10119000BDF80A6001EB900005E00198BDF80A6017
:1011A000C0F3831008440090E3E70000C808002063
:1011B000B0040020780000200073000000210846E1
:1011C00002F09AF818B128A22521FFF723F801F0C0
:1011D00083FE29482949401AC108032000EB014039
:1011E000044627A102F00EF801F0CAF818B11EA2B9
:1011F0003721FFF70FF820460823052226A102F029
:101200000CF8002508212F4801F0DEF918B116A2CC
:101210004121FEF7FFFF204608222A4901F09EFFE8
:101220006D1C052DEEDB20460823052226A101F0CA
:10123000F4FF0025234A0823083AA2F108012148B7
:1012400001F0C5F918B108A24C21FEF7E3FF2046D2
:1012500008221C4901F082FF6D1C052DEADB2046A7
:1012600027A101F0CFFFFEE72E2E5C2E2E5C2E2E46
:101270005C6D61696E2E6300787400004874000034
:10128000524E47206578616D706C65207374617291
:101290007465642E0000000047656E6572617465B8
:1012A0002025752072616E646F6D20766563746FA2
:1012B0007273206F66206C656E6774682025753ABE
:1012C000000000001000002047656E6572617465C3
:1012D00020257520636F6E73747261696E6564207A
:1012E00072616E646F6D20766563746F7273206FC8
:1012F00066206C656E6774682025753A00000000F2
:10130000524E47206578616D706C65206578656325
:1013100075746564207375636365737366756C6C4F
:10132000792E000030B4144601291A46214602D015
:1013300030BC00F0D5B930BC00F01ABC002803D096
:101340004FF48C7100F05CBE70474FF48C71FFF766
:101350001FB80000F0B5802A07D0C02A07D0B2F528
:10136000807F0BD06FF01F00F0BD0A2300E00C233C
:10137000036000F10803002443600AE00E23F7E74E
:1013800001EB8405EE782D6866F31F6543F8245061
:10139000641CB4EB521FF3D3544A0168A2F5085001
:1013A0000A2904D00C292BD00E2928D156E000247C
:1013B00053F80C5B52F824104D4002CBC1F30726C2
:1013C000C1F30747865DC75D86EA0726754000EBD7
:1013D0001166367885EA064550FA81F63678641C3F
:1013E00085EA06651D6053F80C6C6E405E6053F82C
:1013F000085C75406940C3E902510A2CD8D373E0F8
:101400005FF000041D6852F824104D405969C1F383
:101410000726C1F30747865DC75D86EA0726754044
:1014200000EB1166367885EA064550FA81F6367883
:10143000641C85EA06659D615E686E40DE619D689C
:1014400075401D62DE686E405E621D6975406940D0
:10145000C3E90A511833082CD4D345E05FF00005E6
:101460001C6852F825104C40D969C1F30726C1F316
:101470000747865DC75D86EA0726744000EB116664
:10148000367884EA064450FA81F6367884EA0666AD
:101490001E625C6874405C629E6866409E62DC68A6
:1014A0007440DC6250FA84F73F781E69C4F3074C3D
:1014B0007E40C4F3072710F80CC0C75D00EB14642E
:1014C0003F0287EA0C4724787E4086EA04641C6366
:1014D0005E696D1C66405E639C6974406140C3E94F
:1014E0000E412033072DBBD30020F0BDB06D0000AE
:1014F00010B504000BD004F12000FFF71FFF4FF4DC
:10150000A071204600F07CFD4FF6F070E06110BD48
:1015100010B504464FF4A071FEF73AFF4FF6F07095
:10152000E06110BD08B50023009300F001F808BD8C
:101530002DE9F0418CB09846129F154604460E46A0
:10154000B2F5806F04D96FF035000CB0BDE8F081C2
:10155000B7F5807F02D96FF03700F6E720216846A3
:10156000FEF716FFE1692069884201DC606938B145
:101570003A464146204600F04AF80028E5D12FE0DF
:1015800077B33A4641466846FFF772FA070034D10E
:1015900069462046FFF793FB07002ED120E010207C
:1015A000211811F8012D521C12F0FF020A7002D10D
:1015B000401E0028F4DC08AB224601214046FFF71C
:1015C000B1FE070019D1102D01D9102700E02F46D8
:1015D0003A4608A93046FEF7B3FE3E44ED1B01E053
:1015E00004F12008002DDAD169462046FFF767FB99
:1015F000070002D12069401C20612021684600F0CC
:10160000FFFC102108A800F0FBFC38469DE72DE9FF
:10161000F041044685694FF4C070E0B016460F46AD
:10162000854203D8C5F5C071B14204D26FF03700CE
:1016300060B0BDE8F081804601466846FEF7A8FE2E
:10164000D4E94E302A466946984710B16FF033000E
:10165000EEE7A5693FB136B10DEB050032463946DC
:10166000FEF76EFE354469462A460846FFF700FA43
:10167000050007D169462046FFF721FB050001D18F
:10168000012020614146684600F0BAFC2846CFE7B9
:101690002DE9FF4704460020DDF8308000900190DE
:1016A0000290039004F120001F4616460D46814625
:1016B000FFF74BFEC4E94E56A06908B92020A0618F
:1016C000802269464846FFF745FE002804D142467D
:1016D00039462046FFF79BFF04B0BDE8F0870000C5
:1016E0002DE9F047CD780C6888B0436865F31F6436
:1016F000009420CB6C400094CD794C6865F31F6456
:10170000019420CB6C400194CD7A8C6865F31F6402
:10171000029453F8085B6C400294CC7BC96864F374
:101720001F61039153F8044C6140039100684FF02E
:10173000FF3101EB6006FE4800F5806900F50064AA
:1017400000F5406A0FE1009980CBC9B2DDF808C00E
:1017500050F82110CCF3074C4F40039954F82CC09B
:10176000C1F307218D00DDF80C8059F8055049467A
:1017700085EA0C056F40019DC8F307484FEA156CD8
:1017800055465AF82CC087EA0C07DDF804C00497C8
:101790000CF0FF0C80CB50F82CC054F8288087EA5E
:1017A0000C07DDF800C0CCF3072C51F82CC08CEAF4
:1017B000080C87EA0C07DDF808C04FEA1C6C55F8E6
:1017C0002CC087EA0C07DDF808C005970CF0FF0C69
:1017D00053F8087B50F82CC0DDF8008087EA0C072E
:1017E000DDF804C0C8F30748CCF3072C54F8288070
:1017F00051F82CC08CEA080C87EA0C07DDF80CC005
:101800004FEA1C6C55F82CC087EA0C07DDF80CC0B9
:1018100006970CF0FF0C53F8047C50F82CC0DDF850
:10182000048087EA0C07DDF808C0C8F30748CCF34A
:10183000072C54F8288051F82CC08CEA080C87EA51
:101840000C07DDF800C04FEA1C6C55F82CC087EA85
:101850000C070797DDF810C053F8107B0CF0FF0C55
:10186000DDF8188050F82CC0C8F3074887EA0C0749
:10187000DDF81CC054F82880CCF3072C51F82CC09C
:101880008CEA080C87EA0C07DDF814C0DDF81C8030
:101890004FEA1C6CC8F3074855F82CC087EA0C07C0
:1018A0000097DDF814C053F80C7C0CF0FF0C54F8D2
:1018B000288050F82CC087EA0C07DDF810C0CCF364
:1018C000072C51F82CC08CEA080C87EA0C07DDF8CD
:1018D00018C0DDF810804FEA1C6CC8F3074855F8B3
:1018E0002CC087EA0C070197DDF818C053F8087C74
:1018F0000CF0FF0C54F8288050F82CC087EA0C0735
:10190000DDF814C0CCF3072C51F82CC08CEA080C7D
:1019100087EA0C07DDF81CC04FEA1C6C55F82CC098
:1019200087EA0C070297DDF81CC053F8047C0CF022
:10193000FF0C50F82CC087EA0C07DDF818C0CCF378
:10194000072C59F82C10DDF814C0CCF3074C54F8D0
:101950002CC081EA0C014F400499090E5AF821105D
:101960004F40761E0397002E3FF7EDAE00991E689C
:10197000C9B2029F50F82110C7F307474E400399A0
:1019800054F82770C1F307218D00DDF80CC059F819
:10199000055049467D406E40019DCCF3074C2F0E0B
:1019A00055465AF827707E40019F0496FFB25E6844
:1019B00050F8277054F82CC07E40009FC7F30727CB
:1019C00051F8277087EA0C077E40029F3F0E55F8BA
:1019D00027707E40029F0596FFB29E6850F82770E0
:1019E000DDF800C07E40019FCCF3074CC7F307270A
:1019F00054F82CC051F8277087EA0C077E40039FEB
:101A00003F0E55F827707E40039F0696FFB2DE68B2
:101A100050F82700019946400298C1F30741C0F3EE
:101A2000072054F8211059F82000484046400098FB
:101A3000000E5AF820004640079619693D48049C5C
:101A400050FA84F42478069D6140C6F30724C5F358
:101A50000745045D455D240284EA05446140059C18
:101A600000EB1464247881EA046100915969059CB3
:101A700050FA84F42478C6F307456140049C455D20
:101A8000C4F30724045D240284EA05446140069CF3
:101A900000EB1464247881EA046101919969069C41
:101AA00050FA84F42478049D6140059CC5F30745F1
:101AB000C4F30724455D045D240284EA05446140C3
:101AC00000EB1664247881EA04610291D96950FA26
:101AD00086F31B78059C5940069BC4F30744C3F367
:101AE0000723045DC35C1B0283EA04435940049B43
:101AF00000EB1360007881EA00600390009810709A
:101B00000098000A50700098000C90700098000E29
:101B1000D070019810710198000A50710198000C62
:101B200090710198000ED07102981072029803E033
:101B3000B05D0000B05C0000000A507202982021E5
:101B4000000C90720298000ED072039810730398E4
:101B5000000A50730398000C90730398000ED07322
:101B6000684600F04DFA08B00020BDE8F08700009C
:101B70002DE9F047CD780C6888B0436865F31F64A1
:101B8000009420CB6C400094CD794C6865F31F64C1
:101B9000019420CB6C400194CD7A8C6865F31F646E
:101BA000029453F8085B6C400294CC7BC96864F3E0
:101BB0001F61039153F8044C6140039100684FF09A
:101BC000FF3101EB6006FE4800F5806900F5006416
:101BD00000F5406A0FE1009980CBC9B2DDF808C07A
:101BE00050F82110CCF3074C4F40019954F82CC009
:101BF000C1F307218D00DDF80C8059F805504946E6
:101C000085EA0C056F40039DC8F307484FEA156C41
:101C100055465AF82CC087EA0C07DDF804C0049733
:101C20000CF0FF0C80CB50F82CC054F8288087EAC9
:101C30000C07DDF808C0CCF3072C51F82CC08CEA57
:101C4000080C87EA0C07DDF800C04FEA1C6C55F859
:101C50002CC087EA0C07DDF808C005970CF0FF0CD4
:101C600053F8087B50F82CC0DDF8008087EA0C0799
:101C7000DDF80CC0C8F30748CCF3072C54F82880D3
:101C800051F82CC08CEA080C87EA0C07DDF804C078
:101C90004FEA1C6C55F82CC087EA0C07DDF80CC025
:101CA00006970CF0FF0C53F8047C50F82CC0DDF8BC
:101CB000048087EA0C07DDF800C0C8F30748CCF3BE
:101CC000072C54F8288051F82CC08CEA080C87EABD
:101CD0000C07DDF808C04FEA1C6C55F82CC087EAE9
:101CE0000C070797DDF810C053F8107B0CF0FF0CC1
:101CF000DDF8188050F82CC0C8F3074887EA0C07B5
:101D0000DDF814C054F82880CCF3072C51F82CC00F
:101D10008CEA080C87EA0C07DDF81CC0DDF81C8093
:101D20004FEA1C6CC8F3074855F82CC087EA0C072B
:101D30000097DDF814C053F80C7C0CF0FF0C54F83D
:101D4000288050F82CC087EA0C07DDF818C0CCF3C7
:101D5000072C51F82CC08CEA080C87EA0C07DDF838
:101D600010C0DDF810804FEA1C6CC8F3074855F826
:101D70002CC087EA0C070197DDF818C053F8087CDF
:101D80000CF0FF0C54F8288050F82CC087EA0C07A0
:101D9000DDF81CC0CCF3072C51F82CC08CEA080CE1
:101DA00087EA0C07DDF814C04FEA1C6C55F82CC00C
:101DB00087EA0C070297DDF81CC053F8047C0CF08E
:101DC000FF0C50F82CC087EA0C07DDF810C0CCF3EC
:101DD000072C59F82C10DDF814C0CCF3074C54F83C
:101DE0002CC081EA0C014F400699090E5AF82110C7
:101DF0004F40761E0397002E3FF7EDAE00991E6808
:101E0000C9B2029F50F82110C7F307474E4001990D
:101E100054F82770C1F307218D00DDF80CC059F884
:101E2000055049467D406E40039DCCF3074C2F0E74
:101E300055465AF827707E40019F0496FFB25E68AF
:101E400050F8277054F82CC07E40029FC7F3072734
:101E500051F8277087EA0C077E40009F3F0E55F827
:101E600027707E40029F0596FFB29E6850F827704B
:101E7000DDF800C07E40039FCCF3074CC7F3072773
:101E800054F82CC051F8277087EA0C077E40019F58
:101E90003F0E55F827707E40039F0696FFB2DE681E
:101EA00050F82700019946400098C1F30741C0F35C
:101EB000072054F8211059F8200048404640029865
:101EC000000E5AF820004640079619693D48049CC8
:101ED00050FA84F42478069D6140059CC5F30745BB
:101EE000C4F30724455D045D240284EA054461408F
:101EF00000EB1664247881EA046100915969059C1D
:101F000050FA84F42478C6F307456140069C455D89
:101F1000C4F30724045D240284EA05446140049C60
:101F200000EB1464247881EA046101919969069CAC
:101F300050FA84F42478049D6140C6F30724C5F365
:101F40000745045D455D240284EA05446140059C23
:101F500000EB1464247881EA04610291D96950FA93
:101F600086F31B78059C5940049BC4F30744C3F3D4
:101F70000723045DC35C1B0283EA04435940069BAC
:101F800000EB1360007881EA006003900098107005
:101F90000098000A50700098000C90700098000E95
:101FA000D070019810710198000A50710198000CCE
:101FB00090710198000ED07102981072029803E09F
:101FC000B04C0000B04B0000000A50720298202173
:101FD000000C90720298000ED07203981073039850
:101FE000000A50730398000C90730398000ED0738E
:101FF000684600F005F808B00020BDE8F087000052
:10200000002904D0024B0A4600211B68184770477C
:10201000CC0000202DE9F05F1E46DDF828B0914687
:102020008A46040003D124A19020FEF717FDB4F8DE
:102030000680607908FB00F8A8F10408464503D340
:102040001DA19E20FEF70AFDE788301DB0FBF7F1C9
:10205000B0FBF7F207FB1200D9F80050AA1942456D
:1020600001D9A8EB0605C9F8005001E02468491E13
:102070000029FBD13E1A8846AE4215D817E000BFB2
:102080002044001D0AEB0803BBF1000F324602D0CA
:102090000146184600E01946FEF752F90020246870
:1020A000AD1BB044AF4201D92E4600E03E46002DA4
:1020B000E6D1BDE8F09F00002E2E5C2E2E5C2E2E69
:1020C0005C2E2E5C2E2E5C2E2E5C2E2E5C636F6D95
:1020D000706F6E656E74735C6C6962726172696553
:1020E000735C6D656D6F626A5C6E72665F6D656D67
:1020F0006F626A2E6300000030B5024651B101F0F4
:102100000FF90021074C08E034F821301568AB4284
:1021100002D11160002030BD491C8142F4D305205A
:1021200030BD000000000000002100F009B80121CE
:1021300000F010B808B56A46FEF7ADF8009808BD83
:1021400008B56A46FEF78DF808BD08B56A46FEF781
:102150006FF808BD08B56A46FEF776F8009808BD26
:1021600008B56A46FEF7A4F8009808BD70B50400EB
:1021700003D113A1FE20FEF771FC00252846FEF7CF
:10218000C5FB206862680168914214D9491E01604C
:102190000D781CB91AA1C220FEF760FC208AE16804
:1021A00005FB00152068217A0278891A0279C9B2E4
:1021B0008A4200D201710020FEF7B8FB284670BDAC
:1021C0002E2E5C2E2E5C2E2E5C2E2E5C2E2E5C2E49
:1021D0002E5C2E2E5C636F6D706F6E656E74735C1B
:1021E0006C69627261726965735C62616C6C6F6369
:1021F0005C6E72665F62616C6C6F632E63000000E0
:102200002E2E5C2E2E5C2E2E5C2E2E5C2E2E5C2E08
:102210002E5C2E2E5C636F6D706F6E656E74735CDA
:102220006C69627261726965735C62616C6C6F6328
:102230005C6E72665F62616C6C6F632E630000009F
:1022400070B50C46050004D110A140F22110FEF734
:1022500005FC24B90DA14FF49170FEF7FFFB00209F
:10226000FEF754FB1DB91949CF20FEF7F7FBE868CC
:102270002A68211A288AB1FBF0F11068431C136008
:102280000170BDE870400020FEF750BB2E2E5C2E82
:102290002E5C2E2E5C2E2E5C2E2E5C2E2E5C2E2E78
:1022A0005C636F6D706F6E656E74735C6C69627287
:1022B00061726965735C62616C6C6F635C6E72669F
:1022C0005F62616C6C6F632E63000000002200008F
:1022D00010B5040002D0206830B901E00E2010BD16
:1022E00017A1D920FEF7BAFB606818B914A1DA204B
:1022F000FEF7B4FBA06818B911A1DB20FEF7AEFB16
:10230000E06818B90EA1DC20FEF7A8FB208A18B9F6
:102310000BA1DD20FEF7A2FB207A61682268401A3B
:10232000C0B2116004E0226811684B1C1360087091
:10233000401EC0B2F7D221680020087110BD000015
:102340002E2E5C2E2E5C2E2E5C2E2E5C2E2E5C2EC7
:102350002E5C2E2E5C636F6D706F6E656E74735C99
:102360006C69627261726965735C62616C6C6F63E7
:102370005C6E72665F62616C6C6F632E630000005E
:102380002DE9F0410B480C4D0C4F401BC6080120B5
:102390003870002406E000BF55F83400804700285C
:1023A00005D1641CB442F7D3022038700020BDE888
:1023B000F081000028740000207400001800002044
:1023C00005480178022904D00078012801D00020B6
:1023D00070470120704700001800002038B5041D28
:1023E000002000F037F900280ED12046FFF790F8C2
:1023F000002003460246009004492046FFF748F9B2
:10240000BDE8384002F01EB838BD0000550D000090
:1024100010B511461A46001DFFF7F9F8BDE8104047
:1024200002F010B810B5001DFFF762F800F06EF969
:10243000002010BD10B5001DFFF774F8BDE8104076
:1024400002F000B82DE9F0416C460D46074601F058
:1024500059FA70B11B481C49401AC008012101EB10
:1024600000401AA100F0CEFEA54648F21950BDE882
:10247000F081FFF7A5FF48B11B4A1C4E106848B118
:102480005068B04206D10020A546F0E74FF4054061
:10249000A546ECE748F21750002FA546E7D1002DDE
:1024A000A546E4D110491248083115461060FFF7DF
:1024B00095FF0028A546DAD16E602A680D491160A3
:1024C000A546D4E778740000487400005374616333
:1024D0006B206F766572666C6F77206465746563D8
:1024E0007465642E000000001C0000206572E54B3E
:1024F000D40000206169614D2DE9F0416C4615461C
:102500000E46074601F0FEF970B116481649401A0A
:10251000C008012101EB004014A100F073FEA546A4
:1025200048F21950BDE8F08105B146B11648174A86
:102530004168914207D048F20250A546F2E748F2BE
:102540001050A546EEE71FB148F21750A546E9E73F
:102550000D492B46083132460068FFF759FFA54662
:10256000E0E7000078740000487400005374616371
:102570006B206F766572666C6F7720646574656337
:102580007465642E000000001C0000206572E54B9D
:102590000A4930B40A4B486848F20252984204D1C2
:1025A0000868084C0368A34202D030BC104670474C
:1025B000002202604A6030BCFFF734BF1C000020DC
:1025C0006572E54B6169614D0122FEF7CBBB38B501
:1025D00001240094FEF7FAFB38BD000070B50646F2
:1025E0000C480C460078012811D00BA1BA20FEF748
:1025F00035FA0CE0402C01D2254600E04025E9B236
:10260000304600F045F80028F9D1641B2E44002C18
:10261000F0D170BD280000202E2E5C2E2E5C2E2EB8
:102620005C2E2E5C2E2E5C2E2E5C2E2E5C696E7423
:102630006567726174696F6E5C6E7266785C6C65FA
:10264000676163795C6E72665F6472765F726E67F3
:102650002E63000070B50B4C217809B1852070BD48
:1026600000B9094809490088A4F80100601C01F07C
:102670001DFA0500F3D101F08FFA012020702846E1
:1026800070BD000028000020144A00008D3A0000B0
:1026900070B50C460C4905460978012903D00BA1F9
:1026A0009120FEF7DBF922462946174801F06CF825
:1026B000044601F071FA2CB1052C03D003A1AB2024
:1026C000FEF7CCF9204670BD280000202E2E5C2E8F
:1026D0002E5C2E2E5C2E2E5C2E2E5C2E2E5C2E2E34
:1026E0005C696E746567726174696F6E5C6E726648
:1026F000785C6C65676163795C6E72665F64727644
:102700005F726E672E6300009474000010B5094C70
:102710002078012803D008A16A20FEF79FF901F074
:1027200073FA01F0A3FA134801F078F80020207042
:1027300010BD0000280000202E2E5C2E2E5C2E2EB8
:102740005C2E2E5C2E2E5C2E2E5C2E2E5C696E7402
:102750006567726174696F6E5C6E7266785C6C65D9
:10276000676163795C6E72665F6472765F726E67D2
:102770002E63000094740000F0B5054604781548F7
:1027800089B0164640F82420124A0869121DA2F1A9
:10279000080742F82400487F385520226846FDF794
:1027A000CFFD04942878385C48B10EB10A4A00E0A5
:1027B00000226946281D01F0F9FB09B0F0BD0EB1F9
:1027C000064A00E00022694605F10C0001F094FA87
:1027D000F3E70000300000201D4800005D460000C7
:1027E0000FB438B5040003D110A11C20FEF736F950
:1027F000606918B90DA11D20FEF730F9206818B9DD
:102800000AA11E20FEF72AF9606818B907A11F2047
:10281000FEF724F90599002905D006A800906A461C
:10282000204600F049F838BC5DF814FB2E2E5C2ED3
:102830002E5C2E2E5C2E2E5C2E2E5C2E2E5C2E2ED2
:102840005C65787465726E616C5C667072696E74DA
:10285000665C6E72665F667072696E74662E630087
:1028600010B5040003D107A10B20FEF7F7F8A2680A
:10287000002A05D0D4E90403216898470020A0600D
:1028800010BD00002E2E5C2E2E5C2E2E5C2E2E5C9B
:102890002E2E5C2E2E5C2E2E5C65787465726E6119
:1028A0006C5C667072696E74665C6E72665F667090
:1028B00072696E74662E63002DE9FC4791460C46E2
:1028C0005FEA000804D183A140F25220FEF7C6F867
:1028D000D8F8140020B97FA14FF41570FEF7BEF8A8
:1028E000D8F8000020B97BA140F25520FEF7B6F8D9
:1028F000D8F8040020B977A140F25620FEF7AEF8D0
:10290000002C76D014F8011B39B125290ED0404691
:10291000FEF79EF920780028F4D198F80C000028E2
:1029200067D04046BDE8FC47FFF79ABF0020012270
:1029300021782B291BD02D2902D0302908D102E083
:1029400040F0010001E040F00200641C002AEFD1D9
:1029500000252A290ED02178A1F130020A2A11D2AD
:1029600005EB850201EB4205641C303DF1E740F0C8
:102970000400EAE7D9F800100B1DC9F80030096817
:10298000641C0D44217800232E290BD114F8011F5B
:10299000A1F130020A2A05D203EB830201EB4203C4
:1029A000303BF3E76C290DD068290BD0692921D081
:1029B0000BDC252918D0582931D063290ED0642981
:1029C00015D117E014F8011FECE7702969D07329BD
:1029D00032D075291BD0782909D120E0D9F8000020
:1029E000011DC9F8001001784046FEF731F9641C5A
:1029F00090E76CE0D9F800100A1DC9F800200968BA
:102A0000CDE900500A224046FEF744FAEFE7D9F834
:102A100000100A1DC9F8002009680A2206E0D9F84A
:102A200000100A1DC9F8002009681022CDE90050E5
:102A3000404601F095FFDAE7D9F8001000270A1D9B
:102A4000C9F800200E68C00705D112E04046761C88
:102A50007F1CFEF7FDF831780029F7D104E0202132
:102A600040466D1EFEF7F4F8BD42C0D9002DF6D1E8
:102A7000BDE74EB13046FDF796FC074604E0202145
:102A800040466D1EFEF7E4F8BD4206D9002DF6D192
:102A900003E04046761CFEF7DBF831780029F8D1D8
:102AA000A5E7D9F80000011DC9F80010056830211C
:102AB0004046FEF7CDF878214046FEF7C9F80820D9
:102AC0000021CDE90001034610222946B0E7BDE808
:102AD000FC8700002E2E5C2E2E5C2E2E5C2E2E5C93
:102AE0002E2E5C2E2E5C2E2E5C65787465726E61C7
:102AF0006C5C667072696E74665C6E72665F66703E
:102B000072696E74665F666F726D61742E63000029
:102B10002DE9FF411C46DDE90A7815460E46684658
:102B200000F060F846EA450141EA840141EA0722E3
:102B300042EA0841009A00EB8200C0F80017BDE8A5
:102B4000FF812DE9FF411C46DDE90A7815460E4656
:102B5000684600F087F846EA450141EA840141EA07
:102B6000072242EA0841009A00EB8200C0F80017F1
:102B7000BDE8FF811CB5002100910B4601220191A7
:102B8000FFF7C6FF1CBD1CB5002100910B460122BA
:102B90000191FFF7D6FF1CBD1CB500220B46009229
:102BA00011460192FFF7B4FF1CBD1CB500220B4675
:102BB000009211460192FFF7C4FF1CBD1CB5002115
:102BC00000910B46012201911146FFF7A1FF1CBDA8
:102BD0001CB5002100910B46012201911146FFF71F
:102BE000B0FF1CBD10B502684FF0000053094FF054
:102BF000010108D10B07D3E94C03102800D17BB1A8
:102C00000848094B184302F01F029140014204D1C9
:102C100006A14FF4E370FDF721FF4FF0A04010BD77
:102C20000F48EEE7FFC11770003800032E2E5C2E10
:102C30002E5C2E2E5C2E2E5C2E2E5C2E2E5C2E2ECE
:102C40005C6D6F64756C65735C6E7266785C6861F0
:102C50006C2F6E72665F6770696F2E6800000000EF
:102C60003F8E16F010B502684FF0000053094FF088
:102C7000010108D10B07D3E94C03102800D17BB127
:102C80000848094B184302F01F029140014204D149
:102C900006A14FF4E370FDF7E1FE4FF0A04010BD38
:102CA0000F48EEE7FFC11770003800032E2E5C2E90
:102CB0002E5C2E2E5C2E2E5C2E2E5C2E2E5C2E2E4E
:102CC0005C6D6F64756C65735C6E7266785C686170
:102CD0006C2F6E72665F6770696F2E68000000006F
:102CE0003F8E16F001B56846FFF77CFF009A012180
:102CF0009140C0F8081508BD01B56846FFF7B2FF5E
:102D0000009A01219140C0F8081508BD002108462D
:102D1000FFF798BBFFF73CBC30B5154A01460020D1
:102D2000D2F8104423460AE0DB681D79854205D1BC
:102D3000401C0A28F6DB4FF0FF3030BD1B68002B2B
:102D4000F2D1431CF9D0CB681871D2F8103443B1DA
:102D5000DB68CC681B682360D2F81024D26811604D
:102D600030BDC2F81014C96800220A6030BD0000EE
:102D7000B00400207047FDF74DBB704708B5034A0B
:102D800000924023024A00F005F808BDC544000047
:102D9000D8020020F0B595B01C4615460F460846EF
:102DA0001A9E00F08DFB182109A8FDF7F1FA0E9686
:102DB000CDE909540023082203A9384600F096FB08
:102DC00005980690BDF81000ADF81C00BDF8120083
:102DD000ADF81E0000208DF821000398082600F0B1
:102DE0000300012802D0022818D032E003983346AD
:102DF000850AC0F3C2008DF8200003980FA9C0F324
:102E00008314A200384600F071FB09A8009006ABBD
:102E100022460FA9284600F0AFFA1AE00398840D65
:102E2000C0F3C2008DF82000082C01D2254600E036
:102E3000082533462A460FA9384600F057FB2E4492
:102E4000641B09AB06AA29460FA800F0FDF9002C67
:102E5000EAD1384600F03AFB15B0F0BD70470020CB
:102E600001F01ABC084810B50178084A515C19B144
:102E7000001D01F095F902E00C3001F02FF8BDE8DB
:102E80001040002001F008BC540000202C0000205D
:102E900008B5034A00924023024AFFF77BFF08BDB2
:102EA00015450000180300200A4A012902EBC00062
:102EB00007D0022907D0032907D0042907D0002012
:102EC00070470220704704207047007970474079AE
:102ED000704700004874000010B5FFF74CFF042154
:102EE0000F48FFF719FF002803DA0E491B20FDF7F2
:102EF000B5FD0B480124C0684471FFF7B0FF0848D6
:102F000004211030FFF708FF002803DA05492220CA
:102F1000FDF7A4FD02481030C068447110BD0000E8
:102F200028740000B07200002DE9F0478CB0FDF766
:102F3000A7FE18B100200CB0BDE8F0877D4C002042
:102F4000C4F81804BFF34F8F7B49A06802900D6846
:102F50004FF00008284004EB80000BE0D4F8180480
:102F600070B961680298814201D8A160E2E7284007
:102F700004EB80000C3002A9FEF79AF80028EDD18E
:102F8000002003AA029901EA050304EB8303491C0C
:102F9000DB6842F82030401C02910228F2D30398EB
:102FA00000F00300022802D001284DD0A7E00398CA
:102FB0005022810D8946B2EB905F00D850210E4619
:102FC00066F39F50039008315C4800F030FA070028
:102FD00078D000F075FA4346082203A9384600F07D
:102FE000B5FA029908F1080A2940681A8000001D04
:102FF000864222D94F4D0C3530B1C2B204EB81016B
:10300000301A90460C3104E02946F2B20025904671
:103010002846C6B25346384600F098FA0AEB080331
:1030200025B132462946384600F090FA029909F156
:10303000030001EB900002903BE004EB810153465A
:10304000324638460C31EFE70398C0F38310062868
:1030500000D30620039960F38911C1F38310801C0B
:1030600003918100354800F0E2F9070047D000F0F5
:1030700027FA4346082203A9384600F067FA08F108
:10308000080800260FE00298434600EA0501401CAC
:1030900004EB81010290042238460C3100F056FA0C
:1030A00008F10408761C0398C0F38310B042EAD8F4
:1030B00047B1D4F81054D4F8180478B1384600F069
:1030C00005FA31E01BE0E8684079012804D12A685C
:1030D0002846394612689047E8680568002DF2D105
:1030E000384600F0F3F90020FDF710FCD4F818047E
:1030F00008B90298A0600020FDF718FC14E0D4F88D
:10310000104405E02168204689688847E068046823
:10311000002CF7D10A480B49401AC008022101EBE4
:10312000004009A100F06EF8FDF7AAFD80F0010053
:1031300001E70000B0040020780000208074000047
:1031400078740000487400004261636B656E6473BC
:1031500020666C7573686564000000002DE9F84F07
:103160008146264FD01C15468A46800800226946B3
:103170003E68FDF727FDDFF88880B0B3009CA01CF7
:10318000009039683040091A8F003F1DBD4208EB9E
:10319000800002D82A46514608E03A4651460C3093
:1031A000FDF7CEF81648EA1B0AEB07010C30FDF7D5
:1031B000C7F84FEA1947FDF7C3FD47EA0042601C14
:1031C000304008EB8000344008EB8401C260C868DE
:1031D0004FF6C07269F3C500904365F39F5020F02D
:1031E0000300801C20F00400C86098F8000001E093
:1031F000FFF79AFE0028FBD1BDE8F88F7800002089
:10320000B004002000231A4601F0A8B908B5012334
:1032100000926A4601F0A2F908BD1CB5CDE9002371
:1032200002236A4601F09AF91CBD70B586B00DF113
:10323000280C9CE870008DE87C0005236A4601F0AC
:103240008DF906B070BD00002DE9F0470E468046AE
:103250001C469246082940D894F80C900020207310
:103260001946104601F04AF80025B54206D218F872
:1032700005201BA12046FFF7B3FA03E01AA1204660
:10328000FFF7AEFA6D1C082DEFD318A12046FFF70B
:10329000A7FA0025B54212D218F805707E2F08D87B
:1032A000FDF74AF80068C05D10F03E0F01D03A46C5
:1032B00000E02E220EA12046FFF792FA03E00DA1B6
:1032C0002046FFF78DFA6D1C082DE3D3012221461D
:1032D000504600F0F5FF84F80C90BDE8F087000040
:1032E0002025303278000000202020007C000000E3
:1032F0002563000020000000064910B50120087079
:10330000054800F0E1F8002803D1044800F0ECFA89
:10331000002010BDB004002080740000A44B000009
:1033200002480349401AC00870470000807400003A
:103330004874000013B56846FEF7DEFE08B10020B1
:103340001CBD0248009950F831001CBD48740000B3
:1033500070B508480125D0F81044057007E0E06812
:1033600045712168204649688847E0680468002C58
:10337000F5D170BDB00400202DE9FF4781460C9DBA
:1033800000200C462F7B287398461646294618467F
:1033900000F0B4FF072E42D2DFE806F004090F1652
:1033A0001F2A360049462846FFF71AFA37E04946F1
:1033B00028462268FFF714FA31E0D4E90023494691
:1033C0002846FFF70DFA2AE0A0680090D4E9002310
:1033D00049462846FFF704FA21E0D4E90201CDE985
:1033E0000001D4E9002349462846FFF7F9F916E021
:1033F00004F1080007C88DE80700D4E90023494616
:103400002846FFF7EDF90AE004F108000FC88DE83F
:103410000F00D4E9002349462846FFF7E1F90022CE
:103420002946404600F04CFF2F73BDE8FF872DE989
:10343000F041058A80462D1F4819C01CB0FBF5F0ED
:10344000C6B24046FEF792FE041E19D0002020713D
:1034500001206071E58000272546761EC4F80080B3
:103460000BE04046FEF782FE60B16179491C617154
:10347000286005467F1CC0F80080B742F1D3204683
:10348000BDE8F081204600F002F80020F8E72DE9C1
:10349000F041457901466B1E002201E00968521C8B
:1034A0009A42FBD30F680146002605E038460C68B7
:1034B000FEF7C6FE2146761CAE42F7D3BDE8F0818A
:1034C0000121001DFEF736BEFEF702BF10B504460F
:1034D0000121001DFEF744FE10F0FF0F04D120462D
:1034E000BDE81040FFF7D3BF10BD00001CB5144667
:1034F0000122CDE9002401AAFEF78CFD0198A0422B
:1035000003D002A1DA20FDF7A9FA1CBD2E2E5C2EF5
:103510002E5C2E2E5C2E2E5C2E2E5C2E2E5C2E2EE5
:103520005C636F6D706F6E656E74735C6C696272F4
:1035300061726965735C6D656D6F626A5C6E7266FF
:103540005F6D656D6F626A2E630000001CB51446E6
:103550000022CDE9002401AAFEF75CFD0198A042FB
:1035600003D002A1D020FDF779FA1CBD2E2E5C2ECF
:103570002E5C2E2E5C2E2E5C2E2E5C2E2E5C2E2E85
:103580005C636F6D706F6E656E74735C6C69627294
:1035900061726965735C6D656D6F626A5C6E72669F
:1035A0005F6D656D6F626A2E6300000010B50400E8
:1035B00004D105A140F20D20FDF750FA204600F09D
:1035C00061F9A168081A10BD2E2E5C2E2E5C2E2EDD
:1035D0005C2E2E5C2E2E5C2E2E5C2E2E5C636F6D70
:1035E000706F6E656E74735C6C696272617269652E
:1035F000735C71756575655C6E72665F7175657516
:10360000652E630070B5040003D108A17220FDF798
:1036100025FA206805684168204600F025F8A84290
:1036200001D1012070BD002070BD00002E2E5C2E47
:103630002E5C2E2E5C2E2E5C2E2E5C2E2E5C2E2EC4
:103640005C636F6D706F6E656E74735C6C696272D3
:1036500061726965735C71756575655C6E72665FD4
:1036600071756575652E630070B50C46050003D154
:1036700005495D20FDF7F2F9A868A04201D9601C58
:1036800070BD002070BD0000C83500002DE9F0417C
:103690000E4604004FF0000803D12CA17D20FDF759
:1036A000DDF91EB929A17E20FDF7D8F90020FDF72C
:1036B0002DF92046FFF7A6FF070009D0207C38B17E
:1036C0004FF004080020FDF731F94046BDE8F081D5
:1036D0002068456841682046FFF7C6FF21684860BA
:1036E00037B1206801682046FFF7BEFF21680860F7
:1036F000E268012A14D0022A16D0042A19D0082A16
:103700001CD06068314605FB0200FCF719FE20461C
:1037100000F08CFE21688A688242D3D28860D1E7AB
:10372000616830784855F2E76168308821F8150003
:10373000EDE76168306841F82500E8E7D6E9000167
:10374000626802EBC502C2E90001E0E72E2E5C2EA2
:103750002E5C2E2E5C2E2E5C2E2E5C2E2E5C2E2EA3
:103760005C636F6D706F6E656E74735C6C696272B2
:1037700061726965735C71756575655C6E72665FB3
:1037800071756575652E63002DE9F04115460E468D
:1037900007004FF0000404D111A14FF4D970FDF7D8
:1037A0005DF926B90EA140F2B310FDF757F94FF0BD
:1037B0000000002D11D0FDF7A9F8384600F036FEC4
:1037C000A84205D32A463146384600F0FDFD00E008
:1037D00005240020FDF7AAF82046BDE8F08100008E
:1037E0002E2E5C2E2E5C2E2E5C2E2E5C2E2E5C2E13
:1037F0002E5C2E2E5C636F6D706F6E656E74735CE5
:103800006C69627261726965735C71756575655C1E
:103810006E72665F71756575652E630010B5040084
:1038200004D109A14FF4F570FDF718F90020FDF758
:103830006DF820680021016041608160BDE81040A2
:103840000846FDF773B800002E2E5C2E2E5C2E2E3F
:103850005C2E2E5C2E2E5C2E2E5C2E2E5C636F6DED
:10386000706F6E656E74735C6C69627261726965AB
:10387000735C71756575655C6E72665F7175657593
:10388000652E630010B5040004D108A14FF4FC704C
:10389000FDF7E4F80020FDF739F8204600F0C6FDFA
:1038A00004460020FDF742F8204610BD2E2E5C2E67
:1038B0002E5C2E2E5C2E2E5C2E2E5C2E2E5C2E2E42
:1038C0005C636F6D706F6E656E74735C6C69627251
:1038D00061726965735C71756575655C6E72665F52
:1038E00071756575652E630082680021916082683C
:1038F0001161826851618268D1608268516080681C
:103900000160704703496846884201D20120704730
:1039100000207047581100200C4A10B502F58C7336
:103920000EE0991AC91001EBD171491002EBC101E7
:103930000C68844201D90B4602E005D201F108026D
:103940009A42EED3002010BD486810BD444A0000E2
:1039500000B5FFF7E1FF002800D1014800BD0000DD
:10396000304A00004058002800D00120704708B5B8
:10397000002242504058009008BDD0F8040308408F
:1039800000D0012070474058002800D00120704727
:1039900008B5002242504058009008BD0121B1EB0B
:1039A000507F01D1012070470020704770B50D464F
:1039B000040003D10DA15120FDF750F8204600F07E
:1039C000F7FC04000FD00020FCF7A0FF207920B105
:1039D0000020FCF7ABFF112070BD01202560207195
:1039E0000020FCF7A3FF002070BD00002E2E5C2EEF
:1039F0002E5C2E2E5C2E2E5C2E2E5C2E2E5C2E2E01
:103A00005C6D6F64756C65735C6E7266785C647215
:103A100069766572735C7372635C7072735C6E72EC
:103A200066785F7072732E630000000010B50400AA
:103A300003D106A17520FDF711F8204600F0B8FC6F
:103A4000002802D000210160017110BD2E2E5C2ED5
:103A50002E5C2E2E5C2E2E5C2E2E5C2E2E5C2E2EA0
:103A60005C6D6F64756C65735C6E7266785C6472B5
:103A700069766572735C7372635C7072735C6E728C
:103A800066785F7072732E630000000001B56946AE
:103A90000548FFF7FBFD0448FFF7B4FD002801D0FF
:103AA00000F0B2F808BD00009474000070B50E4636
:103AB000040003D118A11820FCF7D0FF1EB916A1ED
:103AC0001920FCF7CBFF234D287808B1852070BD65
:103AD0006E602078C00704D01F48016841F00101E2
:103AE00001601E48D0F8001221F00101C0F8001258
:103AF0006478082C03D31AA14520FCF7AFFF2549B1
:103B0000600181F8000401204FF0E0224103C2F877
:103B100000112870002070BD2E2E5C2E2E5C2E2EE3
:103B20005C2E2E5C2E2E5C2E2E5C2E2E5C6D6F6419
:103B3000756C65735C6E7266785C647269766572CA
:103B4000735C7372635C6E7266785F726E672E630D
:103B5000000000004000002004D5004000D00040DC
:103B60002E2E5C2E2E5C2E2E5C2E2E5C2E2E5C2E8F
:103B70002E5C2E2E5C696E746567726174696F6E5F
:103B80005C6E7266785C6E7266785F676C75652EC7
:103B9000680000000DE000E0094808B50078012841
:103BA00003D008A13020FCF759FF16490022144821
:103BB0000A60096800910121C0F80413016008BD82
:103BC000400000202E2E5C2E2E5C2E2E5C2E2E5CB5
:103BD0002E2E5C2E2E5C2E2E5C6D6F64756C6573C4
:103BE0005C6E7266785C647269766572735C73721F
:103BF000635C6E7266785F726E672E630000000011
:103C000000D0004000D10040074810B500780128DE
:103C100003D006A13820FCF721FF13490120C1F889
:103C20000803091D086010BD400000202E2E5C2EE8
:103C30002E5C2E2E5C2E2E5C2E2E5C2E2E5C2E2EBE
:103C40005C6D6F64756C65735C6E7266785C6472D3
:103C500069766572735C7372635C6E7266785F72AC
:103C60006E672E630000000000D0004010B50D4CC0
:103C70002078012803D00CA13F20FCF7EFFE194962
:103C80000120C1F80803091D086041034FF0E0223C
:103C90000020C2F88011BFF34F8FBFF36F8F2070E9
:103CA00010BD0000400000202E2E5C2E2E5C2E2E1B
:103CB0005C2E2E5C2E2E5C2E2E5C2E2E5C6D6F6488
:103CC000756C65735C6E7266785C64726976657239
:103CD000735C7372635C6E7266785F726E672E637C
:103CE0000000000000D000400149024800F000BD83
:103CF00068020020002000402DE9F04117460D0029
:103D0000064603D11AA18420FCF7A8FE3079274A81
:103D100000EB400101EBC00102EB810494F82A1092
:103D200011B10820BDE8F081214951F82010306818
:103D3000FFF73CFE08B11120F4E729463046FCF7B6
:103D400017FE6760286920601FB1297F3046FDF7A4
:103D5000F5F830680421C0F800150020A061E0618A
:103D600084F8290044F8140F0121A175DAE7000056
:103D70002E2E5C2E2E5C2E2E5C2E2E5C2E2E5C2E7D
:103D80002E5C2E2E5C6D6F64756C65735C6E726656
:103D9000785C647269766572735C7372635C6E7270
:103DA00066785F756172742E6300000068020020FF
:103DB000184A00002DE9F05F054600790F4600EB38
:103DC000400101EBC0002D49164601EB800494F838
:103DD0002A00012803D02AA1F220FCF73FFE1FB9D8
:103DE00027A1F320FCF73AFE1EB925A1F420FCF729
:103DF00035FE284600F062F810B11120BDE8F09FB2
:103E000066614FF00009C4F82090A76084F82890FC
:103E10004FF48E784E4641462868FFF7A8FD286883
:103E20004FF0010AC0F808A02146286800F0ECFB1A
:103E3000606800BBD5F800B067690EE094F8280010
:103E400008B10F2615E041465846FFF78BFD0028C4
:103E5000F4D02146584600F0D7FB206AB842F2D38E
:103E6000574641462868FFF77DFD0028F9D02868AD
:103E7000C760C4F814903046C0E700006802002014
:103E80002E2E5C2E2E5C2E2E5C2E2E5C2E2E5C2E6C
:103E90002E5C2E2E5C6D6F64756C65735C6E726645
:103EA000785C647269766572735C7372635C6E725F
:103EB00066785F756172742E63000000007900EB14
:103EC000400101EBC000044901EB8000406900287B
:103ED00000D0012070470000680200202DE9F04763
:103EE000044600794FF0000900EB400101EBC000EF
:103EF000284901EB80072068C0F800957868B0B1C8
:103F000020682549C0F80813206840F307300028CE
:103F10000DDB00F01F02012191404009800000F1FB
:103F2000E020C0F88011BFF34F8FBFF36F8F206880
:103F3000D0F80C25D0F81485D0F80865D0F81055C5
:103F40004FF0FF31C0F81415C0F80C152068C0F808
:103F50000815C0F81015501C02D01046FEF70AFED6
:103F6000B8F1FF3F02D04046FEF704FE681C02D0C5
:103F70002846FEF7FFFD701C02D03046FEF7FAFD22
:103F80002068FFF753FD87F82A90C7F80490BDE832
:103F9000F087000068020020840202000149024804
:103FA00000F054BC94020020002000402DE9F041B4
:103FB00017460D00064603D118A1A920FCF74EFDB7
:103FC0003079254A00EBC00102EB810494F82010FF
:103FD00011B10820BDE8F081204951F82010306867
:103FE000FFF7E4FC08B11120F4E729463046FCF75E
:103FF000FAFC6760286920601FB1297F3046FCF712
:10400000F3FF30680821C0F800150020A061E061CE
:104010006061012184F82010DCE700002E2E5C2E68
:104020002E5C2E2E5C2E2E5C2E2E5C2E2E5C2E2ECA
:104030005C6D6F64756C65735C6E7266785C6472DF
:1040400069766572735C7372635C6E7266785F75B5
:10405000617274652E630000940200201C4A000007
:104060002DE9F04704460F460079364900EBC000C1
:1040700001EB8005164695F82000012804D032A1F6
:1040800040F22D10FCF7EAFC27B92FA14FF49770EE
:10409000FCF7E4FC26B92CA140F22F10FCF7DEFC63
:1040A000207910B9B6F5004F04D327A14FF49870CA
:1040B000FCF7D4FC3846FFF771FC30B1204600F025
:1040C00061F820B11120BDE8F0871020FBE76E6198
:1040D000AF604FF490774FF0000839462068FFF743
:1040E00057FC4FF4AC7631462068FFF751FC20684E
:1040F000AA686969C0F84425C0F8481520684FF0DF
:104100000109C0F808906868D0B9BA4651462068DD
:10411000FFF739FC074631462068FFF734FC0743B8
:10412000F4D010B14FF00F0808E02068C0F80C90F0
:1041300031462068FFF727FC0028F9D0002068618D
:104140004046C0E7940200202E2E5C2E2E5C2E2EC0
:104150005C2E2E5C2E2E5C2E2E5C2E2E5C6D6F64E3
:10416000756C65735C6E7266785C64726976657294
:10417000735C7372635C6E7266785F75617274658E
:104180002E6300000079054900EBC00001EB8000C0
:104190004069002800D001207047000094020020F0
:1041A0002DE9F047064600793D4900EBC00001EBE0
:1041B0008005346868680127A8B13A49C4F8081333
:1041C000306840F3073000280DDB00F01F0107FACC
:1041D00001F14009800000F1E020C0F88011BFF338
:1041E0004F8FBFF36F8FD4F8000220F02000C4F887
:1041F0000002A8694FF4A27820B141462046FFF79B
:10420000C7FB67604FF4AC7949462046FFF7C0FB17
:10421000E760474649462046FFF7B5FB0028F9D03E
:10422000A86928B139462046FFF7ADFB0028F1D038
:104230004FF0000AC4F800A53068D0F80C25D0F87B
:104240001495D0F80885D0F810754FF0FF31C0F8FC
:104250000C15C0F814153068C0F80815C0F8101512
:10426000501C02D01046FEF78EFCB9F1FF3F02D081
:104270004846FEF788FC781C02D03846FEF783FCDF
:10428000B8F1FF3F02D04046FEF77DFC2046FFF725
:10429000CDFB85F820A0C5F804A0BDE8F08700009C
:1042A000940200201003420003490860034801689B
:1042B0000029FCD07047000004E5014000E4014003
:1042C00010B50C46017A052908D0407A38B1084863
:1042D00008A102682046FEF783FA00E01AB106A1A1
:1042E0002046FEF77DFA2046BDE81040FEF7B8BA3A
:1042F000A8000020257300000D0A000038B5C3880F
:104300000D46044633B114A0009015A216A128460C
:10431000FEF766FA217A05291CD0607A48B1A08898
:10432000FEF7C2FD164951F8202016A12846FEF7D7
:1043300057FAA0880021FEF7FDFF03461049207AB6
:10434000143951F8202001B02846BDE830400EA1B4
:10435000FEF746BA38BD00001B5B306D0000000060
:104360001B5B313B33316D0025734C6F67732064E9
:10437000726F70706564202825642925730D0A000A
:10438000A8000020257300003C25733E2025733AC9
:1043900020000000EFF30580C005C00D01D0012012
:1043A0007047EFF3148040F30000401C704700009A
:1043B0000349884201D1034870470020704700003C
:1043C00000200040380000202DE9F0470446006836
:1043D00016468946076800212046FCF75DFC054625
:1043E000D4F80C806068AE4207FB08010DD808FBCA
:1043F00006F24846FBF7A4FFA168B819884200D925
:10440000002021680860BDE8F08708FB05F84246F7
:104410004846FBF795FFE268751B6A4309EB080005
:104420006168FBF78DFF20680560ECE701680A68AA
:104430004968914201D3881A70478068801A0844FD
:10444000401C704710F1380F07D010F1360F07D01D
:10445000002801D048F21650704748F211507047BA
:1044600048F21450704770B5054688690C4600281C
:104470004FF4847128460AD0FFF779FAD5F8180569
:10448000626AE1688854606A401C606270BDFFF730
:104490006EFAD5F8180570BD1FB501238DF80030F0
:1044A000CDE90121D0E90012684690471FBD1FB534
:1044B00001238DF80030CDE90121D0E900126846D2
:1044C00090471FBD2DE9F0411400884618D0002503
:1044D0000E4F032608EB050122460020FBF79CFF48
:1044E0000544241A40B93878002809D008494FF407
:1044F0007A408847761E05D001203870002CE9D11B
:10450000BDE8F08100203870FAE700004C00002080
:10451000714B000070B50E4C0020D2B22070201DEF
:104520000C4D0378EB5C1BB1001DFFF799FD02E019
:104530000C30FFF73FFC18B1074A2D21FBF76AFE4C
:104540006078002802D021780029FAD070BD0000E0
:10455000500000202C000020647200002DE9F84F6C
:10456000054626489146884606681F460122694648
:104570001846FCF727FBDFF888A0B0B300980021AD
:104580000446801C0AE000BF00EA060259F821C078
:104590000AEB8202401C491CC2F80CC0B942F3D39A
:1045A000B9462F0CFCF7CCFB8346FEF7B9FEB842A8
:1045B00004D8144940F28310FCF750FA601C3040D4
:1045C0000AEB800047EA0B423440C2600AEB8400E9
:1045D000C16865F3C50169F3891168F39F2121F072
:1045E0000301491C21F00401C1609AF8000001E0B8
:1045F000FEF79AFC0028FBD1BDE8F88F7800002078
:10460000B00400200073000070B50C4605464FF45E
:104610008E71FFF7ACF9216AA068415C206A401CEA
:104620002062C5F81C1570BD1FB500228DF8002052
:104630000291816801914261D0E900126846904779
:104640001FBD1FB500228DF80020029181680191E5
:104650004261D0E90012684690471FBD1FB50A4667
:1046600001788DF8001041680191017A8DF80810E9
:10467000C0680390044850F82210001F50F8222010
:10468000684690471FBD000034000020014901200A
:10469000087070475000002010B588B004462022F2
:1046A0000F496846FBF74CFE06200090C01F0190A2
:1046B000029003904FF0EB7006900CB1094A00E0B5
:1046C000002269460848FEF757F818B1074A1D212D
:1046D000FBF7A0FD0448001F447008B010BD0000A7
:1046E000844B00008D4600005400002064720000DE
:1046F0002DE9FF470C4605464FF40071FFF73DF9E1
:1047000001274FF40178002618B34FF492794946F7
:104710002846FFF727F9E0B149462846FFF727F971
:10472000C5F8088394F8290000B96F6002208DF85D
:104730000000D5F88004C5F880040390A0690290B9
:10474000E0680190A661E661D4E9001268469047EE
:1047500028E004212846FFF710F918B34FF48471BC
:104760002846FFF7FFF8E8B121462846FFF77BFE11
:10477000616AA069884215D1E06938B1E268616A6E
:10478000A0612069E6616662E06008E094F82900B3
:1047900000B96F60C5F80883A661E268616A2046C7
:1047A000FFF77AFE4FF48E7841462846FFF7DAF895
:1047B00080B16069216A814202D294F8280028B34E
:1047C00041462846FFF7D3F8606918B16169204671
:1047D000FFF72AFF4FF4A27841462846FFF7C2F8B8
:1047E000002818D041462846FFF7C1F894F8290060
:1047F00000B12F60A06900280DD0A661E268616A4F
:1048000004B02046BDE8F047FFF746BE21462846E3
:10481000FFF7FAFEDEE7BDE8FF8700001FB50A4696
:1048200001788DF8001041680191017A8DF8081027
:10483000C0680390044850F82210001F50F822204E
:10484000684690471FBD0000340000202DE9FF415D
:104850000C464FF4927705463946FFF794F8002648
:10486000B8B139462846FFF793F802208DF80000CA
:10487000D5F88004C5F880040390D5F83C05029073
:10488000E0680190A661E661D4E9001268469047AD
:1048900023E04FF4887739462846FFF774F8E0B1F3
:1048A00039462846FFF774F8D5F83C15A0698842C8
:1048B00013D1E06960B1E268D5F8000220F0200071
:1048C000C5F80002E069A0612069E661E06001E0EE
:1048D000A661E2682046FFF7EAFD4FF4A277394669
:1048E0002846FFF750F868B139462846FFF750F8D8
:1048F000A06938B1A661E661D5F83C152046E268AA
:10490000FFF7D5FD4FF4907631462846FFF73BF888
:1049100060B131462846FFF73BF80120E860606946
:1049200020B1D5F84C152046FFF78BFE4FF4AC763E
:1049300031462846FFF727F800280ED03146284692
:10494000FFF726F86069002807D0D5F84C1504B0A9
:104950002046BDE8F041FFF774BEBDE8FF810000CE
:104960002DE9F05F8346DDE90A4A994690460D46F7
:104970000846012703E000BFB0FBF8F07F1C40456C
:10498000FAD2B94500D94F465FEACA7012D18CB14C
:104990005FEA8A7002D5B9F1000F01D0202607E046
:1049A000302605E031465846641EFCF751F90CB13B
:1049B000A742F7D35FF00106B9F1010F02D9A9F1BF
:1049C000010903E0B5FBF6F0404502D306FB08F60B
:1049D000F2E7DFF83C9000BFB5FBF6F000FB1655A0
:1049E00019F800105846FCF733F9B6FBF8F6002E1C
:1049F000F2D15FEACA7009D0002C07D0A74205D2D5
:104A000020215846641EFCF723F9F5E7BDE8F09F26
:104A1000204A000001060000E93C00009D3F000024
:104A200030313233343536373839414243444546E4
:104A3000556E6B6E6F776E206572726F7220636F4A
:104A40006465000000000000087200000100000022
:104A5000C870000002000000BC6E000003000000EF
:104A60003C7100000400000090710000050000008F
:104A700070700000060000000C70000007000000CD
:104A80007871000008000000847000000900000038
:104A9000E87000000A000000F07100000B00000048
:104AA000A46E00000C0000009C7000000D000000CF
:104AB000407200000E000000687100000F0000004E
:104AC000A471000010000000D87100001100000067
:104AD000547200008000000024700000810000007B
:104AE000606F000082000000206F00008300000063
:104AF000006F0000840000003C6F00008500000093
:104B00004870000086000000507100009000000016
:104B1000EC6F000091000000E06E000092000000C9
:104B2000B070000000820000B87100000182000037
:104B30000471000002820000207100000084000067
:104B40007C6F0000018400001472000002840000E9
:104B5000C46F000003840000A06F00007D2D0000E2
:104B60007B2D0000752D00000000000000000000FB
:104B70000338FDD870470000912E0000652E00001C
:104B80005D2E0000FFFFFFFFFFFFFFFFFFFFFFFFA6
:104B9000FFFFFFFF00000000000000000000D60142
:104BA00006010000180400207F0000009804002087
:104BB000637C777BF26B6FC53001672BFED7AB76DA
:104BC000CA82C97DFA5947F0ADD4A2AF9CA472C085
:104BD000B7FD9326363FF7CC34A5E5F171D83115F2
:104BE00004C723C31896059A071280E2EB27B27513
:104BF00009832C1A1B6E5AA0523BD6B329E32F848B
:104C000053D100ED20FCB15B6ACBBE394A4C58CF82
:104C1000D0EFAAFB434D338545F9027F503C9FA856
:104C200051A3408F929D38F5BCB6DA2110FFF3D224
:104C3000CD0C13EC5F974417C4A77E3D645D1973D8
:104C400060814FDC222A908846EEB814DE5E0BDBD2
:104C5000E0323A0A4906245CC2D3AC629195E47909
:104C6000E7C8376D8DD54EA96C56F4EA657AAE0863
:104C7000BA78252E1CA6B4C6E8DD741F4BBD8B8AFE
:104C8000703EB5664803F60E613557B986C11D9E64
:104C9000E1F8981169D98E949B1E87E9CE5528DFDB
:104CA0008CA1890DBFE6426841992D0FB054BB1607
:104CB000C66363A5F87C7C84EE777799F67B7B8D61
:104CC000FFF2F20DD66B6BBDDE6F6FB191C5C554AF
:104CD0006030305002010103CE6767A9562B2B7D4F
:104CE000E7FEFE19B5D7D7624DABABE6EC76769A08
:104CF0008FCACA451F82829D89C9C940FA7D7D87B6
:104D0000EFFAFA15B25959EB8E4747C9FBF0F00B91
:104D100041ADADECB3D4D4675FA2A2FD45AFAFEA1D
:104D2000239C9CBF53A4A4F7E47272969BC0C05B03
:104D300075B7B7C2E1FDFD1C3D9393AE4C26266AC4
:104D40006C36365A7E3F3F41F5F7F70283CCCC4FA5
:104D50006834345C51A5A5F4D1E5E534F9F1F108E6
:104D6000E2717193ABD8D873623131532A15153F74
:104D70000804040C95C7C752462323659DC3C35E30
:104D800030181828379696A10A05050F2F9A9AB55C
:104D90000E070709241212361B80809BDFE2E23DDA
:104DA000CDEBEB264E2727697FB2B2CDEA75759F12
:104DB0001209091B1D83839E582C2C74341A1A2E39
:104DC000361B1B2DDC6E6EB2B45A5AEE5BA0A0FBF4
:104DD000A45252F6763B3B4DB7D6D6617DB3B3CEE7
:104DE0005229297BDDE3E33E5E2F2F7113848497E4
:104DF000A65353F5B9D1D16800000000C1EDED2CE8
:104E000040202060E3FCFC1F79B1B1C8B65B5BEDCC
:104E1000D46A6ABE8DCBCB4667BEBED97239394BD8
:104E2000944A4ADE984C4CD4B05858E885CFCF4AC3
:104E3000BBD0D06BC5EFEF2A4FAAAAE5EDFBFB165E
:104E4000864343C59A4D4DD76633335511858594B6
:104E50008A4545CFE9F9F91004020206FE7F7F81F9
:104E6000A05050F0783C3C44259F9FBA4BA8A8E343
:104E7000A25151F35DA3A3FE804040C0058F8F8AED
:104E80003F9292AD219D9DBC70383848F1F5F504F4
:104E900063BCBCDF77B6B6C1AFDADA7542212163F5
:104EA00020101030E5FFFF1AFDF3F30EBFD2D26DD4
:104EB00081CDCD4C180C0C1426131335C3ECEC2FFC
:104EC000BE5F5FE1359797A2884444CC2E1717390F
:104ED00093C4C45755A7A7F2FC7E7E827A3D3D4716
:104EE000C86464ACBA5D5DE73219192BE67373953B
:104EF000C06060A0198181989E4F4FD1A3DCDC7FF8
:104F000044222266542A2A7E3B9090AB0B888883E9
:104F10008C4646CAC7EEEE296BB8B8D32814143CA9
:104F2000A7DEDE79BC5E5EE2160B0B1DADDBDB7629
:104F3000DBE0E03B64323256743A3A4E140A0A1E01
:104F4000924949DB0C06060A4824246CB85C5CE4F0
:104F50009FC2C25DBDD3D36E43ACACEFC46262A648
:104F6000399191A8319595A4D3E4E437F279798BFE
:104F7000D5E7E7328BC8C8436E373759DA6D6DB75E
:104F8000018D8D8CB1D5D5649C4E4ED249A9A9E036
:104F9000D86C6CB4AC5656FAF3F4F407CFEAEA25B1
:104FA000CA6565AFF47A7A8E47AEAEE91008081884
:104FB0006FBABAD5F07878884A25256F5C2E2E72A4
:104FC000381C1C2457A6A6F173B4B4C797C6C651A3
:104FD000CBE8E823A1DDDD7CE874749C3E1F1F2133
:104FE000964B4BDD61BDBDDC0D8B8B860F8A8A85B0
:104FF000E07070907C3E3E4271B5B5C4CC6666AA46
:10500000904848D806030305F7F6F6011C0E0E1269
:10501000C26161A36A35355FAE5757F969B9B9D036
:105020001786869199C1C1583A1D1D27279E9EB9A2
:10503000D9E1E138EBF8F8132B9898B3221111332A
:10504000D26969BBA9D9D970078E8E89339494A788
:105050002D9B9BB63C1E1E2215878792C9E9E9202D
:1050600087CECE49AA5555FF50282878A5DFDF7A8C
:10507000038C8C8F59A1A1F8098989801A0D0D170D
:1050800065BFBFDAD7E6E631844242C6D06868B869
:10509000824141C3299999B05A2D2D771E0F0F11C6
:1050A0007BB0B0CBA85454FC6DBBBBD62C16163AC3
:1050B000A5C6636384F87C7C99EE77778DF67B7B5D
:1050C0000DFFF2F2BDD66B6BB1DE6F6F5491C5C5AB
:1050D0005060303003020101A9CE67677D562B2B4B
:1050E00019E7FEFE62B5D7D7E64DABAB9AEC767604
:1050F000458FCACA9D1F82824089C9C987FA7D7DB2
:1051000015EFFAFAEBB25959C98E47470BFBF0F08D
:10511000EC41ADAD67B3D4D4FD5FA2A2EA45AFAF19
:10512000BF239C9CF753A4A496E472725B9BC0C0FF
:10513000C275B7B71CE1FDFDAE3D93936A4C2626C0
:105140005A6C3636417E3F3F02F5F7F74F83CCCCA1
:105150005C683434F451A5A534D1E5E508F9F1F1E2
:1051600093E2717173ABD8D8536231313F2A151570
:105170000C0804045295C7C7654623235E9DC3C32C
:1051800028301818A13796960F0A0505B52F9A9A58
:10519000090E0707362412129B1B80803DDFE2E2D6
:1051A00026CDEBEB694E2727CD7FB2B29FEA75750E
:1051B0001B1209099E1D838374582C2C2E341A1A35
:1051C0002D361B1BB2DC6E6EEEB45A5AFB5BA0A0F0
:1051D000F6A452524D763B3B61B7D6D6CE7DB3B3E3
:1051E0007B5229293EDDE3E3715E2F2F97138484E0
:1051F000F5A6535368B9D1D1000000002CC1EDEDE4
:10520000604020201FE3FCFCC879B1B1EDB65B5BC8
:10521000BED46A6A468DCBCBD967BEBE4B723939D4
:10522000DE944A4AD4984C4CE8B058584A85CFCFBF
:105230006BBBD0D02AC5EFEFE54FAAAA16EDFBFB5A
:10524000C5864343D79A4D4D5566333394118585B2
:10525000CF8A454510E9F9F90604020281FE7F7FF5
:10526000F0A0505044783C3CBA259F9FE34BA8A83F
:10527000F3A25151FE5DA3A3C08040408A058F8FE9
:10528000AD3F9292BC219D9D4870383804F1F5F5F0
:10529000DF63BCBCC177B6B675AFDADA63422121F1
:1052A000302010101AE5FFFF0EFDF3F36DBFD2D2D0
:1052B0004C81CDCD14180C0C352613132FC3ECECF8
:1052C000E1BE5F5FA2359797CC884444392E17170B
:1052D0005793C4C4F255A7A782FC7E7E477A3D3D12
:1052E000ACC86464E7BA5D5D2B32191995E6737337
:1052F000A0C0606098198181D19E4F4F7FA3DCDCF4
:10530000664422227E542A2AAB3B9090830B8888E5
:10531000CA8C464629C7EEEED36BB8B83C281414A5
:1053200079A7DEDEE2BC5E5E1D160B0B76ADDBDB25
:105330003BDBE0E0566432324E743A3A1E140A0AFD
:10534000DB9249490A0C06066C482424E4B85C5CEC
:105350005D9FC2C26EBDD3D3EF43ACACA6C4626244
:10536000A8399191A431959537D3E4E48BF27979FA
:1053700032D5E7E7438BC8C8596E3737B7DA6D6D5A
:105380008C018D8D64B1D5D5D29C4E4EE049A9A932
:10539000B4D86C6CFAAC565607F3F4F425CFEAEAAD
:1053A000AFCA65658EF47A7AE947AEAE1810080880
:1053B000D56FBABA88F078786F4A2525725C2E2EA0
:1053C00024381C1CF157A6A6C773B4B45197C6C69F
:1053D00023CBE8E87CA1DDDD9CE87474213E1F1F2F
:1053E000DD964B4BDC61BDBD860D8B8B850F8A8AAC
:1053F00090E07070427C3E3EC471B5B5AACC666642
:10540000D89048480506030301F7F6F6121C0E0E65
:10541000A3C261615F6A3535F9AE5757D069B9B932
:10542000911786865899C1C1273A1D1DB9279E9E9E
:1054300038D9E1E113EBF8F8B32B98983322111126
:10544000BBD2696970A9D9D989078E8EA733949484
:10545000B62D9B9B223C1E1E9215878720C9E9E929
:105460004987CECEFFAA5555785028287AA5DFDF88
:105470008F038C8CF859A1A180098989171A0D0D09
:10548000DA65BFBF31D7E6E6C6844242B8D0686865
:10549000C3824141B0299999775A2D2D111E0F0FC2
:1054A000CB7BB0B0FCA85454D66DBBBB3A2C1616BF
:1054B00063A5C6637C84F87C7799EE777B8DF67B59
:1054C000F20DFFF26BBDD66B6FB1DE6FC55491C5A7
:1054D000305060300103020167A9CE672B7D562B47
:1054E000FE19E7FED762B5D7ABE64DAB769AEC7600
:1054F000CA458FCA829D1F82C94089C97D87FA7DAE
:10550000FA15EFFA59EBB25947C98E47F00BFBF089
:10551000ADEC41ADD467B3D4A2FD5FA2AFEA45AF15
:105520009CBF239CA4F753A47296E472C05B9BC0FB
:10553000B7C275B7FD1CE1FD93AE3D93266A4C26BC
:10554000365A6C363F417E3FF702F5F7CC4F83CC9D
:10555000345C6834A5F451A5E534D1E5F108F9F1DE
:105560007193E271D873ABD831536231153F2A156C
:10557000040C0804C75295C723654623C35E9DC328
:105580001828301896A13796050F0A059AB52F9A54
:1055900007090E0712362412809B1B80E23DDFE2D2
:1055A000EB26CDEB27694E27B2CD7FB2759FEA750A
:1055B000091B1209839E1D832C74582C1A2E341A31
:1055C0001B2D361B6EB2DC6E5AEEB45AA0FB5BA0EC
:1055D00052F6A4523B4D763BD661B7D6B3CE7DB3DF
:1055E000297B5229E33EDDE32F715E2F84971384DC
:1055F00053F5A653D168B9D100000000ED2CC1EDE0
:1056000020604020FC1FE3FCB1C879B15BEDB65BC4
:105610006ABED46ACB468DCBBED967BE394B7239D0
:105620004ADE944A4CD4984C58E8B058CF4A85CFBB
:10563000D06BBBD0EF2AC5EFAAE54FAAFB16EDFB56
:1056400043C586434DD79A4D3355663385941185AE
:1056500045CF8A45F910E9F9020604027F81FE7FF1
:1056600050F0A0503C44783C9FBA259FA8E34BA83B
:1056700051F3A251A3FE5DA340C080408F8A058FE5
:1056800092AD3F929DBC219D38487038F504F1F5EC
:10569000BCDF63BCB6C177B6DA75AFDA21634221ED
:1056A00010302010FF1AE5FFF30EFDF3D26DBFD2CC
:1056B000CD4C81CD0C14180C13352613EC2FC3ECF4
:1056C0005FE1BE5F97A2359744CC884417392E1707
:1056D000C45793C4A7F255A77E82FC7E3D477A3D0E
:1056E00064ACC8645DE7BA5D192B32197395E67333
:1056F00060A0C060819819814FD19E4FDC7FA3DCF0
:10570000226644222A7E542A90AB3B9088830B88E1
:1057100046CA8C46EE29C7EEB8D36BB8143C2814A1
:10572000DE79A7DE5EE2BC5E0B1D160BDB76ADDB21
:10573000E03BDBE0325664323A4E743A0A1E140AF9
:1057400049DB9249060A0C06246C48245CE4B85CE8
:10575000C25D9FC2D36EBDD3ACEF43AC62A6C46240
:1057600091A8399195A43195E437D3E4798BF279F6
:10577000E732D5E7C8438BC837596E376DB7DA6D56
:105780008D8C018DD564B1D54ED29C4EA9E049A92E
:105790006CB4D86C56FAAC56F407F3F4EA25CFEAA9
:1057A00065AFCA657A8EF47AAEE947AE081810087C
:1057B000BAD56FBA7888F078256F4A252E725C2E9C
:1057C0001C24381CA6F157A6B4C773B4C65197C69B
:1057D000E823CBE8DD7CA1DD749CE8741F213E1F2B
:1057E0004BDD964BBDDC61BD8B860D8B8A850F8AA8
:1057F0007090E0703E427C3EB5C471B566AACC663E
:1058000048D8904803050603F601F7F60E121C0E61
:1058100061A3C261355F6A3557F9AE57B9D069B92E
:1058200086911786C15899C11D273A1D9EB9279E9A
:10583000E138D9E1F813EBF898B32B981133221122
:1058400069BBD269D970A9D98E89078E94A7339480
:105850009BB62D9B1E223C1E87921587E920C9E925
:10586000CE4987CE55FFAA5528785028DF7AA5DF84
:105870008C8F038CA1F859A1898009890D171A0D05
:10588000BFDA65BFE631D7E642C6844268B8D06861
:1058900041C3824199B029992D775A2D0F111E0FBE
:1058A000B0CB7BB054FCA854BBD66DBB163A2C16BB
:1058B0006363A5C67C7C84F8777799EE7B7B8DF655
:1058C000F2F20DFF6B6BBDD66F6FB1DEC5C55491A3
:1058D00030305060010103026767A9CE2B2B7D5643
:1058E000FEFE19E7D7D762B5ABABE64D76769AECFC
:1058F000CACA458F82829D1FC9C940897D7D87FAAA
:10590000FAFA15EF5959EBB24747C98EF0F00BFB85
:10591000ADADEC41D4D467B3A2A2FD5FAFAFEA4511
:105920009C9CBF23A4A4F753727296E4C0C05B9BF7
:10593000B7B7C275FDFD1CE19393AE3D26266A4CB8
:1059400036365A6C3F3F417EF7F702F5CCCC4F8399
:1059500034345C68A5A5F451E5E534D1F1F108F9DA
:10596000717193E2D8D873AB3131536215153F2A68
:1059700004040C08C7C7529523236546C3C35E9D24
:10598000181828309696A13705050F0A9A9AB52F50
:105990000707090E1212362480809B1BE2E23DDFCE
:1059A000EBEB26CD2727694EB2B2CD7F75759FEA06
:1059B00009091B1283839E1D2C2C74581A1A2E342D
:1059C0001B1B2D366E6EB2DC5A5AEEB4A0A0FB5BE8
:1059D0005252F6A43B3B4D76D6D661B7B3B3CE7DDB
:1059E00029297B52E3E33EDD2F2F715E84849713D8
:1059F0005353F5A6D1D168B900000000EDED2CC1DC
:105A000020206040FCFC1FE3B1B1C8795B5BEDB6C0
:105A10006A6ABED4CBCB468DBEBED96739394B72CC
:105A20004A4ADE944C4CD4985858E8B0CFCF4A85B7
:105A3000D0D06BBBEFEF2AC5AAAAE54FFBFB16ED52
:105A40004343C5864D4DD79A3333556685859411AA
:105A50004545CF8AF9F910E9020206047F7F81FEED
:105A60005050F0A03C3C44789F9FBA25A8A8E34B37
:105A70005151F3A2A3A3FE5D4040C0808F8F8A05E1
:105A80009292AD3F9D9DBC2138384870F5F504F1E8
:105A9000BCBCDF63B6B6C177DADA75AF21216342E9
:105AA00010103020FFFF1AE5F3F30EFDD2D26DBFC8
:105AB000CDCD4C810C0C141813133526ECEC2FC3F0
:105AC0005F5FE1BE9797A2354444CC881717392E03
:105AD000C4C45793A7A7F2557E7E82FC3D3D477A0A
