:1000000000000120BD020000E5020000E702000040
:10001000E9020000EB020000ED0200000000000019
:10002000000000000000000000000000EF020000DF
:10003000F102000000000000F3020000F5020000E1
:10004000154700005968000085470000F7020000CE
:10005000F7020000F7020000F7020000F7020000BC
:100060008D490000F7020000F7020000F7020000CF
:10007000F7020000F7020000F7020000F70200009C
:10008000F7020000750B0000F7020000F702000005
:10009000F7020000F7020000F7020000F70200007C
:1000A000F7020000F7020000F7020000F70200006C
:1000B000F7020000F702000000000000000000004E
:1000C000F7020000F7020000F7020000F70200004C
:1000D000F7020000F7020000F70200000000000035
:1000E0000000000000000000000000000000000010
:1000F0000000000000000000000000000000000000
:1001000000000000000000000000000000000000EF
:1001100000000000000000000000000000000000DF
:1001200000000000000000000000000000000000CF
:1001300000000000000000000000000000000000BF
:1001400000000000000000000000000000000000AF
:10015000000000000000000000000000000000009F
:10016000000000000000000000000000000000008F
:10017000000000000000000000000000000000007F
:10018000000000000000000000000000000000006F
:10019000000000000000000000000000000000005F
:1001A000000000000000000000000000000000004F
:1001B000000000000000000000000000000000003F
:1001C000000000000000000000000000000000002F
:1001D000000000000000000000000000000000001F
:1001E000000000000000000000000000000000000F
:1001F00000000000000000000000000000000000FF
:1002000010B5054C237833B9044B13B10448AFF350
:1002100000800123237010BD1801002000000000A1
:100220007489000008B5034B1BB103490348AFF3C1
:10023000008008BD000000001C010020748900003F
:10024000A3F5803A704700BF174B002B08BF134B34
:100250009D46FFF7F5FF00218B460F461348144AD1
:10026000121A06F0C3FD0E4B002B00D098470D4B21
:10027000002B00D098470020002104000D000D48FD
:10028000002802D00C48AFF3008006F063FD200088
:10029000290005F059FA06F049FD00BF00000800EA
:1002A00000000000000000000000012018010020F4
:1002B0001C07002000000000000000000649074A5B
:1002C000074B9B1A03DD043BC858D050FBDC06F0FB
:1002D0003DFBFFF7B9FF0000488A00000000002046
:1002E00018010020FEE7FEE7FEE7FEE7FEE7FEE777
:1002F000FEE7FEE7FEE7FEE700B585B00346002116
:1003000001AA44F20100CDE90111039300F004F8C1
:1003100005B05DF804FB00BF72B6094BD3F8F030AE
:10032000DB0700D500BEBFF34F8F0549054BCA68F8
:1003300002F4E0621343CB60BFF34F8F00BFFDE7D1
:1003400000ED00E00400FA0530B48D688468C368ED
:10035000CA68A54272EB03032CBF0120002030BC09
:10036000704700BF2DE9F04F2DED028B83B008EEF2
:10037000100A00F0BDFB40B1B04AD2E9003113F1E0
:10038000807341F10001C2E9003118EE100A00212A
:1003900000F0CAFBAA4D60B32B6853B3A94B2C687D
:1003A0001B7823B31CB3A84800F0CEFBA34BA74A8D
:1003B00019685B684018D2E9001243F100038842D3
:1003C00073EB020203D210F1807043F10003D4E911
:1003D00002128842934180F06181B2F1FF3F08BF71
:1003E000B1F1FF3F03D09A48214604F039F80023C9
:1003F0002B6018EE100A012100F096FB002840F057
:100400002D81944801A900F019FC00283AD0914CA4
:100410004FF0FF384FF0FF3909E033B301A9204610
:1004200000F03EFC01A9204600F008FC50B3037820
:10043000012B11D0022BF0D1854E304604F024F868
:1004400030B1C0E90289304604F01EF80028F8D126
:100450007C4B01221A70E1E72B684168994200F059
:10046000B6807B4804F01AF8D8E74168D1E9022346
:10047000B3F1FF3F08BFB2F1FF3FCFD0744803F0A4
:10048000EFFFCBE7724FDFF8C081DFF8B09138465D
:1004900004F000F8002852D0D0E90223B3F1FF3F66
:1004A00008BFB2F1FF3F00F08E80296891B1296842
:1004B000D1E9020182428B4145D22B68D3E9022364
:1004C000B3F1FF3F08BFB2F1FF3F03D029683846C0
:1004D00003F0C6FF384603F0D7FF044640465B4EA4
:1004E000D4E902BA00F030FBD9E9001332684018B1
:1004F00043F100039042726873EB020203D210F1E1
:10050000807043F10003BBEB00006AEB030301289A
:1005100073F1000325DBB0F5350F4ED25A464FF488
:1005200096030021404600F05DFA88B10D281CD0EA
:10053000002338462B6003F0ADFF0028ACD12B68B8
:10054000002B00F0A28003B0BDEC028BBDE8F08F61
:100550002B68002B3ED02C6003B0BDEC028BBDE8B5
:10056000F08F0021404600F0D3FA364B1B78002B69
:10057000DED0404600F0E8FAD9F80030D6E90012A3
:10058000C018D9F8043043F10003884273EB02022B
:1005900003D210F1807043F10003D4E902128842C3
:1005A00093411CD2B2F1FF3F08BFB1F1FF3FBFD072
:1005B0002146384603F054FFBAE7404600F0C4FA3B
:1005C000254A0244ABE7384603F05EFF5FE70023AD
:1005D0002B6023E718EE100A00F0D2F9BBE70020E9
:1005E00000F074F923692BB94FF0FF324FF0FF335D
:1005F000C4E90223002000F071F9D4E905309847DE
:10060000002000F063F92369A3B1D4E90212B2F12A
:10061000FF3F08BFB1F1FF3F0CD05B1842F1000271
:10062000A360E260002000F059F92146384603F04B
:1006300017FF7DE7002000F051F979E7380100202D
:10064000B80100204001002000000020B00100207F
:10065000AC7200009C010020FFFFB4002748284E28
:1006600000F072FA274B1A685B688018D6E900120E
:1006700043F10003884273EB020203D210F1807051
:1006800043F10003C6E90003BBE618EE100A03B00D
:10069000BDEC028BBDE8F04F00F076B9002000F011
:1006A00015F923692BB94FF0FF324FF0FF33C4E93E
:1006B0000223002000F012F9D4E905309847002009
:1006C00000F004F92369A3B1D4E90212B2F1FF3FAB
:1006D00008BFB1F1FF3F0CD05B1842F10002C4E942
:1006E0000232002000F0FAF80748214603F0B8FE75
:1006F0007DE6002000F0F2F879E600BF000000205F
:10070000B001002038010020AC72000010B5134B7E
:1007100013491C68134882B008235822019400F042
:1007200033FA044610B1204602B010BD0E4A0F48FD
:1007300001A900F0DDF804460028F4D10B4801219E
:1007400000F0CCF901231946094A084800F020F9C5
:10075000084B012220461A7002B010BDA87200009A
:10076000440100209C0100206503000000000020DF
:10077000FFFF7F00400100206AB19FED097BA1F1DE
:1007800001010368B1FA81F1490983ED027BC3E9F4
:100790000412002070470720704700BFAFF30080AD
:1007A000FFFFFFFFFFFFFFFF70B5044682B0002090
:1007B00016460D4600F08AF8D4E90223B3F1FF3F54
:1007C00008BFB2F1FF3F05D0002000F087F80020FD
:1007D00002B070BD1C4800F0B7F91C4B1C4A1968E8
:1007E0005B684018D2E9001243F10003884273EBC2
:1007F000020223D3281843F10003C4E902030020B6
:1008000000F06CF82369A66103B12561114801A9C4
:1008100000F0D2F9034670B100250E481D705C60EF
:1008200001A900F0FBF90028D2D0074800F090F9A8
:10083000284602B070BD042002B070BD10F1807077
:1008400043F10003D6E700BF00000020380100207C
:10085000B00100209C01002010B5044682B00020A9
:1008600000F034F8D4E90223B3F1FF3F08BFB2F13E
:10087000FF3F1BD04FF0FF334FF0FF32C4E902239C
:10088000002000F02BF80F4801A900F095F903466D
:1008900048B101220B481A705C6001A900F0BEF952
:1008A00050B902B010BD042002B010BD002000F00D
:1008B00015F8002002B010BD034800F049F90020EF
:1008C00002B010BD9C0100200000002072B6024A58
:1008D0001368013313607047BC010020034A13689A
:1008E000013B136003B962B6704700BFBC01002032
:1008F00010B41F4C437944F823201E4C04EBC3036F
:100900001B798BBB03680A88C3F8082590F904306B
:100910008A78002B20DB03F16043520103F5614329
:10092000D2B283F8002390F90430002B09DB12497E
:100930004FEA531C012203F01F0302FA03F341F8AC
:100940002C30437904EBC302012144F833001171C8
:1009500000205DF8044B7047084903F00F03520173
:100960001944D2B20A76DEE708205DF8044B7047DE
:10097000C8010020C001002000E100E0FCEC00E024
:10098000036801221A607047036801225A607047A9
:1009900070B405684FF480348C40C5F8084305688E
:1009A00001F1500CC5F848434FEA8C0C05681FFA5A
:1009B0008CFC002645F80C6083B055F80C5001956E
:1009C000019D056801F5A87122F07F4245F82120BC
:1009D0000268C2F8444313B10368C3F8044303B088
:1009E00070BC70472DE9F0474FF4803622F07F4706
:1009F00002688E40C2F848630268C2F80863026861
:100A000002EB810C044601F15005D2F80405DCF834
:100A10004025CCF84005AD00ADB2121A20684FF069
:100A2000000840F8058082B04059009022F07F42D3
:100A3000012A00988A46994641D02268D2F8045586
:100A4000C2F844637A1B22F07F42012A0AF5A8719A
:100A500025D0236843F821702068D0F804557B1B0B
:100A6000C9F1FF12013B02F57F4223F07F439A4216
:100A700011D343B1C0F8446323680020C3F8046372
:100A800002B0BDE8F087013740F821702068D0F847
:100A900004359D42EED00D2002B0BDE8F0872368FA
:100AA000013743F821700C4B4FF4806043F0010391
:100AB00098472068D0F804359D42DBD0EBE7064A22
:100AC0004FF4806042F001029047226842F80580AE
:100AD00052590192019AB0E7C072000002680223E5
:100AE000C2F8443311B10268C2F80433704700BF42
:100AF0000368D3F8040100B97047002282B0C3F83C
:100B00000421D3F804310193019B012002B0704706
:100B100002684FF4803303FA01F1C2F84813036806
:100B2000C3F80813704700BF50318900036889B2C9
:100B3000585800B9704700225A5082B05B58019350
:100B4000019B012002B070470368D3F80405704789
:100B500090F90430002B09DB5A09054803F01F0304
:100B60000121403201FA03F340F82230704700BF00
:100B700000E100E0024A034B10681B68184700BF01
:100B8000C0010020C801002099B110B4B2FBF3F4F9
:100B900003FB1424A4B244B9C0E900148460828128
:100BA000C38120465DF8044B704709205DF8044B73
:100BB00070470E20704700BF10B483B050E8013F6B
:100BC0001FFA83FCC489A4448489A44528BFACEBE4
:100BD000040C0489A44502BFBFF32F8F002207E055
:100BE000CCEA030C40E801C4002CE7D14FF001022D
:100BF0008DF803200193019C9DF803200C6032B115
:100C0000006810FA84F003B05DF8044B704702F0FE
:100C1000FF03184603B05DF8044B70470A884B8801
:100C20009A4201D00020704750E8012FC2EA0242E8
:100C300040E80123002BF7D10120704710B483B0A6
:100C400050E8023F1FFAA3FCC488A44502BFBFF3CB
:100C50002F8F00220EE0C489A4448489A44528BFB4
:100C6000ACEB040CC3EA0C4C40E802C4002CE7D106
:100C70004FF001028DF803200193019C9DF80320A1
:100C80000C6032B1006800EB144003B05DF8044B17
:100C9000704702F0FF03184603B05DF8044B70473D
:100CA0000A884B889A4201D00020704750E8022FF2
:100CB000C2EA224240E80223002BF7D1012070470C
:100CC000034653E8002F42EA010043E8000C9CF081
:100CD000000FF6D1704700BF034653E8002F02EA29
:100CE000010043E8000C9CF0000FF6D1704700BFF4
:100CF0000346012253E8000F40EA020143E8001CCA
:100D00009CF0000FF6D170470346002253E8000F15
:100D100000EA020143E8001C9CF0000FF6D1704786
:100D20000346002253E8001F01EA020043E8000CDA
:100D30009CF0000FF6D170472DE9F0478368D3F897
:100D40006031C3F340059B0788B046D401293DD8E4
:100D5000254C264B264F1B1BA7FB0327172B4FEABF
:100D6000171730D9DFF890A006464FF06409A8465F
:100D70002368A268187919686368B4F814E0CDF89C
:100D800000E0511AD21A00EB8003C9B203EB8303CF
:100D9000CDE90602CDE9031209FB01FC9B00BCFB77
:100DA000F2FCB3FBF2F3CDF808C00593CDF8048054
:100DB0002369524608213046013501F04DF9AF4212
:100DC00004F11804D4D808B0BDE8F087094A02211C
:100DD00008B0BDE8F04701F03FB90022114608B065
:100DE000BDE8F04702F024BA288A0000408A0000DB
:100DF000ABAAAAAAC8720000DC720000D0B110B47D
:100E0000D0E90112521A0468D2B2531E2160DBB23B
:100E100052B101680A6803F1FF3C541C0C60137066
:100E20005FFA8CF3FF2BF4D10368002018715DF892
:100E3000044B70470E20704738B504460020FFF77A
:100E400045FDD4E900311A688A4215D9511E19604E
:100E50002168A36812F8012CA08A0D68E4685B1B66
:100E600000FB02440A79DBB29A4200D20B710020E7
:100E7000FFF734FD204638BD00240020FFF72EFD8B
:100E8000204638BD38B5054600200C46FFF71EFD4C
:100E90002A681368591C1160E968AA8A641AB4FBAD
:100EA000F2F41C70BDE838400020FFF717BD00BF0A
:100EB00030B18A68B2F8603143F02003A2F86031A3
:100EC000704700BF0068096806F020B92DE9F041BD
:100ED000054680684C4E82B0002480222146A03016
:100EE0008DF8034005F082FF4849286902F094FC20
:100EF000286902F085FC4FF47A7846F001066868AC
:100F0000076801AB0DF103013F690122B847019B5E
:100F1000611CC3B19DF80320AB681B2A05D093F870
:100F2000A0001B28EBD1522A1CD02344CCB2092CA0
:100F300083F8A020E3D9AB68002283F8A020042026
:100F400002B0BDE8F0814FF6C010B047019B002B06
:100F5000D5D108F1FF371FFA87F8B8F1000FCED1CD
:100F60000D20EDE72344002083F8A000AF6897F838
:100F7000A1305B2B42D107F1A106022302E0802BB6
:100F800090B237D016F8014F00EB8002A4F1300187
:100F90003B2C01EB4202D9B203F10103EFD1013145
:100FA0000A065FFA81FC25D40CF1A0063E4400221B
:100FB00002E09AB223061DD416F8011B02EB82034D
:100FC0000CF1010401EB4303303B5FFA84FC002980
:100FD000EFD1FA2A28BFFA223A75AB68FA288ABFFD
:100FE000FA2298759A75AB68002083F8A00002B0C9
:100FF000BDE8F0810C2002B0BDE8F08187F8A000C8
:101000000B2002B0BDE8F081B0770000A4770000AB
:101010002DE9F04707460023844E3B6082B0184616
:10102000884614461D4605E0002304F8013B386855
:101030000B2864D82378002B61D0F35C13F00802EE
:10104000F2D1431C3B6048F820402378002B6CD041
:1010500015464DB1AB4235D05C2B637813D00134CB
:10106000002BE4D0002DF5D11D46272D37D1204689
:1010700006F05EF8611C0246204605F09DFE2378CE
:10108000002BEFD1D3E7AB4200F08380302B4ED062
:101090001A46782AE3D1A278A2F130095FFA89F9D9
:1010A000B9F1090F00F29680E278A2F13003DBB2C9
:1010B000092B7ED843EA09195FFA89F903214FF019
:1010C000040A51E0204606F033F8611C024620462F
:1010D00005F072FE2578002DA9D0272DC7D05C2DF4
:1010E00014D0222DC3D0002DECD0735D1B071CD46F
:1010F00014F8015F002DF0D138680B289AD900232D
:1011000048F82030284602B0BDE8F087204606F0B7
:101110000FF804F1010902464946204605F04CFE4D
:1011200065784C46002DD8D181E700257FE7A2786D
:10113000A2F130095FFA89F9B9F1070FA9D8E3786C
:10114000303BDBB2072B6DD843EAC9092379303B2A
:10115000DBB2072B4FFA89F936D843EAC9095FFA9F
:1011600089F904214FF0050A21442046019105F038
:10117000DFFF0230A0EB0A020199204605F01CFEB9
:10118000224602F8019B63781446002B7FF46AAF75
:101190004DE7204605F0CCFF04F10109024649461F
:1011A000204605F009FE63784C46002B7FF45AAFC9
:1011B0003DE7A2F16103052B2BD9A2F14103052BD9
:1011C00030D8373A42EA09195FFA89F903214FF01A
:1011D000040AC9E7A2F1610105290FD9A2F1410171
:1011E00005293FF63CAF373A5FFA82F9E278A2F17F
:1011F0003003DBB2092B7FF65DAFDAE7573A5FFACF
:1012000082F9E278A2F13003DBB2092B7FF652AF0C
:10121000CFE7573A42EA09195FFA89F903214FF0FB
:10122000040AA1E702214FF0030A9DE76E8800003F
:101230000CB400B583B004AB006953F8041B0193F0
:1012400001AA02F0A9FB03B05DF804EB02B07047FD
:101250000CB400B583B004AB006953F8041B0193D0
:1012600001AA02F099FB03B05DF804EB02B07047ED
:10127000F8B51E46D9B91A4C1A4B1B1BB2EBD30F4B
:101280004FEAD30514D29DB1174F04EBC50507EB08
:10129000820702E00834AC420AD061683868096805
:1012A00005F034FF0028F5D163683360F8BD10B94C
:1012B00000233360F8BD0178436849B106991046B0
:1012C0009847069B1B68002BF2D0069B3360F8BD45
:1012D000110103EB02125B58002BE9D03260F8BD1C
:1012E00078890000288A0000C00000202DE9F04F16
:1012F000804D0B78EB5C8BB013F00803029107462E
:10130000069200F0F4800B46C1F10101C81813F8F1
:10131000012FAA5C1607F9D48346069AD3B2059327
:101320001346029A9B1A0793D946B846029C204658
:1013300005F0FEFED8F8083093F819C0069BA0EB24
:101340000900ACEB030B584573D9079ACDF804900C
:1013500009F1FF33C4F101062344A6EB090AA2EB0D
:10136000090E5A78A95C0AEB030406EB0309090786
:1013700003F101030EEB030002D50A2A54D0A34661
:101380008445EED8DDF80490029A09EB0B03049330
:10139000D31803935C46D8F8100002F031FA2CB34E
:1013A0004FF0000B09ABCA46D8F804000299026856
:1013B0000193D76851442246B8470999019B29B146
:1013C000641A8B4412D009EB0B0AEDE7D8F8082019
:1013D00011780329E8D0D2F860118906FBD5B2F85C
:1013E00060116FF34511A2F86011DDE7039B1B78D4
:1013F000EB5C180763D5049C029B1C4406EB0409B4
:1014000014F8013FEB5C1B07F8D4D8F810003A49F8
:1014100002F002FA059B002B88D03849D8F810005A
:101420001A4602F0F9F981E7CDE90339DDF80490B5
:10143000B1E74946CB464746002834D0029A09F125
:10144000FF3313444FF0000903E009F10109484557
:1014500029D013F8012F0A2A01EB0904F5D13869C4
:1014600002F0CEF9B9F1000F15D04FF000080DF1E0
:10147000240A5E467868029902683144D56853466A
:101480004A46A8470999E9B1B9EB0109884402D055
:101490000BEB0806EEE7631C174938699B4602F020
:1014A000BBF9059BEBB902993869594402F0B4F9CC
:1014B000114938690BB0BDE8F04F02F0ADB9DDF865
:1014C0001090A2E7B8680378032BD3D0D0F860312E
:1014D0009D06FBD5B0F860316FF34513A0F860317D
:1014E000C8E7064938691A4602F096F9DBE79B46D9
:1014F00013E700BF6E88000068730000F8730000F7
:101500002DE9F04F814687B0524805F011FE05469F
:10151000514805F00DFED9F80830504A5B6800923A
:101520002D1A4F4A48460821FFF792FED9F8083095
:101530005868ADB2002800F08A8005F0F9FD84B249
:10154000464805F0F5FDD9F808309968204482B284
:1015500011B14846FFF7CAFE424A00214846FFF74C
:1015600067FE3D4805F0E4FD841C2C4439493E4AA1
:101570000091A4B2234608214846FFF769FEE21C09
:101580003A4992B24846FFF7B1FED9F80830D3F88D
:101590000C80B8F1000F4FD000252E462F460EE0EC
:1015A000A047029802ACB8B105F0C2FDB84205D917
:1015B0002068002843D005F0BBFD87B2103598F8AD
:1015C0000020D8F80440304602A90136002AE7D1AD
:1015D00060592C440028E7D1012E2DD0244ADFF891
:1015E00088B00021484607F1020AFFF721FE0025D6
:1015F0001FFA8AFA12E0A047029E02ACE6B1082167
:101600005A46484653460096FFF722FE61687A1D07
:1016100092B24846A9B1FFF769FE013598F800304B
:10162000D8F804402A0102A92846002BE3D1A65885
:1016300004EB0514002EE2D107B0BDE8F08F074699
:10164000BCE70C49D9F8100002F0E6F8E5E70446DB
:1016500076E700BFB87700008C780000AC77000018
:1016600098750000007400000C74000014740000F1
:101670002874000068730000022910B5044604D1E4
:101680008368D3F860319B070BD42069074A084967
:1016900002F0C2F82069074A0549BDE8104002F08F
:1016A000BBB8BDE81040FFF72BBF00BF9477000028
:1016B000387400008C7700002DE9F0410446006882
:1016C000A568002840D005F033FDC3B21846E97F75
:1016D0006E7EAB76AB7F01440344B1FBF6FE06FBA6
:1016E0001E11B3FBF6FCC9B206FB1C33DBB24A1C6D
:1016F000D0B25FFA8EFE5A1C00265FFA8CFCD2B282
:1017000060F307060EF1010862F30F265FFA88F80E
:101710000CF1010768F31746FFB267F31F669942A1
:101720006E6113D0B84515D390421ED8121A12F02C
:10173000FF0204D1A3689A7FDA77BDE8F0810E49F1
:10174000206902F069F8F5E70346C0E7E645F4D002
:10175000B845E9D2ACEB0E0220690849D2B202F0DA
:101760005BF8287D6A7D9042E0D9821A044920699D
:10177000D2B202F051F8DDE7F87300003C740000CB
:101780004474000070B505460068AC6800284AD073
:1017900005F0CEFC5FFA80FEF44660460EF1010EC5
:1017A000E37F667EA27F84F81AC003441118B3FB5E
:1017B000F6F206FB12330133B1FBF6F0DBB206FBA7
:1017C0001011461C0020013163F3070061F30F2064
:1017D000511CC9B261F3174066F31F607345606125
:1017E00025D0012907D916492869D2B202F014F888
:1017F000237D94F81AC063450AD80CF1010CACEBB8
:10180000030313F0FF0215D1AB680022DA7770BD35
:10181000013BA3EB0C0C1CF0FF02F5D00949286931
:1018200001F0FAFFF0E784464FF0010EB8E7012916
:10183000D7D170BD0449286901F0EEFFE4E700BF8D
:101840004C74000044740000F873000070B586B05A
:10185000002300220026CDE90223044683688DF888
:10186000106000295AD1D3F85C31002B54D00D46BA
:10187000FFF788FFA36802A9D3F85C0101912B460A
:10188000092202F0E9FBA368039AC3F85C21A3686C
:101890000199D3F85C019D7F002800F0818000232E
:1018A000092202F0D9FBA1689DF81020D1F85C0153
:1018B00009230132203102F0CFFB9DF81030A268DD
:1018C000D377A2689D42937750D8A368454A2046B3
:1018D00020330821FFF7BCFCA2682068D57F0028D0
:1018E0003BD005F025FCA268537E2844B0FBF3F5FD
:1018F00003FB150060B12068957F20B105F018FC4E
:10190000A3685B7E0544B5FBF3F203FB12531BB9DE
:101910003549206901F080FF06B070BDD3E956213A
:101920009142F9D0D3F85431002BF5D0FFF72AFFBC
:10193000A368D3F85C01F8B102A9334609220191EA
:1019400002F08AFBA368029AC3F85C21A3689DF8A1
:101950001050D3F85C010199A1E7537EB5FBF3F178
:1019600003FB1155002DD3D0957FCCE71F4A1D49AD
:10197000206901F051FFA8E703F1200005F0D8FB32
:10198000A36810F0FF05D3F85421C3F85C211ED1E1
:10199000A36883F8A050A36802A9D3F85C017EE78E
:1019A00003F1A00005F0C4FB50B9A36883F8200040
:1019B000A068203005F0BCFBC3B28DF810307EE784
:1019C000A06800F1A001203005F0AAFBF0E7A068B4
:1019D00000F12001A03005F0A3FBA36802A9D3F811
:1019E0005C015CE7387400006873000084770000D5
:1019F0002DE9F04104460068A56800287ED005F076
:101A000097FBC3B21846EA7F697EAB76AB7F024490
:101A10001844B2FBF1F701FB17220132B0FBF1F8D9
:101A2000002301FB1800013062F30703FFB260F3EB
:101A30000F237A1C5FFA88F862F3174308F101025A
:101A400062F31F636B61A2682068D67F00284CD0C8
:101A500005F06EFBA268537E3044B0FBF3F603FB47
:101A60001600A8B92649206901F0D6FE47451FD0C7
:101A7000EA7DAB7DD21A12F0FF022DD12B7D6A7D5B
:101A8000934221D8D21A12F0FF0217D1BDE8F0819B
:101A90002068967F20B105F04BFBA3685B7E06446F
:101AA000B6FBF3F203FB1263002BDBD04745DFD11B
:101AB0006A7D2B7DD21A12F0FF02E7D0206911490E
:101AC000BDE8F04101F0A8BE9A1A20690E49BDE8B0
:101AD000F041D2B201F0A0BE0C49206901F09CFE99
:101AE0002B7D6A7D9342CDD9EEE7537EB6FBF3F1B1
:101AF00003FB1166002EB5D0967FD1E7034682E73F
:101B00006873000044740000F87300004C74000017
:101B1000F8B5836815469A7F044650197F2800DC83
:101B200005B9F8BD0F46D97F521A4819D6B22031EF
:101B3000203019441844721C05F03EF9A068C37F98
:101B400020332A463946184405F036F9A06820307B
:101B500005F0EEFAA3689877A268D37F2033134488
:101B600020461B4A0821FFF773FBA368DA7F154460
:101B7000DD77A2682068D57F08B305F0D9FAA2689E
:101B8000537E2844B0FBF3F503FB150060B12068D9
:101B9000957F20B105F0CCFAA3685B7E0544B5FBC8
:101BA000F3F203FB12531BB90A49206901F034FE1A
:101BB000002EB6D02046BDE8F840FFF719BF537E8F
:101BC000B5FBF3F103FB1155002DEDD0957FE6E752
:101BD0003874000068730000F8B5836804469A7F83
:101BE000D87F121A12F0FF0500D1F8BD00F12101D3
:101BF0002030194418442A4605F0DEF8A268937F85
:101C0000013B93772068A66800283DD005F090FA44
:101C1000C3B21846F27F777EB376B37F024418448E
:101C2000B2FBF7F107FB1122B0FBF7F3013207FB20
:101C300013000027C9B262F307070130DBB24A1C68
:101C400060F30F2762F317475A1C62F31F6799422C
:101C500077611BD02069194A194901F0DDFD20691F
:101C6000184A174901F0D8FDA068154AC37F2033F0
:101C7000034408212046FFF7EBFA2069124A104975
:101C8000BDE8F84001F0C8BD0346C3E7A1680C4AAF
:101C9000CB7F20330B4420460821FFF7D9FA0B4AAB
:101CA0000749206901F0B8FD6A1E12F0FF029CD0BE
:101CB00020690749BDE8F84001F0AEBD8877000013
:101CC00038740000847700009C770000987700004B
:101CD000447400002DE9F04183680446D3F8605154
:101CE000D87F0F46997FC5F300080E1A15F001053D
:101CF000F6B239D17E2935D8002E40F0DE8003447B
:101D000083F82070A2688A49937F0133DBB293770E
:101D100013443A4683F82060206901F07DFDA268F3
:101D2000D37F0133D377A6682068F57F002867D07A
:101D300005F0FEF9A668737E2844B0FBF3F503FBBB
:101D4000150000286BD02068B57F00285FD005F013
:101D5000EFF9A668737E2844B0FBF3F503FB15008A
:101D600000286BD0BDE8F0817E295ED9002EF9D025
:101D7000034483F820702068A76800285CD005F031
:101D8000D7F9C3B21846FA7F97F819C0BB76BB7F64
:101D900002441844B2FBFCF10CFB1122B0FBFCF333
:101DA00001320CFB13004FF0000CC9B262F3070CB8
:101DB0000130DBB24A1C60F30F2C62F3174C5A1C43
:101DC00062F31F6C9942C7F814C000F0918020693B
:101DD000584A594901F020FDA068574AC37F203373
:101DE000034408212046FFF733FA2069534A524939
:101DF00001F012FD52492069012201F00DFD8EE72C
:101E0000737EB5FBF3F203FB125545B1B57FB5FB0D
:101E1000F3F203FB1252002AA4D1104617E0206906
:101E20004849BDE8F04101F0F7BC034483F8207055
:101E3000002E3FF467AF9EE70346A4E72068002822
:101E400073D005F075F9737EB57FC0B20246F17F9D
:101E5000B07615440A44B2FBF3F103FB1122501C87
:101E60004A1CB5FBF3F103FB1155CBB20021013540
:101E700060F30701D2B265F30F2162F317419A1A9A
:101E8000013363F31F6112F0FF02716148D12D49E4
:101E9000206901F0C1FCF27DB37DD21A12F0FF027D
:101EA00039D1327D013A12F0FF023FF45BAF206975
:101EB0002349BDE8F04101F0AFBC00F12001213021
:101EC00019441844324604F077FFA368DA7F1344BC
:101ED00083F82070A268937F0133DBB293771344B9
:101EE00083F820802068A76800287FF448AFA3E724
:101EF000A268D37F2033134408210F4A2046751B64
:101F0000FFF7A6F915F0FF023FF409AF0E4920696B
:101F100001F082FC03E70D49206901F07DFCC0E778
:101F20000B49206901F078FCB1E7B57F02468EE7E6
:101F30005474000088770000387400009C7700001B
:101F4000F873000068730000447400004C740000D3
:101F50003C74000038B503460546406802681468C2
:101F6000224AA047044608B1204638BD686901F0FE
:101F7000D5FF04460028F7D1AB68C3F85401AB681D
:101F8000C3F8580101464FF4B272A86804F02EFF5E
:101F9000AA68B2F8603143F02003A2F86031AA6861
:101FA000B2F8603143F00803A2F86031AB68012158
:101FB0001970AB680E4950225A760E4BAA68C91A9E
:101FC0001820C9081076CFD00B4A02EB810558685B
:101FD000006842F8040B954203F10803F7D1074B60
:101FE0000548042204F042FFBEE700BFB10E000026
:101FF000288A000078890000C0000020C50E00007B
:1020000042B32DE9F043064683B0884615460027C3
:1020100089467068046801ABE4682A464946A047CF
:10202000019B2BB1ED1A1F4411D008EB0709F0E713
:10203000B4682378032BECD0D4F860319B06FBD531
:10204000B4F860316FF34513A4F86031E1E703B0F1
:10205000BDE8F083704700BF0CB400B583B004AB9B
:10206000006953F8041B019301AA01F095FC03B029
:102070005DF804EB02B070472DE9F04F83468068AD
:10208000A9B0102100F5B070FEF71AFEDBF8083099
:102090001B78022B0ED0DBF8100001F0B1FBDBF84F
:1020A00008006FF0100100F5B07029B0BDE8F04FE6
:1020B000FEF712BE4FF0000ACDF838A0DBF804009E
:1020C00001680EAB0C6901220DF13701A0470E9B90
:1020D000002BE0D09DF93730002BEFDB01F0F0FF53
:1020E000DBF808305C78012C05D0022C66D04CB1AE
:1020F00083F801A0E2E79DF837205B2AF8D102229D
:102100005A70DBE79DF837100D2908D00A2906D050
:10211000B3F8602164F38D12A3F860210CE0D3F8CA
:10212000602112F47F5F00F09380D3F86021C2F346
:102130008712914200F08C801B2900F2CF801B296E
:1021400000F2758101A353F821F000BFBD2000000B
:102150002F2400002F2400002F2400002F24000033
:102160002F2400002F2400002F240000C12700008E
:10217000D12600002F2400002F2400002F2400006F
:102180002F2400002F2400002F2400002F24000003
:102190002F2400002F2400002F2400002F240000F3
:1021A0002F2400002F2400002F2400002F240000E3
:1021B0002F2400002F240000AB28000083F801A08A
:1021C000DBF80840D4F860311A077FF564AF9DF85A
:1021D0003730313B1B2B3FF671AF01A252F823F091
:1021E000A3220000AF220000AF250000D122000092
:1021F000BD200000BD200000BD200000BD2000006B
:10220000BD200000BD200000BD200000BD2000005A
:10221000BD200000BD200000BD200000BD2000004A
:10222000C9250000D3250000DD2500005B26000045
:10223000BD200000D5220000BD200000A722000024
:10224000BD200000BD200000BD200000B72200001E
:10225000B3F8602161F38D12A3F86021DBF8080068
:10226000867F002E45D1C0F85C61AC49DBF81000D8
:1022700001F0D2FADBF8083002221A70DBF80820ED
:10228000002382F82030DBF80810A54ACB77DBF872
:1022900008008377DBF8003003215846FFF7DCFEA7
:1022A000F9E6032363705846FFF76CFA06E7032349
:1022B0006370DBF80840D4F86031B4F8602103F0B3
:1022C000010383F0010363F30002A4F86021F5E643
:1022D000032363705846FFF7EFF9EFE67F2940F0DC
:1022E000A680DBF80830D3F860311D077FF5E6AE35
:1022F00066E190F82020002A38D08A4D05E0FF2CB6
:1023000000F0B78491F820201C46AA5C631CDBB265
:10231000170700EB0301F2D4002C40F0CD838319A2
:1023200006F11F0CDB7FEB5C190784441ED50CF112
:102330000104E7B26246D4B212F8013DEB5C391BEE
:1023400013F00803C9B2F6D194450FD0711A0144B5
:10235000E41B81F82030DBF80820937F1C4494773D
:10236000DBF808309A7FDA77DBF80800203004F0D9
:10237000DFFEDBF80830002410F0FF08C3F85C41F2
:102380007AD0DBF80830D3F854011AAE48B12346AE
:102390000922314601F060FE9DF87030984500F04A
:1023A0007F8408F10A0808270DE001F055FEDBF8EC
:1023B00008301A94D3F8580109222346314601F017
:1023C00017FE013F59D0DBF81400414601F0A8FD8B
:1023D00004460346002840F03D83DBF80820D2F88D
:1023E0005851002DEDD028463146092201F034FE27
:1023F000DBF808301B9AC3F85821214609223046E1
:1024000004F0F4FC234609223146284601F0F0FD91
:10241000284601F0CFFDDBF80850D5F858012346D7
:10242000092231460028C0D1C5F85401C9E73D4B07
:102430005B5C13F0970F3FF441AEDBF80830D3F844
:1024400060211407C2F3C00000F1FE839A7F7E2A48
:102450003FF634AEDA7F9C180132DA7784F8201028
:10246000DBF80830DA7F134483F82000DBF808201B
:10247000937F0133937721E61AAE5846FFF71CF994
:10248000DBF80820DBF80000D47F20B104F050FE18
:10249000DBF808200444537EB4FBF3F103FB114442
:1024A000002C40F007822032314611A8FEF7B0FD23
:1024B000119B002B00F0C582002840F095831A4D37
:1024C0001A4B5B1BDB0800F0048205EBC3046B684E
:1024D0001A98196804F01AFE002840F0F381DBF81E
:1024E0000800002110220430129104F07FFC6B6878
:1024F000DA6832B10FCBDBF80840043484E80F000F
:102500006B68D3F808A0DFF82880DFF82890002354
:1025100035460393012700242FE000BF68730000B5
:10252000387400006E88000078890000288A000056
:10253000887400008C740000686804F0E7FD0028CF
:1025400000F04B826868494604F0E0FD002800F086
:10255000448216AB0093224612AB39465046FEF732
:1025600087FE621C0DD0129B013453B11968686854
:1025700004F0CCFD002800F05683119BBB4241467D
:10258000DAD8DBF808301B69002B00F06C83039865
:10259000119906EB8002091A58469847DBF8083073
:1025A000B3F860216FF34102A3F8602162E60323D0
:1025B0006370DBF80830D3F860311B077FF57EAD20
:1025C0005846FFF709FB79E501215846FFF73EF928
:1025D00074E500215846FFF739F96FE5DBF8000094
:1025E000002800F0078204F0A3FDC3B21846E27F82
:1025F000657EA3760244A37FB2FBF5F105FB1122B1
:102600000344D2B2CFB2561CB3FBF5F105FB113334
:10261000DBB2C8B2F6B2002103F1010C66F3070188
:102620006CF30F2107F1010C6CF3174100F1010C61
:102630006CF31F619A42616100F05182B54200F073
:10264000E682A8490122DBF8100001F0E5F8DBF88A
:102650000820D37F0133D37730E5DBF80000002872
:1026600000F0C48104F064FDC0B203461946013095
:10267000E27F657EA376A37F0A440B44B2FBF5F1AB
:1026800005FB11220132B3FBF5F6D2B205FB16337E
:1026900000250131013362F30705C9B263F30F2549
:1026A000013661F3174566F31F658242656100F0EC
:1026B0009682012A00F0A0828B490122DBF81000EB
:1026C00001F0AAF8DBF80820D37F013BD377F5E4CB
:1026D000DBF80800D0F860311B077FF5EFAC837F93
:1026E000C3F17F0313F0FF0304933FF4E7ACC27F11
:1026F00000F12001A03004F051FBDBF808307B48EA
:10270000DA7F0B9013441AA983F8A0A0DBF80830F5
:10271000DA7F1A44D27F845CC3F85CA1DBF808201E
:1027200004F008030A93A032C4F3C0030FA8079370
:10273000FEF76EFC1A98002800F0D08204F0F8FC36
:102740005FFA80F9CDE910AA00220F9B0592CDE92E
:10275000082B1546174606929346002B00F0D880AA
:10276000079A013A13449D4280F0D28012AB009345
:10277000002210AB29463846FEF77AFD28AB4FF011
:10278000010803EB850615E0196856F8380C04F0CB
:10279000BDFC002800F09C8212AB009308F10104FC
:1027A000424610AB29463846FEF762FD002C00F089
:1027B000A582A046109B002BE6D1DDF824B07DE475
:1027C000DBF80830D3F8602116077FF577AC9A7FE5
:1027D000002A3FF473ACD87F00283FF46FAC121A84
:1027E00000F12001D5B21F30194418446A1C04F0CE
:1027F000E3FADBF80820D37F013BD377DBF808202E
:10280000937F013B9377002D00F06A82DBF8100084
:102810003749082201F000F8DBF80000DBF8086017
:10282000002800F0698204F083FCC4B22146F27FE4
:10283000B37FB476747E0A440B44B2FBF4F004FB1D
:102840001022B3FBF4F1013204FB11330024C0B2B7
:10285000013362F30704C9B263F30F24431C63F32B
:1028600017444B1C63F31F648842746100F0548268
:10287000DBF810001F4A204900F0CEFFDBF8100003
:102880001E4A1D4900F0C8FFDBF80820D37F203323
:10289000584613440821184AFEF7DAFC184A16492C
:1028A000DBF8100000F0B8FF08E4DBF80830012284
:1028B0005A7003E41349DBF8100000F0ADFFDBF8B9
:1028C0000820F0E5A5423FF40AAE0835A5427FF4A2
:1028D000FEAD0D4900911A9B0C4A02215846FFF7A4
:1028E000BBFBC7E4F8730000447400006E8800006E
:1028F000547400008877000038740000847700006A
:102900009C77000068730000607400005874000039
:102910000A9B002B40F09B8028AB03EB850353F808
:10292000380C002800F0938004F002FC5FFA80F974
:1029300028AB03EB8508CDF80C80DDF81880002467
:1029400012AB0093224610AB29463846FEF790FCA6
:10295000109B661C002B00F0C7801968039B4A4639
:1029600053F8380C04F0ECFBC0B9119B08F10108D6
:10297000B3B1109B186838B104F0DAFB059BC0B204
:10298000834238BF03460593049BABBBDDF840C0D0
:10299000CDF844C0002E00F05C81A3463446CFE75A
:1029A000DDF840C0DCF80030ABB1184604F0C0FBE5
:1029B000DDF840C0C3B205931846049BA0EB0900A4
:1029C000834206DD059B0894A3EB0903DBB2049365
:1029D000DEE70894DCE70590EFE7DBF80820B2F8C3
:1029E000603143F00203A2F86031CAE501460346B4
:1029F00001203DE60346FAE516AB5A460093294608
:102A000011AB3846FEF734FCDDE910C3D3F800B053
:102A1000DCF800E0002306E01BF8011091420AD127
:102A2000B3F5807FB4D009EB0301D8B21EF80120C2
:102A30000133002AF0D1049B834228BF034604934C
:102A4000A6E7C149DBF8100000F0E6FE12E44FF003
:102A500000096DE7DBF80830D3F85401002800F0D6
:102A60000F8100230922314601F0F6FADBF8083025
:102A70001B94D3F8540109220023314601F0B8FA1F
:102A8000DBF8083000221B92D3F854211A929A7F67
:102A90008DF87020C3F854413146204600230922A6
:102AA00001F0A6FADBF808108A7F204620310132B7
:102AB000092301F09DFAE0E42030721C121B011979
:102AC00004F07AF9DBF80820937F1C1B9477DBF87D
:102AD00008309A7FDA77DBF80800867F1FE48742A8
:102AE0007FF4ACADFFF7EABACDF818804FB1109B78
:102AF0003BB10F9B079A0135EDB29A189542FFF44E
:102B00002CAE069B5A46DDF824B0002B3FF4D6AA23
:102B1000012B00F05981DBF808308C4E83F81DA0A2
:102B2000AB000793089A4B46B846A9461D46511C70
:102B300012AB0093039110AB49464046FEF798FB59
:102B4000109B1968079BA0336B442A4653F8380C36
:102B500004F0F6FA002840D1069B013B0693109B37
:102B60001F683046002F00F02B8104F0E1FA059B2E
:102B70001844DBF80830C4B25B7E0993304604F099
:102B8000D7FA0890384604F0D3FADDE90813DBF8E9
:102B900008E06F4A9EF81DC0591AB1FBF4F1C9B2A2
:102BA000241ABCFBF1F001FB10C1C9B20CF1010CFD
:102BB0003B46E4B28EF81DC0002940F0A880654A6B
:102BC0000097334607215846FFF746FA002C40F09D
:102BD000F080069B002B00F0D180039AA7E7012923
:102BE0007FF467ADFFF76ABA03465B4A0221584695
:102BF000FFF732FAFFF73EBB5849DBF8100000F050
:102C00000BFE627E002A3FF45DAD554956E5012278
:102C10005449DBF8100000F0FFFD627E002A3FF40B
:102C200016AD51490FE5129CE36843B1DBF808305B
:102C3000039703F1040C94E80F008CE80F00D4F81C
:102C400008A00137043566E45846FFF743F8FFF75C
:102C500035BA464A0998CDF818800421FFF7FCF9E7
:102C60004FF0FF3B42E7424A02215846FFF7F4F992
:102C700094E4002380F82030DBF80800FFF776BBEF
:102C8000C3F85441DBF808300022C3F85841002350
:102C9000CDE91A23DBF808309B7F8DF87030FBE616
:102CA000DBF808100923D1F8540108F10102A03122
:102CB00001F0D2F9DBF8080000F1A001203004F0A7
:102CC00025FADBF8083098B183F8A040FFF769BB1C
:102CD000109B9F68002F7FF40CAF12E7814631E50F
:102CE000244A1B49DBF8100000F096FDFFF7E6B917
:102CF00083F8A000FFF7C1BB014698E5DDF824B0DA
:102D00001A4A04215846FFF7A7F9FFF7D7B9072158
:102D10005846FFF7A1F959E7DBF80820D37F2033A5
:102D2000134458460A4A0821FEF792FADBF81000CD
:102D30000749114A00F070FD0B49DBF810002A46E4
:102D400000F06AFDFFF7BAB968730000E074000094
:102D500038740000E4740000747400004C740000C7
:102D6000F87300003C74000044740000B474000068
:102D700094740000A077000084770000DBF8003036
:102D8000644A58460321FFF767F9DBF80830624AC6
:102D9000203308215846FEF75BFA5846FEF728FE16
:102DA000119B049A196858462944FEF7B1FEFFF7B3
:102DB00085B9DBF810005949224600F02DFD08E7DF
:102DC000DBF808305F7704E73B7883BB119B18681A
:102DD00008B104F0ADF9814506D0119B049A196839
:102DE00058464944FEF794FEDBF808400B99E37F10
:102DF000E21892F820208A5C12F0080225D1D4F85B
:102E00006031DF071BD5B4F8603162F30003A4F82A
:102E1000603120215846FEF75DFFDBF80820B2F84C
:102E2000603143F00103A2F86031FFF747B912ABFC
:102E300000932946384611ABFEF71AFAC6E720215F
:102E40005846FEF747FFFFF739B9A27F9A427FF64F
:102E500035A9DBF8000018B104F06AF9E37FA27F1E
:102E6000A07653FA80F352FA80F2607EB3FBF0F55D
:102E700000FB1533B2FBF0F1013300FB1122481CBB
:102E80000021013263F30701EDB262F30F216B1CE5
:102E900063F3174160F31F616161DBF80820D37FA2
:102EA0000133D377DBF80000DBF8084008B104F009
:102EB0003FF9A27FE37F677EA07653FA80F352FA50
:102EC00080F0B3FBF7F1B0FBF7F607FB113307FB1C
:102ED00016005A1C431C0020C9B262F3070063F3BA
:102EE0000F204B1C013663F3174066F31F60A942A5
:102EF000606106D00A49DBF8100000F08DFCFFF796
:102F0000DDB80649DBF81000012200F085FCFFF770
:102F1000D5B800BFEC74000038740000F8730000EE
:102F20006873000001290AD0022904D18368D3F80C
:102F300060319B0703D4034A0221FFF78DB8FEF7E7
:102F4000DFBA00BF94740000F0B5012983B00446D5
:102F500011D08368D3F86041A40744D4022947D82C
:102F600054682A4913682A4ACDE900140221FFF760
:102F700073F803B0F0BD8568FDF7A8FF28BBA36810
:102F8000244920691F7D9E7DFA2200F045FC2069BE
:102F90002149FA2200F040FC2046FDF797FFA0B936
:102FA000A3681A7D6A76A368D21B9B7D2B7612F0EC
:102FB000FF0225D19B1B13F0FF02DAD017492069CD
:102FC00003B0BDE8F04000F027BCA36850225A7659
:102FD000A368134A182119762046042103B0BDE8DE
:102FE000F040FFF739B803B0BDE8F040FEF788BA0B
:102FF0005B680C4A022103B0BDE8F040FFF72CB833
:103000000949206900F008FC2B7ED3E754750000C5
:1030100048750000F87300003C7400004C74000018
:10302000F07400002C7500004474000038B583680B
:103030001B78012B1FD104464068036800219B6860
:103040009847054608B1284638BD20690B4900F06D
:10305000E3FBA36802221A70A368094A83F8205090
:10306000A368DD77A3689D77204623680321FEF7D8
:10307000F3FF284638BD0825284638BD6C7500008A
:10308000387400008368D3F86021C2F3400C9207C3
:1030900008D4012908D1B3F860216CF3C302A3F866
:1030A00060217047FEF72CBA5B68024A0221FEF7E6
:1030B000D3BF00BF2C7500008368D3F8602192074E
:1030C00008D4012908D1B3F8602142F00802A3F81E
:1030D00060217047FEF714BA5B68024A0221FEF7CE
:1030E000BBBF00BF2C7500008368D3F86021920736
:1030F0000FD401290FD110B50446094A09490069C6
:1031000000F08AFBA36850225A76A36818221A7628
:1031100010BDFEF7F5B95B68034A0221FEF79CBFBC
:103120007C770000387400002C75000030B585688D
:10313000D5F86041A30783B0C4F3400C11D4022931
:1031400014D81BD0D5F860211149124B12F0080F8A
:10315000114A18BF0B46614603B0BDE83040FEF788
:1031600067B803B0BDE83040FEF7CAB96B680B4AD8
:10317000022103B0BDE83040FEF76EBF5568084C31
:103180001368084ACDE90045FEF766FF03B030BD7D
:103190008880000070750000747500002C750000B8
:1031A0005475000048750000F0B58368D3F86021BD
:1031B000C2F34004920787B029D401292CD1D3F857
:1031C0005851FDB1184F064628460023092203A98D
:1031D00000F042FF9DF81420B1682846092301320F
:1031E000A03100F039FFB268049DA032234600925E
:1031F00000213A4630460134FEF71AF80DB1082C8A
:10320000E2D1B368002283F8A02007B0F0BD07B078
:10321000BDE8F040FEF774B95B68044A022107B0CC
:10322000BDE8F040FEF718BF887500002C7500005F
:103230002DE9F04F05468BB0AA488846174603F0A3
:1032400077FF0446A84803F073FFAB68A74A5B68A2
:103250000092201AA64A84B208212846FDF7F8FFFA
:10326000AB685868002800F03A8103F061FF86B22D
:103270009E4803F05DFFAB689968304482B211B19B
:103280002846FEF733F89B4A00212846FDF7D0FF79
:10329000A7B3B8F1000F00F03D8107EB47094FF0ED
:1032A000000B08F1040A1FE003F042FF58F82B203E
:1032B00006461AB1104603F03BFF0644B4420ED254
:1032C0005AF82B00002800F08F8003F031FF84B201
:1032D00058F82B0018B103F02BFF204484B20BF1F7
:1032E000030BD94500F082805AF82B000028DBD16F
:1032F00058F82B20002AF2D00646DBE77A4803F084
:1033000017FF02300444774B7B4A0093A4B2234654
:10331000082128460334FDF79BFF7849A2B22846CE
:10332000FDF7E4FFAB68D3F80C90B9F1000F51D072
:1033300000263746B0460FE0A047069806ACC0B15D
:1033400003F0F6FE804506D22068002845D003F041
:10335000EFFE1FFA80F8103699F80020D9F80440E3
:10336000384606A90137002AE6D1A059344400287E
:10337000E6D1012F2ED0624ADFF87CB10021284629
:1033800008F1020AFDF754FF00261FFA8AFA13E03B
:10339000A047069F06ACEFB108215A46284653467F
:1033A0000097FDF755FF616808F1050292B22846C3
:1033B000A9B1FDF79BFF013699F80030D9F8044018
:1033C000320106A93046002BE2D1A75804EB0614BF
:1033D000002FE1D10BB0BDE8F08F8046BBE7494933
:1033E000286900F019FAE6E7044671E73E4803F061
:1033F0009FFE02302718BFB23A4B3F4A009307F1B5
:10340000030B3B46082128461FFA8BFBFDF720FFE4
:103410003A495A462846FDF769FFBB1CDBB2023B1E
:10342000059308F108030024039332E001922E4A29
:1034300000922846344A0821FDF70AFF5AF8240072
:10344000002845D003F074FEC6B258F824000028C6
:103450003CD003F06DFEC3B22348049303F068FE32
:10346000059B9E1B049BF61A301A10F0FF0231D107
:10347000264928693A2200F0CFF9039B53F824101B
:10348000D1B15A462846FDF731FF03344C453FF48D
:1034900049AF5AF82430A3B158F82420002AC5D1E6
:1034A000009308213B46144A2846FDF7D1FE039BB2
:1034B00053F824100029E4D11249286900F0ACF92E
:1034C000E3E758F82430002BEAD1D6E70346C3E7F8
:1034D0000646BAE70E49286900F09EF9C8E7064695
:1034E000C6E600BFB87700008C780000AC7700001B
:1034F00098750000007400000C7400001474000043
:103500002874000068730000947500005474000073
:10351000F87300000A4803F00BFE02300444A4B222
:10352000084B00932846084A23460821FDF790FEE1
:10353000E21C064992B22846FDF7D8FEF2E600BF2B
:103540008C780000B87700000C7400001474000040
:103550001A60C0681A4600F02BBF00BF4069054AD8
:103560000378D35C13B1043002F0D8B80C3001F00A
:1035700085BD00BFE801002030B583B0FF210446BF
:103580000091C06801236A4601A900F02FFE08B926
:10359000009808B903B030BD63690C4D1A780199E1
:1035A000AA5C6AB1C2B2181D02F01CF80028F1D161
:1035B000A3682246186840F26661FDF7F5F8E9E76E
:1035C000C2B203F10C0001F0ABFCEFE7E801002010
:1035D00070B5037882B0FF26012B044601960D4694
:1035E00004D0022B26D08BB102B070BD017AE868FE
:1035F00000F042FE237A23B16B680020D3E900215A
:1036000090472846FFF7B8FF02B070BD017A2869DD
:1036100000F012FF01AA286901960123694600F013
:103620008BFE019A7AB96B680120D3E9002190479B
:1036300002B070BD017AE86800F01EFE2846FFF770
:103640009BFF02B070BD6869064C03780099E35C8B
:10365000D2B21BB1043001F05FFFE4E70C3001F09F
:10366000E7FBE0E7E801002038B5436893F828302D
:1036700004460D46A3B901B360691B4A0378D35CC5
:103680005BBB0C3001F066FB6168606900220831A9
:1036900000F0B8FF28BB6368012283F8292038BDF9
:1036A00083681868FDF7D8F830F00803F7D1002DCB
:1036B000E2D1636893F8283053B90C4AA06800211E
:1036C000FDF75AF86368012283F828200028E6D124
:1036D0002046BDE83840FFF74FBF043001F07CFEC4
:1036E000D2E7062038BD00BFE80100205D350000AC
:1036F00038B504464068026062685360626800231F
:1037000082F82830626882F8293060680D462022ED
:10371000083003F043FB2C612946084A606900F039
:1037200071FF054608B1284638BDE06800F050FD3D
:10373000206900F04DFD284638BD00BFD13500009E
:1037400010B5044640690B4A0378D35C43B104309A
:1037500001F042FEA368BDE810401868FDF77CB890
:103760000C3001F0F7FAA368BDE810401868FDF7C7
:1037700073B800BFE801002070B51A6082B005463A
:103780001A46006900F092FD044610B1204602B0CE
:1037900070BD6869194E0378F35C2BB3043001F0F7
:1037A00013FF0028F2D1FF2201922869012301AA08
:1037B000694600F0C1FD0028E8D168690378DDE9B9
:1037C0000012F35CD2B29BB1043001F0A5FE0446B6
:1037D0006B6893F82930002BD8D0002CD6D10199F2
:1037E000286900F029FED1E70C3001F08DFBD8E705
:1037F0000C3001F01DFB0446EAE700BFE8010020A1
:10380000826842B110B5044643690168006998476F
:103810000023A36010BD70470EB400B582B00399B9
:1038200021B104AB01AA019300F0B6F802B05DF833
:1038300004EB03B0704700BF2DE9F04F154683B08D
:10384000A942DDF830900D9A0F4606469A46C0F020
:103850009E800B464FF00108B3FBF5F39D4208F143
:103860000108F9D9D04538BFD04612F001030193C1
:1038700002D1B9F1000F67D1B268BAF1010F4FF070
:10388000010406D90AF1FF3ABAF1010F05FB04F46D
:10389000F8D8B7FBF4F39D4205D805FB04F4B7FB59
:1038A000F4F39D42F9D9DFF8ECA007E0AC42B4FB99
:1038B000F5F31AD3B2681C46B7FBF3F31AF803B05A
:1038C000BBF10A0F04FB137728D03368511CB16099
:1038D00003F802B0D6E901329A42E7D33046FFF747
:1038E0008FFFB4FBF5F3AC42E4D2019B9BB1B9F17D
:1038F000000F10D02024C84509F1FF390BD2B3685E
:103900003268591CB160D454D6E901329A4214D2BB
:10391000B9F1000FEFD103B0BDE8F08F511C33684F
:10392000B1604FF00D019954D6E901329A42CCD3DF
:103930003046FFF765FFB268C7E73046FFF760FF24
:10394000B9F1000FD7D1E6E793071AD42024B26863
:10395000C84502F1010190D23368B1609C54D6E9A8
:1039600001329A4209F1FF3903D2B9F1000FEFD1C8
:1039700083E73046FFF744FFB268B9F1000FE7D1A3
:103980007BE7BAF1000F0CBF30242024DFE74FF0B3
:10399000010867E7A4780000002900F05C822DE9A7
:1039A000F04FDFF870950D7885B0064690460C46CE
:1039B0004FF00D0A0FE00A2DB36800F08E803268D8
:1039C000591CB160D554D6E901329A4280F0818009
:1039D0002578002D69D00134002D66D0252DEAD13F
:1039E0000027234614F8012B2D2A6CD0302A6DD0E5
:1039F0002B2A61D02A2A7FD0A2F1300109294FF069
:103A000000050BD805EB850502EB450513F8012FE2
:103A1000A2F130010929A5F13005F3D92E2A1C465F
:103A200075D0002301E014F8012F02F0FB01682992
:103A3000F9D0252A00F08681583AD1B2202930D811
:103A4000202A2ED8DFE812F021002D002D002D00B5
:103A50002D002D002D002D002D002D002D00FE002D
:103A600079002D002D002D002D0079002D002D0056
:103A70002D002D002D002D00BD002D002D001A0160
:103A80002D0016012D002D002100D8F80010102265
:103A9000081DC8F8000009683046CDE90057FFF757
:103AA000CBFE01342578002D95D1337B002B40F0DF
:103AB000438105B0BDE8F08F234614F8012B2D2A71
:103AC00047F0040792D147F001078AE747F0020761
:103AD00087E73046FFF794FE7AE73268591CB160F9
:103AE00002F803A0D6E901239342FFF468AF304601
:103AF000FFF786FEB36862E7D8F80020111DC8F80A
:103B0000001015685A782E2A03F1010489D16278D1
:103B1000A2F13003092B04F101044FF0000384D813
:103B200003EB830302EB430314F8012FA2F13001EE
:103B30000929A3F13003F3D977E7D8F80020111D44
:103B4000C8F80010D2F800B08BEAEB72A2EBEB726F
:103B5000092A40F3DB81DFF8C0C301201146632945
:103B6000ACFB02E200F101004FEAD202F6DC98421F
:103B7000024638BF1A460292002D00F01E81BBF1AA
:103B8000000FC0F22E817A0700F12B81B80740F1B7
:103B90002A81002B40F02781BBF1000FC0F27D810C
:103BA0007A0700F18D8107F00302022A00F05D819F
:103BB000CDE9005759460A223046FFF73DFE013451
:103BC00070E7D8F800301A1DC8F800201F68B368E5
:103BD0003268581C3021B060D154D6E90123934299
:103BE00080F0FA80591C3268B1607821D154D6E94E
:103BF00001329A4280F0EB800F2F03D93B461B091C
:103C00000F2BFCD84FF0805506E00F2D4FEA15130F
:103C10007FF647AFB2681D46B7FBF5F319F803B05E
:103C2000BBF10A0F05FB137777D03368511CB160E5
:103C300003F802B0D6E901329A42E6D33046FFF7E4
:103C4000DFFDE2E7D8F800301A1DC8F800201D7823
:103C5000B3680A2D00F03A813268591CB160D5541E
:103C6000D6E901329A42FFF41CAF3046FFF7C8FD97
:103C7000013417E7D8F800100A2209E7D8F8003015
:103C80001A1DC8F8002017F00107D3F800B064D15E
:103C9000BBF1000F03D0584603F04AFA0746BD4275
:103CA00015D9202201E0BD4211D0B1683368481C0B
:103CB000B0605A54D6E90130984205F1FF35F2D38D
:103CC0003046FFF79DFDBD424FF02002EDD19BF83D
:103CD0000050002D3FF4E5AE0A2DB0680FD03368D8
:103CE000421CB2601D54D6E90130984280F0B48085
:103CF0001BF8015F002D3FF4D4AE0A2DEFD13368DD
:103D0000421CB26003F800A0D6E901309842E6D325
:103D10003046FFF775FDB068E1E73368511CB160CC
:103D200003F802A0D6E901329A42FFF47EAF304692
:103D3000FFF766FDB26878E7304605B0BDE8F04FA2
:103D4000FFF75EBDB3683168581CB060CA54D6E94D
:103D500001329A4289D20134A4E69BF80030002B4C
:103D600000F0D680B0685F46CBF101020A2B02EB6F
:103D7000070B5ED0411CB16031680B54D6E90130AD
:103D8000984248D217F8013F002BEFD15D457FF6EE
:103D900088AE202702E05D453FF483AEB268336809
:103DA000511CB1609F54D6E901329A4205F1FF35AA
:103DB000F1D33046FFF724FDEDE7B80705D5002B1A
:103DC0003FF4EAAEF9073FF5E7AE0025E4E63046FA
:103DD000FFF716FDB2680FE73046FFF711FDB36835
:103DE00000E7013DD2E6F9073FF5D6AE002DECD055
:103DF00020220299A942BFF4CFAEB168481CB0603E
:103E000030684254D6E90101814205F1FF356CD298
:103E1000002DEED1D9E730460292FFF7F1FC17F8FA
:103E2000013F002BB2D0029AB0680A2B02EB070BBD
:103E3000A0D1411CB160316801F800A0D6E90110A1
:103E4000884297D33046CDE90232FFF7D9FCDDE94D
:103E50000232B0688EE770473046FFF7D1FC1BF89E
:103E6000015F002D7FF438AF1BE6002B7FF4A0AE7E
:103E70008DB1302202998D427FF69AAEB168481C0E
:103E8000B06030684254D6E90101814205F1FF3546
:103E900035D2002DEED100258AE6B1683268481C83
:103EA000B060CBF1000B2D205054D6E90121914296
:103EB000FFF479AE30460393FFF7A2FC039B72E652
:103EC000B1683268481CB0602B20EDE73268591C9D
:103ED000B16002F803A0D6E901239342FFF4BCAE1F
:103EE0003046FFF78DFCB368B6E630460393FFF724
:103EF00087FC039B2022002D7FF47BAF65E73046D3
:103F00000393FFF77DFC039B3022C2E701202EE6DE
:103F10009B463BE7A4780000CDCCCCCCFCF76EBF31
:103F20002DE9F041858A0331043D4E198046B6FBE8
:103F3000F5F6FCF781FFA0B3F6B24FF48073013EB3
:103F400004468380C580C0F800802BD0034600253E
:103F500008E06279AE4202F1010262713860C0F895
:103F600000801FD040461F46FCF766FF0135034620
:103F70000028EED16779791E17D022460133994285
:103F80001268FBD1D2F800805FB12668002501E0FD
:103F900034463668214640460135FCF773FFAF4290
:103FA000F6D800242046BDE8F08120682146FCF7C1
:103FB00069FFF6E7F8B546790146701E13D00A4648
:103FC0000023013398421268FBD1176856B10D687F
:103FD000002401E029462D6838460134FCF752FFE1
:103FE000A642F7D8F8BDBDE8F8400868FCF74ABF1C
:103FF0002DE9F8438846C788417907FB01F1043968
:1040000002EB030C1E1D6145154638BFCD1AB742A1
:104010000446B6FBF7F207FB126002D8013A2468A7
:10402000FCD13E1AAE4228BF2E469DB14FF000098A
:104030000430AD1B324608EB0901204402F0AEFE0D
:10404000AF42B14424683E464FF0000028BF2E46E0
:10405000002DEDD1BDE8F8832DE9F8430446C7886B
:10406000407907FB00F0043802EB030C1E1D60458D
:10407000154638BFC51AB7428846B6FBF7F107FBAD
:10408000116202D801392468FCD1BE1AAE4228BFA1
:104090002E469DB14FF00009111DAD1B3246214443
:1040A00008EB090002F07AFEAF42B14424683E46B4
:1040B0004FF0000228BF2E46002DEDD1BDE8F88359
:1040C000704700BF2DE9F04F8368D3F86031C3F328
:1040D00040059B078DB066D401295DD8354C364B21
:1040E000364A1B1BA2FB03121209172B0B9250D945
:1040F000DFF8D8B08146AA462BE0961B0020FCF7DB
:10410000EDFB94F810E06369642505FB06FC5A4654
:1041100005FB08F50821B5FBF7F548460A95BCFBF9
:10412000F7FCBEF1000F27D1254D0795CDE901C65B
:104130000A9D0495099DCDF8148000950697039774
:10414000FDF78AFF0B9B0AF1010A534504F118049D
:104150001FD9D4E90272236809920020D3F808809D
:10416000FCF7B4FB23681E685A689642C5D9A36859
:10417000013313449E1BC1E7099A0092114A039729
:10418000CDE90672CDE90458CDE901C65A460821A9
:10419000D6E70DB0BDE8F08F0B4A02210DB0BDE8A7
:1041A000F04FFDF759BF002211460DB0BDE8F04FAA
:1041B000FFF73EB8288A0000288A0000ABAAAAAA06
:1041C000307900003C790000C8720000B47800002B
:1041D00082680023936082681361826853618268F9
:1041E000D360826853608268136070472DE9F041A4
:1041F00006468846806817462BBBD0E903157268CF
:10420000481B02F1010C60452FD005EA020301EAC8
:10421000020098423CBFAB1801333D682CBFACEBA9
:1042200000035B1A9D4228BF1D463D60336803446E
:10423000C8F80030B2683968D3680B440024D360F2
:104240002046BDE8F081FCF753FD044690B9D6E95D
:104250000123D3E9031502F1010C4B1B6345D4D1B3
:104260003C60B068FCF75CFDEAE71C463B6020461A
:10427000BDE8F0811124E3E738B5D0E901342569C0
:10428000A26801332B449B1A8B420CD31144A160CA
:1042900083689A68DA608068FCF736FD002814BFEE
:1042A0000020082038BD042038BD00BF2DE9F047AC
:1042B0000446806888461746FCF71AFD002836D168
:1042C000D4E901531A699B6801351544ED1A3B681E
:1042D0009D4228BF1D463D60A3689A68636803EA53
:1042E000020903F1010AAAEB09029542064613D816
:1042F00020682A464146484402F050FDA2683968C9
:1043000093680B449360A3689A68DA60A068FCF72E
:1043100007FD3046BDE8F087206841464844904498
:1043200002F03CFDA9EB0A031D44B146E0E711266B
:104330003046BDE8F08700BFF8B504460E46154686
:1043400013BB83689A685B69D71A1AD061680B40FF
:104350000A40934210D32A680131C91A8A4288BFA1
:104360002960226813443360A268296853690B44AA
:10437000002753613846F8BD2A68BA42F1D92F6048
:10438000EFE72F603846F8BD80680430FCF7B0FCDA
:1043900058B9A3689A685B69D71AD7D12F60A0680B
:1043A0000430FCF7BDFC3846F8BD1127E2E700BF3A
:1043B0002DE9F04104468068043088461646FCF733
:1043C00097FC002834D1A2683168936815695D1B99
:1043D0008D4228BF0D463560D4E9013211699268DB
:1043E00019401A4091422ABF0133521A5A1A954273
:1043F000074614D823682A461944404602F0CEFCEA
:10440000A268316813690B441361A3681A695A6181
:10441000A0680430FCF784FC3846BDE8F0812368CE
:1044200040461944AD1A904402F0B8FC0021E1E77F
:1044300011273846BDE8F08110B584682269A36869
:104440009B1A8B420AD31144216183681A695A610D
:1044500080680430FCF764FC002010BD042010BD0F
:1044600070B54468064620680D4618B908E024680F
:10447000206828B1B368294698470028F7D12068FA
:104480002860256070BD00BF4368186808B10268E5
:104490001A60704743681868704700BF436818681F
:1044A00018B908E00346006828B18142FAD10A68C9
:1044B0001A6001207047704710B568B90E4CA368A8
:1044C000012262703BB1D3E900230020A26098472B
:1044D000A368002BF7D110BD0128FCD1064C23693D
:1044E000A070002BF7D0D3E9002301202261984768
:1044F0002369002BF7D110BDCC01002010B50D4C65
:10450000237882B043B185200B4BD3F800340BB134
:104510000123A37002B010BD08486360A36023614B
:10452000E36000F0A9F8019000F0B2F801230198CF
:104530002370E9E7CC01002000000140B9440000ED
:1045400038B5154DAB78044673B110B143680120FE
:1045500098470020FCF7BAF9EB680133EB600020C4
:10456000BDE83840FCF7BAB903F0FF00FCF7AEF93C
:1045700064B12A6942B1944208D0134601E09C42DA
:1045800004D01B68002BFAD122602C61EB68002B51
:10459000E2D100F08FF8DFE7CC01002030B50A4B04
:1045A0000A4C53F8213054F82110027885B0D0E934
:1045B00001548DF80020C26801958DF808400392DF
:1045C0006846984705B030BDE4010020E0010020B6
:1045D00030B50A4B0A4C53F8213054F821100278B8
:1045E00085B0D0E901548DF80020C26801958DF89E
:1045F000084003926846984705B030BDE4010020AA
:10460000E0010020F0B5174B06784F7F43F82620D5
:104610001446154B154A9F550546086942F8260071
:104620008C46BCE80F0089B0EE46AEE80F009CE86F
:104630000F008EE80F0004964FB1002C0C4A69461B
:1046400008BF2246281D00F0DFFD09B0F0BD002C98
:10465000084A694608BF224605F10C0000F0ACFA92
:1046600009B0F0BDE4010020E8010020E0010020D5
:104670009D450000D1450000044A137923B901216A
:10468000106091801846704785207047EC0100202B
:10469000074B1A68D20704D4C02283F800230122F2
:1046A0001A604FF080430122C3F81825704700BFFD
:1046B00000E100E010B44FF080430022C3F8042171
:1046C00083B0D3F804210192104901980222C3F863
:1046D0000423D1F8FC000E4A40F08073C1F8FC308E
:1046E000146844F001031360516853685B1AB3F512
:1046F0000A5FFAD3054914604FF080430122C1F8E4
:10470000FC009A6003B05DF8044B704700ED00E0D8
:10471000001000E010B54FF0804382B0D3F80021C4
:1047200062B10021164AC3F80011D3F80011507984
:1047300000910121009CC3F80813A8B14FF08043F9
:10474000D3F80421CAB10022C3F80421D3F804210C
:10475000019202210A4A0198C3F808131368012044
:1047600002B0BDE8104018471368517198474FF0E8
:104770008043D3F80421002AE5D102B010BD00BF68
:10478000EC010020014B1B68184700BFF40100201A
:1047900038B50C4B984213D100200D46FCF796F823
:1047A000094B1C7924B10020FCF798F8112038BD82
:1047B000012220461D601A71FCF790F8204638BD92
:1047C000002038BD00200040F4010020034B984237
:1047D00003D1034B00221A601A7170470020004079
:1047E000F40100202DE9F04190F804E03B4F0EEB7E
:1047F0004E0307EB83059C002B7A82B0002B68D117
:104800003A514A686A6042794FEA4E0882B11A46C4
:104810001E469B00046803F5A07C013244F80C603E
:1048200054F80C5044790195D3B29C42019DF0D8C4
:104830000268CB7842F30734002C4FEA123241DB96
:1048400004F160445B0104F56144DBB284F8003399
:10485000026842F30733002B4FEA123409DB204D84
:104860005B09012204F01F0402FA04F445F8234016
:104870000268D2F804554B7825F0030503F00303D2
:104880002B43C2F8043505688B78D5F8082503F06A
:10489000030322F003021343C5F8083500680B78C0
:1048A000D0F81025C64422F00F0203F00F0307EBE7
:1048B0008E0713430124C0F8103500203C7202B06B
:1048C000BDE8F081074C02F00F025B01DBB2A3549C
:1048D000BEE7082002B0BDE8F08100BFFC01002067
:1048E00000E100E014ED00E00368054A01211960D1
:1048F000037903EB430302EB830302211972704730
:10490000FC0100200368054A01211961037903EBCA
:10491000430302EB83031972704700BFFC010020C0
:1049200003680122DA607047F0B4056840F20114B0
:1049300004FA01FCD5F8004224EA0C04C5F8004250
:10494000056882B0D5F800729DF818604FF4803485
:104950003B438C40C5F800329EB18B00056803F5DF
:10496000A0730026EE50EB5801930368019DC3F835
:104970000443036801F5A87143F8212002B0F0BC9C
:1049800070470368C3F80843F3E700BF2DE9F0411F
:10499000114D124FDFF8488082B000244FF480366A
:1049A0002B6806FA04F201347BB1D7F80433A5F57D
:1049B00000401A424FF0000180B206D029602B68F7
:1049C0000193D8E90031019A9847042C05F10405B8
:1049D000E6D102B0BDE8F081408100400080004097
:1049E000FC0100200000000010B5714AD2F8043329
:1049F00099058AB068D5D2F82431002B64D0002301
:104A0000C2F82431D2F8243101934FF40171694B7B
:104A10000198C2F8081393F8291009B901215160CF
:104A2000634902228DF81820D1F88024C1F880242F
:104A30009FED5D7B9969D868CDE9081283ED067B0F
:104A4000D3E90012079006A89047594AD2F81C31C2
:104A5000C3B1584B5869196A88426AD993F828102B
:104A600001F0FF00002964D1C2F81C01D2F81C112A
:104A7000039103999C68186A196A205C01311962D4
:104A8000C2F81C054A4AD2F84431DBB10021494B37
:104A9000C2F84411D2F8440193F82910009000980C
:104AA00009B1012111609A6962B1D8685C6A00217C
:104AB0000122CDE9070499618DF8182006A8D3E9F1
:104AC000001290470AB010BD394AD2F804335B0790
:104AD000BBD5D2F80831002BB7D0364B99690029E5
:104AE0003ED00021C2F80811D2F8081104910499AF
:104AF000D868596AD2F8182542545A6A996901321D
:104B00005A625A6A8A42A0D1DA69002A31D09A617F
:104B10001A69D8685C6ADA60002101220894D961B8
:104B2000596207905C6819688DF8182006A8A0479C
:104B30008BE71F4A0020C2F81C01D2F81C21029208
:104B4000029A5A69002A9DD0D3E901215C698DF847
:104B50001800CDE907145861196806A8904791E735
:104B6000C2F80811D2F8080105900598D2F8182566
:104B7000C7E793F8292012B90D4A012151600C4A68
:104B80004FF40171C2F80813D8685C6A0021012251
:104B900099618DF81820D3E90012CDE9070406A821
:104BA000904752E7AFF300800000000000000000D3
:104BB00000200040080200202DE9F041604E90F8EE
:104BC00004802C2303FB086382B093F82A30002B67
:104BD00040F0898005460C4600685A491746FFF7A1
:104BE000D7FD00287BD12368591C0CD04FF0A04181
:104BF000012202FA03F3C1F80835236803F5E073D4
:104C0000032241F8232063685A1C06D003F5E073A1
:104C10004FF0A042002142F823102B68A269C3F88C
:104C20002425227D637D13432A68C2F86C35D4E9BC
:104C300000122B68C3F81425C3F80C15237D012B33
:104C40005CD02C2303FB08F3F21857602269F25062
:104C500097B32A68237F0021C2F81C11D2F81C21C7
:104C60000092009A2A68C2F84411D2F844210192B5
:104C7000019A2A683449C2F804132A6842F30731BA
:104C800000294FEA123232DB01F160415B0101F58C
:104C90006141DBB281F800332B6843F30732002A0D
:104CA0004FEA133109DB294C5209012301F01F019E
:104CB00003FA01F144F822102B680422C3F80025FE
:104CC0002C2303FB086601220023C6E9063386F87D
:104CD0002930736186F82A2002B0BDE8F0811120E6
:104CE00002B0BDE8F081082002B0BDE8F0811849AB
:104CF00002F00F025B01DBB28B54CDE7A368591CB5
:104D000006D003F5E0734FF0A042002142F82310D3
:104D1000E3685A1C0DD04FF0A041012202FA03F3C0
:104D2000C1F80835E36803F5E073032241F8232056
:104D3000E3682A68A168C2F80835C2F8101580E750
:104D400008020020E94900008000020000E100E0C4
:104D500014ED00E0F8B503680679324C0022C3F880
:104D600000252C2303FB06435B68C3B103682E4A6E
:104D7000C3F80823036843F30732002A4FEA1331CC
:104D80000EDB5209294D2032012301F01F0103FAE5
:104D900001F145F82210BFF34F8FBFF36F8F036807
:104DA000D3F80CC5D3F81475D3F80815D3F81055FB
:104DB0004FF0FF32C3F81425C3F80C25036894455F
:104DC000C3F80825C3F8102506D00CF5E07C4FF099
:104DD000A043022243F82C207B1C06D007F5E07785
:104DE0004FF0A043022243F827206A1C06D005F5A5
:104DF000E0754FF0A043022243F825204B1C06D05B
:104E00004FF0A04301F5E071022243F82120006831
:104E1000FFF7DCFC2C2303FB0644002384F82A3034
:104E20006360F8BD080200208402020000E100E097
:104E30002DE9F041334C90F804E02C2303FB0E43A2
:104E40008446586984B000284ED15A61996018622E
:104E500083F82800DCF80020C2F81C01D2F81C21DD
:104E60000292029ADCF8002001219160DCF8002017
:104E70009D68C2F81C01D2F81C1101910199196AB0
:104E80006E5C196A01311962C2F81C655A6812B168
:104E900004B0BDE8F0815E691A6ADCF80010964241
:104EA0001BD9074602E093F828200ABBD1F81C2141
:104EB000002AF8D0C1F81C71D1F81C210392039A82
:104EC0001A6A15F802801A6A01321A62C1F81C8542
:104ED0001A6A9642EAD8DCF80010D1F81C31002B8F
:104EE000FBD00123CB6004E0112004B0BDE8F081C9
:104EF0000F202C2303FB0E440023636104B0BDE8A4
:104F0000F08100BF080200200279044B2C2101FB34
:104F100002335869003818BF01207047080200208A
:104F200030B5554D90F804E02C2303FB0E5387B0A9
:104F30005C68844624B103684FF40170C3F8080329
:104F40002C2303FB0E53986998B1D869002840F0D0
:104F500083801961DA612C2202FB0E52536853B32D
:104F6000DCF800304FF40172C3F80423002007B0CE
:104F700030BD9A61D9605862D86193F82930002B0E
:104F8000E9D1DCF80020C2F82431D2F824210192C2
:104F9000DCF800200199C2F80831D2F808310293F8
:104FA000DCF80030029901221A602C2202FB0E521A
:104FB0005368002BD4D1DCF80010C1F84431D1F88B
:104FC00044310393039BDCF80030D3F82411D3F869
:104FD0000841D3F8440154B9002834D10029F4D051
:104FE0002C2303FB0E550023AB610320BFE70029F0
:104FF000F6D150BB9169C3F8080181B1D3F808110B
:1050000004910499D468516AD3F818356354536AEB
:10501000916901335362536A9942D4D806E0D3F8B8
:10502000081105910599D3F81835536A2C2303FB11
:105030000E55002295F82930AA61B3B1DCF8003092
:1050400001221A6093E70029CAD12C2303FB0E55D5
:105050000023AB610F208AE764B1DCF800304FF425
:105060000172C3F80423112081E7DCF8003001222B
:105070005A607CE711207AE70802002003684FF4A9
:105080000171C3F80813036801225A60704700BF1A
:1050900010B55B4BD3F824218AB0002A58D00022E7
:1050A000C3F82421D3F82411049102228DF818208A
:1050B0000499544AD3F88014C3F880149FED4E7BB2
:1050C0000991D3F83C45D06882ED067BCDE9070411
:1050D000D2E9001306A89847494BD3F8442152B1AE
:1050E0000021484AC3F84411D3F844019169039060
:1050F0000398002961D1424BD3F8202162B10020EE
:10510000C3F82001D3F82021029201213D4A029CDC
:10511000D9605169002943D1394BD3F85821AAB13C
:105120000020C3F85801D3F85811364A019101996B
:10513000516959B1D3F84C458DF81800D2E90131C5
:105140005061CDE9071406A8116898470AB010BD50
:10515000D3F810110029BFD0C3F81021D3F81011D3
:10516000284C05910599A169D3F83C058842B3D133
:10517000E169002933D0C4E90612D3F8002222F0F5
:105180002002C3F80022E2680792012122698DF80B
:105190001810089063682168E26006A898479BE7AA
:1051A000D3F84C458DF81800D2E901315061CDE9B2
:1051B000071406A811689847AEE79FED0F7BD3F858
:1051C0003C45D0684FF0010CCDE9070482ED067B29
:1051D000D2E900138DF818C006A898478BE7E2685B
:1051E000A1610123CDE907208DF8183006A8D4E984
:1051F0000013984770E700BF0000000000000000A7
:1052000000200040380200202DE9F04307796D4E60
:1052100007EBC70306EB830387B093F82030002B1E
:1052200040F0A38004460D46006867499046FFF7AA
:10523000AFFA002840F095802B68591C4FEAC70947
:105240000CD04FF0A041012202FA03F3C1F8083557
:105250002B6803F5E073032241F823206B685A1C86
:1052600006D003F5E0734FF0A042002142F823106E
:105270002368AA69C3F824252B7D6A7D1A43236815
:10528000C3F86C25D5E900312268C2F80C35C2F8A4
:1052900014152B7D012B73D009EB070206EB82035B
:1052A000C3F804802B6946F82230B8F1000F47D0CC
:1052B00021682B7F0022C1F81021D1F81011019133
:1052C00001992168C1F82021D1F820110291029999
:1052D0002168C1F82421D1F8241103910399216890
:1052E000C1F84421D1F84411049104992168C1F80E
:1052F0005821D1F858210592059A22683349C2F8FD
:105300000413226842F3073100294FEA123230DBDE
:1053100001F160415B0101F56141DBB281F80033CD
:10532000226842F30733002B4FEA123109DB284D84
:105330005B09012201F01F0102FA01F145F8231077
:1053400022684F4406EB87060121002386F82010CF
:105350000821C2F80015C6E90633736107B0BDE83D
:10536000F083112007B0BDE8F083082007B0BDE846
:10537000F083184902F00F025B01DBB28B54CFE7D8
:10538000AB68591C06D003F5E0734FF0A042002132
:1053900042F82310EB685A1C0DD04FF0A0410122B7
:1053A00002FA03F3C1F80835EB6803F5E073032252
:1053B00041F82320EB682268A968C2F80835C2F8D2
:1053C000101569E7380200209150000010034200D8
:1053D00000E100E014ED00E02DE9F04105794B4CCF
:1053E00005EBC50304EB830301465B68006882B0EC
:1053F000EE00C3B1464BC0F808330B6843F30732E5
:10540000002A4FEA13330EDB5209DFF808C12032BD
:10541000012703F01F0307FA03F34CF82230BFF310
:105420004F8FBFF36F8F731904EB83039A69D0F822
:10543000003223F02003C0F8003242B10023C0F84C
:105440004431D0F844310093009B01234360002392
:10545000C0F85831D0F858310193019B73190122DB
:1054600004EB8303C2609A69D0F85831002BFBD05B
:105470001AB1D0F84431002BF6D00023C0F8003523
:105480000B684FF0FF32D3F80C85D3F814E5D3F84E
:105490000875D3F810C5C3F80C25C3F814250B689C
:1054A0009045C3F80825C3F8102506D008F5E07824
:1054B0004FF0A043022243F82820BEF1FF3F06D060
:1054C0000EF5E07E4FF0A043022243F82E20BCF1FF
:1054D000FF3F06D00CF5E07C4FF0A043022243F8DA
:1054E0002C207B1C06D007F5E0774FF0A04302226A
:1054F00043F82720FFF76AF9354404EB85040023BD
:1055000084F82030636002B0BDE8F08138020020EA
:105510001003420000E100E001F0604CBCF1005FCC
:1055200030D170B590F804E0264C0EEBCE0C04EBB5
:105530008C0C0346DCF8140082B04FEACE0500283C
:105540003BD1CCF81420CCF808101A68C2F820011E
:10555000D2F820210192019A1A68C2F85801D2F8B3
:1055600058210092009A1A68DCF81460C2F84415B9
:10557000C2F848651A6801219160DCF804201AB16C
:1055800002B070BD102070471A6800E0C0B9D2F8B0
:105590002011D2F858010029F8D088B90121D16032
:1055A0001B68D3F85821002AFBD005EB0E0304EB4F
:1055B000830300225A6102B070BD112002B070BD99
:1055C0000F20F2E7380200200379054A03EBC303FA
:1055D00002EB83035869003818BF0120704700BFF1
:1055E0003802002001F06043B3F1005F62D1F0B4F3
:1055F00090F804C0484C0CEBCC0304EB830382B05E
:105600005E684FEACC0326B105684FF40477C5F80D
:105610000873634404EB83039D695DBB9A61DD619C
:10562000D9600368C3F81051D3F810310193019B7E
:105630000368C3F84451D3F8443100930368009DD4
:10564000C3F83415C3F83825036801221A6090F8AE
:1056500004C00CEBCC0304EB83034FEACC055B687E
:1056600053B303684FF40472C3F80423002002B05C
:10567000F0BC7047DD69002D37D11961DA6103682C
:10568000C3F81051D3F810310193019B0368C3F89C
:105690004451D3F8443100930368009DC3F8341596
:1056A000C3F838250268D2F8003243F02003C2F86C
:1056B0000032CCE710207047036801E0E9B910BB65
:1056C000D3F81021D3F84411D3F82401002AF5D0DF
:1056D000654400284FF0000304EB850418BF032045
:1056E0009942A36118BF0F20C1E796B103684FF438
:1056F0000472C3F804231120B9E7654404EB850460
:105700000F20A261B3E7654404EB85040320A16187
:10571000ADE71120ABE700BF380200200379094A4A
:1057200003EBC30302EB8303DB6933B10268D2F8F6
:10573000003223F02003C2F80032036801225A60CD
:10574000704700BF3802002030B58BB0FEF7D6FEA0
:10575000002832D10020FEF7F3FEFAF7D7FF002829
:1057600034D14FF0804200210123C2F800111360B0
:10577000D2F80031002BFBD0194D00F077FD0FCD92
:1057800002AC0FC495E80F009FED137B84E80F0077
:105790000323009313480123002202A98DED027B0D
:1057A000FCF7D8FB78B90F48FDF740FC40B90D4C29
:1057B0002046FCF761FC20BFFAE7FAF79DFDC9E738
:1057C000FAF79AFDF3E7FAF797FDECE7FAF794FD9D
:1057D000C7E700BFAFF300800F000000100000001B
:1057E000D8790000F8790000704700BF0449054BE4
:1057F000054A4FF0040C81F801C00321FCF72CBCD2
:1058000040000020587A0000747A000010B4044C64
:10581000044B054A032161705DF8044BFCF71CBC86
:1058200040000020847A0000747A00000449054B8F
:10583000054A4FF0020C81F801C00321FCF70CBCB3
:1058400040000020A07A0000747A00000449054B53
:10585000054A4FF0010C81F801C00321FCF7FCBBA5
:1058600040000020BC7A0000747A00000449054B17
:10587000054A4FF0000C81F801C00321FCF7ECBB96
:1058800040000020D87A0000747A00000449054BDB
:10589000054A4FF0D80C81F802C00321FCF7DCBBAD
:1058A00040000020F47A0000107B00000449054B02
:1058B000054A4FF0FF0C81F802C00321FCF7CCBB76
:1058C00040000020207B0000107B00000449054BB5
:1058D000054A4FF0EC0C81F802C00321FCF7BCBB79
:1058E000400000203C7B0000107B00000449054B79
:1058F000054A4FF0F00C81F802C00321FCF7ACBB65
:1059000040000020587B0000107B00000449054B3C
:10591000054A4FF0F40C81F802C00321FCF79CBB50
:1059200040000020747B0000107B00000449054B00
:10593000054A4FF0F80C81F802C00321FCF78CBB3C
:1059400040000020907B0000107B00000449054BC4
:10595000054A4FF0FC0C81F802C00321FCF77CBB28
:1059600040000020AC7B0000107B00000449054B88
:10597000054A4FF0000C81F802C00321FCF76CBB14
:1059800040000020C87B0000107B00000449054B4C
:10599000054A4FF0040C81F802C00321FCF75CBB00
:1059A00040000020E07B0000107B000010B4044C9D
:1059B000044B054A0321A1705DF8044BFCF74CBB76
:1059C00040000020FC7B0000107B00000449054BD8
:1059D000054A4FF0020C81F800C00321FCF73CBBE4
:1059E00040000020187C0000347C00000449054B76
:1059F000054A4FF0010C81F800C00321FCF72CBBD5
:105A000040000020507C0000347C00000449054B1D
:105A1000054A4FF0000C81F800C00321FCF71CBBC5
:105A2000400000206C7C0000347C00002DE9F04137
:105A30008368D3F86031C3F340089B0727D41A4C1E
:105A4000237805460F461646E3B9184C102200216C
:105A5000204601F0CBF901232370154B5A78627070
:105A60009A782271022FDA781B78A271637114D0B0
:105A70000E4800F0EDFC28460E4ABDE8F041032137
:105A8000FCF7EABA00F0AAFE84F80080DDE7002205
:105A9000BDE8F0411146FDF7CBBB706801F042F95B
:105AA000054BC4E90203E3E70C050020FC040020D9
:105AB00040000020847C0000E957000001291ED02E
:105AC00010B48468D4F86041A30705D4022909D82A
:105AD0000FD05DF8044B704700225DF8044B11466F
