:020000040000FA
:1000000060240020150200001D0200001F020000F5
:100010002102000023020000250200000000000071
:1000200000000000000000000000000027020000A7
:1000300029020000000000002B0200002D02000039
:100040002F020000A50200005D0600002F02000044
:100050002F0200002F0200002F0200002F020000DC
:100060002F0200002F0200002F0200002F020000CC
:100070002F0200002F0200002F0200002F020000BC
:100080002F0200002F0200002F0200002F020000AC
:10009000010300002F0200002F0200002F020000C9
:1000A0002F0200002F020000310600002F02000086
:1000B0002F0200002F0200000000000000000000DE
:1000C0002F0200002F0200002F0200002F0200006C
:1000D0002F0200002F0200002F020000000000008D
:1000E0000000000000000000000000000000000010
:1000F0000000000000000000000000000000000000
:1001000000000000000000000000000000000000EF
:1001100000000000000000000000000000000000DF
:1001200000000000000000000000000000000000CF
:1001300000000000000000000000000000000000BF
:1001400000000000000000000000000000000000AF
:10015000000000000000000000000000000000009F
:10016000000000000000000000000000000000008F
:10017000000000000000000000000000000000007F
:10018000000000000000000000000000000000006F
:10019000000000000000000000000000000000005F
:1001A000000000000000000000000000000000004F
:1001B000000000000000000000000000000000003F
:1001C000000000000000000000000000000000002F
:1001D000000000000000000000000000000000001F
:1001E000000000000000000000000000000000000F
:1001F00000000000000000000000000000000000FF
:10020000DFF80CD000F03CF800480047B10A0000CD
:10021000602400200648804706480047FEE7FEE7C6
:10022000FEE7FEE7FEE7FEE7FEE7FEE7FEE7FEE7A6
:10023000590300000102000040EA01039B0703D0BC
:1002400009E008C9121F08C0042AFAD203E011F815
:10025000013B00F8013B521EF9D27047D2B201E0D7
:1002600000F8012B491EFBD270470022F6E710B5BB
:1002700013460A4604461946FFF7F0FF204610BD14
:10028000064C074D06E0E06840F0010394E80700E3
:1002900098471034AC42F6D3FFF7B6FF881700003A
:1002A000A817000070B5144CD4F80001002628B13E
:1002B000D4F80403C00701D0C4F80061D4F80C01DD
:1002C0000E4D40B1D4F80403000704D5C4F80C6106
:1002D000286900B18047D4F8100100280BD0D4F869
:1002E0000403C00607D5C4F81061E868002802D0EE
:1002F000BDE87040004770BD001000404400002081
:100300007CB5144C606A01902078002821D001202F
:1003100000F0B7F9656800266660012000F0C2F9B8
:10032000E169002915D0E80703D08DF80060684620
:100330008847A80705D501208DF80000E1696846C7
:100340008847680705D502208DF80000E1696846F6
:1003500088477CBD44000020F0B5A449A4484FF074
:1003600080540B68D4F830210078D4F83411551C2F
:10037000C0F3031006D0944601270026BCF1060FF7
:1003800003D00AE003F0FF0CF6E7B4F82453DFF8DB
:1003900064C2C5F30425CCF80050DDB2062D06D1A9
:1003A000032804D1DFF854C2934DCCF87450551C87
:1003B00004D09446BCF1060F03D00AE003F0FF0C12
:1003C000F8E7D4F84452DFF838C2C5F34235CCF828
:1003D0000050DDB2062D08D1032806D1894DD5F88D
:1003E00000C02CF0807CC5F800C0551C04D0944699
:1003F000BCF1060F03D00BE003F0FF0CF8E74FF061
:100400008045C5F80C61C5F810617D4D2D1F2E602B
:10041000DDB2062D08D1032806D1DFF8E4C103259B
:100420000CF1640CCCF80050DDB2062D10D103287D
:100430000ED1DFF8D4C10525CCF80050724D7835C7
:100440002F60714D08352E600CF104063F25356094
:10045000551C04D016460D46062E03D05BE0DEB2D6
:100460000546F9E7ED1E012D55D9684D2D68684EFA
:100470003560664D2D1D2D68361D3560634D083580
:100480002D68361D3560614D0C352D68361D356083
:100490005E4D10352D68361D35605C4D14352D6868
:1004A000361D3560594D18352D68594E203635604A
:1004B000564D1C352D68361D3560544D20352D6840
:1004C000361D3560514D24352D68361D35604F4D34
:1004D00028352D68361D35604C4D2C352D68361D60
:1004E00035604A4D30352D68494E40363560474DB0
:1004F00034352D68361D3560444D38352D68361D30
:100500003560424D3C352D68361D35603F4D4035D8
:100510002D68361D3560551C03D01646062E02D0B8
:1005200007E0DEB2FAE7D4F858523A4E05F04F052C
:100530003560551C03D01346062B02D008E0DBB211
:10054000FAE735480368DB0702D06FF00103036068
:10055000062A07D1C91E022904D93048016841F48E
:100560008061016027487438016841F470010160BE
:10057000BFF34F8FBFF36F8FD4E94C104FF01022B1
:10058000062907D1C01E032804D9D2F808021C4945
:100590001C310860D2F80002002803DBD2F8040204
:1005A00000281FDA012000F0EBFD1521C2F800122F
:1005B0001B480368002BFCD0C2F804120168002914
:1005C000FCD0002000F0DCFDBFF34F8F0D48F03869
:1005D0000168144A01F4E06111430160BFF34F8FD9
:1005E00000BFFDE7114910480860F0BDE00F00F0C2
:1005F000E80F00F0403501400DF0ADBA00C00740F3
:100600003C050040FCED00E01056004004040010E2
:1006100020C50040E40E0040000400403C170040AC
:1006200000E401400400FA050090D0038C00002093
:100630000748D0F84011002909D00021C0F8401126
:1006400004484078032802D103490120086170471B
:1006500000A0014044000020001000400148006854
:10066000004700003C000020002809DB00F01F02CA
:10067000012191404009800000F1E020C0F8801283
:10068000704700280DDB00F01F0201219140400956
:10069000800000F1E020C0F88011BFF34F8FBFF35E
:1006A0006F8F7047002809DB00F01F020121914085
:1006B0004009800000F1E020C0F8001170470028D8
:1006C00009DB00F01F02012191404009800000F188
:1006D000E020C0F8001270474907090E002804DB2B
:1006E00000F1E02080F80014704700F00F0000F1E6
:1006F000E02080F8141D704702E008C8121F08C1EE
:10070000002AFAD170477047002001E001C1121F92
:10071000002AFBD17047006890FAA0F000BA00BA36
:100720007047000072B609480068C00700D000BEDC
:10073000BFF34F8F0548E4380168054A01F4E061D2
:1007400011430160BFF34F8F00BFFDE7F0ED00E004
:100750000400FA050EB500210091CDE901106A46AA
:1007600044F20100FFF7DEFF0EBD0000F0B54FF0D0
:100770008050D0F80411C1F307222949422A0AD136
:10078000284A136823F0010313600A6822F001026B
:1007900042F080720A60D0F80401C0F307204528B7
:1007A0003AD12148407C052838D04FF07F431F487C
:1007B00000681E4A1840121D12681A4090422BD140
:1007C0001A4A083210681368C0B2C3F3072C1368C2
:1007D0001268C3F30747160E144A0C321368DDB2D1
:1007E0001368C3F3072413681268C3F30743120E98
:1007F00060450BD0B84209D0B04207D0A84205D01E
:10080000A04203D0984201D0904205D1086820F060
:10081000010040F0807008600020F0BD044BC6E786
:100820007417004050160040780000201C1500404E
:100830000000FFFF2DE9FC410646C0074FF0000510
:100840000ED0104F00240122385D00950023114680
:10085000019500F057FC641C042CF4D300F01CF844
:10086000B0070DD5074E0024361D0022305D03234E
:1008700000951146019500F045FC641C042CF4D34E
:10088000BDE8FC81801700000249085C012100F0EE
:100890006BBC00008017000010B500242046FFF755
:1008A000F3FF641C042CF9D310BD006890FAA0F08B
:1008B00000BA70474FF080400021C0F800110121BC
:1008C000C0F80010D0F800110029FBD070470000DC
:1008D00010B51EA08AB0006808901DA01DA1006878
:1008E0000990D1E90001CDE9060118221B496846AB
:1008F000FFF7A2FC0620ADF80E00002401208DF8C1
:1009000014408DF800008DF80800154801908DF80E
:100910000140684600F090F9002815D108A800F0C1
:1009200063FA002810D109A800F096FA00280BD12C
:10093000082106A800F0DEFA002805D109480321A5
:1009400001704470447100200AB010BDE7E7E7E78A
:10095000C2C2C2C2E7C2C3C4C5C6C7C868170000C6
:100960004D0B00001400002070B50D2000F0E9FBD5
:100970001C4C60600E2000F0E4FBA0600F2000F033
:10098000E0FBE060102000F0DCFB2061626804F115
:1009900014011AB94B7943F001034B71A3681BB9D9
:1009A0004D7945F002054D71E5681DB94E7946F067
:1009B00004064E7118B94E7946F008064E711A4475
:1009C0002A441044032803D001202070002070BD69
:1009D0000020C8700348143000F0FCFA0028F5D05D
:1009E00070BD00000000002010B5032211460D204C
:1009F00000F09AFB032211460E2000F095FB032223
:100A000011460F2000F090FB03221146102000F049
:100A10008BFB04494FF47A408847BDE81040012021
:100A2000FFF708BF6117000070B500F0C5FC1E4954
:100A30000020A1F5947300BF00EB800202EB40128E
:100A40001A4441F82020401C0828F5DB16490020F4
:100A50002C3101F5947200BF00EB800404EB4014CC
:100A60000C4442F82040401C0828F5DB00200F4AC7
:100A70004FEA000100EB800404EB4014E51800EBA2
:100A80004004401C42F8245002EB840408282171E1
:100A9000A160EFDB054A002012F1600242F820104D
:100AA000401C0828FADB70BDF8010020BC030020C0
:100AB000FFF700FFFFF70CFF08B1FFF74BFEFFF752
:100AC00093FF00F061FCFFF74FFF08B1FFF742FE14
:100AD0000C4C20780028FCD00D2000F032FB0128BF
:100AE000F7D10E2000F02DFB0128F2D10F2000F0ED
:100AF00028FB0128EDD1102000F023FB0128E8D1CC
:100B000000F03EFD0000002070B50C494FF470501D
:100B100008600B4C00256570257000F04DFC20210D
:100B20000848FFF7A2FBE56214202563FFF7A9FD43
:100B300005490320C1F80002002070BD08F50140FE
:100B4000440000203C0400200010004070B50078F4
:100B50002B4C002851D0012802D002284DD102E0B0
:100B600000F052F849E0274800F0FAF80028FAD0DF
:100B7000244D6168687940F30000401C21B10021D8
:100B8000884203D1012102E00121F9E7002111206F
:100B900000F0DFFA6879A16840F34000401C21B101
:100BA0000021884203D1012102E00121F9E700215F
:100BB000122000F0CEFA6879E16840F38000401C12
:100BC00021B10021884203D1012102E00121F9E78E
:100BD0000021132000F0BDFA6879216940F3C000BC
:100BE000401C21B10021884203D1012102E00121F2
:100BF000F9E70021142000F0ACFA0120207070BD4C
:100C00000000002090000020094810B5007860B175
:100C10000120FFF736FD0748002181620162416231
:100C20000120FFF73FFD002010BD082010BD00008F
:100C300044000020F801002070B505006AD03B4C4C
:100C4000207818B1FFF760FF002864D16868E06180
:100C5000182229463648FFF7EFFA00256560202163
:100C60003448FFF702FBE562256300F0FBFC002837
:100C700052D031494FF0E7300860091D4FF0433042
:100C80000860091D2D480860091D2D480860FFF700
:100C9000CBFE2C49042008602A48083805602A4801
:100CA00040F20221C0F80012294A28491160111DA2
:100CB00008602648001D091D086023481030091DE2
:100CC0000860091D234808602048F038091D0860A5
:100CD0002048001D091D0860091D1F480860144EAA
:100CE000707C00F007010120FFF7F6FCB07C00F0FB
:100CF00007011420FFF7F0FC1420FFF7D3FC657008
:100D0000012020700007D0F80401C0F30720452817
:100D100004D008E00E2070BD072070BD0F480168A8
:100D200041F480610160002070BD0000440000209B
:100D3000B80000203C0400201C150040E743C323FA
:100D4000A363E31310A5004000A000400011004081
:100D500060F5014040A10040001000403C170040F9
:100D600070B505461E48007880B385B31D4CA06A57
:100D700070B30120FFF785FC606A54F820100A78F0
:100D80002A7054F820104978697054F82010897836
:100D9000A97054F820100979297154F82010C978E5
:100DA000E97054F82010681D491DFFF745FA606A84
:100DB000401C6062082801D300206062A06A401EC7
:100DC000A0620120FFF76EFC002070BD01E002E090
:100DD00003E00820F9E70E20F7E70520F5E700001B
:100DE000440000204C03002070B5184E0446707873
:100DF00008B1112070BD44B14FF08050D0F804010B
:100E0000C0F30720422802D012E00E2070BD0F4828
:100E10003430407C052814D04FF07F452046FFF742
:100E20007AFC284204D10A48006810F0FF0F0AD06B
:100E300020687063012000F0C7FBBDE87040FFF739
:100E400095BC044DEAE7072070BD00004400002077
:100E5000241500400000FFFF70B5234D044668785C
:100E600008B1112070BD44B14FF08050D0F804019A
:100E7000C0F30720422802D029E00E2070BD1A4896
:100E80003430407C05282BD04FF07F462046FFF7BA
:100E900042FC30421BD11549086810F47F4F21D025
:100EA000086810F47F0F1DD00868000E1AD0091DC5
:100EB0000868000E16D0086810F47F0F12D008687A
:100EC00010F47F4F0ED0086810F0FF0F0AD0206892
:100ED000A863022000F078FBBDE87040FFF746BC35
:100EE000034ED3E7072070BD4400002024150040C6
:100EF0000000FFFF70B50C462249497809B1112066
:100F000070BD60B1082C3AD84FF08051D1F804116F
:100F10001C4DC1F307213435422902D01CE00E20BC
:100F200070BD697C05290FD04FF07F412CB1164A66
:100F300012680A4201D102780AB3134A121D1268DC
:100F40000A4209D1012105E01049EFE7425CB2B144
:100F5000491CC9B2A142F9D301460A4822463C3095
:100F6000FFF76AF9C4F10801FF202C74C840A87487
:100F7000042000F029FBBDE87040FFF7F7BB072015
:100F800070BD0000440000201C1500400000FFFF61
:100F90000E4810B50078A0B10D4CA06A98B10120A0
:100FA000FFF76FFBA06A401EA062606A401C60628F
:100FB000082801D3002060620120FFF773FB0020A6
:100FC00010BD082010BD4FF4807010BD44000020FB
:100FD000F80100202DE9F047DFF818A106469AF83D
:100FE000000040B156B1307868B120280BD8424F8C
:100FF000397829B109E00820BDE8F0870E20FBE729
:10100000F97C884201D90920F6E73C4CA06A0828FF
:1010100001D30420F0E77078082801D30720EBE71C
:101020000120FFF72EFBDFF8CC8078784FF0000925
:1010300008F12C0860B13249002000BF00EB4002EB
:1010400001EB82021279EAB1401C0828F6DB42E08B
:10105000206A2522314654F82000FFF7EDF8727817
:1010600018F80210491C01F0030108F80210206A68
:1010700054F82020401C08281171206228D3C4F89D
:10108000209025E000EB400011EB800523D00120EB
:101090002871C5F80890252231462868FFF7CCF85A
:1010A000727818F80210491C01F0030108F80210C8
:1010B0002868134A01717178603252F8210018B91A
:1010C00042F8215004E0084681680029FBD1856080
:1010D000A06A401CA0620120FFF7E4FA787830B9DA
:1010E000387C20B99AF8010008B900F0BFF9002057
:1010F00082E7000044000020B8000020F801002032
:10110000BC03002070B541EA4201DDE904564FF00E
:10111000A04441EA830141EA052104EB800041EA51
:101120000641C0F8001770BD10B54FF0A043002471
:1011300044EA810103EB800041EA0241C0F8001754
:1011400010BD4FF0A041D1F81015C14001F00100D1
:10115000704701224FF0A043824011B1C3F8082527
:101160007047C3F80C25704701224FF0A04382401E
:1011700011B1C3F808257047C3F80C25704700006B
:1011800003490860034801680029FCD0704700004B
:1011900004E5014000E4014070B5164CA068164A11
:1011A000C2F80002A06A15490860154B091D98890C
:1011B000823808601348012140F80C1F0021C0F854
:1011C0003411C0F83811104D4FF4E050286050141D
:1011D0002D1D2860C2F80C11187810B96169002023
:1011E00088470B49094808600A48E060032060709E
:1011F00070BD0000440000200010004040A50040E9
:10120000B800002000A0004004F501409A0300202F
:10121000041500405512000010B50C4C606840F0F9
:1012200001006060FFF7B4FE0948806A30B1142005
:10123000FFF745FABDE8104000F018B900206070D3
:10124000BDE810401420FFF73ABA00004400002027
:10125000F80100202DE9F047414A4FF4E0501060BA
:101260004049D1F80C31DFF8009100273F4CB9F824
:101270000E004E14DFF8F8800125E3B33D4B1B68E8
:10128000CBB325611660D8F8041041F00101C8F80D
:101290000410D8F82010401A401CC8F82400FFF7AA
:1012A00077FE99F8000088B109F2E220017869B16F
:1012B0004078410830480068C0B200F08BF828B18F
:1012C000D8F8040040F00400C8F804002B48806AF5
:1012D00050B199F81000012806D01420FFF7EFF95B
:1012E000BDE8F04700F0C2B888F80170BDE8F047EB
:1012F0001420FFF7E4B9D8F820C0BCF1010CC8F8FD
:1013000020C00BD225611660401CC8F82400D8F814
:10131000040040F00200C8F80400E5E7D8F808002F
:101320000F4640F00802C1F80022D8F81800D8F89B
:101330001410007888471048114928380160114876
:10134000C8F80C00022088F8010025600448001F3E
:101350000660D4F84401002800D03D60BDE8F08765
:1013600008F5014000100040B800002000A0004037
:1013700044000020001400402C150040F80100201B
:1013800078030020991100000948002102680D230C
:10139000B3EB121F04D10168002201F00F010260BB
:1013A000491C41F0D002026008010249887170476F
:1013B0001C05004014000020054900200862486216
:1013C000886201F5AA71086248628862704700006D
:1013D000F80100202DE9F041224C07468846A06A1A
:1013E00008283DD2A4F5257120460A780026006A17
:1013F00001F2E225012A03D04A7842B1C97C02E019
:10140000297820292CD854F82020117002E054F8B3
:1014100020100E7054F82000A91C10F8052BFEF7C0
:101420000BFF206A54F820104F700F49096854F8D8
:101430002020917054F8202082F80480697854F8B4
:10144000202041F30001491C401CD1702062082873
:1014500000D32662A06A401CA0620120BDE8F08192
:101460000020FBE74C030020481500402DE9F05F09
:101470003D4C4FF00108C4F824803C48DFF8F0A050
:10148000A0F5A077416A3B4D4FF0000B50F82110BA
:10149000A161387807F5307610B1012843D10DE00D
:1014A000087861698847A1690879307086F801B0C9
:1014B00011F8052BB01CFEF7BFFE18E0C87820B36A
:1014C000387D10B3002081460878307008794006D6
:1014D000000E7070CA78D2B100221043707011F8FB
:1014E000052BB01CFEF7A8FEB9F1000F11D0A068C3
:1014F00040F00800C5F800021120C5F80403F8897F
:1015000020620220C4F80CA00CE00120DBE70122DD
:10151000E3E7A068C5F800021020C5F804031648E8
:10152000E06040466070A069144A417811604078DC
:10153000444608FA00F0111D08600B480F4934308A
:101540002439C07C0860081F06600120FFF78CF872
:101550000120FFF7A7F8C5F804B1C5F808B1C5F830
:1015600010B12C60BDE8F09F44000020F80100207D
:101570009911000000100040191200002C150040C5
:101580000F49032008600E49103108600C492031D2
:1015900008600B493031086009494031086008494A
:1015A00050310860064960310860054970310860B3
:1015B000FFF772F90348012101600068FEE70000AF
:1015C000000900400005004010B50446C00704D0E3
:1015D0000F48FFF7A0F80F490860A00706D50C4890
:1015E000001DFFF798F80B49091D086060070DD52D
:1015F00007480830FFF759F90649083108600448E0
:101600000C30FFF752F903490C31086010BD00009F
:10161000780000201C1500400F4A10B50F48117AC1
:10162000016049230E48052914D2DFE801F00503C3
:1016300007050300302102E0836201E0FA218162A4
:101640009389816A3E318B4202D2806A3E3090811A
:10165000012010BD002010BDB80000201015004072
:101660004400002070B500F03FF8FFF7D5FF18499F
:10167000184A0B787BB1012B0BD00023034016488E
:101680004D7A041FB5B1012D0ED0022D07D00024D4
:1016900017E0124B00E0124B53610123EEE74FF6C7
:1016A000FF7606600F4803E0FF26066040F2071051
:1016B000206002E0002606602660074808380560C2
:1016C0000124C87C51691C408847204670BD000039
:1016D000B8000020440000203C15004029170000FD
:1016E000FD1600002110010002480349807A0860BD
:1016F00070470000B80000200C150040084A074958
:1017000011600849497C491E090441EA002101434E
:1017100041F08070111D0860704700000001010059
:101720001415004078000020074906480860074863
:101730000749407C401E41EA00400349091D0860FA
:1017400070470000060003001415004078000020D8
:101750002000000100000000000000000000000068
:101760000338FDD8704700000100000000000000B1
:1017700001020000FA000300000102200000000046
:10178000111213140D0E0F10A817000000000020F6
:1017900090000000F80600003818000090000020BB
:1017A000D023000008070000000000000000000037
:1017B0000000000000000000000000000200000027
:1017C0000001000000000000000000000000000018
:1017D0000000000000000000000000000000000009
:1017E00000000000000000000000000000000000F9
:1017F00000000000130100000000000000000000D5
:1018000000000000000000000000000000000000D8
:1018100000000000000000000000000000000000C8
:10182000E7E7E7E7C2C2C2C2E7C2C3C4C5C6C7C8CA
:081830000805FF020090D0033F
:0400000500000201F4
:00000001FF
