:020000040000FA
:10000000004100202D030000350300001502000010
:10001000390300003B0300003D0300000000000026
:100020000000000000000000000000003F0300008E
:1000300041030000000000004303000045030000EE
:100040004508000047030000290B0000470300009B
:10005000470300005106000047030000470300006B
:100060004703000047030000470300004703000068
:100070004703000047030000470300004703000058
:100080004703000047030000470300004703000048
:100090004703000047030000470300004703000038
:1000A000470300004703000047030000D90A00008F
:1000B00047030000470300000000000000000000AC
:1000C0004703000047030000470300004703000008
:1000D00047030000470300004703000047030000F8
:1000E0004703000047030000470300000000000032
:1000F000000000004703000000000000470300006C
:1001000000000000000000000000000000000000EF
:1001100000000000000000000000000000000000DF
:1001200000000000000000000000000000000000CF
:1001300000000000000000000000000000000000BF
:1001400000000000000000000000000000000000AF
:10015000000000000000000000000000000000009F
:10016000000000000000000000000000000000008F
:10017000000000000000000000000000000000007F
:10018000000000000000000000000000000000006F
:10019000000000000000000000000000000000005F
:1001A000000000000000000000000000000000004F
:1001B000000000000000000000000000000000003F
:1001C000000000000000000000000000000000002F
:1001D000000000000000000000000000000000001F
:1001E000000000000000000000000000000000000F
:1001F00000000000000000000000000000000000FF
:10020000DFF80CD000F0FAF800480047BD1B0000F2
:1002100000410020094B1EF0040F1CBFEFF30980C2
:100220001847EFF308800649064A884201D89042F1
:1002300002D88D464FF00000184700005D04000012
:10024000004100200021002030B4044654E8000F93
:100250000D4644E80053002BF8D1156030BC7047C0
:1002600030B4044654E8000F40EA010544E8005366
:10027000002BF7D1156030BC704730B4044654E809
:10028000000F00EA010544E80053002BF7D1156088
:1002900030BC704730B4044654E8000F80EA0105D2
:1002A00044E80053002BF7D1156030BC704730B4E0
:1002B000044654E8000F00EB010544E80053002B0E
:1002C000F7D1156030BC704730B4044654E8000FD5
:1002D000A0EB010544E80053002BF7D1156030BCBA
:1002E000704770B404464FF0000054E8006F0D688A
:1002F000AE4207BF44E80023012044E800630E60DB
:10030000002B1CBF0020F0E770BC704730B40446DF
:1003100054E8000F88422CBF451A054644E80053B4
:10032000002BF5D1156030BC7047000006488047AF
:1003300006480047FEE7FEE7FEE7FEE7FEE7FEE7CA
:10034000FEE7FEE7FEE7FEE7FD0800000102000011
:10035000202A04DB203A21FA02F00021704721FA1A
:1003600002F3D040C2F12002914008431946704781
:1003700000487047FC47000040EA01039B0703D098
:1003800009E008C9121F08C0042AFAD203E011F8D4
:10039000013B00F8013B521EF9D27047D2B201E096
:1003A00000F8012B491EFBD270470022F6E710B57A
:1003B00013460A4604461946FFF7F0FF204610BDD3
:1003C000421C10F8011B0029FBD1801A704730B580
:1003D00004460020034600E05B1C934203D2E05C2D
:1003E000CD5C401BF8D030BD034611F8012B00F85E
:1003F000012B002AF9D1184670470000064C074D22
:1004000006E0E06840F0010394E8070098471034E4
:10041000AC42F6D3FFF7F8FECC4D0000EC4D0000E7
:1004200030B58C1810F8012B12F00F0301D110F821
:10043000013B120906D110F8012B03E010F8015B13
:1004400001F8015B5B1EF9D101E001F8013B521E8E
:10045000FBD1A142E6D3002030BD00001CB581468F
:1004600002F0D0FD02F012FC0028FBD12D485FEA1B
:10047000090507682C482D494FF00106A0EB010043
:100480004FEAD00006EB004417D0204628A1AA6905
:1004900002F01AFDD5E90201CDE90001D5E90023FA
:1004A000204629A102F020FDE8690090D5E9042347
:1004B000204633A102F00FFD03E020463AA102F0EE
:1004C000FFFC1848001D0068800703D520464349FB
:1004D00002F0F6FCDFF80881002500BF06FA05F0FF
:1004E000384206D058F825201AB120463DA102F026
:1004F000EBFC6D1C1A2DF1D3380606D509480C30DB
:10050000026820463AA102F0DFFC380406D505480F
:100510001030026820463EA102F0D6FC484600F0AA
:1005200085F8000028ED00E0344E0000FC4D00008E
:1005300048415244204641554C5420617420307843
:100540002530385800000000202052303A2020305A
:100550007825303858202052313A20203078253004
:100560003858202052323A20203078253038582010
:100570002052333A202030782530385800000000CF
:1005800020205231323A2030782530385820204C03
:10059000523A202030782530385820205053523A93
:1005A0002030782530385800537461636B207669A9
:1005B0006F6C6174696F6E3A20737461636B207045
:1005C0006F696E746572206F7574736964652073EA
:1005D0007461636B20617265612E0000D848000071
:1005E0005800002043617573653A2025732E000082
:1005F0004D656D4D616E616765204661756C742057
:10060000416464726573733A20307825303858003D
:10061000427573204661756C742041646472657321
:10062000733A20307825303858000000BFF34F8FE0
:1006300005480168054A01F4E06111430160BFF318
:100640004F8F00BFFDE700000CED00E00400FA054D
:100650002DE9FF5F4FF482750024284602F0B0FDBB
:1006600038B1022002F0BCFD18B1284602F0B0FDFE
:1006700002244FF48475284602F0A2FD58B10420EC
:1006800002F0AEFD38B1284602F0A2FD0CB1032401
:1006900002E0012400E014B1204602F06FFF4FF4A5
:1006A0008C7002F08DFDDFF88891624F624E634CD2
:1006B0004FF000084FF4947A4FF4867B78B34020D3
:1006C00002F08EFD58B34FF48C7002F081FDB068DB
:1006D000CDE90008D9F800000390554814300068AF
:1006E0005546C0F30B001038C0F3CC0002905046C2
:1006F00002F066FD60B1381502F072FD40B1386855
:1007000000F00D000190284602F062FD0D203860D7
:10071000616809B168468847584602F059FD4FF4B0
:10072000887002F04DFDA0B1102002F059FD80B19B
:100730004FF4887002F04CFD06F118000FC88DE8E8
:100740000F003F491820C1F80803616809B16846E5
:1007500088474FF4A67002F033FD364D083D30B3A4
:100760004FF4002002F03CFD08B34FF4A67002F0F5
:100770002FFD4FF48C7002F02BFD504602F028FD47
:10078000584602F025FD4FF4887002F021FD00204C
:1007900002F050FF0D2038600120286006F128008B
:1007A0000FC88DE80F00616809B1684688474FF4AB
:1007B0008E7A504602F004FDC0B1802002F010FD98
:1007C000A0B12F68504602F003FD383696E80F00BE
:1007D0008DE80F00F80707D0012028608DF804800D
:1007E000616809B168468847012028605D4658461F
:1007F00002F0E6FC002819D0082002F0F1FC0028E5
:1008000014D0284602F0E4FC616800290ED00820CC
:100810000090D9F80000029005480C30006840F2C2
:10082000FF1202EAD000019068468847BDE8FF9FAA
:10083000105500400C540040504600008015002028
:100840000050004070B54FF48076304601F0D0FE85
:10085000114CB50560B1304601F0D1FE0120C5F85C
:100860000803607920B90120607121680020884761
:100870004FF48276304601F0BBFE00280AD03046A5
:1008800001F0BDFE0220C5F808032168BDE87040F4
:100890000120084770BD00001800002000F04AB990
:1008A00070B50E46144900EB400001EBC00514463C
:1008B000E86A183520B101280FD0022805D113E0CD
:1008C000284600F06BF9A04201D2002411E0224634
:1008D0003146284600F0A7F90BE0284600F05EF903
:1008E000A042F4D20446F2E73146284600F06EF901
:1008F0000446204670BD0000C41B002030B54FF0F8
:1009000080520023D2E94C10082906D1CC06C4F845
:100910000C31C4F81031624C2360082955D1614B69
:100920001B68614C23605F4B1B1D1B68241D2360EB
:100930005C4B08331B68241D23605A4B0C331B6827
:10094000241D2360574B10331B68241D2360554B17
:1009500014331B68241D2360524B18331B68524C00
:10096000203423604F4B1C331B68241D23604D4BE8
:1009700020331B68241D23604A4B24331B68241D2D
:100980002360484B28331B68241D2360454B2C33C0
:100990001B68241D2360434B30331B68424C40349A
:1009A0002360404B34331B68241D23603D4B383398
:1009B0001B68241D23603B4B3C331B68241D2360B4
:1009C000384B40331B68241D2360082904D10300E1
:1009D00002D1374C354B2360082904D1030002D1E2
:1009E000344CFB232360082908D1030006D1324B85
:1009F00092F858521C6865F303041C60082904D15E
:100A0000030002D12D4C8B012360082906D12C480C
:100A10000168C90702D06FF001010160294801682F
:100A200041F470010160BFF34F8FBFF36F8FD2E9C4
:100A30004C104FF01022082906D1032804D9D2F80F
:100A40000802174920310860D2F80002002803DBB1
:100A5000D2F8040200281FDA012003F083FA1221E1
:100A6000C2F8001218480368002BFCD0C2F8041228
:100A700001680029FCD0002003F074FABFF34F8F07
:100A800010487C380168114A01F4E06111430160AB
:100A9000BFF34F8F00BFFDE70E490D48086030BD22
:100AA000380500400404001020C5004048810300C0
:100AB0008C56004018F50040E40E0040409602407D
:100AC0000004004088ED00E000E401400400FA0565
:100AD0000090D003280100202DE9F047104E062792
:100AE00000244FF4A0784FF4803900BF08EB840550
:100AF00009FA04F0715961B1D6F80413014208D023
:100B00002946304602F0FAFB0648D0E90021284683
:100B10009047641CE4B2BC42E8D3BDE8F087000013
:100B200000B0014090150020014800680047000017
:100B30003000002010B5124C02202061606111A02D
:100B4000A06104F17800E0614FF4007020620020A1
:100B5000A06260620BA1A164E06204F51E71E16411
:100B60001021A065C4E91410E06509A1E01DFFF79C
:100B70003BFC08A12046FFF737FC2020A07110BDE8
:100B8000C41B00205465726D696E616C000000002A
:100B90005254540053454747455200000269C1680A
:100BA0008A4203D88068401A104400E0501A401E60
:100BB0007047002809DB00F01F0201219140400925
:100BC000800000F1E020C0F8801270472DE9F04766
:100BD000C4681746894606464FF000083069A042AF
:100BE00001D9051B02E0B168201A0D1AB0686D1E0C
:100BF000001BA84200D80546BD4200D33D467068A0
:100C00002A4620444946FFF7B7FBB0687F1B2C44B7
:100C1000A844A944A04200D10024F460002FDDD1F3
:100C20004046BDE8F0872DE9F04104468846D4E906
:100C30000207C51BE168606816460844B54206D93C
:100C40004146FFF799FBB819E060BDE8F0812A46FC
:100C50004146FFF791FB761B08EB050132466068C1
:100C6000FFF78AFBE660F0E702E008C8121F08C140
:100C7000002AFAD170477047002001E001C1121F1D
:100C8000002AFBD170470000F8B515461E4A904275
:100C900038D100260446052934D2DFE801F00321CB
:100CA0000E151A00D4F82C51002D2BD000230096DD
:100CB0001A460121D4F8300123E0C4E9025320464A
:100CC000BDE8F84000F0EEBC2046BDE8F84000F07A
:100CD00022BC1A4629462046BDE8F84000F06CBD0B
:100CE0004FF4803001F015FB204600F0E5FBD4F80E
:100CF0002C51002D06D0002300961A460221D4F86C
:100D00003001A847F8BD0000AC1E002072B602F00A
:100D100079F900BF01F0BAFF0028FBD11148124950
:100D2000401AC408012000EB044010A102F0C8F8EA
:100D300011480068C00700D000BE022000EB04404C
:100D40000EA102F0BDF8BFF34F8F0B48E4380168E5
:100D50000E4A01F4E06111430160BFF34F8F00BF01
:100D6000FDE700003C4E0000FC4D00004661746150
:100D70006C206572726F7200F0ED00E0537973744D
:100D8000656D207265736574000000000400FA054B
:100D90000EB500210091CDE901106A4644F2010030
:100DA000FFF7B4FF0EBDC16881600020704710B529
:100DB0008268C368934203D000F082FA002010BD1D
:100DC000052010BD29B112B1531E134203D00920D2
:100DD00070470E2070470160838000218160C160F0
:100DE0000846704710B58268C3689A1A83889A4289
:100DF00003D800F06FFA002010BD042010BD2DE9CB
:100E0000F0411646884607000ED06EB1B868F96802
:100E10003468081A0025844200D30446306030B19B
:100E20005FEA080001D00AE00E20BDE8F08105204D
:100E3000FBE708EB050138466D1C00F041FAA542BE
:100E4000F7D300203460F0E72DE9F04116468846DC
:100E5000070011D086B1B868F9683468081AB988F3
:100E60000025081A401C844200D30446306030B18B
:100E70005FEA080001D00BE00E20BDE8F0810420FD
:100E8000FBE700BF18F8051038466D1C00F022FA89
:100E9000A542F7D300203460EFE7000010B5064804
:100EA000FFF781FF002805D10348BDE8104010304E
:100EB000FFF779BF10BD0000EC15002070B50A4E99
:100EC00001460A48B578FFF772FF04464DB100208D
:100ED000B070711C0122C81D01F026FC08B1FFF79B
:100EE00057FF204670BD000038000020EC150020A0
:100EF000F0B5244E89B01F460D00044672603FD005
:100F0000A888296882B22048FFF75CFF002835D105
:100F1000A889A96882B21C481030FFF753FF002847
:100F20002CD1202219496846FFF726FA60690690FD
:100F3000207C00B101208DF814008DF81C70607CBD
:100F400000B10E208DF81500E0680290A0680390B3
:100F500020680190606800900A480D4A6946083090
:100F600001F0AEFB002809D1B0702068401C05D00C
:100F700004490122491CC81D01F0D6FB09B0F0BD8F
:100F80000720FBE738000020EC150020A0460000F9
:100F90003942000010B501461048FFF723FF040056
:100FA00019D10F480F4A0178515C19B1001D02F0A8
:100FB000CBFF02E00C3002F0A1FE60B908490748FF
:100FC0000839FFF7F4FE30B9054901220839044811
:100FD00001F0BAFB0446204610BD0000FC150020BD
:100FE000400000200400002000F002B800F008B823
:100FF00072B602480168491C016070475400002025
:1010000003490868401E086000D162B670470000BE
:101010005400002070B5054608680C46411C04D0F9
:1010200001F044FD206801F002FD6068411C02D01F
:10103000002101F0EAFC2968A069C1F82405607D5F
:10104000227D29681043C1F86C05D4E90012286894
:10105000C0F81425C0F80C15207D012814D1A06813
:10106000411C02D0002101F0D0FCE068411C04D0FA
:1010700001F01CFDE06801F0DAFCD4E902122868F6
:10108000C0F80825C0F8101570BD70B50546086891
:101090000C46411C04D001F013FD206801F0D1FC86
:1010A0006068411C02D0002101F0B8FC2968A069E9
:1010B000C1F82405607D217D2A680843C2F86C05CB
:1010C000D4E900122868C0F80C15C0F81425207D5A
:1010D000012814D1A068411C02D0002101F09EFC1F
:1010E000E068411C04D001F0EBFCE06801F0A9FCD1
:1010F000D4E902122868C0F80825C0F8101570BDA0
:101100002DE9FC410646C0074FF000050ED0104FF8
:1011100000240122385D009500231146019501F05D
:1011200029FC641C042CF4D300F024F8B0070DD57E
:10113000074E0024361D0022305D03230095114622
:10114000019501F017FC641C042CF4D3BDE8FC816C
:10115000484600000249085C012101F0BBBC0000C8
:10116000484600000249085C002101F0B3BC0000C1
:101170004846000010B500242046FFF7EBFF641C32
:10118000042CF9D310BD00002DE9F0470546861C5C
:1011900091460F464FF0010A0020FFF725FF1B4C38
:1011A00004F21C4860683860D4E90101184F401A05
:1011B0003968081A0EE00121404601F0B1F900F04B
:1011C000ABFC0146404601F0ABF9D4E90101401AFD
:1011D0003968081A401C8642EDD8B9F1000F03D0D7
:1011E000052065F3891002E0062065F39F506168D1
:1011F0003A68114004EB8101C86060683044606067
:101200000020FFF7F3FE5046BDE8F087A41700204A
:10121000CC00002070B50D4604460A2902D10D21EC
:10122000FFF7F8FFA0682268411CA1601554D4E9BB
:101230000101814204D32046BDE8704001F0A1BA0B
:1012400070BD0000044881684068814201D10120DE
:101250007047002070470000A417002070B5084CAC
:10126000050009D010342168002907D008682060E3
:10127000496828468847F6E70834F4E770BD00005F
:101280006C150020002801D102F0DABA7047000086
:10129000054A012120B1012805D19170FFF7DEBF79
:1012A00051700020FAE770476C15002010B500213E
:1012B000024801F040F980F3100010BDC01B00206F
:1012C000826883881A4003689A5C0A708168491CA6
:1012D00081607047C26883881A4003689954C16866
:1012E000491CC160704700002DE9FC5F0E00834679
:1012F000DDE90C47C6F1000098469246814600D4CD
:101300000846012503E000BF90FBFAF06D1C504534
:10131000FADAA84500D9454624B1002E01DB78074A
:1013200000D5641EB80702D5B8F1000F0AD0F8073F
:1013300008D13CB1A54205D220215846641EFFF7D2
:1013400069FFF6E7002E02DA4E462D2102E078070B
:1013500003D52B215846FFF75DFF07F00300022855
:101360000BD1B8F1000F08D13CB1A54205D2302114
:101370005846641EFFF74EFFF6E7CDE900474346A7
:1013800052463146584603F0F9F8BDE8FC9F00008C
:1013900070B50D46044600684FF4887101F0CAFF2D
:1013A0004FF49071206801F0C5FF4FF492712068EE
:1013B00001F0C0FF4FF4A271206801F0BBFF4FF4B1
:1013C000AC71206801F0B6FF20681249C0F8041320
:1013D0002068690740F30730090E002804DB00F19C
:1013E000E02080F8001405E000F00F0000F1E0209C
:1013F00080F8141D206840F30730002809DB00F056
:101400001F02012191404009800000F1E020C0F856
:10141000001170BD100342000246002012685307FD
:1014200013D502F00300012802D002280CD105E0F8
:10143000C2F383100B68801C184404E00223086880
:1014400003EB9252104408600120704738B5194CE4
:10145000049DA0422DD104F1280080E82C002046F4
:101460000022D0E9015001290DD0022917D0052909
:1014700005D006291DD1BDE8384000F0E5BDBDE826
:10148000384000F029BE0B49002D0A644A648A6482
:10149000CA640ED0002300921A46012108E04FF0E2
:1014A000FF316162002D04D0002300921A46022110
:1014B000A84738BD4C1E002001210177002180F88B
:1014C000241180F8251180F8231180F8281180F864
:1014D000291101714171C0F84011C0F83411C0F8F0
:1014E00038117047826811780B0701790BD5537852
:1014F00003F00F038B4207D1012180F829115078A6
:10150000800901D105E009B100207047002180F871
:10151000291101207047F8B504468069002813D1CD
:1015200094F8260100280FD000250095D4E94C033B
:10153000D4F82C61D4F84021052104F59274B04709
:10154000E56104F8025CA570F8BD10B5044690F89A
:1015500024010028204603D0BDE8104000F0C4BAA2
:10156000FFF7C0FF002807D0204600F027FA2046EA
:10157000BDE81040FFF7A0BF10BDF8B50446012537
:1015800090F82401002610B184F82461F8BD2046AB
:10159000FFF7A8FF0028F9D0A06801780A0700D556
:1015A000022594F8242122B12046BDE8F84000F03D
:1015B0009BBA94F8232112B184F82361F8BD49073E
:1015C00004D5415D6279914200D16D1C217F81F08B
:1015D000010222770178CB07B3EBC27FEED1C906B7
:1015E0004FF001070CD50097E1684B1B4219D4E975
:1015F0004B500621A8472046BDE8F84000F04AB904
:10160000204600F0F4F984F822710096E068431B4C
:10161000A0684219D4F83001D4F82C410621A04723
:10162000F8BD70B504460125FFF75CFF002838D0EF
:10163000A0680078010700D50225E168A94230D1F1
:10164000C6064FF0010204F21F1304F11D051AD45F
:1016500000F00101207F81421FD080F0010020773F
:101660002046BDE8704000F02AB984F82421002209
:10167000184604E06169002913D000222846BDE81D
:10168000704000F0D9BE217F00F00100884204D0F4
:101690002046BDE8704000F0FDB8A1690029E9D0FE
:1016A000E3E770BD70B5C168002943D081680029A7
:1016B00040D0097801F0F002902A3BD0D02A39D0EE
:1016C0008A074CD590F82821AAB34A0639D501F0EB
:1016D000F701C2291CD0F2292CD1044690F824012C
:1016E0000125002826D02046FFF7FCFE002821D047
:1016F000A0680178090700D502256119405D91F8BD
:101700001F11884208D02046BDE8704000F0ECB9B7
:10171000BDE87040FFF719BF94F8250160B10022C1
:1017200004F11D00616900F087FE002084F82501A6
:1017300084F8240170BD12E02046BDE8704000F03E
:1017400056B901F0E601022905D0A229F2D1BDE87F
:101750007040FFF766BFBDE87040FFF70EBF1D2960
:10176000E8D05029E6D0E029E4D190F828110029EA
:10177000E0D10121017780F8281181680D4A49786C
:10178000090952F82110891E01618168497811F018
:101790000F01017100D0012180F8291101790F2971
:1017A00003D0BDE8704000F051B8BDE87040FFF7CD
:1017B00083BE00002847000070B50E46044690F82E
:1017C000241180794FF480558540307800F0F7007F
:1017D000F22805D05FF0000084F8240118B901E078
:1017E0000120F9E70022A261884207D018B1701EDB
:1017F000105C684300E0284600F08BFDA06800788C
:10180000E02802D1284600F084FD307800F0E6019F
:10181000022903D1C00601D5012000E0002084F890
:10182000230170BD024610B50920074B002100BFFF
:1018300053F82140944201D1084610BD491CC9B259
:101840000929F5D310BD00002847000070B50446F3
:101850000068FFF7E7FF09281AD040F07000A07772
:101860008021E177E179A279022041EA021184F82E
:10187000201084F8210005256577C00300F049FD9C
:10188000294604F11D00BDE87040002200F0D4BDDF
:10189000032070BD027F002102F0010242F0A2028B
:1018A000427790F829312BB142F008014177027953
:1018B0000121827700221D30491C00F0BDBD2DE9B9
:1018C000F0410446007F002700F00101891C617788
:1018D00094F82921D4F838013E4632B128B941F0B4
:1018E0000801617721790127A177D4F834117F1C91
:1018F0000D1A2169C91B8D4204D9627F0D4642F041
:10190000100262773DB1D4F840112A460144E01933
:101910001D30FEF731FD627F7919D00629D4D4F845
:101920003C0108B323698B4232D9D4F84421C0F179
:101930000200105C621801F101015077D4F83C01FB
:10194000401EC4F83C0114D022698A420DD9D4F853
:101950004421C0F10200105C62185077D4F83C01B9
:10196000401E491CC4F83C0103E0607F40F01000B9
:1019700060776161D4F838012844C4F83801D4F89C
:1019800034210125904208D3D4F83C0118B104E079
:1019900042F01000ECE784F8265194F8240140B995
:1019A000002204F11D0000F047FD0646112802D177
:1019B000002684F825513046BDE8F08170B5044614
:1019C0000025C220607794F8290120B1CA206077F1
:1019D00020790125A0774FF4803000F09AFC002296
:1019E000691C04F11D00BDE8704000F025BD82793E
:1019F0000021C2F1070301229A40F22380F81F312F
:101A000090F82931D2B233B1FA2180F81F1103794D
:101A1000012180F82031491C3B2A00D93B22431880
:101A200000F21F1083F81F210122491C00F004BDA1
:101A30002DE9F843164C01268046009694F82701BC
:101A400015460F4610BB0DB34FF4A4712046FEF7A8
:101A5000ACFC300220600220E0712C60C4E94B78BD
:101A600021460C4800F0F4FC20B1002684F82761E0
:101A7000BDE8F88384F827616A46A11D012000F0C3
:101A800051FC00990129F3D00320F1E70720EFE78B
:101A9000AC1E0020890C000030B4124CA04204D1CE
:101AA00019B14FF6F074A24202D9072030BC70473A
:101AB000D0F8404154B990F822413CB100243BB1E8
:101AC0000225C0F83C51C0F8443103E00820EDE79E
:101AD000C0F83C41C0F84011C0E94D2430BCFFF7CC
:101AE000EEBE0000AC1E002010B5044681794FF414
:101AF0008050884000F00DFC002084F8240110BDC7
:101B00000268134602E08A4204D01268002AFAD121
:101B10000B600160704770472DE9FF4100262448A3
:101B200000F0FBFC2248001F074600F0F6FC214CA9
:101B30002149A06800900D6800E00098694628409F
:101B400004EB80000C30FFF767FC0028F5D101AAF8
:101B5000009901EA050304EB8303491CDB6842F8A2
:101B60002030401C00910228F2D3019800F00300BD
:101B700001280BD0022810D10198032101EB9050CD
:101B80000099BDF80A6001EB900005E00198BDF8EE
:101B90000A60C0F3831008440090384600F0BAFC95
:101BA00008B10098A06004B03046BDE8F0810000A4
:101BB000BC1B0020A4170020CC00002000218AB00C
:101BC000084601F0F3F908B1FFF7E2F801F050F828
:101BD0000120FFF795FA182231496846FEF7CCFB41
:101BE00030484FF48064CDE9060400F58060CDE90B
:101BF000080407232C4A06A96846FFF779F908B1BB
:101C0000FFF7C6F82949224601F50060FFF7DAF828
:101C100028B92749224601F58260FFF7D3F808B1B9
:101C2000FFF7B6F80021234800F058FC08B1FFF791
:101C3000AFF821482149401AC408032000EB0440B2
:101C40001FA101F03DF900F059FB08B1FFF7A0F822
:101C5000022000EB044405E09DF80000FFF79AF92C
:101C60000028F9D169461E48FFF7A1F80028F3D0F3
:101C70000BE000BF1A489DF800101030FFF7B2F8D3
:101C800018B1204617A101F01BF96846FFF716F9B5
:101C90000028EFD000F0FAFF0028FBD1E2E70000B7
:101CA000304600004C050020254200004C0D00206D
:101CB0004C1100202D2100003C4E0000FC4D000086
:101CC0004E46432055415254205461672065786147
:101CD0006D706C6520737461727465642E00000011
:101CE0004C1500204E4643205458204649464F206C
:101CF000627566666572206F766572666C6F7700D6
:101D00002DE9F047C5881E1DB6FBF5F78946B6FBE1
:101D1000F5F1044605FB176C407916686843DDF859
:101D200020A0F718001F874200D9C61A166001E0EC
:101D30002468491E0029FBD1A5EB0C078846B74251
:101D400016D818E004EB0C00001D09EB0803BAF1EB
:101D5000000F3A4602D00146184600E01946FEF749
:101D60000BFB2468F61B4FF0000CB844B54201D9B8
:101D7000374600E02F46002EE4D1BDE8F087000092
:101D800030B5024651B101F025F90021074C08E0B9
:101D900034F821301568AB4202D11160002030BD0B
:101DA000491C8142F4D3052030BD00000000000032
:101DB00004480022816B11B101618263816180F866
:101DC0003E2070474C1E002010B50F2209490A48DA
:101DD000FEF7D2FA0849A1F15000C16041610F211C
:101DE000C161002101614A1E8161C0E9081280F8C9
:101DF0003D1010BD164700009C1E002070B50D4D13
:101E00000D4A00212C7800BF01EB4103D65CA642AD
:101E10000AD113445B78834206D101EB41001044A0
:101E200080782870002070BD491C0529ECD308205B
:101E300070BD00004C1E00202C010020F8B51C4D88
:101E400005F140042869A1680844D5E90A12FEF7A3
:101E500093FAA068E96A0844A060296B012926D09A
:101E600061682268134E401A0027904210D1361F35
:101E700001290DD82A6950781178009700EB0124C8
:101E8000D5E901C023460421E0470CB1FFF790FFDC
:101E9000074833460749076447648764C764686B2B
:101EA00001B00022BDE8F040491FFFF7F5BDF8BDC5
:101EB0004C1E0020F94600002DE9F0411848174B50
:101EC0000022C46A591F052C23D3856A476AEC781F
:101ED000AE782D7904EB062400EB870604EB050CA5
:101EE000D6F81CE0F44514D84B1C71692A462144ED
:101EF000012F0ED185696E782D7806EB0525AD1C76
:101F0000AC4203D2AC4501D3012400E0002480F8A8
:101F10003C40406BBDE8F041FFF7BEBDF946000014
:101F20004C1E002070B51D4C1B4D0026E06A0D288C
:101F300008D10D2205F11201A06AFEF748FA08B98E
:101F4000AD1E6662606A401C1DD0E06A07281AD187
:101F500011490722091DA06AFEF739FA10B90E4D82
:101F60006662AD1E606A401C0DD0E06A07280AD187
:101F7000094907220B31A06AFEF729FA18B9012096
:101F8000054D6062AD1E2B46606BBDE87040024996
:101F90000022C91EFFF780BDF74600004C1E00203E
:101FA000F8B5284D264FEA6A052A2FD3686A01281A
:101FB0002CD195F83D0028B3A96AC8788B780E79A2
:101FC00000EB03242B6AA01998421FD82846531F00
:101FD0000069B34217D12044491D521FFEF7CCF9C6
:101FE0003F1F012C12D82A695078117800EB012488
:101FF00000200090D5E9016023460421B0470CB1D0
:10200000FFF7D6FE02E02B6B012B09D0686B01B005
:102010003B46BDE8F0400A490022491FFFF73CBD9E
:102020002044491D521FFEF7A7F906480121403000
:1020300001734460E96A641F214406608160F8BD51
:10204000F94600004C1E002038B5214908780228C6
:1020500014D10846D0E90A230C690CB9886938B153
:102060001B484030007B50B1BDE83840FFF7E6BE6A
:10207000086B0090D1E901400621A04738BD022B32
:1020800009D3107838B95078A42810D00122B0288C
:1020900011D0D62815D00E48406B03B10D4B01B0BE
:1020A0000C49BDE830400022C91EFFF7F5BCBDE871
:1020B0003840FFF737BF81F83E20BDE83840FFF7D2
:1020C000FBBE81F83E20BDE83840FFF769BF000045
:1020D0004C1E0020F7460000F8B5134C0025A069FF
:1020E00018B14178007801EB002594F83C0060B10C
:1020F000FFF75EFE002635B100960023D4E90150BB
:102100001A460321A84784F83C60206900280AD1B8
:10211000A069002807D1206B0090D4E90A23A068A9
:1021200064680521A047F8BD4C1E00202DE9FC473E
:102130009146394A3948DDF82880101AC70803202B
:102140001E4600EB074001292BD002293AD0062970
:1021500036D1334C20683044B0F5806F02D904206A
:10216000FEF716FE2F4D2068324628444946FEF7FA
:1021700003F92068B8F1010F3044206047D00128EE
:102180002CD9401E2060019001AA691C05F5A050C1
:10219000FEF75AFE01992268914219D1042817D0FE
:1021A0001CE021A100F08CFE0020FEF7DBFFFEF713
:1021B00075FE2C48FEF7F7FD2A481030FEF7F3FDB8
:1021C000BDE8FC8728A100F07BFEFEF7D3FFF7E710
:1021D000022000EB074031A100F072FE0026F02043
:1021E000266000901F486A46691C1030FEF707FE03
:1021F000052800D1009600990A48491C00F050F9C2
:1022000008B1FEF7C5FD0120FEF7A4FFD8E70120C5
:10221000FEF7A8FFD4E700003C4E0000FC4D000094
:10222000000000204C0100204E46432054616720EE
:10223000686173206265656E2073656C65637465A3
:10224000642E2055415254207472616E736D69730F
:1022500073696F6E2063616E2073746172742E2EC9
:102260002E0000004C1500204E4643206669656C28
:1022700064206C6F73742E20446174612066726FE9
:102280006D20554152542077696C6C206265206442
:1022900069736361726465642E2E2E004E4643207E
:1022A0005258204649464F20627566666572206F17
:1022B000766572666C6F77000068022803D0042888
:1022C00004D100F0A5B9024800F0B8B97047000089
:1022D00020010020084810B5064941600021016036
:1022E00000F0D0F9852803D0002800D0032010BDCD
:1022F000002010BD851200002001002010B5022032
:10230000FFF77CFD08B1082010BD00F0C7F80020E1
:1023100010BD0EB5002101908DF80010684601F047
:102320003DFA0EBD70B514460E46126801213AB151
:10233000124D012807D0022807D0032809D01BE03E
:102340002160092070BD687800E0E8783070216075
:1023500012E0287938B9072028710A21084801F0CD
:10236000EDF90028EED12A79206822609042E8D366
:1023700003493046FEF700F8002070BD3C01002004
:10238000F42000203EB52A4C012804D0022813D0A6
:10239000032823D020E00D784FF48050A840012A74
:1023A0002CD1002101908DF80010684601F0F6F95B
:1023B000002812D165700FE0012A1FD101208DF88D
:1023C000000008788DF80400684601F0E7F900285D
:1023D00003D19DF80400E07000203EBD012A06D024
:1023E000042A15D0072A13D00A2A11D006E008784B
:1023F000042805D0072803D00A2801D009203EBDB3
:1024000020710A210B4801F099F90028F7D103E067
:1024100022710848FDF7B0FF02208DF80000054842
:10242000019020798DF80800684601F0B7F93EBDAB
:102430003C010020F42000201CB5CDE900100AB1B9
:10244000022100E00321684601F008FA1CBD0000EB
:102450001CB5104BD3E90223CDE900230E4AC2E993
:1024600002010D490122C91C0220FFF78BFF002841
:102470000ED109490122491C1046FFF783FF0028AD
:1024800006D1FFF727FF002802D1684601F0E0F8E7
:102490001CBD0000684700003C01002000F0E6BFC2
:1024A00010B508224FF6F073994206D829B130B121
:1024B000094B1C78022C04D00BE00C2010BD072027
:1024C00010BD5C6B0A46014600232046FFF7E4FA84
:1024D0000246104610BD00004C1E002070B50D468F
:1024E000040005D00020FFF789FC18B1082070BD5A
:1024F000072070BDFFF768FC0448054900F134026D
:10250000C0E90145BDE87040FFF792BA4C1E0020BB
:102510004D140000002100F009B8012100F010B8AE
:1025200008B56A46FDF7C3FE009808BD08B56A46BF
:10253000FDF7A3FE08BD08B56A46FDF785FE08BD98
:1025400008B56A46FDF78CFE009808BD08B56A46D6
:10255000FDF7BAFE009808BD70B504460025284670
:10256000FEF742FD21686268086890420ED9401E5D
:1025700008600178238AE26801FB0325227A21683A
:10258000101AC0B20A79824200D208710020FEF708
:102590002DFD284670BD70B505460C460020FEF79F
:1025A00023FDE868298A201AB0FBF1F12A68106837
:1025B000431C13600170BDE870400020FEF716BD9B
:1025C00010B530B1017A42680368891AC9B21A603D
:1025D00006E00E2010BD03681A68541C1C601170C0
:1025E000491EC9B2F7D2006800210171084610BD2A
:1025F00000F180400068002800D00120704708B535
:1026000000F18040002101600068009008BD0000DA
:1026100010B50020FEF7E8FC074C6068401E6060C3
:10262000606818B900F0B6FE00206070BDE8104088
:102630000020FEF7DBBC00006C15002070B5104DCB
:102640000446687838B114B16168002088470020DA
:10265000FEF7CAFC0CE00020FEF7C6FC24B10848D7
:1026600021460830FFF74CFA686808B900F086FE8A
:102670006868401C6860BDE870400020FEF7B6BC8A
:102680006C15002070B50C4C0125207808B185260A
:102690000BE00020A06060602061E060074800F06F
:1026A00097FE064600F054FE257000F049FE00B18A
:1026B000A570304670BD00006C150020911200001E
:1026C000F0B505460478154889B0164640F8242030
:1026D000124A08690832A2F10C0742F82400487F28
:1026E000385520226846FDF747FE04942878385C68
:1026F00048B10EB10A4A00E000226946281D01F0E7
:1027000015FB09B0F0BD0EB1064A00E00022694693
:1027100005F10C0001F0BEF9F3E70000080000200D
:1027200039440000DD42000030B40378054CE35C1E
:102730001BB130BC001D01F02FBB30BC0C3001F0D0
:1027400013BA00000400002030B40378054CE35CA9
:102750001BB130BC001D01F0A1BB30BC0C3001F03E
:1027600079BA0000040000200FB408B503990029CD
:1027700004D004AA00926A4600F00FF801B05DF898
:1027800014FB10B582680446002A05D0D4E904037E
:10279000216898470020A06010BD2DE9FC479146B4
:1027A0000C00804676D014F8011B39B125290ED0D3
:1027B0004046FEF72FFD20780028F4D198F80C0051
:1027C000002867D04046BDE8FC47FFF7DABF00208D
:1027D000012221782B291BD02D2902D0302908D1A4
:1027E00002E040F0010001E040F00200641C002A19
:1027F000EFD100252A290ED02178A1F130020A2A32
:1028000011D205EB850201EB4205641C303DF1E776
:1028100040F00400EAE7D9F800100B1DC9F80030B9
:102820000968641C0D44217800232E290BD114F86B
:10283000011FA1F130020A2A05D203EB830201EB4A
:102840004203303BF3E76C290DD068290BD069298E
:1028500021D00BDC252918D0582931D063290ED07E
:10286000642915D117E014F8011FECE7702969D02D
:10287000732932D075291BD0782909D120E0D9F8E5
:102880000000011DC9F8001001784046FEF7C2FCA7
:10289000641C90E76CE0D9F800100A1DC9F800200C
:1028A0000968CDE900500A224046FEF71DFDEFE71A
:1028B000D9F800100A1DC9F8002009680A2206E0AC
:1028C000D9F800100A1DC9F8002009681022CDE9C6
:1028D0000050404601F052FEDAE7D9F80010002718
:1028E0000A1DC9F800200E68C00705D112E0404655
:1028F000761C7F1CFEF78EFC31780029F7D104E0AE
:10290000202140466D1EFEF785FCBD42C0D9002D3A
:10291000F6D1BDE74EB13046FDF752FD074604E063
:10292000202140466D1EFEF775FCBD4206D9002DE4
:10293000F6D103E04046761CFEF76CFC31780029A6
:10294000F8D1A5E7D9F80000011DC9F80010056805
:1029500030214046FEF75EFC78214046FEF75AFCE7
:1029600008200021CDE90001034610222946B0E7E6
:10297000BDE8FC872DE9FF411C46DDE90A781546D4
:102980000E46684600F068F846EA450141EA8401CF
:1029900041EA072242EA0841009A00EB8200C0F8AF
:1029A0000017BDE8FF812DE9FF411C46DDE90A78EB
:1029B00015460E46684600F05DF846EA450141EAD4
:1029C000840141EA072242EA0841009A00EB8200B2
:1029D000C0F80017BDE8FF812DE9FF411C46DDE985
:1029E0000A7815460E46684600F052F846EA450158
:1029F00041EA840141EA072242EA0841009A00EBD9
:102A00008200C0F80017BDE8FF811CB500220B460C
:102A1000009211460192FFF7C6FF1CBD1CB50022B3
:102A20000B46009211460192FFF7D6FF1CBD1CB564
:102A3000002100910B46012201911146FFF7B3FFDF
:102A40001CBD1CB5002100910B46012201911146CD
:102A5000FFF7C2FF1CBD00000168202902D24FF021
:102A6000A040704701F01F0101600148704700005D
:102A7000000300500168202902D24FF0A0407047A7
:102A800001F01F0101600148704700000003005081
:102A90000168202902D24FF0A040704701F01F01C9
:102AA00001600148704700000003005001B568460E
:102AB000FFF7E0FF009A01219140C0F8081508BD1A
:102AC00001B56846FFF7E4FF009A01219140C0F884
:102AD000081508BD38B501240090684631B1FFF7EC
:102AE000BBFF00998C40C0F8084538BDFFF7B4FF24
:102AF00000998C40C0F80C4538BD000030B5154A2F
:102B000001460020D2F8104423460AE0DB681D7914
:102B1000854205D1401C0A28F6DB4FF0FF3030BD5E
:102B20001B68002BF2D1431CF9D0CB681871D2F886
:102B3000103443B1DB68CC681B682360D2F81024E2
:102B4000D268116030BDC2F81014C96800220A6052
:102B500030BD0000A41700207047FDF79FBE7047EE
:102B600008B5034A00924023024A00F005F808BD68
:102B7000E94000000C160020F0B595B01C46154643
:102B80000F4608461A9E00F0F5FA182109A8FDF72D
:102B90000CFC0E96CDE909540023082203A93846FF
:102BA00000F0FDFA05980690BDF81000ADF81C0085
:102BB000BDF81200ADF81E0000208DF8210003982A
:102BC000082600F00300012802D0022818D032E0C5
:102BD00003983346850AC0F3C2008DF8200003989D
:102BE0000FA9C0F38314A200384600F0D8FA09A850
:102BF000009006AB22460FA9284600F017FA1AE00B
:102C00000398840DC0F3C2008DF82000082C01D277
:102C1000254600E0082533462A460FA9384600F02D
:102C2000BEFA2E44641B09AB06AA29460FA800F081
:102C300065F9002CEAD1384600F0A2FA15B0F0BDD3
:102C40000A4A012902EBC00007D0022907D0032954
:102C500007D0042907D000207047022070470420C5
:102C6000704700797047407970470000FC4D0000C4
:102C700010B5FFF772FF04210348FFF73FFF024939
:102C80000120C968487110BDEC4D00002DE9F047E6
:102C90008CB0FEF7D7FA18B100200CB0BDE8F08771
:102CA0007D4C0020C4F81804BFF34F8F7B49A06807
:102CB00002900D684FF00008284004EB80000BE004
:102CC000D4F8180470B961680298814201D8A160F3
:102CD000E2E7284004EB80000C3002A9FEF79CFBE1
:102CE0000028EDD1002003AA029901EA050304EBB4
:102CF0008303491CDB6842F82030401C0291022803
:102D0000F2D3039800F00300022802D001284DD02E
:102D1000A7E003985022810D8946B2EB905F00D85E
:102D200050210E4666F39F50039008315C4800F036
:102D3000D8F9070078D000F01DFA4346082203A90D
:102D4000384600F034FA029908F1080A2940681A56
:102D50008000001D864222D94F4D0C3530B1C2B2E1
:102D600004EB8101301A90460C3104E02946F2B29E
:102D7000002590462846C6B25346384600F017FA5A
:102D80000AEB080325B132462946384600F00FFA0F
:102D9000029909F1030001EB900002903BE004EB83
:102DA00081015346324638460C31EFE70398C0F3B1
:102DB0008310062800D30620039960F38911C1F31C
:102DC0008310801C03918100354800F08AF90700C8
:102DD00047D000F0CFF94346082203A9384600F057
:102DE000E6F908F1080800260FE00298434600EAD9
:102DF0000501401C04EB81010290042238460C318D
:102E000000F0D5F908F10408761C0398C0F383108C
:102E1000B042EAD847B1D4F81054D4F8180478B1C5
:102E2000384600F0ADF931E01BE0E8684079012850
:102E300004D12A682846394612689047E868056830
:102E4000002DF2D1384600F09BF90020FEF7CCF8B7
:102E5000D4F8180408B90298A0600020FEF7C6F85C
:102E600014E0D4F8104405E02168204689688847BA
:102E7000E0680468002CF7D10A480B49401AC008E2
:102E8000022101EB004009A100F01AF8FEF7DAF97F
:102E900080F0010001E70000A4170020CC00002012
:102EA000444E00003C4E0000FC4D00004261636B4C
:102EB000656E647320666C7573686564000000005D
:102EC00000231A4601F038B908B5012300926A467A
:102ED00001F032F908BD3EB5069C8DE81C000323C5
:102EE0006A4601F029F93EBD7FB5DDE908458DE868
:102EF0003C0004236A4601F01FF97FBD2DE9F0472D
:102F00000E4680461C469246082940D894F80C90FC
:102F1000002020731946104601F04EF80025B542F6
:102F200006D218F805201BA12046FFF71DFC03E080
:102F30001AA12046FFF718FC6D1C082DEFD318A12D
:102F40002046FFF711FC0025B54212D218F8057093
:102F50007E2F08D8FDF70CFA0068C05D10F03E0F18
:102F600001D03A4600E02E220EA12046FFF7FCFBDE
:102F700003E00DA12046FFF7F7FB6D1C082DE3D3FE
:102F800001222146504600F0F9FF84F80C90BDE87C
:102F9000F08700002025303278000000202020003B
:102FA0007C0000002563000020000000064910B5E9
:102FB00000200870054800F0E1F8002803D104481B
:102FC00000F08EF9002010BDA4170020444E000030
:102FD000E846000002480349401AC0087047000054
:102FE000444E0000FC4D000013B56846FEF7C8FED5
:102FF00008B100201CBD0248009950F831001CBDEA
:10300000FC4D000070B508480125D0F8104405704B
:1030100007E0E06845712168204649688847E06814
:103020000468002CF5D170BDA41700202DE9FF47DE
:1030300081460C9D00200C462F7B2873984616462F
:103040002946184600F0B8FF072E42D2DFE806F006
:1030500004090F161F2A360049462846FFF784FB4D
:1030600037E0494628462268FFF77EFB31E0D4E985
:10307000002349462846FFF777FB2AE0A068009026
:10308000D4E9002349462846FFF76EFB21E0D4E946
:103090000201CDE90001D4E9002349462846FFF7A3
:1030A00063FB16E004F1080007C88DE80700D4E9C7
:1030B000002349462846FFF757FB0AE004F10800C1
:1030C0000FC88DE80F00D4E9002349462846FFF7D2
:1030D0004BFB00222946404600F050FF2F73BDE80D
:1030E000FF872DE9F041058A80462D1F4819C01C35
:1030F000B0FBF5F0C6B24046FFF72EFA041E19D019
:103100000020207101206071E58000272546761E91
:10311000C4F800800BE04046FFF71EFA60B1617909
:10312000491C6171286005467F1CC0F80080B742C9
:10313000F1D32046BDE8F081204600F002F80020DF
:10314000F8E72DE9F041457901466B1E002201E0C8
:103150000968521C9A42FBD30F680146002605E01D
:1031600038460C68FFF717FA2146761CAE42F7D3B3
:10317000BDE8F0810121001DFFF7D2B9FFF720BAA9
:1031800010B504460121001DFFF7E0F910F0FF0F14
:1031900004D12046BDE81040FFF7D3BF10BD1CB5D9
:1031A00001920122009201AAFEF7AAFD1CBD1CB5E6
:1031B00001920022009201AAFEF7A2FD1CBD0000B0
:1031C00002494058002800D00120704700500040BC
:1031D000024A00218150BFF34F8F704700500040DA
:1031E0000449D1F80413014201D0012070470020A6
:1031F0007047000000500040C02903D0E9B1802989
:1032000002D00DE040210BE010F8012B10F8013B3B
:10321000120442EA032210F8013B1A430F4B1A60D2
:1032200010F8012B10F8013B120442EA032210F8B7
:10323000013B1A43094B1B1F1A600268C07812BA7F
:1032400022F0FF02024305480838026003480830B4
:10325000026822F0C0020A4302607047985500409D
:1032600070B5054600681B4C002860790AD020B173
:10327000BDE87040184800F0C9BABDE87040292088
:1032800000F03EBA68B1144800F0C0FAA668002EFB
:103290001ED06B68E068B446BDE870400F4A02215A
:1032A00060470E4801780126E02907D14178C943DB
:1032B000090703D000F0CAF86671E7E700785028E4
:1032C00003D0292000F01CFAE0E726702820F9E757
:1032D00070BD00003C01002068470000F41F002082
:1032E0008268002191608268116182685161826800
:1032F000D1608268516080680160704708B5002223
:1033000042504058009008BD4058002800D001208D
:10331000704708B5002242504058009008BDD0F8D0
:103320000403084000D0012070474058002800D016
:103330000120704708B5002242504058009008BD57
:1033400002480068002800D00120704700040140B6
:1033500008480068012110F0010F06D14FF0E0206D
:10336000C02280F800248430C1670349012008602E
:103370007047000000E100E01805004010B54FF470
:103380008070FFF73CF901208107C1F80403086051
:1033900010BD0000012010B58107C1F8080300022C
:1033A000FFF72DF907490120086007494FF0011088
:1033B0000A6802F001128242FAD0044900204871E2
:1033C00010BD0000040000400C0400401800002064
:1033D0000649024600200B790BB1852070470A6030
:1033E00001220A7100224A71704700001800002073
:1033F0000121B1EB507F01D10120704700207047BF
:10340000104810B503780021021D33B1017011720C
:10341000BDE81040032000F0B1B8517A002910D067
:10342000917A00290DD0084A0121116001700548E8
:10343000001D00F073FA0348BDE81040001D00F0C5
:103440009DBA10BD200000200050004002480168D5
:1034500041F00101016070479C550040024801683D
:1034600021F00101016070479C550040074901208F
:103470000860074A01460832054811600549C0F84E
:1034800004130421C0F804137047000004540040E2
:10349000005000408200080070B50546FEF70CFFA2
:1034A000286800262F4C402821D00FDC042843D068
:1034B000082821D0102819D1A07890B3FFF7CEFFAB
:1034C000282000F01DF9A67066712EE0802840D0FB
:1034D000B0F5002F0AD1244800F098F9A56825B16D
:1034E00000231A461946E068A847667170BD281D7A
:1034F000BDE87040FFF7B4BE60790028F6D0AA6836
:10350000107800F0F700C22801D10120A070A66851
:10351000002EEBD06B68E068B446BDE87040042133
:103520006047FFE7104800F071F9A568002DDDD075
:1035300000231A46032107E0FFF790FFA568002D3E
:10354000D4D000231A460121E068AC46BDE87040A3
:10355000604728790028C9D120780028C6D0267075
:1035600070BD00003C010020684700000248006870
:10357000800700D0012070473C54004031B52149FC
:1035800084B0087A002826D19DF81000032807D1BE
:10359000FFF7ECFF08B1022000E001208DF81000D9
:1035A0009DF8102000200125174C012A15D0022A71
:1035B00011D1627A002A0ED1487288720D721148B8
:1035C00000F0ACF90F4800F0D9F9657202200090C4
:1035D00014E06846884705B030BD617A0029FAD00A
:1035E0000A4A0A49083215604FF48F62C1F808236D
:1035F000607204200090012000F01CF8616800292E
:10360000E7D1E8E7240000208015002000500040AA
:1036100010B5B0F5A07F09D1054901208872084690
:1036200000F09EF9BDE81040FFF7EABE10BD0000B3
:1036300024000020044908B1881403E00348C0684E
:10364000C0F3130008607047085500408015002043
:10365000FEB5254C217A09B10820FEBDD0E9001045
:10366000216060602149032008602048943001688F
:1036700021F01F0141F0040101600520FDF799FAD6
:103680001B49C02081F8000401252020491FC1F8F2
:1036900000011849184AD1E90001CDE9010101A949
:1036A000164800F08FF90028D7D114480068D0F8E8
:1036B00010050021C2B24FF47A50FCF749FE0246D1
:1036C000012300210D48009500F066F907216846A6
:1036D00000F034F80646C0216846FFF78DFD2572DC
:1036E0002803E0603046FEBD801500200C550040E8
:1036F00005E000E0504600001136000024000020E4
:1037000010B501210B4C292801D0204409E00A48BA
:10371000006810F0010F02D00648283001E005488B
:10372000243001600120FFF785FF4FF48F60C4F85B
:10373000080310BD005000402054004030B504295B
:1037400005D0072903D00A2901D0092030BD124A2B
:103750001468121D1268104B08331B680470250A88
:10376000240C45708470D4B2C470042912D0150A98
:103770000571150C120E457182710A2902D0882C30
:1037800006D007E0C371190A0172190C417201E0F9
:103790009921C170002030BD5004001010B501788F
:1037A00021B101290DD0022923D117E04068144925
:1037B000B0F5801F08D8884200D908461149C86072
:1037C00017E00079032801D9072010BD0E490A68C7
:1037D00022F0600242EA401008600AE0017A0429FF
:1037E00009D0072901D00A2907D040214068FFF7F6
:1037F00003FD002010BD0021F8E78021F6E700005E
:10380000FFFF0F0080150020A4550040094A4168C1
:1038100000881160111DC0F30800086006480749C0
:10382000008800F48C60C1F80403044901201C31B5
:10383000086070471055004080150020005000407F
:10384000012110B1034A8150704703484172FFF7CC
:10385000D7BD000000500040240000202DE9F041B9
:10386000044600688846002568B10020FDF7BCFBCF
:103870004FF48670FFF7A4FC40B10820FFF7B0FCBE
:1038800020B1112526E00920BDE8F081144F012662
:103890003E61144A208861681160111DC0F3080060
:1038A000086020884FF6FF7101EAC0000D49C0F39F
:1038B0000B000C310860111FC1F800800020FFF7D9
:1038C000B9FE0948007800F01800C7F8040304485E
:1038D0000C3006600020FDF789FB2846D4E7000085
:1038E00000500040105500408015002070B50D4676
:1038F00000F0AEFB04000FD00020FDF775FB20792F
:1039000020B10020FDF772FB112070BD0120256061
:1039100020710020FDF76AFB002070BD00680121C6
:10392000C16070472DE9F04106460D464FF48034E2
:1039300000681746AC404BB14FF4A07101EB850114
:10394000FFF7DCFC3068C0F8044301E0C0F808432E
:10395000306800EB8500C0F84075BDE8F0810000DC
:103960000268012111610079034A00EB400002EB7B
:10397000800001727047000090150020016801224C
:103980000A600079034A00EB400002EB800002214C
:103990000172704790150020F0B40468049E40F254
:1039A0000115D4F800728D40AF43C4F8007204686A
:1039B000D4F800521D43C4F800523346F0BCFFF760
:1039C000B1BF00002DE9F04104460E4600792C49B4
:1039D00000EB400001EB8007387A10B10820BDE809
:1039E000F0813A60706800254FF4A078786006E0B6
:1039F00008EB85012068FFF781FC6D1CEDB2607952
:103A0000A842F5D82068F17840F3073000284FEA43
:103A1000411104DB00F1E02080F8001405E000F023
:103A20000F0000F1E02080F8141D2068012140F310
:103A30000730002809DB00F01F0201FA02F24009FA
:103A4000800000F1E020C0F8002120687278D0F8F2
:103A5000043562F30103C0F804352068B278D0F869
:103A6000083562F30103C0F8083520683278D0F8D1
:103A7000103562F30303C0F8103539720020AEE749
:103A8000901500200149024800F040BC9C15002020
:103A9000002000402DE9F0410546007916460F460A
:103AA00000EB40012D4A01EBC00102EB810494F8C8
:103AB0002A1011B10820BDE8F081294951F82010E1
:103AC0002868FFF713FF08B11120F4E739462846AC
:103AD000FDF7A0FA66603869206030004FF00106FB
:103AE0002FD03F7F4FF48E712868FFF712FC4FF400
:103AF000A2712868FFF70DFC28681A49C0F8041362
:103B000028684FEA471140F30730002804DB00F132
:103B1000E02080F8001405E000F00F0000F1E02044
:103B200080F8141D286840F30730002809DB00F0F6
:103B30001F0106FA01F14009800000F1E020C0F801
:103B4000001128680421C0F800150020A061E06180
:103B500084F8290044F8140FA675ACE79C150020E2
:103B600098460000800002002DE9F05F05460079CC
:103B70004FF4017600EB400303EBC000344B03EB42
:103B800080040020636813B12B68C3F80863A3693D
:103B90004FF000096BB1E06938B1606810B1286876
:103BA000C0F804631120BDE8F09FE26101202161AB
:103BB00005E0C4F82490A261E160C4F81C9094F878
:103BC0002910014302D1284600F07DFA60680028E0
:103BD000286803D0C0F804630020E4E74FF4A2761D
:103BE0003146FFF796FBB2464FF4927B5946286860
:103BF000FFF78AFB06464FF484712868FFF784FBC1
:103C0000804651462868FFF77FFB074648EA0700D1
:103C10003043EBD056EA070007D12146286800F070
:103C200023FAA169606A8142E0D8C4F818900EB105
:103C30000320B8E70FB10F20B5E794F82910012051
:103C40000029296801D00860C6E74860C4E7000081
:103C50009C1500202DE9F05F054600790B4600EB2E
:103C6000400101EBC000244901EB8004284600F02C
:103C700045F810B11120BDE8F09F62614FF00009D6
:103C8000C4F82090A36084F828904FF48E784E46B4
:103C900041462868FFF73DFB28684FF0010AC0F84D
:103CA00008A02146286800F093FA606808BBD5F8A0
:103CB00000B067690FE000BF94F8280008B10F2634
:103CC00015E041465846FFF71FFB0028F4D0214677
:103CD000584600F07DFA206AB842F2D35746414672
:103CE0002868FFF711FB0028F9D02868C760C4F8DE
:103CF00014903046BFE700009C150020007900EBCF
:103D0000400101EBC000044901EB8000406900283C
:103D100000D00120704700009C1500200149024896
:103D200000F0A2BBC8150020002000402DE9F041A2
:103D30000546164600790F46154A00EBC00102EB16
:103D4000810494F8201011B10820BDE8F0811149D8
:103D500051F820102868FFF7C9FD08B11120F4E7D9
:103D600039462846FDF791F96660386920601EB132
:103D7000397F2846FDF70CFB28680821C0F800159C
:103D80000020A061E0616061012184F82010DCE77F
:103D9000C81500209C4600002DE9F05F044600791C
:103DA0000E4600EBC001DFF8F0A017460AEB8105D4
:103DB0003046FFF71DFBB0B168684FF000084FF4C4
:103DC000047910B12168C1F80893A8694FF0000B7D
:103DD00080B1E86948B1686810B12068C0F8049300
:103DE0001120BDE8F09F1020FBE7EF614FF00108C4
:103DF0002E6102E0EE60C5E9067B00254FF4887174
:103E00002068FFF797FA4FF4A2712068FFF792FA43
:103E10002068C0F83465C0F838752068B8F1000F24
:103E200012D0D0F8001241F02001C0F80012207921
:103E3000D04600EBC0010AEB8100406838B1206831
:103E4000C0F804932846CCE701210160EFE74FF466
:103E5000887A4FF4A27951462068FFF766FA074640
:103E600049462068FFF761FA06464FF492712068D0
:103E7000FFF75BFA014647EA06000843EBD02279D8
:103E800002EBC20308EB8302C2F818B001B10325AC
:103E9000002ED7D00F25D5E7C81500202DE9F04713
:103EA00004460E460079274900EBC00001EB80056F
:103EB00017463046FFF79CFA30B1204600F044F830
:103EC00020B11120BDE8F0871020FBE76F61AE60E4
:103ED0004FF490774FF0000839462068FFF72AFA30
:103EE0004FF4AC7631462068FFF724FA2068AA68C0
:103EF0006969C0F84425C0F8481520684FF00109E9
:103F0000C0F808906868D0B9BA4651462068FFF7F3
:103F10000CFA074631462068FFF707FA0743F4D04A
:103F200010B14FF00F0808E02068C0F80C9031463F
:103F30002068FFF7FAF90028F9D0002068614046B0
:103F4000C0E70000C81500200079054900EBC0005B
:103F500001EB80004069002800D00120704700007C
:103F6000C815002003490860034801680029FCD0F7
:103F70007047000004E5014000E4014010B50C4624
:103F8000017A052908D0407A38B1084808A10268AA
:103F90002046FEF7E9FB00E01AB106A12046FEF735
:103FA000E3FB2046BDE81040FEF7EBBBFC00002021
:103FB000257300000D0A000038B5C3880D4604467D
:103FC00033B114A0009015A216A12846FEF7CCFB31
:103FD000217A05291CD0607A48B1A088FEF730FE0E
:103FE000164951F8202016A12846FEF7BDFBA088EF
:103FF0000021FEF7F9FF03461049207A143951F8E1
:10400000202001B02846BDE830400EA1FEF7ACBB31
:1040100038BD00001B5B306D000000001B5B313BB6
:1040200033316D0025734C6F67732064726F70704D
:104030006564202825642925730D0A00FC000020F2
:10404000257300003C25733E2025733A20000000B4
:104050000349884201D1034870470020704700009F
:10406000002000403000002070B5054688690C46ED
:1040700000284FF4847128460AD0FFF74AF9D5F892
:104080001805626AE1688854606A401C606270BD0D
:10409000FFF73FF9D5F8180570BD1FB501238DF85E
:1040A0000030CDE90121D0E90012684690471FBDDC
:1040B0001FB501238DF80030CDE90121D0E90012B0
:1040C000684690471FBD10B5044600684FF49271D2
:1040D000FFF71FF94FF484712068FFF71AF9206881
:1040E0000121016010BD00002DE9F0411400884657
:1040F00018D000250E4F032608EB050122460020AC
:10410000FCF7CEFB0544241A40B93878002809D0C2
:1041100008494FF47A408847761E05D00120387050
:10412000002CE9D1BDE8F08100203870FAE70000EA
:10413000C0000020E14600002DE9F84F0746224864
:104140009146884605681E46012269461846FDF7D5
:104150001BF8DFF878A060B3009800210446801CAB
:104160000AE000BF00EA050259F821C00AEB82020A
:10417000401C491CC2F80CC0B142F3D34FEA1749A6
:10418000FDF794F8611C29400AEB810149EA0042DD
:104190002C40CA600AEB8401C86867F3C50066F367
:1041A000891068F39F2020F00300401C20F00400D9
:1041B000C8609AF8000001E0FEF768FD0028FBD116
:1041C000FDF7A9FCBDE8F88FCC000020A417002063
:1041D00070B50C4605464FF48E71FFF79AF8216AC8
:1041E000A068415C206A401C2062C5F81C1570BDA7
:1041F0001FB500228DF80020029181680191426173
:10420000D0E90012684690471FBD1FB500228DF807
:1042100000200291816801914261D0E90012684654
:1042200090471FBD0178022901D0012902D14068C1
:10423000FCF7AEBD704700007CB50178254DA1B3F9
:1042400001290BD002291DD18DF80010C068691C0E
:1042500001900122C81DFEF767FA30E0017A59B1DA
:10426000406801781C48FCF7BDFD1B4C012650B18D
:104270008DF8006001900DE016490122491CC81D0F
:10428000FEF752FA7CBDA068E168814205D00020AB
:104290008DF80000696868468847A068E168081AD8
:1042A000A1888842E8D9AE707CBDFFE70A48094979
:1042B0001030FCF77CFD30B103208DF800006968F8
:1042C00068468847F0E70349012201F10800FEF73C
:1042D0003BFAE9E738000020EC1500201FB50A463C
:1042E00001788DF8001041680191017A8DF808106D
:1042F000C0680390044850F82210083850F8222073
:10430000684690471FBD0000100000202DE9FF47C0
:104310000C4605464FF40071FFF701F801274FF4F2
:104320000178002618B34FF4927949462846FEF7E3
:10433000EBFFE0B149462846FEF7EBFFC5F80883DE
:1043400094F8290000B96F6002208DF80000D5F8BC
:104350008004C5F880040390A0690290E068019091
:10436000A661E661D4E900126846904728E004217E
:104370002846FEF7D4FF18B34FF484712846FEF7A1
:10438000C3FFE8B121462846FFF76EFE616AA069C7
:10439000884215D1E06938B1E268616AA06120699C
:1043A000E6616662E06008E094F8290000B96F6099
:1043B000C5F80883A661E268616A2046FFF76DFED2
:1043C0004FF48E7841462846FEF79EFF80B1606923
:1043D000216A814202D294F8280028B34146284637
:1043E000FEF797FF606918B161692046FFF700FF8B
:1043F0004FF4A27841462846FEF786FF002818D0E1
:1044000041462846FEF785FF94F8290000B12F6049
:10441000A06900280DD0A661E268616A04B0204658
:10442000BDE8F047FFF739BE21462846FFF7D0FE2A
:10443000DEE7BDE8FF8700001FB50A4601788DF86A
:10444000001041680191017A8DF80810C06803904E
:10445000044850F82210083850F822206846904747
:104460001FBD0000100000202DE9FF410C464FF455
:10447000927705463946FEF758FF0026B8B139460F
:104480002846FEF757FF02208DF80000D5F880047B
:10449000C5F880040390D5F83C050290E0680190CF
:1044A000A661E661D4E900126846904723E04FF424
:1044B000887739462846FEF738FFE0B13946284666
:1044C000FEF738FFD5F83C15A069884213D1E069A2
:1044D00060B1E268D5F8000220F02000C5F80002C3
:1044E000E069A0612069E661E06001E0A661E26840
:1044F0002046FFF7DDFD4FF4A27739462846FEF748
:1045000014FF68B139462846FEF714FFA06938B198
:10451000A661E661D5F83C152046E268FFF7C8FDC4
:104520004FF4907631462846FEF7FFFE60B13146E3
:104530002846FEF7FFFE0120E860606920B1D5F84B
:104540004C152046FFF761FE4FF4AC763146284605
:10455000FEF7EBFE00280ED031462846FEF7EAFEB5
:104560006069002807D0D5F84C1504B02046BDE896
:10457000F041FFF74ABEBDE8FF8100002DE9F05F82
:104580008346DDE90A4A994690460D4608460127CA
:1045900003E000BFB0FBF8F07F1C4045FAD2B945FC
:1045A00000D94F465FEACA7012D18CB15FEA8A70B7
:1045B00002D5B9F1000F01D0202607E0302605E032
:1045C00031465846641EFCF725FE0CB1A742F7D3CE
:1045D0005FF00106B9F1010F02D9A9F1010903E069
:1045E000B5FBF6F0404502D306FB08F6F2E7DFF82C
:1045F0003C9000BFB5FBF6F000FB165519F8001013
:104600005846FCF707FEB6FBF8F6002EF2D15FEA3B
:10461000CA7009D0002C07D0A74205D220215846E5
:10462000641EFCF7F7FDF5E7BDE8F09FC04600000B
:104630000800000006000000050000000700000060
:104640000000000000E0D7010D0E0F100B0C181930
:104650000400000600000000400000000000000010
:10466000000000000000000010000000000000003A
:104670000000000000000000000008000000000032
:1046800000000000000000008000000000000000AA
:104690000000000000000000853A00001D3D000001
:1046A000FFFFFFFFFFFFFFFFFFFFFFFFFFFFFFFF1A
:1046B00000000000000000000000D601060100001C
:1046C0003031323334353637383941424344454648
:1046D000612B00005F2B0000592B00000000000040
:1046E0000338FDD8704700000C1700207F00000041
:1046F0008C1700200090006A826B0000A4000C025E
:10470000E10300A4000C02E10400A4040007D27637
:10471000000085010100000F2000F800F80406E108
:10472000040000000000000010000000180000005D
:1047300020000000280000003000000040000000C1
:104740006000000080000000000100000001000087
:104750000001000000010000000100000001000055
:10476000000100000001000000010000F41F002013
:104770005804000099340000004040404040404050
:104780004040414141414140404040404040404024
:1047900040404040404040404005020202020202C8
:1047A0000202020202020202022020202020202017
:1047B000202020020202020202029090909090902B
:1047C00010101010101010101010101010101010E9
:1047D000101010100202020202028888888888885D
:1047E0000808080808080808080808080808080849
:1047F0000808080802020202400000007947000091
:104800004461746120627573206572726F72202832
:1048100072657475726E2061646472657373206969
:104820006E2074686520737461636B206672616DBD
:1048300065206973206E6F742072656C61746564A5
:1048400020746F2074686520696E73747275637468
:10485000696F6E207468617420636175736564208C
:10486000746865206572726F72290000446174611A
:1048700020627573206572726F7220285043207613
:10488000616C756520737461636B656420666F721B
:104890002074686520657863657074696F6E207236
:1048A000657475726E20706F696E747320746F20FA
:1048B00074686520696E737472756374696F6E20B5
:1048C0007468617420636175736564207468652021
:1048D0006661756C7429000043617573653A204206
:1048E00075734661756C74206F6E20612076656308
:1048F000746F72207461626C6520726561642064FB
:104900007572696E6720657863657074696F6E2073
:1049100070726F63657373696E672E0054686520EB
:1049200070726F636573736F72206861732065784E
:1049300065637574656420616E2053444956206F29
:1049400072205544495620696E7374727563746998
:104950006F6E207769746820612064697669736F6F
:1049600072206F66203000005468652070726F639B
:104970006573736F722068617320617474656D7004
:1049800074656420746F2065786563757465206153
:104990006E20696E737472756374696F6E207468CB
:1049A0006174206D616B657320696C6C6567616C07
:1049B00020757365206F66207468652045505352DA
:1049C000000000005468652070726F636573736F38
:1049D000722068617320617474656D707465642001
:1049E000616E20696C6C6567616C206C6F6164201E
:1049F0006F66204558435F52455455524E20746FA0
:104A0000207468652050432C2061732061207265FA
:104A100073756C74206F6620616E20696E76616CB0
:104A2000696420636F6E746578742C206F722061E6
:104A30006E20696E76616C6964204558435F52450B
:104A40005455524E2076616C75650000546865209F
:104A500070726F636573736F7220617474656D70CB
:104A60007465642061206C6F6164206F72207374C0
:104A70006F72652061742061206C6F636174696F6F
:104A80006E207468617420646F6573206E6F74208B
:104A90007065726D697420746865206F70657261ED
:104AA00074696F6E0000000041204D656D4D616EB0
:104AB000616765206661756C74206F6363757272DF
:104AC000656420647572696E6720666C6F617469D5
:104AD0006E672D706F696E74206C617A79207374C3
:104AE00061746520707265736572766174696F6E4A
:104AF000000000004120627573206661756C7420AF
:104B00006F6363757272656420647572696E672085
:104B1000666C6F6174696E672D706F696E74206C5E
:104B2000617A79207374617465207072657365723F
:104B3000766174696F6E00005468652070726F63EF
:104B40006573736F722068617320617474656D7032
:104B500074656420746F2065786563757465206181
:104B60006E20756E646566696E656420696E737427
:104B700072756374696F6E00496E737472756374D5
:104B8000696F6E20627573206572726F720000002B
:104B90005468652070726F636573736F722068610B
:104BA0007320617474656D7074656420746F206126
:104BB0006363657373206120636F70726F636573E5
:104BC000736F7200556E737461636B20666F722031
:104BD000616E20657863657074696F6E20726574AC
:104BE00075726E2068617320636175736564206FF0
:104BF0006E65206F72206D6F7265206163636573EF
:104C0000732076696F6C6174696F6E7300000000C9
:104C1000537461636B696E6720666F7220616E20EA
:104C2000657863657074696F6E20656E7472792043
:104C300068617320636175736564206F6E65206FB2
:104C400072206D6F7265206163636573732076698E
:104C50006F6C6174696F6E730000000054686520AA
:104C600070726F636573736F7220686173206D611A
:104C7000646520616E20756E616C69676E65642085
:104C80006D656D6F727920616363657373000000F9
:104C9000556E737461636B20666F7220616E206560
:104CA0007863657074696F6E2072657475726E20BA
:104CB00068617320636175736564206F6E65206F32
:104CC00072206D6F7265204275734661756C7473E6
:104CD00000000000537461636B696E6720666F7239
:104CE00020616E20657863657074696F6E20656EF3
:104CF0007472792068617320636175736564206FD5
:104D00006E65206F72206D6F72652042757346610B
:104D1000756C7473000000007761726E696E6700D5
:104D200064656275670000001B5B313B33306D00CA
:104D30001B5B306D000000001B5B313B33316D00AD
:104D40001B5B313B33326D001B5B313B33336D00FA
:104D50001B5B313B33346D001B5B313B33356D00E6
:104D60001B5B313B33366D001B5B313B33376D00D2
:104D7000696E666F00000000636C6F636B0000007B
:104D8000434C4F434B0000004E464354000000008C
:104D90005052530054494D45520000005541525461
:104DA00000000000554152544500000068617264E3
:104DB0006661756C740000007274745F6C6F675F7D
:104DC0006261636B656E640061707000584E000034
:104DD000000000204C01000020040000E04E000014
:104DE0004C010020B43F0000780C0000D0460000C9
:104DF00000000000B84D0000C4000020784D000005
:104E000000000000804D000000000000884D000000
:104E100000000000904D000000000000944D0000D4
:104E2000000000009C4D000000000000A44D0000A8
:104E300000000000AC4D000000000303C84D00005E
:104E400000000303D8000020D0000020D80000207C
:104E50004C160020180000000126061CB00140007E
:104E600006642000409420004033384B734C4A3392
:104E7000C44B33104CB3A84A33784B436C48324888
:104E800033904C33D44CB3F44A33384B3368493302
:104E9000C4490313904B335C4CB31C4942FF0220BE
:104EA000FF33884B33184D33704D33204D33304D25
:104EB00033284D33384D33404D33484D33504D3307
:104EC000584D33604DC3684D3790D0030203014AFB
:104ED000010101010102020104D4040001000000EB
:0400000500000201F4
:00000001FF
