:020000040000FA
:1000000010270020F9020000010300000303000094
:1000100005030000070300000903000000000000C2
:100020000000000000000000000000000B030000C2
:100030000D030000000000000F030000110300008A
:100040001303000013030000310800001303000035
:10005000130300001303000013030000C10300009A
:10006000E107000013030000130300001303000066
:100070001303000013030000130300001303000028
:100080001303000013030000130300001303000018
:100090001303000013030000130300001303000008
:1000A00013030000130300001303000013030000F8
:1000B0001303000013030000000000000000000014
:1000C00013030000130300001303000013030000D8
:1000D00013030000130300001303000000000000DE
:1000E0000000000000000000000000000000000010
:1000F0000000000000000000000000000000000000
:1001000000000000000000000000000000000000EF
:1001100000000000000000000000000000000000DF
:1001200000000000000000000000000000000000CF
:1001300000000000000000000000000000000000BF
:1001400000000000000000000000000000000000AF
:10015000000000000000000000000000000000009F
:10016000000000000000000000000000000000008F
:10017000000000000000000000000000000000007F
:10018000000000000000000000000000000000006F
:10019000000000000000000000000000000000005F
:1001A000000000000000000000000000000000004F
:1001B000000000000000000000000000000000003F
:1001C000000000000000000000000000000000002F
:1001D000000000000000000000000000000000001F
:1001E000000000000000000000000000000000000F
:1001F00000000000000000000000000000000000FF
:10020000DFF80CD000F0CAF8004800474D0D0000A0
:100210001027002030B4044654E8000F0D4644E88F
:100220000053002BF8D1156030BC704730B4044641
:1002300054E8000F40EA010544E80053002BF7D1D1
:10024000156030BC704730B4044654E8000F00EA33
:10025000010544E80053002BF7D1156030BC70470E
:1002600030B4044654E8000F80EA010544E8005326
:10027000002BF7D1156030BC704730B4044654E809
:10028000000F00EB010544E80053002BF7D1156087
:1002900030BC704730B4044654E8000FA0EB0105B1
:1002A00044E80053002BF7D1156030BC704770B4A0
:1002B00004464FF0000054E8006F0D68AE4207BFDF
:1002C00044E80023012044E800630E60002B1CBFBB
:1002D0000020F0E770BC704730B4044654E8000FCB
:1002E00088422CBF451A054644E80053002BF5D13F
:1002F000156030BC7047000006488047064800473C
:10030000FEE7FEE7FEE7FEE7FEE7FEE7FEE7FEE7C5
:10031000FEE7FEE70905000001020000202A04DBD9
:10032000203A21FA02F00021704721FA02F3D0406E
:10033000C2F12002914008431946704700487047B7
:10034000942C000040EA01039B0703D009E008C990
:10035000121F08C0042AFAD203E011F8013B00F88A
:10036000013B521EF9D27047D2B201E000F8012BD6
:10037000491EFBD270470022F6E710B513460A4625
:1003800004461946FFF7F0FF204610BD421C10F846
:10039000011B0029FBD1801A70470000064C074D55
:1003A00006E0E06840F0010394E807009847103445
:1003B000AC42F6D3FFF728FF4C2D00006C2D000057
:1003C0002DE9FE434FF48278404601F017FB4C4F75
:1003D00000254C4C012600B3404601F017FB94F871
:1003E0002E0010B194F82F10D1B18DF80050616833
:1003F00001912189ADF80810E26832B1218B618347
:1004000062602181E56010B102E0257400E03E6089
:1004100021686846884784F82F5094F82E0060B30E
:100420004FF48077384601F0E9FA30B3384601F0EE
:10043000EDFA628B94F82D108A420AD9A2EB0100E2
:1004400080B260832289A2EB0000626802EB400068
:1004500005E007D1E06828B184F82F60658301F0DA
:10046000BBFA04E08A4202D184F82F6065834046DB
:1004700001F0CCFA2248001D06604FF48877384618
:1004800001F0BCFA48B1384601F0C0FA25740220E8
:100490008DF800002168684688474FF48A7738460F
:1004A00001F0ACFA28B1384601F0B0FA2574BDE885
:1004B000FE834FF000484FF48C7967691DE000BF60
:1004C000B7FA87F028FA00F109EB80058F43284638
:1004D00001F094FA88B1284601F098FAA5F58C75D8
:1004E000E8088DF8040045F38000401C8DF800609A
:1004F0008DF80500216868468847002FE0D1D6E7CF
:1005000000700040C0000020F0B5A449A4484FF09E
:1005100080540B68D4F830210078D4F83411551C7D
:10052000C0F3031006D0944601270026BCF1060F45
:1005300003D00AE003F0FF0CF6E7B4F82453DFF829
:1005400064C2C5F30425CCF80050DDB2062D06D1F7
:10055000032804D1DFF854C2934DCCF87450551CD5
:1005600004D09446BCF1060F03D00AE003F0FF0C60
:10057000F8E7D4F84452DFF838C2C5F34235CCF876
:100580000050DDB2062D08D1032806D1894DD5F8DB
:1005900000C02CF0807CC5F800C0551C04D09446E7
:1005A000BCF1060F03D00BE003F0FF0CF8E74FF0AF
:1005B0008045C5F80C61C5F810617D4D2D1F2E607A
:1005C000DDB2062D08D1032806D1DFF8E4C10325EA
:1005D0000CF1640CCCF80050DDB2062D10D10328CC
:1005E0000ED1DFF8D4C10525CCF80050724D783516
:1005F0002F60714D08352E600CF104063F253560E3
:10060000551C04D016460D46062E03D05BE0DEB224
:100610000546F9E7ED1E012D55D9684D2D68684E48
:100620003560664D2D1D2D68361D3560634D0835CE
:100630002D68361D3560614D0C352D68361D3560D1
:100640005E4D10352D68361D35605C4D14352D68B6
:10065000361D3560594D18352D68594E2036356098
:10066000564D1C352D68361D3560544D20352D688E
:10067000361D3560514D24352D68361D35604F4D82
:1006800028352D68361D35604C4D2C352D68361DAE
:1006900035604A4D30352D68494E40363560474DFE
:1006A00034352D68361D3560444D38352D68361D7E
:1006B0003560424D3C352D68361D35603F4D403527
:1006C0002D68361D3560551C03D01646062E02D007
:1006D00007E0DEB2FAE7D4F858523A4E05F04F057B
:1006E0003560551C03D01346062B02D008E0DBB260
:1006F000FAE735480368DB0702D06FF001030360B7
:10070000062A07D1C91E022904D93048016841F4DC
:100710008061016027487438016841F4700101600C
:10072000BFF34F8FBFF36F8FD4E94C104FF01022FF
:10073000062907D1C01E032804D9D2F808021C4993
:100740001C310860D2F80002002803DBD2F8040252
:1007500000281FDA012001F02BFE1521C2F800123B
:100760001B480368002BFCD0C2F804120168002962
:10077000FCD0002001F01CFEBFF34F8F0D48F03875
:100780000168144A01F4E06111430160BFF34F8F27
:1007900000BFFDE7114910480860F0BDE00F00F010
:1007A000E80F00F0403501400DF0ADBA00C0074041
:1007B0003C050040FCED00E0105600400404001031
:1007C00020C50040E40E0040000400403C170040FB
:1007D00000E401400400FA050090D003A8000020C6
:1007E0002DE9F047104E042700244FF4A0784FF471
:1007F000803900BF08EB840509FA04F0715961B132
:10080000D6F80413014208D02946304601F01FF9FA
:100810000648D0E9002128469047641CE4B2BC4257
:10082000E8D3BDE8F087000000800040F000002021
:1008300001480068004700002000002002E008C8CE
:10084000121F08C1002AFAD170477047002001E04A
:1008500001C1121F002AFBD17047000072B600F0E0
:10086000A1FF00BF00F0F4FD0028FBD111481249A0
:10087000401AC408012000EB044010A100F002FF60
:1008800011480068C00700D000BE022000EB044001
:100890000EA100F0F7FEBFF34F8F0B48E43801685C
:1008A0000E4A01F4E06111430160BFF34F8F00BFB6
:1008B000FDE70000B42D00007C2D0000466174614E
:1008C0006C206572726F7200F0ED00E05379737402
:1008D000656D207265736574000000000400FA0500
:1008E0000EB500210091CDE901106A4644F20100E5
:1008F000FFF7B4FF0EBD00F003B800F009B8000028
:1009000072B602480168491C016070472800002047
:1009100003490868401E086000D162B670470000B5
:10092000280000202DE9F041064608680C46411CCD
:100930004FF0A0474FF0010506D005FA00F1C7F8C7
:100940000815206800F092FC6068411C02D000216C
:1009500000F07AFC3168A069C1F82405607D227D31
:1009600031681043C1F86C05D4E900123068C0F852
:100970001425C0F80C15207D012815D1A068411C54
:1009800002D0002100F060FCE068411C05D08540E9
:10099000C7F80855E06800F069FCD4E90212306835
:1009A000C0F80825C0F81015BDE8F0812DE9F04128
:1009B000064608680C46411C4FF0A0474FF0010561
:1009C00006D005FA00F1C7F80815206800F058FCB9
:1009D0006068411C02D0002100F03FFC3168A06932
:1009E000C1F82405607D217D32680843C2F86C059A
:1009F000D4E900123068C0F80C15C0F81425207D29
:100A0000012815D1A068411C02D0002100F025FC6E
:100A1000E068411C05D08540C7F80855E06800F043
:100A20002FFCD4E902123068C0F80825C0F8101570
:100A3000BDE8F0812DE9F0470546861C91460F463A
:100A40004FF0010A0020FFF756FF1B4C04F21C4830
:100A500060683860D4E90101184F401A3968081AF3
:100A60000EE00121404600F00BFA00F01DF90146AE
:100A7000404600F005FAD4E90101401A3968081A25
:100A8000401C8642EDD8B9F1000F03D0052065F374
:100A9000891002E0062065F39F5061683A681140B2
:100AA00004EB8101C8606068304460600020FFF79B
:100AB00024FF5046BDE8F087F002002054000020DB
:100AC00070B50D4604460A2902D10D21FFF7F8FF43
:100AD000A0682268411CA1601554D4E9010181423B
:100AE00004D32046BDE8704000F07FBA70BD00001E
:100AF000044881684068814201D10120704700208C
:100B000070470000F002002010B50021024800F0FC
:100B1000C2F980F3100010BD0C0700202DE9FC5F26
:100B20000E008346DDE90C47C6F100009846924668
:100B3000814600D40846012503E000BF90FBFAF08F
:100B40006D1C5045FADAA84500D9454624B1002E5F
:100B500001DB780700D5641EB80702D5B8F1000F95
:100B60000AD0F80708D13CB1A54205D22021584649
:100B7000641EFFF7A5FFF6E7002E02DA4E462D2190
:100B800002E0780703D52B215846FFF799FF07F0BD
:100B9000030002280BD1B8F1000F08D13CB1A542E7
:100BA00005D230215846641EFFF78AFFF6E7CDE9EB
:100BB0000047434652463146584601F085FFBDE89E
:100BC000FC9F000070B50D46044600684FF4887124
:100BD00000F059FF4FF49071206800F054FF4FF47B
:100BE0009271206800F04FFF4FF4A271206800F06E
:100BF0004AFF4FF4AC71206800F045FF20681249AD
:100C0000C0F804132068690740F30730090E002874
:100C100004DB00F1E02080F8001405E000F00F0094
:100C200000F1E02080F8141D206840F30730002810
:100C300009DB00F01F02012191404009800000F112
:100C4000E020C0F8001170BD1003420002460020F1
:100C50001268530713D502F00300012802D00228BE
:100C60000CD105E0C2F383100B68801C184404E02B
:100C70000223086803EB9252104408600120704779
:100C80000121814003484068014201D001207047A2
:100C9000002070471800002001218140080300D087
:100CA00001207047704700002DE9FF4100262448CD
:100CB00000F0E3F82248001F074600F0DEF8214C60
:100CC0002149A06800900D6800E00098694628401E
:100CD00004EB80000C30FFF7B9FF0028F5D101AA22
:100CE000009901EA050304EB8303491CDB6842F821
:100CF0002030401C00910228F2D3019800F003003C
:100D000001280BD0022810D10198032101EB90504B
:100D10000099BDF80A6001EB900005E00198BDF86C
:100D20000A60C0F3831008440090384600F0A2F82F
:100D300008B10098A06004B03046BDE8F081000022
:100D400008070020F002002054000020002108467F
:100D500000F0FCFC08B1FFF7C3FD00F06BFB00F0F6
:100D6000FFFD08B1FFF7BCFD01F012FC01F04AFCE9
:100D700001F03AFC08480949401AC008032101EB78
:100D8000004007A100F07EFC00F0FEFD00F060FBDB
:100D90000028FBD1F8E70000B42D00007C2D0000F6
:100DA00053414144432048414C2073696D706C6548
:100DB000206578616D706C65207374617274656410
:100DC0002E0000002DE9F047C5881E1DB6FBF5F783
:100DD0008946B6FBF5F1044605FB176C40791668A9
:100DE0006843DDF820A0F718001F874200D9C61A13
:100DF000166001E02468491E0029FBD1A5EB0C0711
:100E00008846B74216D818E004EB0C00001D09EB29
:100E10000803BAF1000F3A4602D00146184600E036
:100E20001946FFF78FFA2468F61B4FF0000CB84400
:100E3000B54201D9374600E02F46002EE4D1BDE887
:100E4000F087000030B5024651B100F093FC00215C
:100E5000074C08E034F821301568AB4202D111602C
:100E6000002030BD491C8142F4D3052030BD000074
:100E700000000000002100F009B8012100F010B8C6
:100E800008B56A46FFF7F9F9009808BD08B56A4643
:100E9000FFF7D9F908BD08B56A46FFF7BBF908BDE9
:100EA00008B56A46FFF7C2F9009808BD08B56A465A
:100EB000FFF7F0F9009808BD70B5044600252846F4
:100EC000FFF719FD21686268086890420ED9401E3C
:100ED00008600178238AE26801FB0325227A2168F1
:100EE000101AC0B20A79824200D208710020FFF7BE
:100EF00004FD284670BD70B505460C460020FFF77E
:100F0000FAFCE868298A201AB0FBF1F12A68106817
:100F1000431C13600170BDE870400020FFF7EDBC7A
:100F200010B530B1017A42680368891AC9B21A60F3
:100F300006E00E2010BD03681A68541C1C60117076
:100F4000491EC9B2F7D2006800210171084610BDE0
:100F50000448017809B18520704701210170002003
:100F60007047000008000020F0B5054604781548D9
:100F700089B0164640F82420124A0869121DA2F1D1
:100F8000080742F82400487F385520226846FFF7BA
:100F9000D9F904942878385C48B10EB10A4A00E0C7
:100FA00000226946281D01F0E5F809B0F0BD0EB138
:100FB000064A00E00022694605F10C0000F0A4FF9B
:100FC000F3E700001000002085290000CD27000075
:100FD0000FB408B50399002904D004AA00926A4608
:100FE00000F00FF801B05DF814FB10B582680446FC
:100FF000002A05D0D4E90403216898470020A060A6
:1010000010BD2DE9FC4791460C00804676D014F8BF
:10101000011B39B125290ED04046FFF751FD20783C
:101020000028F4D198F80C00002867D04046BDE8AD
:10103000FC47FFF7DABF0020012221782B291BD0C3
:101040002D2902D0302908D102E040F0010001E052
:1010500040F00200641C002AEFD100252A290ED09E
:101060002178A1F130020A2A11D205EB850201EBA9
:101070004205641C303DF1E740F00400EAE7D9F88E
:1010800000100B1DC9F800300968641C0D4421785C
:1010900000232E290BD114F8011FA1F130020A2AD6
:1010A00005D203EB830201EB4203303BF3E76C29EB
:1010B0000DD068290BD0692921D00BDC252918D047
:1010C000582931D063290ED0642915D117E014F8BE
:1010D000011FECE7702969D0732932D075291BD024
:1010E000782909D120E0D9F80000011DC9F80010C5
:1010F00001784046FFF7E4FC641C90E76CE0D9F807
:1011000000100A1DC9F800200968CDE900500A2224
:101110004046FFF703FDEFE7D9F800100A1DC9F8B4
:10112000002009680A2206E0D9F800100A1DC9F853
:10113000002009681022CDE90050404601F0C4FCAF
:10114000DAE7D9F8001000270A1DC9F800200E6858
:10115000C00705D112E04046761C7F1CFFF7B0FCAB
:1011600031780029F7D104E0202140466D1EFFF7B9
:10117000A7FCBD42C0D9002DF6D1BDE74EB1304627
:10118000FFF704F9074604E0202140466D1EFFF7F3
:1011900097FCBD4206D9002DF6D103E04046761CEF
:1011A000FFF78EFC31780029F8D1A5E7D9F80000C7
:1011B000011DC9F80010056830214046FFF780FC8A
:1011C00078214046FFF77CFC08200021CDE9000192
:1011D000034610222946B0E7BDE8FC8770B541EA16
:1011E0004201DDE904564FF0A04441EA830141EA9F
:1011F000052104EB800041EA0641C0F8001770BDEC
:1012000070B541EA4201DDE904564FF0A04441EADD
:10121000830141EA052104EB800041EA0641C0F860
:10122000001770BD1CB5002100910B4601220191F1
:10123000FFF7D4FF1CBD1CB5002100910B46012215
:101240000191FFF7DDFF1CBD1CB500220B4600928B
:1012500011460192FFF7C2FF1CBD1CB500220B46D0
:10126000009211460192FFF7CBFF1CBD1CB5002177
:1012700000910B46012201911146FFF7AFFF1CBD03
:101280001CB5002100910B46012201911146FFF788
:10129000B7FF1CBD30B5154A01460020D2F81044F6
:1012A00023460AE0DB681D79854205D1401C0A28E7
:1012B000F6DB4FF0FF3030BD1B68002BF2D1431C32
:1012C000F9D0CB681871D2F8103443B1DB68CC6820
:1012D0001B682360D2F81024D268116030BDC2F8B8
:1012E0001014C96800220A6030BD0000F00200201E
:1012F000F0B595B01C4615460F4608461A9E00F0FC
:1013000009FB182109A8FFF736F80E96CDE9095414
:101310000023082203A9384600F011FB0598069027
:10132000BDF81000ADF81C00BDF81200ADF81E00AD
:1013300000208DF821000398082600F00300012802
:1013400002D0022818D032E003983346850AC0F351
:10135000C2008DF8200003980FA9C0F38314A200E7
:10136000384600F0ECFA09A8009006AB22460FA917
:10137000284600F02BFA1AE00398840DC0F3C2004F
:101380008DF82000082C01D2254600E008253346C0
:101390002A460FA9384600F0D2FA2E44641B09AB46
:1013A00006AA29460FA800F079F9002CEAD13846A0
:1013B00000F0B6FA15B0F0BD7047012001F024BA74
:1013C000084810B50178084A515C19B1001D00F0B9
:1013D0006BFF02E00C3000F065FEBDE8104000201D
:1013E00001F012BA380000200C00002008B5034AB2
:1013F00000924023024AFFF77BFF08BD9D260000B4
:10140000580100200A4A012902EBC00007D0022936
:1014100007D0032907D0042907D0002070470220F5
:10142000704704207047007970474079704700008A
:101430007C2D000010B5FFF7C0FF04210348FFF723
:1014400029FF02490120C968487110BD6C2D0000B8
:101450002DE9F0478CB0FFF74BFB18B100200CB022
:10146000BDE8F0877D4C0020C4F81804BFF34F8F0F
:101470007B49A06802900D684FF00008284004EBFB
:1014800080000BE0D4F8180470B9616802988142BA
:1014900001D8A160E2E7284004EB80000C3002A9EB
:1014A000FFF7D4FB0028EDD1002003AA029901EA3E
:1014B000050304EB8303491CDB6842F82030401C21
:1014C00002910228F2D3039800F00300022802D010
:1014D00001284DD0A7E003985022810D8946B2EB38
:1014E000905F00D850210E4666F39F50039008315C
:1014F0005C4800F0C6F9070078D000F00BFA4346CC
:10150000082203A9384600F022FA029908F1080AD5
:101510002940681A8000001D864222D94F4D0C35A3
:1015200030B1C2B204EB8101301A90460C3104E0B4
:101530002946F2B2002590462846C6B253463846A0
:1015400000F005FA0AEB080325B132462946384671
:1015500000F0FDF9029909F1030001EB90000290FF
:101560003BE004EB81015346324638460C31EFE74D
:101570000398C0F38310062800D30620039960F374
:101580008911C1F38310801C03918100354800F05C
:1015900078F9070047D000F0BDF94346082203A9B7
:1015A000384600F0D4F908F1080800260FE0029848
:1015B000434600EA0501401C04EB8101029004222D
:1015C00038460C3100F0C3F908F10408761C039882
:1015D000C0F38310B042EAD847B1D4F81054D4F81D
:1015E000180478B1384600F09BF931E01BE0E86858
:1015F0004079012804D12A68284639461268904764
:10160000E8680568002DF2D1384600F089F900201D
:10161000FFF771F9D4F8180408B90298A060002007
:10162000FFF76BF914E0D4F8104405E02168204678
:1016300089688847E0680468002CF7D10A480B499C
:10164000401AC008022101EB004009A100F01AF87D
:10165000FFF74EFA80F0010001E70000F0020020E1
:1016600054000020BC2D0000B42D00007C2D000093
:101670004261636B656E647320666C757368656444
:101680000000000000231A4601F028B808B5012325
:1016900000926A4601F022F808BD00002DE9F047EB
:1016A0000E4680461C469246082940D894F80C9075
:1016B000002020731946104600F0A4FE0025B54214
:1016C00006D218F805201BA12046FFF781FC03E095
:1016D0001AA12046FFF77CFC6D1C082DEFD318A142
:1016E0002046FFF775FC0025B54212D218F80570A8
:1016F0007E2F08D8FEF722FE0068C05D10F03E0F76
:1017000001D03A4600E02E220EA12046FFF760FCF1
:1017100003E00DA12046FFF75BFC6D1C082DE3D311
:1017200001222146504600F04FFE84F80C90BDE89F
:10173000F0870000202530327800000020202000B3
:101740007C0000002563000020000000064910B561
:1017500000200870054800F0E1F8002803D1044893
:1017600000F02CF9002010BDF0020020BC2D00007C
:10177000042C000002480349401AC00870470000CA
:10178000BC2D00007C2D000013B56846FFF75AFB06
:1017900008B100201CBD0248009950F831001CBD62
:1017A0007C2D000070B508480125D0F81044057064
:1017B00007E0E06845712168204649688847E0688D
:1017C0000468002CF5D170BDF00200202DE9FF4720
:1017D00081460C9D00200C462F7B287398461646A8
:1017E0002946184600F00EFE072E42D2DFE806F02A
:1017F00004090F161F2A360049462846FFF7E8FB62
:1018000037E0494628462268FFF7E2FB31E0D4E999
:10181000002349462846FFF7DBFB2AE0A06800903A
:10182000D4E9002349462846FFF7D2FB21E0D4E95A
:101830000201CDE90001D4E9002349462846FFF71B
:10184000C7FB16E004F1080007C88DE80700D4E9DB
:10185000002349462846FFF7BBFB0AE004F10800D5
:101860000FC88DE80F00D4E9002349462846FFF74A
:10187000AFFB00222946404600F0A6FD2F73BDE8CD
:10188000FF872DE9F041058A80462D1F4819C01CAD
:10189000B0FBF5F0C6B24046FFF70EFB041E19D0B0
:1018A0000020207101206071E58000272546761E0A
:1018B000C4F800800BE04046FFF7FEFA60B16179A2
:1018C000491C6171286005467F1CC0F80080B74242
:1018D000F1D32046BDE8F081204600F002F8002058
:1018E000F8E72DE9F041457901466B1E002201E041
:1018F0000968521C9A42FBD30F680146002605E096
:1019000038460C68FFF7F7FA2146761CAE42F7D34B
:10191000BDE8F0810121001DFFF7B2BAFFF700BB5F
:1019200010B504460121001DFFF7C0FA10F0FF0FAB
:1019300004D12046BDE81040FFF7D3BF10BD1CB551
:1019400001920122009201AAFFF73CFA1CBD1CB5CE
:1019500001920022009201AAFFF734FA1CBD000098
:10196000064910B500204870091D0860BFF35F8F5D
:101970000349044800F054F8002010BD2C0000205A
:10198000CC2B00004C01002010B50020FEF7B3FF67
:10199000F1EE100A20F09F00E1EE100ABFF35F8F16
:1019A00005494020C1F880020020FEF7A6FF20BFB5
:1019B00040BF20BF10BD000004E000E082680021AD
:1019C000916082681161826851618268D160826829
:1019D0005160806801607047024A1060101D01600C
:1019E000704700002C760040030103481844C0F8FB
:1019F0001425C0F810157047007000400249405887
:101A0000002800D00120704700700040034908B54D
:101A10000844002202600068009008BD0070004089
:101A2000016009684160AFF3008010B5D0E9002182
:101A30005368994201D1002104E0D1E90034A34266
:101A400002D01946816010BD08314160F0E708B549
:101A5000002242504058009008BD4058002800D055
:101A60000120704708B5002242504058009008BD40
:101A7000D0F80403084000D00120704740580028E7
:101A800000D00120704708B5002242504058009015
:101A900008BD0121B1EB507F01D10120704700202A
:101AA000704700002DE9F0470427144E81460024BA
:101AB0004FF001080020FEF71EFF08FA04F535423A
:101AC00003D02046FFF7DCF858B10020FEF715FFE1
:101AD00027B104F10104AE43E4B2EBD13846BDE8CE
:101AE000F087074908FA04F000274A681043486065
:101AF00089F800403846FEF700FFEFE7FFFF0F00D0
:101B0000180000202DE9F04114460D00074612D0C0
:101B10008CB10026FFF7C0F878B13846FFF7B0F86F
:101B200068B1084800EBC700C0F81055C0F814456C
:101B30003046BDE8F0810E20FBE70726F8E70826CF
:101B4000F6E7000000F0014070B5044601260025CC
:101B5000A640FFF7A1F818B12046FFF791F818B199
:101B600002480660284670BD0825FBE704F50140E1
:101B700070B50D4600F092FC04000FD00020FEF777
:101B8000BAFE207920B10020FEF7B7FE112070BD0B
:101B90000120256020710020FEF7AFFE002070BDFF
:101BA00010B500F07BFC002802D00021016001711B
:101BB00010BD00002DE9F041254C064612200D46CF
:101BC000C4F808032348017C022918D0027C01468E
:101BD0004FF4807891F82E10012A12D00222C4F816
:101BE000042301270774466005810022C26021B3E7
:101BF000458390F82D103046FFF7EEFE25E01220C9
:101C000002E0C2682AB10220C4F804031120BDE832
:101C1000F081C660058361B947463846FFF7EEFE9E
:101C20000028FAD03846FFF7F1FE29463046FFF784
:101C3000D3FE0220C4F8040307E029463046FFF72C
:101C4000CBFE4046FFF7E2FE27600020DFE7000002
:101C500000700040C000002070B50C4626490A7C88
:101C60000AB1112070BD2279244D0AB1012A01D197
:101C700000222A6001EB4002137F1BB911F82D3FAF
:101C80005B1C0B70E1791177217A517721786278AA
:101C9000302301F0030103EA02121143A2784FF44A
:101CA000E06303EA02221143E2784FF4805303EA2F
:101CB0000232114322794FF4E02303EA0242114336
:101CC00062794FF4801303EA02521143A2791B0197
:101CD00003EA02620A4B114303EB0012C2F8181523
:101CE000227AE179FFF780FE207908B1012801D13D
:101CF00001202860002070BDC00000200075004059
:101D0000007000402DE9F0411F4C054694F82C006E
:101D100010B10820BDE8F08144F8101B1B49287859
:101D20000860091D68780860E878A07701272777A0
:101D30000020207060776060154EE0776FF0004003
:101D4000C6F808034FF48270FFF760FEB015FFF786
:101D50005DFE4FF48A70FFF759FEA8780D494001E7
:101D600081F800048020C91FC1F800010220C6F8D4
:101D70000403A07F10B10120C6F804030348F03823
:101D800007600020C6E70000C0000020F07500409A
:101D90000070004007E000E0044890F82E0008B111
:101DA000002000E00420024908447047C0000020E1
:101DB000007000402DE9F04106460D464FF4803496
:101DC00000681746AC404BB14FF4A07101EB8501A0
:101DD000FFF73DFE3068C0F8044301E0C0F8084357
:101DE000306800EB8500C0F84075BDE8F081000068
:101DF000016801220A600079034A00EB400002EB0F
:101E00008000022101727047F0000020F0B40468E5
:101E1000049E40F20115D4F800728D40AF43C4F81F
:101E200000720468D4F800521D43C4F800523346CF
:101E3000F0BCFFF7BFBF00002DE9F04104460E469D
:101E400000792C4900EB400001EB8007387A10B193
:101E50000820BDE8F0813A60706800254FF4A07852
:101E6000786006E008EB85012068FFF7F0FD6D1C47
:101E7000EDB26079A842F5D82068F17840F30730D8
:101E800000284FEA411104DB00F1E02080F8001443
:101E900005E000F00F0000F1E02080F8141D20683C
:101EA000012140F30730002809DB00F01F0201FA8E
:101EB00002F24009800000F1E020C0F80021206813
:101EC0007278D0F8043562F30103C0F80435206855
:101ED000B278D0F8083562F30103C0F808352068FD
:101EE0003278D0F8103562F30303C0F81035397238
:101EF0000020AEE7F00000200149024800F0ACBC31
:101F0000FC000020002000402DE9F041054600794A
:101F100016460F4600EB40012D4A01EBC00102EBD3
:101F2000810494F82A1011B10820BDE8F0812949F4
:101F300051F820102868FFF71BFE08B11120F4E7C4
:101F400039462846FEF7EEFC6660386920603000AE
:101F50004FF001062FD03F7F4FF48E712868FFF7B6
:101F600081FD4FF4A2712868FFF77CFD28681A49AB
:101F7000C0F8041328684FEA471140F307300028DF
:101F800004DB00F1E02080F8001405E000F00F0011
:101F900000F1E02080F8141D286840F30730002885
:101FA00009DB00F01F0106FA01F14009800000F191
:101FB000E020C0F8001128680421C0F800150020B6
:101FC000A061E06184F8290044F8140FA675ACE71D
:101FD000FC0000209C2B0000800002002DE9F05F37
:101FE000054600790B4600EB400101EBC000244997
:101FF00001EB8004284600F045F810B11120BDE83F
:10200000F09F62614FF00009C4F82090A36084F84B
:1020100028904FF48E784E4641462868FFF722FDFF
:1020200028684FF0010AC0F808A02146286800F08F
:10203000A2FB606808BBD5F800B067690FE000BF7D
:1020400094F8280008B10F2615E041465846FFF7DE
:1020500004FD0028F4D02146584600F08CFB206A8D
:10206000B842F2D3574641462868FFF7F6FC0028ED
:10207000F9D02868C760C4F814903046BFE7000064
:10208000FC000020007900EB400101EBC000044996
:1020900001EB80004069002800D00120704700005B
:1020A000FC0000202DE9F047044600794FF00009BC
:1020B00000EB400101EBC000284901EB80072068DC
:1020C000C0F800957868B0B120682549C0F80813B9
:1020D000206840F3073000280DDB00F01F020121CB
:1020E00091404009800000F1E020C0F88011BFF36A
:1020F0004F8FBFF36F8F2068D0F80C25D0F8148570
:10210000D0F80865D0F810554FF0FF31C0F814151D
:10211000C0F80C152068C0F80815C0F81015501C40
:1021200002D01046FFF77EF8B8F1FF3F02D04046DC
:10213000FFF778F8681C02D02846FFF773F8701C88
:1021400002D03046FFF76EF82068FFF729FD87F8C8
:102150002A90C7F80490BDE8F0870000FC0000203A
:10216000840202000149024800F024BC280100203A
:10217000002000402DE9F0410546164600790F4643
:10218000154A00EBC00102EB810494F8201011B154
:102190000820BDE8F081114951F820102868FFF7A8
:1021A000E7FC08B11120F4E739462846FEF7FEFBAC
:1021B0006660386920601EB1397F2846FEF702FD4F
:1021C00028680821C0F800150020A061E061606166
:1021D000012184F82010DCE728010020A02B00005A
:1021E0002DE9F04704460E460079274900EBC00070
:1021F00001EB800517463046FFF74BFC30B1204617
:1022000000F044F820B11120BDE8F0871020FBE772
:102210006F61AE604FF490774FF000083946206848
:10222000FFF731FC4FF4AC7631462068FFF72BFC0A
:102230002068AA686969C0F84425C0F84815206874
:102240004FF00109C0F808906868D0B9BA46514605
:102250002068FFF713FC074631462068FFF70EFCA5
:102260000743F4D010B14FF00F0808E02068C0F821
:102270000C9031462068FFF701FC0028F9D00020BF
:1022800068614046C0E70000280100200079054948
:1022900000EBC00001EB80004069002800D0012065
:1022A00070470000280100202DE9F047064600791C
:1022B0003D4900EBC00001EB8005346868680127E8
:1022C000A8B13A49C4F80813306840F30730002831
:1022D0000DDB00F01F0107FA01F14009800000F159
:1022E000E020C0F88011BFF34F8FBFF36F8FD4F899
:1022F000000220F02000C4F80002A8694FF4A27880
:1023000020B141462046FFF7BEFB67604FF4AC7931
:1023100049462046FFF7B7FBE76047464946204657
:10232000FFF7ACFB0028F9D0A86928B13946204650
:10233000FFF7A4FB0028F1D04FF0000AC4F800A575
:102340003068D0F80C25D0F81495D0F80885D0F86E
:1023500010754FF0FF31C0F80C15C0F81415306837
:10236000C0F80815C0F81015501C02D01046FEF732
:1023700062FFB9F1FF3F02D04846FEF75CFF781CD0
:1023800002D03846FEF757FFB8F1FF3F02D0404673
:10239000FEF751FF2046FFF703FC85F820A0C5F8A3
:1023A00004A0BDE8F08700002801002010034200CF
:1023B00003490860034801680029FCD07047000009
:1023C00004E5014000E4014010B50C46017A0529FE
:1023D00008D0407A38B1084808A102682046FEF7C4
:1023E000F7FD00E01AB106A12046FEF7F1FD2046F8
:1023F000BDE81040FEF7F9BD840000202573000001
:102400000D0A000038B5C3880D46044633B114A048
:10241000009015A216A12846FEF7DAFD217A0529BB
:102420001CD0607A48B1A088FEF7ECFF164951F83D
:10243000202016A12846FEF7CBFDA0880021FFF73B
:10244000A3F903461049207A143951F8202001B02D
:102450002846BDE830400EA1FEF7BABD38BD0000E9
:102460001B5B306D000000001B5B313B33316D00A6
:1024700025734C6F67732064726F707065642028D9
:1024800025642925730D0A008400002025730000AF
:102490003C25733E2025733A200000000349884202
:1024A00001D1034870470020704700000020004021
:1024B0002000002070B5054688690C4600284FF4BE
:1024C000847128460AD0FFF7CDFAD5F81805626A5C
:1024D000E1688854606A401C606270BDFFF7C2FA10
:1024E000D5F8180570BD1FB501238DF80030CDE972
:1024F0000121D0E90012684690471FBD1FB5012396
:102500008DF80030CDE90121D0E9001268469047EE
:102510001FBD00002DE9F04106460078002821D1BA
:1025200005217068FFF746FB08B1FEF7D9F90E48A0
:102530000E490F4F401AC108032000EB0140054629
:102540000CA17A68FFF7A2F8002470680FA130F997
:1025500014202846FFF79AF8641C052CF5DB7868F0
:10256000401C7860BDE8F081B42D00007C2D000097
:1025700000000020414443206576656E74206E752E
:102580006D6265723A202564000000002564000039
:102590000EB5124A07CA8DE80700104810491438D2
:1025A000FFF7B0FB08B1FEF79BF969460020FFF783
:1025B00053FB08B1FEF794F905210A48FFF7FAFA30
:1025C00008B1FEF78DF9074805210A30FFF7F2FA46
:1025D000002801D0FEF784F90EBD0000902B00000A
:1025E00015250000AC000020054810B50078FFF765
:1025F000ABFA002803D0BDE81040FEF771B910BD5A
:10260000000000203EB5FEF7A3FC08B1FEF768F914
:102610001E491F4AD1E90301CDE9010103208DF8CC
:1026200006001A4801A9001DFFF706FC08B1FEF7D5
:1026300057F9164C241D2068D0F810050021C2B2AD
:102640001448FDF76BFE024600200146009001236E
:102650002046FFF7DBFB2046FFF7CAFB246804F5A2
:10266000A074FFF799FB05460B48FFF71BFA08B16A
:10267000FEF736F908482A4621460078FFF742FA65
:10268000002801D0FEF72CF93EBD00007C2B000095
:102690007527000000A861000000002070B50D4CF7
:1026A0000020D2B22070201D0B4D0378EB5C1BB1D3
:1026B000001DFFF795FD02E00C30FFF78FFC08B11D
:1026C000FEF70EF96078002802D021780029FAD0B0
:1026D00070BD0000340000200C0000202DE9F84FF0
:1026E000074622489146884605681E4601226946EB
:1026F0001846FEF79FF9DFF878A060B30098002134
:102700000446801C0AE000BF00EA050259F821C017
:102710000AEB8202401C491CC2F80CC0B142F3D340
:102720004FEA1749FEF7F0F9611C29400AEB8101D5
:1027300049EA00422C40CA600AEB8401C86867F38A
:10274000C50066F3891068F39F2020F00300401C49
:1027500020F00400C8609AF8000001E0FEF778FE5F
:102760000028FBD1FEF79EFABDE8F88F5400002048
:10277000F0020020704770B50C4605464FF48E718C
:10278000FFF770F9216AA068415C206A401C206252
:10279000C5F81C1570BD1FB500228DF800200291F0
:1027A000816801914261D0E90012684690471FBDDF
:1027B0001FB500228DF800200291816801914261CD
:1027C000D0E90012684690471FBD00001FB50A46B9
:1027D00001788DF8001041680191017A8DF8081098
:1027E000C0680390044850F82210001F50F82220BF
:1027F000684690471FBD00001400002001490120D9
:10280000087070473400002010B588B004462022BC
:102810000E496846FDF796FD06200090C01F019006
:10282000029003904FF0EB7006900CB1084A00E064
:10283000002269460748FEF797FB08B1FEF750F8FB
:102840000448001F447008B010BD0000E42B0000D5
:10285000FD270000380000202DE9FF470C46054603
:102860004FF40071FFF704F901274FF401780026B7
:1028700018B34FF4927949462846FFF7EEF8E0B1D5
:1028800049462846FFF7EEF8C5F8088394F8290072
:1028900000B96F6002208DF80000D5F88004C5F8FB
:1028A00080040390A0690290E0680190A661E6614F
:1028B000D4E900126846904728E004212846FFF733
:1028C000D7F818B34FF484712846FFF7C6F8E8B17B
:1028D00021462846FFF7EEFD616AA069884215D1BE
:1028E000E06938B1E268616AA0612069E661666208
:1028F000E06008E094F8290000B96F60C5F808832B
:10290000A661E268616A2046FFF7EDFD4FF48E781C
:1029100041462846FFF7A1F880B16069216A8142EB
:1029200002D294F8280028B341462846FFF79AF8C7
:10293000606918B161692046FFF72DFF4FF4A27856
:1029400041462846FFF789F8002818D04146284616
:10295000FFF788F894F8290000B12F60A0690028DB
:102960000DD0A661E268616A04B02046BDE8F04778
:10297000FFF7B9BD21462846FFF7FDFEDEE7BDE8BB
:10298000FF8700001FB50A4601788DF800104168E6
:102990000191017A8DF80810C0680390044850F83E
:1029A0002210001F50F82220684690471FBD0000EB
:1029B000140000202DE9FF410C464FF492770546A4
:1029C0003946FFF75BF80026B8B139462846FFF7CD
:1029D0005AF802208DF80000D5F88004C5F880046C
:1029E0000390D5F83C050290E0680190A661E6618D
:1029F000D4E900126846904723E04FF488773946BF
:102A00002846FFF73BF8E0B139462846FFF73BF888
:102A1000D5F83C15A069884213D1E06960B1E2683D
:102A2000D5F8000220F02000C5F80002E069A0619E
:102A30002069E661E06001E0A661E2682046FFF7F8
:102A40005DFD4FF4A27739462846FFF717F868B1C5
:102A500039462846FFF717F8A06938B1A661E66144
:102A6000D5F83C152046E268FFF748FD4FF4907614
:102A700031462846FFF702F860B131462846FFF795
:102A800002F80120E860606920B1D5F84C152046B5
:102A9000FFF78EFE4FF4AC7631462846FEF7EEFF88
:102AA00000280ED031462846FEF7EDFF6069002869
:102AB00007D0D5F84C1504B02046BDE8F041FFF72B
:102AC00077BEBDE8FF8100002DE9F05F8346DDE9B8
:102AD0000A4A994690460D460846012703E000BF82
:102AE000B0FBF8F07F1C4045FAD2B94500D94F46FB
:102AF0005FEACA7012D18CB15FEA8A7002D5B9F16F
:102B0000000F01D0202607E0302605E03146584668
:102B1000641EFDF7D5FF0CB1A742F7D35FF00106A5
:102B2000B9F1010F02D9A9F1010903E0B5FBF6F0F3
:102B3000404502D306FB08F6F2E7DFF83C9000BF01
:102B4000B5FBF6F000FB165519F800105846FDF7D6
:102B5000B7FFB6FBF8F6002EF2D15FEACA7009D0D3
:102B6000002C07D0A74205D220215846641EFDF74D
:102B7000A7FFF5E7BDE8F09FA42B000001000600C9
:102B8000008000400004000000000006000000007B
:102B9000000000000200000100000000F91E00001B
:102BA000652100003031323334353637383941420F
:102BB0004344454600000000000000000000000003
:102BC000000000000000000000000000B42B000026
:102BD000CC2B000004000000ED130000C113000026
:102BE000B9130000FFFFFFFFFFFFFFFFFFFFFFFF25
:102BF000FFFFFFFF00000000000000000000D60102
:102C000006010000580200207F000000D8020020CA
:102C100000404040404040404040414141414140EF
:102C200040404040404040404040404040404040A4
:102C30004005020202020202020202020202020233
:102C40000220202020202020202020020202020238
:102C50000202909090909090101010101010101090
:102C6000101010101010101010101010020202029C
:102C700002028888888888880808080808080808E0
:102C800008080808080808080808080802020202DC
:102C900040000000112C00007761726E696E6700C1
:102CA00064656275670000001B5B313B33306D006B
:102CB0001B5B306D000000001B5B313B33316D004E
:102CC0001B5B313B33326D001B5B313B33336D009B
:102CD0001B5B313B33346D001B5B313B33356D0087
:102CE0001B5B313B33366D001B5B313B33376D0073
:102CF000696E666F000000006572726F72000000FE
:102D00005050490050525300534141444300000089
:102D100054494D45520000005541525400000000F6
:102D200055415254450000007077725F6D676D74B5
:102D300000000000756172745F6C6F675F626163B1
:102D40006B656E640000000061707000D02D0000A3
:102D500000000020AC0000003C0800007C2E0000B9
:102D6000AC000020642600004C080000D82B0000B6
:102D700000000000342D00004C000020002D000059
:102D800000000000042D000000000000082D0000DD
:102D900000000000102D000000000000182D0000B1
:102DA00000000000202D000000000000282D000081
:102DB00000000000482D0000000003036000002018
:102DC000580000206000002098010020180000003A
:102DD00000000000000000000000000000000000F3
:102DE00000000000000000000000000000000000E3
:102DF00000000000000000000000000000000000D3
:102E00000000000000000000000000000020004062
:102E10000000000000200040000000000000000052
:102E2000FF000000FF0000000000000000000000A4
:102E30000000000000000000000000000000000092
:102E400000000000F82C0000982C0000F02C00007E
:102E5000A02C0000B02C0000A82C0000B82C000012
:102E6000C02C0000C82C0000D02C0000D82C000082
:0C2E7000E02C0000E82C00000090D003D3
:0400000500000201F4
:00000001FF
