:020000040000FA
:10000000802D0020D9040000E1040000F902000066
:10001000E5040000E7040000E9040000000000001F
:10002000000000000000000000000000EB040000E1
:10003000ED04000000000000EF040000F1040000E7
:1000400055080000F3040000510A0000F30400000A
:10005000F3040000F3040000BD050000F3040000F9
:10006000F3040000F3040000F3040000F3040000B4
:10007000F3040000F3040000F3040000F3040000A4
:10008000F304000065080000F3040000F30400001E
:10009000F3040000F3040000F3040000F304000084
:1000A000F3040000F3040000F3040000F304000074
:1000B000F3040000F3040000000000000000000052
:1000C000F3040000F3040000F3040000F304000054
:1000D000F3040000F3040000F30400005D0A0000D4
:1000E000F3040000F3040000F3040000000000002B
:1000F00000000000F304000000000000F304000012
:1001000000000000000000000000000000000000EF
:1001100000000000000000000000000000000000DF
:1001200000000000000000000000000000000000CF
:1001300000000000000000000000000000000000BF
:1001400000000000000000000000000000000000AF
:10015000000000000000000000000000000000009F
:10016000000000000000000000000000000000008F
:10017000000000000000000000000000000000007F
:10018000000000000000000000000000000000006F
:10019000000000000000000000000000000000005F
:1001A000000000000000000000000000000000004F
:1001B000000000000000000000000000000000003F
:1001C000000000000000000000000000000000002F
:1001D000000000000000000000000000000000001F
:1001E000000000000000000000000000000000000F
:1001F00000000000000000000000000000000000FF
:10020000DFF80CD000F0AAF9004800470D2B0000E1
:10021000802D002030B4044654E8000F0D4644E819
:100220000053002BF8D1156030BC704730B4044641
:1002300054E8000F40EA010544E80053002BF7D1D1
:10024000156030BC704730B4044654E8000F00EA33
:10025000010544E80053002BF7D1156030BC70470E
:1002600030B4044654E8000F80EA010544E8005326
:10027000002BF7D1156030BC704730B4044654E809
:10028000000F00EB010544E80053002BF7D1156087
:1002900030BC704730B4044654E8000FA0EB0105B1
:1002A00044E80053002BF7D1156030BC704770B4A0
:1002B00004464FF0000054E8006F0D68AE4207BFDF
:1002C00044E80023012044E800630E60002B1CBFBB
:1002D0000020F0E770BC704730B4044654E8000FCB
:1002E00088422CBF451A054644E80053002BF5D13F
:1002F000156030BC70470000094B1EF0040F1CBF96
:10030000EFF309801847EFF308800649064A884250
:1003100001D8904202D88D464FF0000018470000E7
:1003200061060000802D0020800D002030B450E8D0
:10033000012F93B2C48923448489A34228BF1B1B85
:100340000489A34202BFBFF32F8F002007E0C3EA56
:10035000020340E80134002CE9D14FF001000A60AB
:1003600030BC704750E8012FC2EA024240E8012148
:100370000029F7D1704730B450E8022F1FFAA2F3DA
:10038000C488A34202BFBFF32F8F00200DE0C489B1
:1003900023448489A34228BF1B1BC2EA034340E8CD
:1003A0000234002CE8D14FF001000A6030BC7047E5
:1003B00050E8022FC2EA224240E802210029F7D188
:1003C0007047034653E8022FD988B2EB324F4FF003
:1003D000000017BF92B241EA014142EA014104E044
:1003E0005A68B2EB324F08BF012043E80212002ADC
:1003F000E8D1704730B4044654E8000F0D4644E895
:100400000053002BF8D1156030BC704730B404465F
:1004100054E8000F40EA010544E80053002BF7D1EF
:10042000156030BC704730B4044654E8000F00EA51
:10043000010544E80053002BF7D1156030BC70472C
:1004400030B4044654E8000F80EA010544E8005344
:10045000002BF7D1156030BC704730B4044654E827
:10046000000F00EB010544E80053002BF7D11560A5
:1004700030BC704730B4044654E8000FA0EB0105CF
:1004800044E80053002BF7D1156030BC704770B4BE
:1004900004464FF0000054E8006F0D68AE4207BFFD
:1004A00044E80023012044E800630E60002B1CBFD9
:1004B0000020F0E770BC704730B4044654E8000FE9
:1004C00088422CBF451A054644E80053002BF5D15D
:1004D000156030BC7047000006488047064800475A
:1004E000FEE7FEE7FEE7FEE7FEE7FEE7FEE7FEE7E4
:1004F000FEE7FEE7750800000102000000487047B3
:100500009061000040EA01039B0703D009E008C99D
:10051000121F08C0042AFAD203E011F8013B00F8C8
:10052000013B521EF9D27047D2B201E000F8012B14
:10053000491EFBD270470022F6E710B513460A4663
:1005400004461946FFF7F0FF204610BD421C10F884
:10055000011B0029FBD1801A70470000064C074D93
:1005600006E0E06840F0010394E807009847103483
:10057000AC42F6D3FFF748FEA4670000C467000052
:1005800030B58C1810F8012B12F00F0301D110F8C0
:10059000013B120906D110F8012B03E010F8015BB2
:1005A00001F8015B5B1EF9D101E001F8013B521E2D
:1005B000FBD1A142E6D3002030BD00002DE9FC4173
:1005C0000025DFF8948000954FF4807601242F46B3
:1005D0000195304602F010FF38B1D8F804032042EC
:1005E00003D0304602F0FEFE2543361D64007F1C1A
:1005F000B6B2082FEDD34FF4BE74204602F0FCFED5
:1006000048B1204602F0EEFE45F000456A46022160
:10061000002002F06FFE15F0FF0F16D00126002417
:100620002E420ED008EB8401D1F81005D1F8101538
:10063000C0F30520094AC1F3014152F8242002B158
:1006400090477600641C082CEAD3002D02DA684635
:1006500004F0D4FABDE8FC810060004040030020B3
:100660001CB5814603F06AF902F0ACFF0028FBD10B
:100670002D485FEA090507682C482D494FF001060F
:10068000A0EB01004FEAD00006EB004417D0204653
:1006900028A1AA6903F0B4F8D5E90201CDE9000167
:1006A000D5E90023204629A103F0BAF8E8690090B3
:1006B000D5E90423204633A103F0A9F803E020463E
:1006C0003AA103F099F81848001D0068800703D587
:1006D0002046434903F090F8DFF80881002500BF69
:1006E00006FA05F0384206D058F825201AB12046FF
:1006F0003DA103F085F86D1C1A2DF1D3380606D5FF
:1007000009480C30026820463AA103F079F8380411
:1007100006D505481030026820463EA103F070F867
:10072000484600F085F8000028ED00E02C68000045
:10073000D467000048415244204641554C54206142
:1007400074203078253038580000000020205230C6
:100750003A2020307825303858202052313A202055
:10076000307825303858202052323A2020307825F1
:10077000303858202052333A2020307825303858ED
:100780000000000020205231323A203078253038E5
:100790005820204C523A20203078253038582020DC
:1007A0005053523A203078253038580053746163E2
:1007B0006B2076696F6C6174696F6E3A2073746137
:1007C000636B20706F696E746572206F75747369E6
:1007D000646520737461636B20617265612E000033
:1007E0006C620000D400002043617573653A2025D7
:1007F000732E00004D656D4D616E61676520466129
:10080000756C7420416464726573733A2030782586
:1008100030385800427573204661756C742041640D
:1008200064726573733A20307825303858000000C0
:10083000BFF34F8F05480168054A01F4E061114399
:100840000160BFF34F8F00BFFDE700000CED00E03B
:100850000400FA0510B503F0F5FABDE8104003F006
:1008600097BA000002490248091F09680068084752
:10087000CC00002030B54FF080520023D2E94C105C
:10088000082906D1CC06C4F80C31C4F81031624CEA
:100890002360082955D1614B1B68614C23605F4B75
:1008A0001B1D1B68241D23605C4B08331B68241D23
:1008B00023605A4B0C331B68241D2360574B1033A5
:1008C0001B68241D2360554B14331B68241D2360B3
:1008D000524B18331B68524C203423604F4B1C334F
:1008E0001B68241D23604D4B20331B68241D23608F
:1008F0004A4B24331B68241D2360484B28331B6854
:10090000241D2360454B2C331B68241D2360434B5F
:1009100030331B68424C40342360404B34331B68F7
:10092000241D23603D4B38331B68241D23603B4B43
:100930003C331B68241D2360384B40331B68241D47
:100940002360082904D1030002D1374C354B2360C2
:10095000082904D1030002D1344CFB232360082969
:1009600008D1030006D1324B92F858521C6865F347
:1009700003041C60082904D1030002D12D4C8B0113
:100980002360082906D12C480168C90702D06FF0FE
:10099000010101602948016841F470010160BFF361
:1009A0004F8FBFF36F8FD2E94C104FF01022082900
:1009B00006D1032804D9D2F808021749203108606B
:1009C000D2F80002002803DBD2F8040200281FDA64
:1009D000012004F007F91221C2F800121848036838
:1009E000002BFCD0C2F8041201680029FCD00020C2
:1009F00004F0F8F8BFF34F8F10487C380168114AB3
:100A000001F4E06111430160BFF34F8F00BFFDE7C8
:100A10000E490D48086030BD380500400404001040
:100A200020C50040488103008C56004018F5004066
:100A3000E40E0040409602400004004088ED00E0D3
:100A400000E401400400FA050090D003B00100204A
:100A50000148006800470000440000202DE9F041F3
:100A60001A48D0F80453002601240FE095FAA5F0A7
:100A7000B0FA80F7B80000F5807003F0F9F810B113
:100A800004FA07F0064304FA07F08543002DEDD180
:100A9000C6F3C05726F40005DFF834800AE000BF33
:100AA00095FAA5F0B0FA80F658F82600804704FAC7
:100AB00006F08543002DF3D104F0F2FE002F03D0A1
:100AC000BDE8F04101F0A8BDBDE8F0810070024032
:100AD0000C5F0000C11700EBD161074B4A1153F8BE
:100AE000222021F01F01411A01208840024201D03A
:100AF000012070470020704700E100E002E008C8D4
:100B0000121F08C1002AFAD170477047002001E087
:100B100001C1121F002AFBD17047000072B602F01B
:100B20000DFF00BF02F04EFD0028FBD11148124915
:100B3000401AC408012000EB044010A102F05CFE42
:100B400011480068C00700D000BE022000EB04403E
:100B50000EA102F051FEBFF34F8F0B48E43801683D
:100B60000E4A01F4E06111430160BFF34F8F00BFF3
:100B7000FDE700003C680000D46700004661746136
:100B80006C206572726F7200F0ED00E0537973743F
:100B9000656D207265736574000000000400FA053D
:100BA0000EB500210091CDE901106A4644F2010022
:100BB000FFF7B4FF0EBD000070B505460548C468D8
:100BC00005E02946204601F0F9FB20680468002C66
:100BD000F7D170BD5C00002070B50948C4680CE016
:100BE000267A002505E02946204600F06FFC6D1CA2
:100BF000EDB2B542F7D320680468002CF0D170BD87
:100C00005C00002070B50A48C4680DE0267A002513
:100C100006E000222946204600F096FC6D1CEDB24D
:100C2000B542F6D320680468002CEFD170BD0000F7
:100C30005C00002070B5084905460620CC6807E036
:100C40002946204601F0BAFB062803D121680C682A
:100C5000002CF5D170BD00005C00002010B501F043
:100C6000E3FBBDE8104003F0B9BD3EB514460D46A8
:100C700001F0DAFB00210095CDE90141694600F061
:100C8000B3FA3EBD3EB514460D4601F0CDFB002142
:100C90000095CDE90141694600F0A6FA3EBD006825
:100CA0008165002070470000F8B5044600250FE07C
:100CB000002705E0007800F085FA08B11120F8BDA2
:100CC0003946781CC7B2304600F09CF80028F1D1B4
:100CD0002946681CC5B2204600F0A6F80600E7D1F8
:100CE00000250DE0002703E00078214600F06FFAB0
:100CF0003946781CC7B2304600F084F80028F3D19A
:100D00002946681CC5B2204600F08EF80600E9D1DD
:100D1000074800E0086801680029FBD10460054825
:100D20006946806900906068026820469047F8BD77
:100D300068000020A85F00002DE9F04F87B04FF059
:100D400000081D46934689460446DDF840A0464605
:100D5000CDF80C8000E0761C606801230022476813
:100D6000214603A8B8470028F5D140468DF80080F9
:100D70000027B84601903BE0606801236A46D0F83E
:100D800004C0214601A8E0476068012305AAD0F805
:100D900004C0214601A8E0479DF8141049451AD126
:100DA000D84514D19DF80000CAF8000005F8010BE1
:100DB0006A1C85F8009060689DF8003021464568FF
:100DC00001A89B1EA847002007B0BDE8F08F08F1DE
:100DD000010000F0FF0860689DF800300022D0F8A4
:100DE00004C0214601A89B1EE0479DF8000007446F
:100DF000B742C1D30520E7E70148C068704700004B
:100E00005C00002042788A4201D800207047827836
:100E100010440844704742788A4201D80020704745
:100E20008278104408447047027A8A4201D8002030
:100E3000704701EB4101093008447047027A8A4249
:100E400001D80020704701EB410109300844704788
:100E500002484078002800D0012070475C00002044
:100E600002689160084901E00968091D09680029C4
:100E7000FAD10549091D01E01168091D0A68002A17
:100E8000FAD10860002070476C00002009490BE08F
:100E9000824207D1026852680A60006800214160FE
:100EA000084670471168091D0A68002AF0D105201C
:100EB000704700007000002010B5002000F05AF9C3
:100EC000BDE81040802000F055B910B5002000F0BA
:100ED00053F9BDE81040802000F04EB970B50D46C2
:100EE0000146287806240B2813D007DC07284CD2AB
:100EF000DFE800F04B0D0F114B2739000C2825D0EF
:100F00000D2825D00E282CD085283ED110E00320B6
:100F100014E0002439E0244801F013FF0028F8D041
:100F2000224801210160BFF36F8FBFF34F8FF0E7BD
:100F30001D48001F0078032827D1042004F014FC6A
:100F400023E0084600F050F804461EE0002005E0CB
:100F50001748006810F0010F03D0022004F004FCD1
:100F6000D7E70120FAE7EB78032B0ED00E48001DDF
:100F700002683AB1002101604168184690470400B8
:100F800005D000E00E2403F059FD204670BD04F0AA
:100F9000E3FB28B1A8780028F7D103F024FDF4E79B
:100FA00003F01EFDF1E70000A00000205C7002408D
:100FB00038040040024A0146D2E90002104700000E
:100FC0001007002070B50C46054603F003FDA8424B
:100FD00001D0102070BD0348D4E90012C0E902120C
:100FE000002070BD9C0000207FB5054605208DF8CF
:100FF000000006240DF1010003F0F8FC04F0ACFB46
:101000002949002008609DF8010010F01F0006D05B
:1010100001280FD0022826D0032833D106E06946E4
:10102000284603F0A9FF044606282AD16846FFF7A0
:1010300001FE25E09DF8050003A900F063FA050014
:1010400008D06A469DF80C1000F03CFA04460628C9
:1010500002D016E0102415E06A469DF80C102846D0
:1010600004F0BCF80CE09DF80500010705D06946C6
:1010700000F05EF80446062803D1684603F0FAFF44
:10108000044624B103F0DAFC04B0204670BD04F03D
:1010900063FB30B103F09EFC0028F5D103F0A3FC04
:1010A000F2E703F09DFCEFE7A4000020FEB5C08846
:1010B00014460E46A04201D2054600E01546844281
:1010C00007D2802003F0C6FAB4FBF0F100FB114018
:1010D00068B100200096CDE90150002000F06EFBC1
:1010E0006946802000F080F8040002D006E001206C
:1010F000F0E705498020FFF765FF0446002000F077
:101100005FFB2046FEBD00000C60000008B14021DE
:101110000160014870470000640700200148007822
:10112000704700009C00002003F092B903F0ACB9B6
:1011300010B50C46010600F00F02092A09D200F092
:101140000BF8006828B141680A682146BDE81040E4
:101150001047102010BD0000010600F00F0001D55F
:10116000034901E00249483101EBC000704700002B
:10117000C806002003F0C6B910B5044600F00F0001
:10118000082805D2204603F0DFF9204603F092FA42
:101190002046BDE8104003F0E5B9000070B50C46EC
:1011A000054603F01FFA18B105480078022801D05F
:1011B000082070BD21462846BDE8704003F014BAEF
:1011C0005C00002010B5FFF7C7FF006810BD10B528
:1011D0000C46FFF7C1FF04601CB1616809684160FB
:1011E00010BD0021FBE7000070B50C46054603F07A
:1011F000F9F918B105480078022801D0082070BD1F
:1012000021462846BDE8704003F084BA5C00002007
:1012100038B50446007805280BD11A4800681949EA
:10122000C0B2091F096811F0FF0F04D1052802D1CF
:10123000154C207890B1144D6946243D286A01F080
:1012400054FD002809D0216801606946286A01F030
:101250006DFD0146204604F085FD38BD0B4845690B
:1012600005E0296860888968884728684568002DF6
:10127000F7D10021204604F075FD204600F008F863
:1012800038BD000084740240CC5F00005C00002088
:1012900070B5774C05460178207809297BD008DCA9
:1012A000092979D2DFE801F06A84B28D9FBBC2833D
:1012B000D700822927D017DC0A296ED00F296DD0DC
:1012C00080293BD0812972D16A48FFF773FE6948B3
:1012D000FFF772FC0D2004F053FDFFF77DFCFFF7D4
:1012E000EBFD206950B906E0832931D0842937D03D
:1012F00085295CD193E06048007A00B1012003F0B9
:10130000A1FB01207EE0FFF767FC03F0C1FB00209A
:1013100003F0F4FF5748401CFFF74EFC5548401CB3
:10132000FFF748FE0E2004F02BFD207800F02CFA89
:1013300000283CD0BDE8704001F088BD052803D0EE
:10134000062803D0072832D102205BE0082059E0AC
:1013500003282CD103F0C0FB002828D0042051E042
:10136000032805D103F0B8FB10B1042003F0C6FF39
:1013700003F00EFC00281AD0062043E0032801D019
:10138000082803D13B48801CFFF782FF002004F0AF
:10139000F7FC246909E060E009E060E044E02946E8
:1013A000204601F00BF820684468002CF7D170BD8E
:1013B000FFF712FCFFF789FD022003F09FFF0120D9
:1013C00005E0082809D0052003F098FF032004F069
:1013D000D7FC2846FFF7EEFD44E0022003F08EFF25
:1013E00003F0A2FAF2E7032004F0CAFC2148C01C73
:1013F000FFF7E0FD1F48C01CFFF7DEFB2078062842
:10140000A2D10720BDE8704003F078BF032003F0AD
:1014100075FF022004F0B4FC2846FFF7CDFB2846F8
:10142000BDE87040FFF7C6BD0F2019E0A878FFF7B0
:1014300093FED0E900232946104698470028B6D0ED
:10144000A8780107B3D000F00F010829AFD2BDE89A
:10145000704003F00BB9082002E0092000E00A20E8
:1014600004F08EFC2846BDE87040FFF7A5BB0000E5
:101470005C000020B95F000058070020FFF7C8BEDD
:1014800070B50B4C0B4DA06830B9211D286A01F0D6
:1014900042FCA060002809D0FFF7FAFE0449286A40
:1014A000091D01F02DFC0020A060012070BD00008E
:1014B0005C000020A85F00000148FFF7A9BE000003
:1014C000A85F0000114642681368184770B50446CB
:1014D00040680D46C2680AB120469047204629461A
:1014E000FFF7A2FC05464678002408E0214628467E
:1014F000FFF788FC007803F005F8641CE4B2B442FE
:10150000F4D370BD2DE9F04180460E480E46C56803
:1015100014E02F7A00240DE021462846FFF784FCD2
:101520000178414504D106B134702846BDE8F08108
:10153000641CE4B2BC42EFD328680568002DE8D1F2
:101540000020F3E75C00002070B5044640681546B3
:101550000E4683681BB120469847062803D12046D3
:1015600031460DB1072070BDFFF75EFC0546467899
:10157000002408E021462846FFF744FC0078FFF7E6
:10158000FBFD641CE4B2B442F4D3002070BD0346FA
:1015900000205A681269002A01D018461047704787
:1015A0002DE9F8432D4C0546042384222A49206A5C
:1015B00001F088FB10B10320BDE8F883284803F050
:1015C000B9F90028F8D127490870C8600861224895
:1015D00048218430FEF7AFFF1F484821CC30FEF78A
:1015E000AAFF21487DB195E80E00143080E80E0076
:1015F000002001F083FC18B1852801D0FFF7D0FA54
:101600001A4D002611E004F138010EC9EDE700275C
:1016100003E000782946FFF7DAFD3946781CC7B2A7
:101620004046FFF7EFFB0028F3D13146701CC6B2ED
:101630002846FFF7F9FB5FEA0008E8D160680090F0
:101640006946284600F0BAFE040003D003F098FA79
:101650002046B1E70020AFE744060020A85F000065
:101660007D1400005C000020440700204C60000056
:1016700030B1012807D0022808D10548FFF7C8BDBE
:1016800003480838FAE70248001FF7E770470000F0
:10169000D85F000010B503F095F910B103F088F998
:1016A00008B1082010BD044801F03CFC08B1FFF768
:1016B00077FA002010BD0000DC5F000070B50C461A
:1016C0000F4901EB800555F82400017831B1002065
:1016D000FFF71CFD002255F8241006E0801C70BDA9
:1016E000521CD2B2491C20F812300B78002BF7D1D3
:1016F000022101EB4201C9B241F44071018070BD89
:10170000AC000020074803E0016811F0010F07D08A
:101710000168C1F340010029F6D00348FFF778BD06
:101720007047000038040040AD5F0000034808B572
:10173000806800906846FFF76BFD08BDA85F000059
:1017400030B44FF0000180B10D4B002213F812406D
:1017500084420ED103EB4200407870B1094A02EB9B
:10176000800252F8212042B100E0002030BCFFF797
:10177000A5BF521CD2B2062AE8D330BC0020704765
:10178000B6600000AC000020092808D2DFE800F0B5
:10179000070705070705050505000120704700201C
:1017A0007047092808D2DFE800F007070507070798
:1017B00007070500012070470020704700F002B8BD
:1017C00000F008B872B602480168491C0160704711
:1017D000C400002003490868401E086000D162B6BA
:1017E00070470000C400002070B5054608680C462C
:1017F000411C04D001F0CEFD206801F04EFD606870
:10180000411C02D0002101F036FD2968A069C1F811
:101810002405607D227D29681043C1F86C05D4E958
:1018200000122868C0F81425C0F80C15207D012886
:1018300014D1A068411C02D0002101F01CFDE06819
:10184000411C04D001F0A6FDE06801F026FDD4E9BA
:1018500002122868C0F80825C0F8101570BD70B5D0
:10186000054608680C46411C04D001F09DFD206827
:1018700001F01DFD6068411C02D0002101F004FD53
:101880002968A069C1F82405607D217D2A68084384
:10189000C2F86C05D4E900122868C0F80C15C0F82D
:1018A0001425207D012814D1A068411C02D00021FC
:1018B00001F0EAFCE068411C04D001F075FDE0682D
:1018C00001F0F5FCD4E902122868C0F80825C0F838
:1018D000101570BD10B50A7800240F2A26D2DFE853
:1018E00002F02526262625080C25252525151B264C
:1018F000260003F009FC044619E08978090601D5A1
:10190000022100E0012104F035FA10E00168896D40
:1019100069B1FFF7A5FA04E00168896D39B1FFF7F5
:10192000B5FA041E03D0FFF73BF900E00624204679
:1019300010BD00002DE9F05FDFF81CB80C7A0546F9
:101940008BF8004000684FF000098A4616464C4666
:101950009846B0F5317F7CD055DC40F29522A0F25C
:101960009521904276D02FDC40F28621A0F286228B
:10197000884270D017DC40F28227A0F28221B84260
:101980006AD009DCA0B3A0F500707B3865D00128CF
:1019900075D006286FD18BE001296DD002296CD05B
:1019A0000329F7D1B5E0062A68D006DC012A77D0F2
:1019B000042A76D0052AEDD1D7E0072A72D0082A6A
:1019C00071D00E2AE6D130E125296DD011DC142921
:1019D0006BD006DC012969D0022968D00B29D9D146
:1019E0005EE11D2970D023296FD02429D2D1BFE117
:1019F00027E0263909293ED2DFE801F0DEDDDCDB15
:101A0000DAD93D3DD800A0F2C5203028F3D2DFE876
:101A100000F0F2F1F0EFEEEDEC3232EBEAE9E8E75C
:101A2000E6E532323232323232E4323232E3E2E16D
:101A3000E0DFDEDD3232DCDB323232DAD9D8D7D643
:101A4000D5D409202871B8F1000F06D840F27B20C8
:101A50000EE0F4E1F6E067E038E00EB1287930708E
:101A6000042001242871B8F1010F08D84FF41F7029
:101A7000286026E003E06AE335E03FE080E00EB155
:101A80002879305500215046641CFFF7D7F9CBF870
:101A900004000078287144450AD340F28120E7E72A
:101AA0004DE057E077E0A7E070E119E1D5E0E2E032
:101AB0000EB128793055641C85F80490444505D34F
:101AC0002F600120BDE8F09F2CE146E10EB128799E
:101AD0003055DBF80400641C44454078287102D37B
:101AE00040F28320C4E70EB1287930550120641CF0
:101AF0002871444502D34FF42170B9E70EB128791B
:101B000030550120641C2871444502D340F28520E1
:101B1000AEE70EB128793055641C85F80490444531
:101B200002D340F28620A3E70EB128793055641C19
:101B300085F80490444502D340F2872098E70EB11F
:101B4000287930550920641C2871444502D340F29D
:101B50008A208DE70EB1287930552420641C287125
:101B6000444502D340F28B2082E70EB128793055EC
:101B70000120641C2871444502D34FF4237077E799
:101B80000EB128793055641C85F80490444502D381
:101B900040F28D206CE70EB1287930550120641C8D
:101BA0002871444528D340F28E2061E73CE130E1C2
:101BB00024E118E10BE1FFE0F3E0C2E2B6E2AAE2C1
:101BC0009EE290E283E277E264E258E24CE240E295
:101BD00034E228E21CE210E204E2EFE1D4E1C6E1E3
:101BE000B9E1ACE19FE193E187E17BE16FE163E182
:101BF00056E14AE13CE130E10EB1287930555046DA
:101C0000641C00F0B1FA0746504600F0B2FA0744EF
:101C1000504600F0B3FA38440930ABF8020028719E
:101C2000444502D34FF4257022E70EB12879305590
:101C3000BBF80200641C000A2871444502D340F23C
:101C4000952015E70EB1287930550120641C2871C4
:101C5000444502D340F296200AE70EB12879305568
:101C60005046641C00F07AFA401C2871444502D3A7
:101C700040F29720FCE60EB1287930555046641C9E
:101C800000F077FACBE9029013E000BFDAF8140015
:101C900044458068405C287102D34FF42870E7E621
:101CA0000EB128793055DBF80810491C641CCBF8BC
:101CB00008105F46D7E902108142E7D3504600F092
:101CC00053FAC7F80890386113E000BFDAF81C0037
:101CD00044458068405C287102D340F2A920C7E6E1
:101CE0000EB128793055DBF80810491C641CCBF87C
:101CF0000810DBF80810DBF810005F468142E5D3DE
:101D0000504600F03BFAC7F80890786113E000BF36
:101D1000DAF8180044458068405C287102D340F22C
:101D2000B220A5E60EB128793055DBF80810491C21
:101D3000641CCBF80810DBF81420DBF808105846B8
:101D40009142E5D341680920C91CCBF804102871E1
:101D5000444502D34FF42E708AE60EB128793055EF
:101D60000420641C2871444502D340F2B9207FE668
:101D70000EB1287930555046641C00F0EFF9401C34
:101D80002871444502D340F2BA2071E60EB1287999
:101D90003055641C85F80490444502D340F2BB20C2
:101DA00066E60EB128793055641C85F804904445E8
:101DB00002D34FF42F705BE60EB128793055012025
:101DC000641C2871444502D340F2BD2050E60EB198
:101DD000287930559AF82700641C2871444502D3AD
:101DE00040F2BE2044E60EB128793055641C85F8D7
:101DF0000490444502D340F2BF2039E60EB1287961
:101E00003055641C85F80490444502D34FF430707B
:101E10002EE60EB1287930550920641C28714445FE
:101E200002D340F2C32023E60EB1287930550420B6
:101E3000641C2871444502D34FF4317018E60EB18A
:101E4000287930555046641C00F088F9401C2871F0
:101E5000444502D340F2C5200AE60EB12879305538
:101E60000120641C2871444502D340F2C620FFE5DE
:101E70000EB128793055DBF80400641C44454078E5
:101E8000287102D340F2C720F2E50EB1287930550F
:101E90000120641C2871444502D34FF43270E7E5F9
:101EA0000EB1287930559AF82700641C28714445F2
:101EB00002D340F2C920DBE50EB128793055641C0D
:101EC00085F80490444502D340F2CA20D0E50EB113
:101ED00028793055641C85F80490444502D340F2BB
:101EE000CB20C5E50EB1287930550720641C287138
:101EF000444502D340F2CE20BAE50EB128793055E0
:101F00002420641C2871444502D340F2CF20AFE561
:101F10000EB1287930550120641C2871444502D344
:101F20004FF43470A4E50EB1287930559AF82600A4
:101F3000641C2871444502D340F2D12098E50EB1CB
:101F4000287930559AF82000641C2871444502D342
:101F500040F2D2208CE50EB1287930559AF8220053
:101F6000641C2871444502D340F2D32080E50EB1B1
:101F700028793055BAF82200641C000A28714445BB
:101F800002D34FF4357073E50EB128793055DAF885
:101F90001000641C30B10168CBF818104946CBF82A
:101FA000089014E04946F7E7DAF8100044458068E5
:101FB000405C287102D34FF4377059E50EB128798F
:101FC0003055DBF80810491C641CCBF80810DBF80E
:101FD00018008142E8D307202871444502D34FF40A
:101FE000387045E50EB1287930552520641C2871DC
:101FF000444502D340F2E1203AE50EB1287930554C
:102000000120641C2871444502D340F2E2202FE5F0
:102010000EB128793055641C85F80490444502D3EC
:1020200040F2E32024E50EB128793055641C85F890
:102030000490444502D34FF4397019E50EB1287964
:102040003055641C85F80490444502D340F2E520E5
:102050000EE50EB128793055641C85F8049044458E
:1020600002D340F2E62003E50EB12879305509206D
:10207000641C2871444502D340F2E920F8E40EB113
:10208000287930550520641C2871444502D340F25C
:10209000EA20EDE40EB12879305500215F46641C3A
:1020A000DBF80400FEF7B7FEF861007828714445BC
:1020B00002D340F2EE20DBE40EB128793055012046
:1020C000641C2871444502D340F2EF20D0E40EB1E5
:1020D000287930559AF82400641C2871444502D3AD
:1020E0004FF43C70C4E40EB128793055BAF824009E
:1020F000641C000A2871444502D340F2F120B7E481
:102100000EB1287930550120641C2871444502D352
:1021100040F2F220ACE40EB128793055641C85F809
:102120000490444502D340F2F320A1E40EB1287993
:102130003055641C85F80490444502D34FF43D703B
:1021400096E40EB12879305540F2F62090E4002054
:10215000C5F80090B6E400007C00002010B5002116
:10216000FEF76CFE007810BDC069002800D0006842
:1021700070474069002800D00068704780690028D7
:1021800000D000687047000030B50268044685B092
:102190008878507308799073C878D07388791074F0
:1021A00048795074B1F807005082012002F80C0FF2
:1021B000487800F01F00022801D103201070002091
:1021C0000190029002F108000090D0880190002058
:1021D000FFF7F4FA69460020FFF706F8050008D17A
:1021E000074803A90068CDE903040020FEF7EAFED2
:1021F00005460020FFF7E4FA05B0284630BD000090
:102200000060000010B518B90846002103F0B2FDC7
:10221000002010BD102802D31038C0B2704740F023
:10222000800070472DE9FC410646C0074FF00005CD
:102230000ED0104F00240122385D00950023114676
:10224000019500F0BBFF641C042CF4D300F03AF8B5
:10225000B0070DD5074E0024361D0022305D032344
:1022600000951146019500F0A9FF641C042CF4D3DD
:10227000BDE8FC81BC5E0000094908B5085C00901F
:10228000684601F04FF8D0F80425009B01219940E1
:1022900021EA0203C0F808351140C0F80C1508BD4A
:1022A000BC5E00000249085C012101F087B8000013
:1022B000BC5E00000249085C002101F07FB800000C
:1022C000BC5E000010B500242046FFF7EBFF641C45
:1022D000042CF9D310BD00002DE9F0470546861CFB
:1022E00091460F464FF0010A0020FFF767FA1B4C9A
:1022F00004F21C4860683860D4E90101184F401AA4
:102300003968081A0EE00121404600F020FD00F077
:10231000ABFB0146404600F01AFDD4E90101401A2A
:102320003968081A401C8642EDD8B9F1000F03D075
:10233000052065F3891002E0062065F39F5061686F
:102340003A68114004EB8101C86060683044606005
:102350000020FFF735FA5046BDE8F08760090020FD
:102360005C01002070B50D4604460A2902D10D21FA
:10237000FFF7F8FFA0682268411CA1601554D4E95A
:102380000101814204D32046BDE8704000F01DBE2B
:1023900070BD0000044881684068814201D101207D
:1023A000704700207047000060090020024908447F
:1023B00090F9300070470000400300204268126826
:1023C0001047000070B5084C050009D01034216892
:1023D000002907D008682060496828468847F6E742
:1023E0000834F4E770BD00002C030020054A0121E9
:1023F00020B1012805D19170FFF7E4BF5170002092
:10240000FAE770472C03002010B50021024800F0C5
:10241000A9FC80F3100010BD7C0D00206FEA006164
:10242000C90F61F31F10704710B50121FEF706FDBB
:102430000021FEF7F0FC007810BD00000106044901
:1024400000D5903100F00F0001EB00107047000044
:10245000FC03002001F088BB812001F0B3BB822087
:1024600001F0B0BB832001F0ADBB842001F0AABB1A
:10247000852001F0A7BB862001F0A4BB872001F0D6
:10248000A1BB000038B5882503F0FCF92846FFF70A
:10249000D5FF817B0124032915D00068002811D1C4
:1024A0002846FFF7BBFF8440E1430C4801F016FCCF
:1024B0000B480A49806800900C398DF80250496831
:1024C0006846884738BD2846FFF7A8FF8440E143A7
:1024D000BDE83840014801F001BC00005800002070
:1024E000D85E000038B503F0CDF90020FFF7A6FF55
:1024F000817B0124032906D0006870B1BDE8384013
:102500004C2001F0D7BB0020FFF788FF8440E14357
:10251000BDE83840094801F0E1BB0020FFF77EFF2D
:102520008440E143054801F0D9FB05480349C068F0
:102530000C39009049686846884738BD580000202B
:10254000D85E0000012001F059BB022001F056BB0B
:10255000032001F053BB042001F050BB052001F023
:102560004DBB062001F04ABB072001F047BB00002D
:1025700038B5082403F086F92046FFF75FFF817B1A
:10258000032915D00068002812D12046FFF746FF26
:1025900001218140C943074801F0A0FB06480549D5
:1025A000406900900C398DF80240496868468847B8
:1025B00038BD000058000020D85E000070B50E48FD
:1025C00004680460BFF36F8FBFF34F8F01260CE0E8
:1025D00094FAA4F0B0FA80F52846FFF71BFE06FA3D
:1025E00005F18C43294603F0F5FA002CF0D1BDE843
:1025F000704003F055B900006C74024010B5054CF2
:10260000A078FFF70BFF0146A078BDE8104003F06B
:10261000E1BA00004C000020F8B51A4800681A4DD5
:10262000C6B2A878FFF7FAFE012404FA00F128895F
:10263000EA68C04380B21043014202D0A87803F098
:1026400023FA06F08000A8700020FFF7E7FE04FAE6
:1026500000F68020FFF7E2FE04FA00F006430A4885
:10266000F1430C3001F03AFB8020FFF7D7FE8440A5
:10267000A86804430548AC60006A00906968684631
:102680008847F8BD807402404C000020D85E0000EE
:1026900038B5002000900F480068ADF8020088208F
:1026A000FFF7BCFE012505FA00F40A48603800680F
:1026B00040B1C10301D4401C04D00820FFF7AEFE96
:1026C00085402C43044988682043886049686846EF
:1026D000884738BD207502404C000020704700003C
:1026E000F8B518480568284601F0D2FABFF36F8F95
:1026F000BFF34F8F144E154CE80506D501206070CE
:10270000706A0090616868468847A8054FF0000726
:1027100005D56770B06A00906168684688476805AB
:102720000ED5607800280BD0677009490120086039
:10273000582001F0BFFAF06A009061686846884747
:10274000F8BD000000740240D85E00004C0000207C
:1027500008750240054908B5002048708870044893
:102760004068009049686846884708BD4C000020D2
:10277000D85E000010B5174A69B101291CD1526812
:1027800015491648FEF77EFA002815D1BDE810401D
:102790000220FFF771BD006810F80C1F69B1012914
:1027A00011D0022908D0032906D14178012903D18B
:1027B000806820F07F40906010BD41780129FBD1F6
:1027C0001178017210BD41780129FBD1007A107097
:1027D00010BD0000000000206C020020845E00009C
:1027E00010B5FEF79BFC052818D10D48FEF736FA08
:1027F00002000C48426011D00B490948FEF735FA37
:1028000000280BD009480A49BDE81040401AC0080A
:10281000012101EB004007A100F0EEBF10BD000058
:10282000585E0000000000206C0200203C680000A0
:10283000D467000043616E6E6F74207374617274AC
:10284000205258207472616E736665722066726FD2
:102850006D206865616470686F6E650D0A00000028
:1028600010B50446FEF7EAFA4078002803D0206845
:10287000002180F8541010BD2DE9F04115460446A2
:10288000FEF7DCFA46780746FEB1012D02D9072093
:10289000BDE8F08120680C300DB1012100E000217D
:1028A00080F8481000240CE021463846FEF7B3FAC1
:1028B000007815B1FEF760FC01E0FEF75BFC641CDC
:1028C000E4B2B442F0D30020E2E70620E0E710B51E
:1028D0000446FEF7B3FA4078002805D0206890F847
:1028E0005400002800D0012010BD00002DE9FC5F3D
:1028F0000E008346DDE90C47C6F10000984692467B
:10290000814600D40846012503E000BF90FBFAF0A1
:102910006D1C5045FADAA84500D9454624B1002E71
:1029200001DB780700D5641EB80702D5B8F1000FA7
:102930000AD0F80708D13CB1A54205D2202158465B
:10294000641EFFF70FFDF6E7002E02DA4E462D213A
:1029500002E0780703D52B215846FFF703FD07F067
:10296000030002280BD1B8F1000F08D13CB1A542F9
:1029700005D230215846641EFFF7F4FCF6E7CDE996
:102980000047434652463146584602F08BFEBDE8AA
:10299000FC9F000070B50D46044600684FF4887136
:1029A00001F0DBF84FF49071206801F0D6F84FF495
:1029B0009271206801F0D1F84FF4A271206801F003
:1029C000CCF84FF4AC71206801F0C7F820681249C8
:1029D000C0F804132068690740F30730090E002887
:1029E00004DB00F1E02080F8001405E000F00F00A7
:1029F00000F1E02080F8141D206840F30730002823
:102A000009DB00F01F02012191404009800000F124
:102A1000E020C0F8001170BD100342000246002003
:102A20001268530713D502F00300012802D00228D0
:102A30000CD105E0C2F383100B68801C184404E03D
:102A40000223086803EB925210440860012070478B
:102A50000268134602E08A4204D01268002AFAD1C2
:102A60000B600160704770472DE9FF410026244844
:102A700000F06AF92248001F074600F065F9214C72
:102A80002149A06800900D6800E000986946284040
:102A900004EB80000C30FFF7C1FF0028F5D101AA3C
:102AA000009901EA050304EB8303491CDB6842F843
:102AB0002030401C00910228F2D3019800F003005E
:102AC00001280BD0022810D10198032101EB90506E
:102AD0000099BDF80A6001EB900005E00198BDF88F
:102AE0000A60C0F3831008440090384600F029F9CA
:102AF00008B10098A06004B03046BDE8F081000045
:102B0000780D0020600900205C0100204FF4804116
:102B1000002000F0E7FE08B1FEF742F800F044FDA7
:102B200000F0CEF908B1FEF73BF81B481B49401AEC
:102B3000C008032101EB004019A100F05DFE032055
:102B4000FFF770FB1D48FEF72BFD08B1FEF728F8D4
:102B50001A4C1B49583C2046FEF7A1F808B1FEF775
:102B60001FF82046FEF7A0F808B1FEF719F8134841
:102B70002C38FEF799F808B1FEF712F8FEF78AFD37
:102B800008B1FEF70DF8FEF77BFC0028FBD100F042
:102B900019FD20BFF7E700003C680000D467000083
:102BA0005553424420617564696F206578616D708A
:102BB0006C6520737461727465642E00B05E0000F1
:102BC000E12700002DE9F047C5881E1DB6FBF5F78B
:102BD0008946B6FBF5F1044605FB176C407916688B
:102BE0006843DDF820A0F718001F874200D9C61AF5
:102BF000166001E02468491E0029FBD1A5EB0C07F3
:102C00008846B74216D818E004EB0C00001D09EB0B
:102C10000803BAF1000F3A4602D00146184600E018
:102C20001946FDF76FFC2468F61B4FF0000CB84402
:102C3000B54201D9374600E02F46002EE4D1BDE869
:102C4000F087000021B1022914D10320FFF714BB43
:102C500000680F4910F80C2F6AB1012A11D0022A1E
:102C600008D0032A06D14278012A03D1806820F0D7
:102C70007F40C86070474278012AFBD149780172D1
:102C800070474278012AFBD1007A487070470000F3
:102C90000000002030B5024651B100F037FE00219F
:102CA000074C08E034F821301568AB4202D11160BE
:102CB000002030BD491C8142F4D3052030BD000006
:102CC0000000000010B531B1B2FBF3F403FB142493
:102CD0001CB1092010BD0E2010BD01600021416013
:102CE00081608281C381084610BD70B50C460546DF
:102CF000FDF71CFB002802D021882868084470BD1D
:102D000010B50A8849888A4203D1FDF751FB01209A
:102D100010BD002010BD70B50C460546FDF72BFB1D
:102D2000002802D061882868084470BD10B50A8860
:102D300049888A4203D1FDF715FB012010BD002010
:102D400010BD002100F009B8012100F010B808B54D
:102D50006A46FDF782FB009808BD08B56A46FDF794
:102D600062FB08BD08B56A46FDF744FB08BD08B51F
:102D70006A46FDF74BFB009808BD08B56A46FDF7AB
:102D800079FB009808BD70B5044600252846FEF77B
:102D900015FD21686268086890420ED9401E0860DF
:102DA0000178238AE26801FB0325227A2168101A40
:102DB000C0B20A79824200D208710020FEF700FDFD
:102DC000284670BD70B505460C460020FEF7F6FC9F
:102DD000E868298A201AB0FBF1F12A681068431CC0
:102DE00013600170BDE870400020FEF7E9BC10B52B
:102DF00030B1017A42680368891AC9B21A6006E0E4
:102E00000E2010BD03681A68541C1C601170491E06
:102E1000C9B2F7D2006800210171084610BDC2088E
:102E200000F007030120895C98400840704700F1DA
:102E300080400068002800D00120704708B500F1EC
:102E40008040002101600068009008BD10B500209E
:102E5000FEF7B4FC074C6068401E6060606818B9FB
:102E600000F068FF00206070BDE810400020FEF711
:102E7000A7BC00002C03002070B5104D04466878F4
:102E800038B114B16168002088470020FEF796FC35
:102E90000CE00020FEF792FC24B1084821460830DF
:102EA000FFF7D6FD686808B900F038FF6868401C75
:102EB0006860BDE870400020FEF782BC2C03002053
:102EC00070B50C4C0125207808B185260BE0002058
:102ED000A06060602061E060074800F049FF06469E
:102EE00000F002FF257000F0F1FE00B1A570304641
:102EF00070BD00002C030020ED23000010B5074C2E
:102F0000217809B1852010BD00B9054800F074FF93
:102F10000028F8D10121217010BD00001000002010
:102F2000C45E000010B5044600F007F8204600F02B
:102F3000DFFF00F0D6FF002010BD10B500F0CAFF83
:102F4000BDE8104000F0DEBFF0B505460478154836
:102F500089B0164640F82420124A08690832A2F1C6
:102F60000C0742F82400487F385520226846FDF7B8
:102F7000C9FA04942878385C48B10EB10A4A00E0D6
:102F800000226946281D01F023F909B0F0BD0EB1F9
:102F9000064A00E00022694605F10C0000F0E2FF5D
:102FA000F3E700001800002061550000A95300005D
:102FB0000FB408B50399002904D004AA00926A4608
:102FC00000F00FF801B05DF814FB10B582680446FC
:102FD000002A05D0D4E90403216898470020A060A6
:102FE00010BD2DE9FC4791460C00804676D014F8C0
:102FF000011B39B125290ED04046FFF7B3F92078DF
:103000000028F4D198F80C00002867D04046BDE8AD
:10301000FC47FFF7DABF0020012221782B291BD0C3
:103020002D2902D0302908D102E040F0010001E052
:1030300040F00200641C002AEFD100252A290ED09E
:103040002178A1F130020A2A11D205EB850201EBA9
:103050004205641C303DF1E740F00400EAE7D9F88E
:1030600000100B1DC9F800300968641C0D4421785C
:1030700000232E290BD114F8011FA1F130020A2AD6
:1030800005D203EB830201EB4203303BF3E76C29EB
:103090000DD068290BD0692921D00BDC252918D047
:1030A000582931D063290ED0642915D117E014F8BE
:1030B000011FECE7702969D0732932D075291BD024
:1030C000782909D120E0D9F80000011DC9F80010C5
:1030D00001784046FFF746F9641C90E76CE0D9F8A8
:1030E00000100A1DC9F800200968CDE900500A2225
:1030F0004046FFF7FBFBEFE7D9F800100A1DC9F8BF
:10310000002009680A2206E0D9F800100A1DC9F853
:10311000002009681022CDE90050404602F0C2FAB2
:10312000DAE7D9F8001000270A1DC9F800200E6858
:10313000C00705D112E04046761C7F1CFFF712F94C
:1031400031780029F7D104E0202140466D1EFFF7B9
:1031500009F9BD42C0D9002DF6D1BDE74EB13046C8
:10316000FDF7F4F9074604E0202140466D1EFFF705
:10317000F9F8BD4206D9002DF6D103E04046761C91
:10318000FFF7F0F831780029F8D1A5E7D9F8000069
:10319000011DC9F80010056830214046FFF7E2F82C
:1031A00078214046FFF7DEF808200021CDE9000134
:1031B000034610222946B0E7BDE8FC872DE9FF4110
:1031C0001C46DDE90A7815460E46684600F0AAF866
:1031D00046EA450141EA840141EA072242EA084100
:1031E000009A00EB8200C0F80017BDE8FF812DE9CE
:1031F000FF411C46DDE90A7815460E46684600F098
:10320000ADF846EA450141EA840141EA072242EA73
:103210000841009A00EB8200C0F80017BDE8FF816A
:103220002DE9FF411C46DDE90A7815460E46684641
:1032300000F0A2F846EA450141EA840141EA07228A
:1032400042EA0841009A00EB8200C0F80017BDE88E
:10325000FF811CB5002100910B4601220191FFF76F
:10326000C6FF1CBD1CB5002100910B460122019137
:10327000FFF7D6FF1CBD1CB500220B46009211467D
:103280000192FFF7B4FF1CBD1CB500220B46009253
:1032900011460192FFF7C4FF1CBD1CB5002100912F
:1032A0000B46012201911146FFF7A1FF1CBD1CB581
:1032B000002100910B46012201911146FFF7B0FF5A
:1032C0001CBD13B50C46684600F03AF8009900EBB7
:1032D0008101D1F8002722F44032C1F8002700997B
:1032E00000EB8100D0F8001741EA0441C0F8001754
:1032F0001CBD00003CB50A4CD4E90034CDE90034D3
:103300006B46441808E000BF53F82010D1F8205550
:1033100020C2C1F82055401C8442F5D83CBD0000B5
:10332000C85E00000168202902D24FF0A04070471B
:1033300001F01F01016001487047000000030050C8
:103340000168202902D24FF0A040704701F01F0110
:103350000160014870470000000300500168202907
:1033600002D24FF0A040704701F01F0101600148F8
:1033700070470000000300500168202902D24FF07E
:10338000A040704701F01F01016001487047000034
:103390000003005001B56846FFF7E0FF009A0121E5
:1033A0009140C0F8081508BD01B56846FFF7E4FF75
:1033B000009A01219140C0F8081508BD38B50124D4
:1033C0000090684631B1FFF7ADFF00998C40C0F81E
:1033D000084538BDFFF7A6FF00998C40C0F80C45A2
:1033E00038BD0000034908B50844002101600068A9
:1033F000009008BD0060004002494058012800D0FC
:10340000002070470060004030B5154A014600209A
:10341000D2F8104423460AE0DB681D79854205D1C5
:10342000401C0A28F6DB4FF0FF3030BD1B68002B34
:10343000F2D1431CF9D0CB681871D2F8103443B1E3
:10344000DB68CC681B682360D2F81024D268116056
:1034500030BDC2F81014C96800220A6030BD0000F7
:1034600060090020F0B595B01C4615460F46084689
:103470001A9E00F01BFB182109A8FDF75CF80E96B8
:10348000CDE909540023082203A9384600F023FBA4
:1034900005980690BDF81000ADF81C00BDF81200AC
:1034A000ADF81E0000208DF821000398082600F0DA
:1034B0000300012802D0022818D032E003983346D6
:1034C000850AC0F3C2008DF8200003980FA9C0F34D
:1034D0008314A200384600F0FEFA09A8009006AB5B
:1034E00022460FA9284600F03DFA1AE00398840D01
:1034F000C0F3C2008DF82000082C01D2254600E060
:10350000082533462A460FA9384600F0E4FA2E442F
:10351000641B09AB06AA29460FA800F08BF9002C02
:10352000EAD1384600F0C8FA15B0F0BD7047012066
:1035300001F058BF084810B50178084A515C19B12C
:10354000001D00F0DFFE02E00C3000F0D9FDBDE808
:103550001040002001F046BF400100201400002070
:1035600008B5034A00924023024AFFF77BFF08BDDB
:10357000294E0000C80700200A4A012902EBC000BA
:1035800007D0022907D0032907D0042907D000203B
:1035900070470220704704207047007970474079D7
:1035A00070470000D467000010B5FFF7C0FF04218A
:1035B0000348FFF729FF02490120C968487110BD7F
:1035C000C46700002DE9F0478CB0FEF7E3FE18B1A8
:1035D00000200CB0BDE8F0877D4C0020C4F8180432
:1035E000BFF34F8F7B49A06802900D684FF0000831
:1035F000284004EB80000BE0D4F8180470B961682F
:103600000298814201D8A160E2E7284004EB8000E3
:103610000C3002A9FFF702FA0028EDD1002003AA1E
:10362000029901EA050304EB8303491CDB6842F8B5
:103630002030401C02910228F2D3039800F00300CE
:10364000022802D001284DD0A7E003985022810D16
:103650008946B2EB905F00D850210E4666F39F502A
:10366000039008315C4800F0D8F9070078D000F0EA
:103670001DFA4346082203A9384600F034FA02999D
:1036800008F1080A2940681A8000001D864222D9E4
:103690004F4D0C3530B1C2B204EB8101301A904667
:1036A0000C3104E02946F2B2002590462846C6B205
:1036B0005346384600F017FA0AEB080325B13246A4
:1036C0002946384600F00FFA029909F1030001EB90
:1036D000900002903BE004EB8101534632463846AD
:1036E0000C31EFE70398C0F38310062800D30620BF
:1036F000039960F38911C1F38310801C0391810049
:10370000354800F08AF9070047D000F0CFF943466A
:10371000082203A9384600F0E6F908F10808002657
:103720000FE00298434600EA0501401C04EB8101CA
:103730000290042238460C3100F0D5F908F1040853
:10374000761C0398C0F38310B042EAD847B1D4F88E
:103750001054D4F8180478B1384600F0ADF931E0CF
:103760001BE0E8684079012804D12A6828463946D8
:1037700012689047E8680568002DF2D1384600F0DD
:103780009BF90020FEF71AF8D4F8180408B902983B
:10379000A0600020FEF714F814E0D4F8104405E00F
:1037A0002168204689688847E0680468002CF7D1C2
:1037B0000A480B49401AC008022101EB004009A148
:1037C00000F01AF8FEF7E6FD80F0010001E70000C6
:1037D000600900205C010020446800003C68000093
:1037E000D46700004261636B656E647320666C751C
:1037F000736865640000000000231A4601F032BDC2
:1038000008B5012300926A4601F02CFD08BD3EB5C3
:10381000069C8DE81C0003236A4601F023FD3EBD93
:103820007FB5DDE908458DE83C0004236A4601F0D8
:1038300019FD7FBD2DE9F0470E4680461C46924695
:10384000082940D894F80C9000202073194610469F
:1038500001F062FA0025B54206D218F805201BA136
:103860002046FFF7A5FB03E01AA12046FFF7A0FBC7
:103870006D1C082DEFD318A12046FFF799FB0025FA
:10388000B54212D218F805707E2F08D8FCF736FE24
:103890000068C05D10F03E0F01D03A4600E02E22D5
:1038A0000EA12046FFF784FB03E00DA12046FFF7A1
:1038B0007FFB6D1C082DE3D301222146504601F009
:1038C0000DFA84F80C90BDE8F08700002025303216
:1038D00078000000202020007C000000256300000C
:1038E00020000000064910B500200870054800F0CF
:1038F000E1F8002803D1044800F00BF9002010BDC6
:10390000600900204468000000610000024803498B
:10391000401AC0087047000044680000D4670000E7
:1039200013B56846FFF7B6F908B100201CBD024880
:10393000009950F831001CBDD467000070B50848EC
:103940000125D0F81044057007E0E0684571216852
:10395000204649688847E0680468002CF5D170BDAE
:10396000600900202DE9FF4781460C9D00200C4690
:103970002F7B2873984616462946184601F0CCF945
:10398000072E42D2DFE806F004090F161F2A360080
:1039900049462846FFF70CFB37E04946284622688F
:1039A000FFF706FB31E0D4E9002349462846FFF73C
:1039B000FFFA2AE0A0680090D4E90023494628468F
:1039C000FFF7F6FA21E0D4E90201CDE90001D4E9DC
:1039D000002349462846FFF7EBFA16E004F10800F9
:1039E00007C88DE80700D4E9002349462846FFF7B9
:1039F000DFFA0AE004F108000FC88DE80F00D4E9EF
:103A0000002349462846FFF7D3FA002229464046BC
:103A100001F064F92F73BDE8FF872DE9F041058AB5
:103A200080462D1F4819C01CB0FBF5F0C6B24046B9
:103A3000FFF7A9F9041E19D0002020710120607140
:103A4000E58000272546761EC4F800800BE040463E
:103A5000FFF799F960B16179491C617128600546E9
:103A60007F1CC0F80080B742F1D32046BDE8F0814A
:103A7000204600F002F80020F8E72DE9F0414579F2
:103A800001466B1E002201E00968521C9A42FBD3DA
:103A90000F680146002605E038460C68FFF792F9EA
:103AA0002146761CAE42F7D3BDE8F0810121001D0E
:103AB000FFF74DB9FFF79BB910B504460121001D72
:103AC000FFF75BF910F0FF0F04D12046BDE810406E
:103AD000FFF7D3BF10BD1CB501920122009201AACD
:103AE000FFF770F81CBD1CB501920022009201AADC
:103AF000FFF768F81CBD08B500F18040014600687A
:103B0000002220B101200A600968009108BD10461A
:103B100008BD8268002191608268116182685161EC
:103B20008268D16082685160806801607047405847
:103B3000002800D00120704708B5002242504058AC
:103B4000009008BDD0F80403084000D00120704761
:103B50004058002800D00120704708B5002242508C
:103B60004058009008BD000010B501F08BFE802089
:103B7000FEF764FC817B0124032902D00068002841
:103B800009D18020FEF74AFC8440E143BDE81040A3
:103B9000014800F0A3B810BD5800002002064FF005
:103BA000010100F00F0001FA00F101D5044801E025
:103BB0000348001D0068084000D001207047000045
:103BC0001075024070B5054601F05CFE2846FEF710
:103BD00035FC817B0124032902D00068002809D12B
:103BE0002846FEF71BFC8440E143BDE870400248D4
:103BF00000F074B870BD00005800002038B50546CC
:103C000001F040FE2846FEF719FC817B01240329C0
:103C100002D0006848B11AE02846FEF7FFFB844056
:103C2000E1430D4800F05AF811E02846FEF7F6FB94
:103C30008440E143084800F051F80848064900690B
:103C400000900C398DF80250496868468847BDE8F5
:103C5000384001F025BE000058000020D85E00006A
:103C600002494058002800D00120704700700240EF
:103C700010B50446FFF7F4FF002806D003490022E0
:103C80006250BFF36F8FBFF34F8F10BD00700240C3
:103C900003490860BFF36F8FBFF34F8F7047000079
:103CA0000074024002480068002800D001207047DC
:103CB0002C7502400449084401210160BFF36F8F55
:103CC000BFF34F8F70470000007002400248006849
:103CD000002800D0012070470004014008B56A4662
:103CE000FCF7B1FA08BD000009480168012011F095
:103CF000010F06D14FF0E021C02281F80024843169
:103D0000C867044A01211160034908707047000028
:103D100000E100E0180500402800002010B54FF435
:103D20008070FFF78BF801208107C1F80403086059
:103D300010BD0000012010B58107C1F80803000282
:103D4000FFF77CF807490120086007494FF0011090
:103D50000A6802F001128242FAD004490020487138
:103D600010BD0000040000400C0400402C000020A6
:103D70000649024600200B790BB1852070470A6086
:103D800001220A7100224A71704700002C000020B5
:103D900070B54FF480763046FFF749F8114CB50501
:103DA00060B13046FFF74AF80120C5F80803607992
:103DB00020B9012060712168002088474FF4827685
:103DC0003046FFF734F800280AD03046FFF736F8BF
:103DD0000220C5F808032168BDE8704001200847AB
:103DE00070BD00002C0000200121B1EB507F01D1FB
:103DF00001207047002070470F490A780AB18520DA
:103E0000704702780D4BC2F340021A600B4A0078EB
:103E1000083A00F00100106009480068012210F023
:103E2000010F06D14FF0E020C02380F80034843029
:103E3000C2670A70002070473400002080050040EF
:103E400000E100E070B54FF08040D0F80443204D11
:103E5000600706D54FF48470FFF74DFE08B168681F
:103E60008047A00607D54FF48A70FFF744FE10B1D3
:103E7000A96800208847600607D54FF48C70FFF7CB
:103E80003AFE10B1A96801208847200607D54FF4F3
:103E90008E70FFF730FE10B1E96800208847E0051A
:103EA00007D54FF49070FFF726FE10B1E9680120A6
:103EB0008847A0050AD54FF49270FFF71CFE002832
:103EC00004D0E968BDE870400220084770BD0000DA
:103ED000340000204FF080414FF46070C1F80803B7
:103EE00070474FF080414FF46070C1F80403704791
:103EF00003490022CA600068002800D0C8607047EB
:103F00003400002001490020C860704734000020C0
:103F100070B50D4600F04CFF04000FD00020FDF7F7
:103F20004DFC207920B10020FDF74AFC112070BD26
:103F30000120256020710020FDF742FC002070BDAB
:103F400010B500F035FF002802D00021016001719A
:103F500010BD00000149024801F06CBAAC0300201A
:103F6000002000402DE9F0410546007916460F4635
:103F700000EB40012D4A01EBC00102EB810494F8F3
:103F80002A1011B10820BDE8F081294951F820100C
:103F90002868FFF7BDFF08B11120F4E7394628462D
:103FA000FDF722FC66603869206030004FF00106A2
:103FB0002FD03F7F4FF48E712868FFF7BDFD4FF47F
:103FC000A2712868FFF7B8FD28681A49C0F80413E1
:103FD00028684FEA471140F30730002804DB00F15E
:103FE000E02080F8001405E000F00F0000F1E02070
:103FF00080F8141D286840F30730002809DB00F022
:104000001F0106FA01F14009800000F1E020C0F82C
:10401000001128680421C0F800150020A061E061AB
:1040200084F8290044F8140FA675ACE7AC0300200F
:10403000D05E0000800002002DE9F05F05460079A7
:104040000B4600EB400101EBC000244901EB80046A
:10405000284600F045F810B11120BDE8F09F6261DC
:104060004FF00009C4F82090A36084F828904FF422
:104070008E784E4641462868FFF75EFD28684FF06F
:10408000010AC0F808A02146286801F063F96068B9
:1040900008BBD5F800B067690FE000BF94F82800AE
:1040A00008B10F2615E041465846FFF740FD0028AD
:1040B000F4D02146584601F04DF9206AB842F2D3B7
:1040C000574641462868FFF732FD0028F9D0286896
:1040D000C760C4F814903046BFE70000AC0300206E
:1040E000007900EB400101EBC000044901EB8000C6
:1040F0004069002800D0012070470000AC03002078
:104100002DE9F047044600794FF0000900EB40012B
:1041100001EBC000284901EB80072068C0F800953A
:104120007868B0B120682549C0F80813206840F3CA
:10413000073000280DDB00F01F02012191404009EB
:10414000800000F1E020C0F88011BFF34F8FBFF373
:104150006F8F2068D0F80C25D0F81485D0F808654A
:10416000D0F810554FF0FF31C0F81415C0F80C15F9
:104170002068C0F80815C0F81015501C02D0104671
:10418000FFF767F8B8F1FF3F02D04046FFF761F84C
:10419000681C02D02846FFF75CF8701C02D030463D
:1041A000FFF757F82068FFF7CBFE87F82A90C7F88B
:1041B0000490BDE8F0870000AC03002084020200F8
:1041C0000149024801F0E4B9D80300200020004072
:1041D0002DE9F0410546164600790F46154A00EBD9
:1041E000C00102EB810494F8201011B10820BDE851
:1041F000F081114951F820102868FFF789FE08B1B5
:104200001120F4E739462846FDF729FB6660386936
:1042100020601EB1397F2846FEF7BCFB28680821C4
:10422000C0F800150020A061E0616061012184F800
:104230002010DCE7D8030020D45E00002DE9F04711
:1042400004460E460079274900EBC00001EB8005CB
:1042500017463046FFF7C8FD30B1204600F044F85D
:1042600020B11120BDE8F0871020FBE76F61AE6040
:104270004FF490774FF0000839462068FFF76DFC47
:104280004FF4AC7631462068FFF767FC2068AA68D7
:104290006969C0F84425C0F8481520684FF0010945
:1042A000C0F808906868D0B9BA4651462068FFF750
:1042B0004FFC074631462068FFF74AFC0743F4D01D
:1042C00010B14FF00F0808E02068C0F80C9031469C
:1042D0002068FFF73DFC0028F9D0002068614046C7
:1042E000C0E70000D80300200079054900EBC000BA
:1042F00001EB80004069002800D0012070470000D9
:10430000D80300202DE9F047064600793D4900EB2F
:10431000C00001EB8005346868680127A8B13A49FC
:10432000C4F80813306840F3073000280DDB00F0B4
:104330001F0107FA01F14009800000F1E020C0F8F8
:104340008011BFF34F8FBFF36F8FD4F8000220F0BE
:104350002000C4F80002A8694FF4A27820B14146B9
:104360002046FFF7FAFB67604FF4AC7949462046D8
:10437000FFF7F3FBE760474649462046FFF7E8FBB7
:104380000028F9D0A86928B139462046FFF7E0FB9C
:104390000028F1D04FF0000AC4F800A53068D0F82A
:1043A0000C25D0F81495D0F80885D0F810754FF08A
:1043B000FF31C0F80C15C0F814153068C0F80815A6
:1043C000C0F81015501C02D01046FEF74BFFB9F193
:1043D000FF3F02D04846FEF745FF781C02D0384622
:1043E000FEF740FFB8F1FF3F02D04046FEF73AFF2C
:1043F0002046FFF7A5FD85F820A0C5F804A0BDE87C
:10440000F0870000D803002010034200034902484F
:10441000C1F80403704700000414800100700240DA
:1044200030B54C689C4204D20025456009680160A3
:1044300007E043600D68E41A05604C6008681844A2
:1044400008609A4202D10CB1012030BD002030BD7D
:1044500010B500F01DFB0949D1F80403C1F80803A9
:10446000074900200860BFF36F8FBFF34F8F01F043
:1044700009FA04490120087010BD000000700240D4
:10448000007502404C00002070B54FF40060FFF74B
:10449000FFFB01F0AFFA00F0BFF908B101F0C8FB73
:1044A0004FF080500025D0E94C1008290AD112495C
:1044B00040F2E37008604020091D0860BFF36F8F71
:1044C000BFF34F8F0D49802008600C490020143144
:1044D00008600B4C40F2FF10C4E9020501F0D2F96C
:1044E000A5700220207000F097F9002803D0BDE8E5
:1044F000704001F0B7BB70BD007802401C750240EF
:104500004C00002010B5044601F0BEFA21064FF021
:10451000010004F00F0200FA02F001D5084901E0A1
:104520000749091D0A6882430A60BFF36F8FBFF312
:104530004F8F204600F0E0F80249C1F8080310BD93
:10454000107502400070024005490860BFF34F8FAC
:1045500040F480700860BFF36F8FBFF34F8F7047D8
:104560000C75024070B5044600F0C6F81A49C1F84F
:1045700004032046FFF712FB00282BD104F00F01A3
:1045800022064FF0010505FA01F001D5134A01E0BA
:10459000124A121D136803431360BFF36F8FBFF3FA
:1045A0004F8F200716D0200614D4082912D20020DD
:1045B000FDF704F9204600F0BDFA2046FDF72EFF76
:1045C00085400748C168A943C160BDE8704000202C
:1045D000FDF7F6B870BD0000007002401075024093
:1045E0004C000020FFF7DABA2DE9F0410E460746ED
:1045F000FDF714FF05460020FDF7E0F8144C3807DE
:1046000004D1A078874201D010241BE02089E16802
:10461000C04380B20843012101FA05F5284201D0C8
:1046200011240FE03846FDF709FF00218160326850
:104630000260726842608173E0680543E5600C4681
:1046400001F02AFB0020FDF7BBF82046BDE8F08111
:104650004C00002010B5FDF7F1FE808910BD10B5AB
:104660000C46FDF7EBFE848110BD0000044940F4C8
:1046700080700860BFF36F8FBFF34F8F70470000EB
:104680001875024000F00F01082901D3002070477F
:10469000020607494FEA007001EB906002D5D0F89E
:1046A000200401E0D0F844040128EFD17047000055
:1046B0000070024010B50446000606D42046FFF7FD
:1046C000E1FF10B1204600F035FA03480460BFF363
:1046D0006F8FBFF34F8F10BD18750240010601D5D3
:1046E000044901E00349123100F00F0031F81000D5
:1046F00070470000705F0000010601D5044901E029
:104700000349093100F00F00095C0120884070471F
:10471000945F00002DE9F0470D460646FDF77EFE4A
:1047200080460020FDF74AF8254C300704D1A078D8
:10473000864201D0102433E02089E168C04380B272
:104740004FF00109084309FA08F7384201D0112453
:1047500026E03046FDF772FE06F00F01330601EB4E
:1047600041014FF0000225D5164B03EB81012B6868
:10477000B9EB537F2B7A4FEAC37302D1B3B1124B1B
:1047800001E0ABB1114B036068CD81E86800C0E97E
:1047900001128273E0680743E760002401F07CFAAD
:1047A0000020FDF70DF82046BDE8F087084BEAE74A
:1047B000084BE8E7034B6C3303EB8101064BE2E760
:1047C0004C0000201C050020F14800008948000032
:1047D000CD4800004D4800002144000000F00F00CB
:1047E000082805D305480068C10300D5002070479C
:1047F000034901EB8000D0F8A0047047C074024068
:10480000007002404FF08051D1E94C01082801D0DE
:1048100000207047012070474FF08050D0E94C21B4
:104820000020082A03D10122002900D91046704730
:104830004FF08051D1E94C01082801D00020704789
:104840000120704700487047F40500202DE9F04131
:104850004D680C4E07460C46954200D915462A462F
:1048600030462168FBF74EFEC7E900656068401BD3
:1048700060602068284420606068002800D0012023
:10488000BDE8F081F40500202DE9F0414C680E4FA1
:1048900006460D46944200D9144634B122463846A5
:1048A0002968FBF72FFE376001E00020306074605C
:1048B0006868001B686028682044286014B10120E3
:1048C000BDE8F0810020FBE7F40500204B6893422F
:1048D00000D913460A68C0E900234868C01A486036
:1048E0000868184408604868002800D00120704714
:1048F0004B68934200D91346002B0ED0D1F800200C
:10490000C0E900234868A0EB030048600868184429
:10491000086005D04FF0010070474FF00002EFE74C
:104920004FF00000704700000149002048707047B8
:104930004C0000202DE9F0411C490A7812B10820F2
:10494000BDE8F08148600120002408704602254639
:1049500044F0800707F00F00082801D3314600E03B
:1049600040213846FFF77BFE3846FDF767FD85732B
:10497000641C0560E4B28560092CE9D35FF0000493
:1049800004F00F00082801D3314600E04021204602
:10499000FFF765FE2046FDF751FD8573641C056039
:1049A000E4B28560092CEBD30020C9E74C0000205D
:1049B00003480078022801D3012070470020704787
:1049C0004C00002002480078002800D001207047E9
:1049D0004C00002001488078704700004C00002007
:1049E0005020FFF767B94C20FFF764B90021016040
:1049F00041601149096801700F49091D096841703A
:104A00000D49083109680C4A0C32126841EA02214A
:104A10004180094910310968074A1432126841EA95
:104A200002218180044918310968034A1C32126846
:104A300041EA0221C1807047807402405420FFF790
:104A400039B900000C4A002151700C4900B10C49E1
:104A50000C48C0F804130C49C02081F800040A4A2D
:104A600001208021233AC2F8001108490860BFF3F1
:104A70006F8FBFF34F8F70474C0000200714C001A9
:104A80000714E0010070024027E000E004750240D6
:104A900070B50E4D8024C5F880422720FCF71AF827
:104AA000002812D001F070F8094900200860BFF317
:104AB0006F8FBFF34F8FC5F88041BFF34F8FBFF3A8
:104AC0006F8F0449401EC1F8080370BD04E000E088
:104AD000047502400070024010B500242046FCF727
:104AE0006DFE0C48407878B101F04EF80A48016834
:104AF000890509D4094901220A600068800502D5A8
:104B00000020086000E001240020FCF759FE204648
:104B100010BD00004C000020007402402C750240C3
:104B200003490248C1F808037047000004148001DB
:104B30000070024010B504460020FCF73FFE2046FE
:104B4000FDF76CFC012181400B4882688A4382603A
:104B500004F00F00082809D2084A002102EB800067
:104B6000C0F8A014BFF36F8FBFF34F8FBDE81040A4
:104B70000020FCF725BE00004C0000200070024021
:104B80000248002141600170704700004C00002085
:104B900010B500242046FCF711FE0F48407880B184
:104BA000FFF780F868B10D49002008600124FFF785
:104BB00029FE30B10A490B68094AC02014322BB1D2
:104BC00010600020FCF7FCFD204610BD49F2753353
:104BD0000B6010600B60F4E74C0000202C75024065
:104BE00000EC064003490860034801680029FCD036
:104BF0007047000004E5014000E401402DE9F84F52
:104C0000314F05464FF001090024381990F9601022
:104C1000491C46D090F86000294620F0C006304676
:104C2000FEF7FDF870B3204600F050F88246684663
:104C30000096FEF785FB009900EB8100D0F8000795
:104C4000C0F30148B8F1020F1DD002213046FEF733
:104C500038FB68460096FEF773FB009A09FA02F1EA
:104C6000C0F820153046FDF7A1FB57F820204AB1C7
:104C70005046BAF1030F11D0B8F1020F05D0B8F1C8
:104C8000030F07D00DE00321E0E75046BAF1010F12
:104C900004D006E05046BAF1020F02D10146304678
:104CA0009047641C042CB0D32A4602210020FEF752
:104CB00021FB002055F820100029A5D1401C022816
:104CC000F8D3BDE8F88F00004003002002490844F3
:104CD00090F86000800970474003002010B50C4632
:104CE000017A052908D0407A38B1084808A102683D
:104CF0002046FEF75DF900E01AB106A12046FEF756
:104D000057F92046BDE81040FEF75FB98C0100203E
:104D1000257300000D0A000038B5C3880D4604460F
:104D200033B114A0009015A216A12846FEF740F951
:104D3000217A05291CD0607A48B1A088FEF71CFCB6
:104D4000164951F8202016A12846FEF731F9A0880F
:104D50000021FEF7E5FD03461049207A143951F889
:104D6000202001B02846BDE830400EA1FEF720B952
:104D700038BD00001B5B306D000000001B5B313B49
:104D800033316D0025734C6F67732064726F7070E0
:104D90006564202825642925730D0A008C010020F4
:104DA000257300003C25733E2025733A2000000047
:104DB0000349884201D10348704700207047000032
:104DC000002000404400002070B5054688690C466C
:104DD00000284FF4847128460AD0FEF7ADFED5F8BE
:104DE0001805626AE1688854606A401C606270BDA0
:104DF000FEF7A2FED5F8180570BD1FB501238DF88A
:104E00000030CDE90121D0E90012684690471FBD6E
:104E10001FB501238DF80030CDE90121D0E9001242
:104E2000684690471FBD000070B50D4C0020D2B2FF
:104E30002070201D0B4D0378EB5C1BB1001DFFF7AC
:104E4000FDF902E00C30FFF7F7F808B1FBF7A8FE18
:104E50006078002802D021780029FAD070BD0000C7
:104E60003C01002014000020002070472DE9FE4F77
:104E700008790C46012804D0022809D0032875D1EE
:104E800062E0B4F8070000285CD01222384967E0DD
:104E9000B4F80700002855D0092800D90920814618
:104EA00009264FF00008FBF7A7FF05464FF0000A60
:104EB00016E00027CDF800A000E07F1C6868012301
:104EC0000022D0F804C029466846E0470028F4D103
:104ED000297A3E4401EB080000F0FF0828680568C5
:104EE000002DE6D102A8FCF711F9214905464A46F2
:104EF0001231FBF707FB85F804806E80FBF7A8FFF3
:104F000018B1E87940F02000E871FBF775FF014621
:104F1000184880E82202B4F80710C1600020FCF7AE
:104F20004DFC134980200839FCF738F9040005D1FD
:104F30000F4980201039FCF745F804460020FCF7A3
:104F40003FFC2046BDE8FE8FB4F807000028F9D0EA
:104F5000E078B4F80510FCF7F3FB010006D00A78FE
:104F600003B0601CBDE8F04FFCF7A0B80620E9E7ED
:104F70001C600000A407002038B54A7812F0600FCA
:104F800036D13B4C12064FF0000533D58A7822B15A
:104F9000062A15D0082A2BD116E00B466846FCF7E6
:104FA000B5F801460580007840F00100087062788D
:104FB0005208D20702D040F002000870022213E02B
:104FC000BDE83840FFF752BF0B466846FCF79EF835
:104FD00001462078052802D0042803D008E00120EB
:104FE000087000E00D700122581CFCF75FF838BD16
:104FF000062038BD88780A28FAD2DFE800F00511CB
:105000000506050505050520F2E7B1F803000128AE
:10501000EED1FBF71DFF80B1607840F0020009E09F
:10502000B1F803000128E3D1FBF712FF28B1607843
:1050300020F002006070002038BD0F2038BD2078BD
:10504000052803D0042801D0082038BDC87818B13D
:10505000012805D0072038BDFBF7BEFD042002E083
:10506000FBF7D0FD052000F07FFB284638BD00008F
:105070009C000020F8B50546407810F0600F3FD145
:1050800020486C79A978007821B1012923D003291F
:1050900036D111E0052801D0200727D16846FCF75A
:1050A00035F806462046FFF7EDFA308002223146F9
:1050B000681CFBF7FBFFF8BD04F00F0108291FD2A5
:1050C000B5F80310E1B921071AD005280ED1204602
:1050D000FFF7CCFA12E004F00F01082910D2B5F85E
:1050E000031069B921070BD0052801D00820F8BDAD
:1050F0002046FFF729FA2046FFF7DCFA0020F8BD2A
:105100000620F8BD9C000020FEB54B781A06C3F3BC
:10511000411451D5002214B1012C5CD11DE005468B
:1051200003F01F000C46012855D1A078062852D163
:1051300002A80192FBF7EAFF064601A80090E27878
:10514000217933462846FBF7F7FD052843D0314641
:10515000601C019AFBF7AAFFFEBD0D4689788229E3
:1051600009D004DC042906D0812934D103E0832945
:1051700001D085292FD1046861732979A173E97859
:10518000E173A979217469796174B5F807106182B6
:1051900004F80C2F697801F01F01022900D1217059
:1051A000002100F0E7FDE28803B004F10801681C6B
:1051B000BDE8F040FBF77ABF012C0CD18A78062AB3
:1051C00009D2DFE802F008030303030303B0BDE8DC
:1051D000F040FCF7D9BF0620FEBD0000F8B50B4635
:1051E00051780646144611F0600F25D11C48090677
:1051F000A17800781ED511B10A291DD109E0052832
:105200001ED16846FBF782FF01460020088002227B
:105210000CE0052814D16846FBF778FF05461946CF
:105220003046FCF7B4F9287001222946601CFBF7D0
:105230003DFFF8BD0B2901D00620F8BD052801D09F
:105240000820F8BDB4F80300FF2801D90720F8BDF5
:10525000D27819463046BDE8F840FCF775B9000031
:105260009C0000202DE9F84F0746224891468846C9
:1052700005681E46012269461846FDF72DF8DFF83D
:1052800078A060B3009800210446801C0AE000BFAB
:1052900000EA050259F821C00AEB8202401C491CB1
:1052A000C2F80CC0B142F3D34FEA1749FDF7ACF88E
:1052B000611C29400AEB810149EA00422C40CA6086
:1052C0000AEB8401C86867F3C50066F3891068F3C8
:1052D0009F2020F00300401C20F00400C8609AF8D2
:1052E000000001E0FEF76EF90028FBD1FDF7BBFBE3
:1052F000BDE8F88F5C0100206009002070B505460C
:10530000FCF742FA124C06462078FCF73DFA86423A
:105310000AD02846FCF738FA20B104F11800FDF74E
:10532000ABFD01E0FDF792FD2846FCF73AFA064690
:105330002078FCF736FA864208D02846FCF731FA86
:1053400010B1FFF763F801E0FFF7EAFB257070BDCD
:105350005C00002070B50C4605464FF48E71FEF7D8
:10536000EBFB216AA068415C206A401C2062C5F802
:105370001C1570BD1FB500228DF8002002918168B8
:1053800001914261D0E90012684690471FBD1FB5E8
:1053900000228DF800200291816801914261D0E9DC
:1053A0000012684690471FBD1FB50A4601788DF868
:1053B000001041680191017A8DF80810C0680390CF
:1053C000044850F82210083850F8222068469047C8
:1053D0001FBD000020000020014901200870704717
:1053E0003C01002010B588B0044620220E496846D2
:1053F000FBF788F806200090C01F019002900390F0
:105400004FF0EB7006900CB1084A00E000226946AC
:105410000748FDF799FD08B1FBF7C2FB0448001FE0
:10542000447008B010BD0000E0600000D9530000D7
:10543000400100202DE9FF470C4605464FF400715E
:10544000FEF780FB01274FF40178002618B34FF4D4
:10545000927949462846FEF76AFBE0B1494628465C
:10546000FEF76AFBC5F8088394F8290000B96F605D
:1054700002208DF80000D5F88004C5F88004039060
:10548000A0690290E0680190A661E661D4E900128B
:105490006846904728E004212846FEF753FB18B3DE
:1054A0004FF484712846FEF742FBE8B121462846B6
:1054B000FFF78AFC616AA069884215D1E06938B1BA
:1054C000E268616AA0612069E6616662E06008E006
:1054D00094F8290000B96F60C5F80883A661E268F6
:1054E000616A2046FFF789FC4FF48E7841462846D2
:1054F000FEF71DFB80B16069216A814202D294F8F7
:10550000280028B341462846FEF716FB606918B10B
:1055100061692046FFF72EFF4FF4A27841462846E6
:10552000FEF705FB002818D041462846FEF704FB8D
:1055300094F8290000B12F60A06900280DD0A66161
:10554000E268616A04B02046BDE8F047FFF755BC49
:1055500021462846FFF7FEFEDEE7BDE8FF87000094
:105560001FB50A4601788DF8001041680191017A53
:105570008DF80810C0680390044850F822100838CD
:1055800050F82220684690471FBD000020000020F0
:105590002DE9FF410C464FF4927705463946FEF758
:1055A000D7FA0026B8B139462846FEF7D6FA0220C7
:1055B0008DF80000D5F88004C5F880040390D5F874
:1055C0003C050290E0680190A661E661D4E9001212
:1055D0006846904723E04FF4887739462846FEF71F
:1055E000B7FAE0B139462846FEF7B7FAD5F83C15C8
:1055F000A069884213D1E06960B1E268D5F8000281
:1056000020F02000C5F80002E069A0612069E66191
:10561000E06001E0A661E2682046FFF7F9FB4FF485
:10562000A27739462846FEF793FA68B139462846EC
:10563000FEF793FAA06938B1A661E661D5F83C158A
:105640002046E268FFF7E4FB4FF4907631462846A7
:10565000FEF77EFA60B131462846FEF77EFA012059
:10566000E860606920B1D5F84C152046FFF78FFE41
:105670004FF4AC7631462846FEF76AFA00280ED081
:1056800031462846FEF769FA6069002807D0D5F848
:105690004C1504B02046BDE8F041FFF778BEBDE8E8
:1056A000FF8100002DE9F05F8346DDE90A4A994653
:1056B00090460D460846012703E000BFB0FBF8F016
:1056C0007F1C4045FAD2B94500D94F465FEACA70FF
:1056D00012D18CB15FEA8A7002D5B9F1000F01D006
:1056E000202607E0302605E031465846641EFCF7C8
:1056F00039FE0CB1A742F7D35FF00106B9F1010FF3
:1057000002D9A9F1010903E0B5FBF6F0404502D347
:1057100006FB08F6F2E7DFF83C9000BFB5FBF6F0B9
:1057200000FB165519F800105846FCF71BFEB6FB97
:10573000F8F6002EF2D15FEACA7009D0002C07D02B
:10574000A74205D220215846641EFCF70BFEF5E760
:10575000BDE8F09FC260000002480068002800D049
:1057600001207047A400002007490A78824209D02E
:105770000870052803D0487820F0020048700348DC
:10578000FBF786BD704700009C0000200860000009
:105790002DE9F04F804648688BB092464FF00109E2
:1057A0000C4628B920680068006808B9A06850B1A4
:1057B00000260996FFF746F8E768834650465745A6
:1057C00057D9074655E04FF00009C8F80090C8F8CF
:1057D000049052E0A068B84201D93D4600E0054679
:1057E000616839B10BEB06002A46FAF78BFE002000
:1057F00060600CE058B121680BEB06022B4648684C
:10580000D0F804C004F11000E04701200990A0681E
:10581000A7EB0507401BA060E1682E44A1EB050142
:10582000E16005D1099A1AB12268126812682260F3
:1058300009B1F0B902E04FF000091AE02068002831
:105840004FF0000001D0009009E060609EB1564525
:1058500011D24FF000090EE0A068401CA060216842
:1058600001230022486845686846A8470028F3D10C
:105870002061002FAED1C8E900B60BB04846BDE8A4
:10588000F08F000010B5FEF7D3FF002108B10248E9
:1058900001600248C17010BD1C7C02404C00002019
:1058A0002DE9F04F4D4E89B0F078002840D1814667
:1058B0004FF0010A38E000BF10F0012F01D000F0D6
:1058C000012090FAA0F0B0FA80F08046FCF7A2FC2C
:1058D0000446FCF7B3FD0546200605D5D5E90031A1
:1058E000AA8905A8984726E02046FEF777FFD5E964
:1058F000007183460346AA8905A8B8470599D1B126
:10590000069A5A4517D20220A8730AFA08F0C14332
:1059100032480C30FEF7E2F93148006B00908DF808
:105920000240716868468847D6E902100840C3D132
:1059300009B0BDE8F08F08B9C5F80090FEF778FF10
:1059400010B128498220086086F803A0B1680AFADD
:1059500008F08143B160A868069923060844A8604E
:10596000DDE90510204A04F00F030ED5082B03D300
:105970001E4A1160111D0DE003EB830302EB83024D
:10598000C2F80016C2F804060EE0082B04D3184A29
:105990001160111D086007E003EB830302EB830233
:1059A000C2F80017C2F80407200601D5042100E060
:1059B000282104F00F0001EB8000FEF77BF94FF483
:1059C00080752046FEF78AFEFEF74AF90028AFD11F
:1059D0002846FEF745F90028F3D0A9E74C0000203F
:1059E000D85E00001C7C024000700240A07602409D
:1059F000A077024070B5FEF70FFF08B100F018F96C
:105A0000FEF700FF1D4C1D4E49F27535143C48B1A0
:105A10000020FBF7D3FE2168C02031B330600020A6
:105A2000FBF7CEFE164901200860BFF36F8FBFF36E
:105A30004F8F144AC00211680142FCD0FEF728F9CA
:105A4000FEF7E0FE48B10020FBF7B8FE2168002019
:105A500079B130600020FBF7B3FEFEF7DDFE0028D1
:105A60000BD0BDE8704000F0FDB8256030602560C7
:105A7000D5E7256030602560ECE770BD14EC06408A
:105A800000750240007402402DE9F84307460020EB
:105A9000FBF794FE3846FCF7D1FC0646374D380636
:105AA0004FF000084FF003094FF001041FD43846AF
:105AB000FCF7B4FCE96804FA00F0884303D03846E8
:105AC000FFF738F810E03846C6F80080FCF7A6FC6F
:105AD000E96804FA00F081433846E960FCF79EFC6F
