{"txid":"cb74c8478c5814742c87cffdb4a21231869888f8042fb07a90e015a9db1f9d4a","version":1,"locktime":2160993,"vin":[{"txid":"7dc74a738c50c2ae1228ce9890841e5355fd6d7f2c1367e0a74403ab60db3224","vout":0,"sequence":4294967294,"n":0,"scriptSig":{"hex":"48304502210096a287593b1212a188e778596eb8ecd4cc169b93a4d115226460d8e3deae431c02206c78ec09b3df977f04a6df5eb53181165c4ea5a0b35f826551349130f879d6b8012102cf5126ff54e38a80a919579d7091cafe24840eab1d30fe2b4d59bdd9d267cad8"},"addresses":["FYy3bTDYJiSaNhh4d2ptHGwAPNRc6heKy2"],"value":"0.00210208"}],"vout":[{"value":"0.00210016","n":0,"scriptPubKey":{"hex":"76a914172b4e06e9b7881a48d2ee8062b495d0b2517fe888ac","addresses":["FXHDsC5ZqWQHkDmShzgRVZ1MatpWhwxTAA"]},"spent":true}],"blockhash":"000000000000477489dee379ce7f5a8de60d21d3507b3d0fcda7e1f6f6890160","blockheight":2160996,"confirmations":342265,"time":1531047801,"blocktime":1531047801,"valueOut":"0.00210016","valueIn":"0.00210208","fees":"0.00000192","hex":"01000000012432db60ab0344a7e067132c7f6dfd55531e849098ce2812aec2508c734ac77d000000006b48304502210096a287593b1212a188e778596eb8ecd4cc169b93a4d115226460d8e3deae431c02206c78ec09b3df977f04a6df5eb53181165c4ea5a0b35f826551349130f879d6b8012102cf5126ff54e38a80a919579d7091cafe24840eab1d30fe2b4d59bdd9d267cad8feffffff0160340300000000001976a914172b4e06e9b7881a48d2ee8062b495d0b2517fe888ac61f92000"}