:020000040000FA
:1000000048240020150200001D0200001F0200000D
:100010002102000023020000250200000000000071
:1000200000000000000000000000000027020000A7
:1000300029020000000000002B0200002D02000039
:100040002F020000A5020000E50400002F020000BE
:100050002F0200002F0200002F0200002F020000DC
:100060002F0200002F0200002F0200002F020000CC
:100070002F0200002F0200002F0200002F020000BC
:100080002F0200002F0200002F0200002F020000AC
:10009000010300002F0200002F0200002F020000C9
:1000A0002F0200002F0200002F0200002F0200008C
:1000B0002F0200002F0200000000000000000000DE
:1000C0002F0200002F0200002F0200002F0200006C
:1000D0002F0200002F0200002F0200002F0200005C
:1000E0002F020000000000000000000000000000DF
:1000F000000000002F020000000000002F0200009E
:1001000000000000000000000000000000000000EF
:1001100000000000000000000000000000000000DF
:1001200000000000000000000000000000000000CF
:1001300000000000000000000000000000000000BF
:1001400000000000000000000000000000000000AF
:10015000000000000000000000000000000000009F
:10016000000000000000000000000000000000008F
:10017000000000000000000000000000000000007F
:10018000000000000000000000000000000000006F
:10019000000000000000000000000000000000005F
:1001A000000000000000000000000000000000004F
:1001B000000000000000000000000000000000003F
:1001C000000000000000000000000000000000002F
:1001D000000000000000000000000000000000001F
:1001E000000000000000000000000000000000000F
:1001F00000000000000000000000000000000000FF
:10020000DFF80CD000F03CF8004800473908000047
:10021000482400200648804706480047FEE7FEE7DE
:10022000FEE7FEE7FEE7FEE7FEE7FEE7FEE7FEE7A6
:10023000590300000102000040EA01039B0703D0BC
:1002400009E008C9121F08C0042AFAD203E011F815
:10025000013B00F8013B521EF9D27047D2B201E0D7
:1002600000F8012B491EFBD270470022F6E710B5BB
:1002700013460A4604461946FFF7F0FF204610BD14
:10028000064C074D06E0E06840F0010394E80700E3
:1002900098471034AC42F6D3FFF7B6FF00160000C3
:1002A0002016000070B5144CD4F80001002628B1C7
:1002B000D4F80403C00701D0C4F80061D4F80C01DD
:1002C0000E4D40B1D4F80403000704D5C4F80C6106
:1002D000286900B18047D4F8100100280BD0D4F869
:1002E0000403C00607D5C4F81061E868002802D0EE
:1002F000BDE87040004770BD001000400C000020B9
:100300007CB5144C606A01902078002821D001202F
:1003100000F0FBF8656800266660012000F006F931
:10032000E169002915D0E80703D08DF80060684620
:100330008847A80705D501208DF80000E1696846C7
:100340008847680705D502208DF80000E1696846F6
:1003500088477CBD0C00002010B54FF08052002370
:10036000D2E94C100D2906D18C07C4F80C31C4F821
:100370001031534C23600D2955D1524B1B68524C00
:100380002360504B1B1D1B68241D23604D4B0833FD
:100390001B68241D23604B4B0C331B68241D2360FA
:1003A000484B10331B68241D2360464B14331B68D5
:1003B000241D2360434B18331B68434C20342360B7
:1003C000404B1C331B68241D23603E4B20331B68AD
:1003D000241D23603B4B24331B68241D2360394BB1
:1003E00028331B68241D2360364B2C331B68241DC7
:1003F0002360344B30331B68334C40342360314B23
:1004000034331B68241D23602E4B38331B68241D96
:1004100023602C4B3C331B68241D2360294B403345
:100420001B68241D23600D2906D128480168C907CF
:1004300002D06FF0010101602548016841F47001AC
:100440000160BFF34F8FBFF36F8FD2E94C104FF0B5
:1004500010220D2907D130B1012804D0D2F80802AA
:10046000174920310860D2F80002002803DBD2F8D7
:10047000040200281FDA012000F010FD1221C2F84A
:10048000001214480368002BFCD0C2F80412016863
:100490000029FCD0002000F001FDBFF34F8F0C4875
:1004A0007C3801680C4A01F4E06111430160BFF33C
:1004B0004F8F00BFFDE70A490848086010BD0000E3
:1004C000380500400404001020C50040000400402E
:1004D00088ED00E000E401400400FA050090D0033C
:1004E000540000200148006800470000040000207C
:1004F000002809DB00F01F02012191404009800023
:1005000000F1E020C0F88012704700280DDB00F0F9
:100510001F02012191404009800000F1E020C0F855
:100520008011BFF34F8FBFF36F8F7047002809DB37
:1005300000F01F02012191404009800000F1E020FD
:10054000C0F800117047002809DB00F01F020121EC
:1005500091404009800000F1E020C0F8001270478F
:100560004907090E002804DB00F1E02080F80014A0
:10057000704700F00F0000F1E02080F8141D704774
:1005800002E008C8121F08C1002AFAD1704770475C
:10059000002001E001C1121F002AFBD17047006852
:1005A00090FAA0F000BA00BA7047000072B609488D
:1005B0000068C00700D000BEBFF34F8F0548E43885
:1005C0000168054A01F4E06111430160BFF34F8FF8
:1005D00000BFFDE7F0ED00E00400FA050EB50021D4
:1005E0000091CDE901106A4644F20100FFF7DEFFF9
:1005F0000EBD00002DE9FC410646C0074FF0000586
:100600000ED0104F00240122385D009500231146C2
:10061000019500F0E7FB641C042CF4D300F01CF8F7
:10062000B0070DD5074E0024361D0022305D032390
:1006300000951146019500F0D5FB641C042CF4D301
:10064000BDE8FC81F81500000249085C012100F0BA
:1006500012BC0000F815000010B500242046FFF77A
:10066000F3FF641C042CF9D310BD006890FAA0F0CD
:1006700000BA704770B50F4DA8680F4CC4F800025F
:100680000E486969C07C88470E490D480860002102
:10069000C4F8101101202061D4F81021002AFBD0E9
:1006A000C4F81011A96841F00401C4F80012606098
:1006B00070BD00000C00002000100040A4000020CD
:1006C00086030020041500404FF080400021C0F850
:1006D00000110121C0F80010D0F800110029FBD052
:1006E0007047000010B51CA08AB0006808901BA0DD
:1006F0001BA100680990D1E90001CDE9060118228B
:1007000019496846FFF798FD00208DF81400032072
:100710008DF813000124154801908DF808408DF8DC
:100720000140684600F052F9002812D108A800F0F4
:1007300017FA00280DD109A800F024FA002808D1E2
:10074000082106A800F030FA002802D108480470F9
:1007500000200AB010BD0000E7E7E7E7C2C2C2C24E
:10076000E7C2C3C4C5C6C7C8E0150000CD08000075
:100770005800002010B50D4C012020706070A07052
:10078000E070FFF737FF21780D2000F061FB617802
:100790000E2000F05DFBA1780F2000F059FBE178FE
:1007A000BDE81040102000F053BB00000000002006
:1007B00070B500F06DFD1E490020A1F5947300BFD7
:1007C00000EB800202EB40121A4441F82020401C4A
:1007D0000828F5DB164900202C3101F5947200BF82
:1007E00000EB800404EB40140C4442F82040401C11
:1007F0000828F5DB00200F4A4FEA000100EB8004D7
:1008000004EB4014E51800EB4004401C42F824506F
:1008100002EB840408282171A160EFDB054A002067
:1008200012F1600242F82010401C0828FADB70BD6B
:10083000E4010020A8030020FFF79CFFFFF752FF10
:1008400008B1FFF7CBFEFFF73FFF00F0F3F908B167
:10085000FFF7C4FE0A480178427841EA42018278F3
:10086000C078920042EAC00001430648417100F09E
:1008700021FA08B1FFF7B2FE20BF40BF20BFFBE75F
:10088000000000205800002070B50C494FF4705053
:1008900008600B4C00256570257000F0F9FC2021E4
:1008A0000848FFF7E2FCE56214202563FFF72DFE00
:1008B00005490320C1F80002002070BD08F5014081
:1008C0000C000020280400200010004010B5007823
:1008D00000285ED0012814D002285AD12D4800F0FB
:1008E000FBF80028FAD02B482B4C407900F00F0081
:1008F00001280AD0022810D004283AD0082813D1A1
:100900003FE0BDE8104000F049B8207818B1002160
:1009100021700D2006E00121FAE7607838B300214C
:1009200061700E2000F094FA21780D2000F090FA0A
:1009300061780E2000F08CFAA1780F2000F088FA80
:10094000E178102000F084FA124801212538017066
:1009500021786278E37841EA4201A278920042EA83
:10096000C30211434171BDE8104000F0A3B9012159
:10097000D6E7A07818B10021A1700F20D2E701219D
:10098000FAE7E07818B10021E1701020CAE70121F0
:10099000FAE710BD7D00002000000020094810B5D6
:1009A000007860B10120FFF7B0FD074800218162A7
:1009B000016241620120FFF7B9FD002010BD08204F
:1009C00010BD00000C000020E401002070B50500FF
:1009D00065D0354C207818B1FFF756FF00285DD15F
:1009E0006868E061182229463048FFF725FC002599
:1009F000656020212E48FFF738FCE562256300F092
:100A000077FDE8B32B494FF0E7300860091D4FF040
:100A100043300860091D28480860091D2748086000
:100A2000FFF7C6FE264904200860254808380560FF
:100A3000244840F20221C0F80012244A22491160E1
:100A4000111D08602048001D091D08601D48103058
:100A5000091D0860091D1E4808601B48F038091D63
:100A600008601B48001D091D0860091D1948086021
:100A70000E4E707C00F007010120FFF771FD00E0D1
:100A80000FE0B07C00F007011420FFF769FD14208F
:100A9000FFF74CFD657001202070002070BD0E2016
:100AA00070BD072070BD00000C000020A4000020D5
:100AB000280400201C150040E743C323A363E3136D
:100AC00010A5004000A000400011004060F501406A
:100AD00040A100400010004070B505461E48007857
:100AE00080B385B31D4CA06A70B30120FFF70DFDE4
:100AF000606A54F820100A782A7054F82010497857
:100B0000697054F820108978A97054F82010097978
:100B1000297154F82010C978E97054F82010681D24
:100B2000491DFFF789FB606A401C6062082801D3F9
:100B300000206062A06A401EA0620120FFF7F6FC60
:100B4000002070BD01E002E003E00820F9E70E207C
:100B5000F7E70520F5E700000C000020380300202F
:100B6000074910B54A780AB1112010BD30B10068AC
:100B70004863012000F070FC002010BD0E2010BD65
:100B80000C000020074910B54A780AB1112010BDA9
:100B900030B100688863022000F05EFC002010BDC8
:100BA0000E2010BD0C00002010B50C460F494978EE
:100BB00009B1112010BD18B1082C03D9072010BDB0
:100BC0000E2010BD0146094822463C30FFF734FB99
:100BD0000648C4F108023430FF210474D140817406
:100BE000042000F039FC002010BD00000C000020A3
:100BF0000E4810B50078A0B10D4CA06A98B1012044
:100C0000FFF783FCA06A401EA062606A401C60621D
:100C1000082801D3002060620120FFF787FC002034
:100C200010BD082010BD4FF4807010BD0C000020D6
:100C3000E401002070B51A48417809B1112070BD57
:100C4000184C4FF0FF31C4F808130025C4F81051B8
:100C50001549C160816841F00401C4F800121021F7
:100C6000C4F80413042141700D48104A3430817CCB
:100C700011600E49C07C28390860091F0C480860C3
:100C800001209434FFF734FC0120FFF74FFC256767
:100C90006567E567012044F8900C002070BD0000F6
:100CA0000C00002000100040B50E00003015004080
:100CB000860300202DE9F047DFF818A106469AF8D0
:100CC000000040B156B1307868B120280BD8424FAF
:100CD000397829B109E00820BDE8F0870E20FBE74C
:100CE000F97C884201D90920F6E73C4CA06A082823
:100CF00001D30420F0E77078082801D30720EBE740
:100D00000120FFF702FCDFF8CC8078784FF0000973
:100D100008F12C0860B13249002000BF00EB40020E
:100D200001EB82021279EAB1401C0828F6DB42E0AE
:100D3000206A2522314654F82000FFF77DFA7278A8
:100D400018F80210491C01F0030108F80210206A8B
:100D500054F82020401C08281171206228D3C4F8C0
:100D6000209025E000EB400011EB800523D001200E
:100D70002871C5F80890252231462868FFF75CFAEB
:100D8000727818F80210491C01F0030108F80210EB
:100D90002868134A01717178603252F8210018B93D
:100DA00042F8215004E0084681680029FBD18560A3
:100DB000A06A401CA0620120FFF7B8FB787830B928
:100DC000387C20B99AF8010008B900F0BBFA00207D
:100DD00082E700000C000020A4000020E4010020B5
:100DE000A80300202DE9FF411C46DDE90A781546DD
:100DF0000E46684600F01EF846EA450141EA8401C5
:100E000041EA072242EA0841009A00EB8200C0F85A
:100E10000017BDE8FF8100000168202902D24FF0D1
:100E2000A040704701F01F010160014870470000B9
:100E3000000300500168202902D24FF0A040704703
:100E400001F01F01016001487047000000030050DD
:100E500038B501240090684631B1FFF7DDFF0099F5
:100E60008C40C0F8084538BDFFF7D6FF00998C408C
:100E7000C0F80C4538BD38B501240090684631B142
:100E8000FFF7D8FF00998C40C0F8084538BDFFF740
:100E9000D1FF00998C40C0F80C4538BD034908606B
:100EA000034801680029FCD07047000004E50140B8
:100EB00000E401402DE9F05F61480022012700684D
:100EC00018B16048806A082803D3BDE8F05FFFF7D7
:100ED000D1BBDFF86C9109F10809D9F80000594934
:100EE000F03101EB800509F104010C68554B2E88A7
:100EF0004E33B442587805D1AC78B4EB500F01D1E1
:100F0000012200274008A87008689B4628804E48A8
:100F1000DFF838A1017D19B19BF80110C90710D085
:100F2000DAF808104A4B41F00801C3F800124749AB
:100F3000444C0078496900262C34A8B301285BD1C1
:100F400002E0FFF797FB64E0DFF808E1DEF828C075
:100F5000BCF1000F42D0D9F800804B460EF5097065
:100F600050F82880B8F1000F38D01B68D04650F8F0
:100F700023301B68CAF81830EB78012B1DD1E2B979
:100F8000D9F80020BCF1010C50F822301E7150F845
:100F900022309B6840F82230CEF828C005D023B11B
:100FA0001868C8F8180002E020E0C8F81860D8F8FF
:100FB000040040F00100C8F80400D8F8180068B137
:100FC0000122EA7000788847D8F818100878207055
:100FD00011F8052BA01CFFF72FF903E0EE7000209D
:100FE000884726709BF80100607005E00020884764
:100FF0009BF800002070667005218AF80110D9F86E
:101000000010154A1160144928390C601349CAF8B8
:101010000C10002F12D0A978D9F80000C0B200F04F
:1010200045F900280AD0DAF8041041F00401CAF8A2
:101030000410BDE8F05F1420FFF785BABDE8F09F0B
:101040000014004038030020A40000200C00002001
:1010500000100040E40100202C1500406110000049
:1010600010B5094CA068094940F00400C1F800021D
:1010700007486169C07C88470749064808600748F7
:10108000E0600420607010BD0C00002000100040E3
:10109000A40000208603002004150040B50E0000C7
:1010A00070B5164CA068164AC2F80002A06A15492D
:1010B0000860154B091D9889823808601348012182
:1010C00040F80C1F0021C0F83411C0F83811104D41
:1010D0004FF4E050286050142D1D2860C2F80C1108
:1010E000187810B96169002088470B4909480860E1
:1010F0000A48E0600320607070BD00000C00002012
:101100000010004040A50040A400002000A00040C6
:1011100004F5014086030020041500405D11000025
:1011200010B50C4C606840F001006060FFF760FD96
:101130000948806A30B11420FFF705FABDE8104075
:1011400000F000B900206070BDE810401420FFF7E7
:10115000FAB900000C000020E40100202DE9F0475E
:10116000414A4FF4E05010604049D1F80C31DFF8AB
:10117000009100273F4CB9F80E004E14DFF8F880BC
:101180000125E3B33D4B1B68CBB325611660D8F84E
:10119000041041F00101C8F80410D8F82010401ADA
:1011A000401CC8F82400FFF723FD99F8000088B11F
:1011B00009F2E220017869B14078410830480068BE
:1011C000C0B200F073F828B1D8F8040040F0040071
:1011D000C8F804002B48806A50B199F81000012823
:1011E00006D01420FFF7AFF9BDE8F04700F0AAB829
:1011F00088F80170BDE8F0471420FFF7A4B9D8F8CB
:1012000020C0BCF1010CC8F820C00BD225611660CB
:10121000401CC8F82400D8F8040040F00200C8F8C8
:101220000400E5E7D8F808000F4640F00802C1F8CE
:101230000022D8F81800D8F8141000788847104811
:101240001149283801601148C8F80C00022088F8BC
:10125000010025600448001F0660D4F844010028FE
:1012600000D03D60BDE8F08708F501400010004067
:10127000A400002000A000400C000020001400404A
:101280002C150040E401002064030020A1100000A0
:101290000549002008624862886201F5AA71086267
:1012A0004862886270470000E40100202DE9F041A7
:1012B000224C07468846A06A08283DD2A4F525712D
:1012C00020460A780026006A01F2E225012A03D0AE
:1012D0004A7842B1C97C02E0297820292CD854F8F8
:1012E0002020117002E054F820100E7054F82000F5
:1012F000A91C10F8052BFEF79FFF206A54F8201058
:101300004F700F49096854F82020917054F820203C
:1013100082F80480697854F8202041F30001491CC8
:10132000401CD1702062082800D32662A06A401CAD
:10133000A0620120BDE8F0810020FBE73803002017
:10134000481500402DE9F05F3D4C4FF00108C4F80E
:1013500024803C48DFF8F0A0A0F5A077416A3B4D1F
:101360004FF0000B50F82110A161387807F5307666
:1013700010B1012843D10DE0087861698847A1695F
:101380000879307086F801B011F8052BB01CFEF713
:1013900053FF18E0C87820B3387D10B30020814691
:1013A0000878307008794006000E7070CA78D2B1A3
:1013B00000221043707011F8052BB01CFEF73CFFA3
:1013C000B9F1000F11D0A06840F00800C5F8000284
:1013D0001120C5F80403F88920620220C4F80CA08B
:1013E0000CE00120DBE70122E3E7A068C5F800027A
:1013F0001020C5F804031648E06040466070A069FC
:10140000144A417811604078444608FA00F0111DF2
:1014100008600B480F4934302439C07C0860081F2D
:1014200006600120FFF764F80120FFF77FF8C5F898
:1014300004B1C5F808B1C5F810B12C60BDE8F09F43
:101440000C000020E4010020A1100000001000406A
:10145000211100002C15004010B50446C00704D02F
:101460000F48FFF79CF80F490860A00706D50C4805
:10147000001DFFF794F80B49091D086060070DD5A2
:1014800007480830FFF7F1F80649083108600448BA
:101490000C30FFF7EAF803490C31086010BD00007A
:1014A000400000201C1500400E490F480A7A0260D7
:1014B0000E48492352B1012A05D0032A06D0042A36
:1014C00001D0002070473022826200E083628B8965
:1014D000826A3E32934202D2806A3E308881012085
:1014E00070470000A4000020101500400C000020F0
:1014F00070B500F03FF8FFF7D7FF1849184A0B788E
:101500007BB1012B0BD00023034016484D7A041FFA
:10151000B5B1012D0ED0022D07D0002417E0124BDB
:1015200000E0124B53610123EEE74FF6FF760660B1
:101530000F4803E0FF26066040F20710206002E03B
:101540000026066026600748083805600124C87C2C
:1015500051691C408847204670BD0000A40000204F
:101560000C0000203C150040B51500008915000056
:101570002110010002480349807A0860704700008A
:10158000A40000200C150040084A074911600849D2
:10159000497C491E090441EA0021014341F0807061
:1015A000111D086070470000000101001415004083
:1015B0004000002007490648086007480749407C6A
:1015C000401E41EA00400349091D086070470000C1
:1015D0000600030014150040400000202000000118
:1015E000010000000000000001020000FA000300FA
:1015F00000010220000000000D0E0F100B0C181946
:1016000020160000000000205800000080050000A7
:101610007816000058000020F0230000900500001C
:1016200000000000000000000000000000000000BA
:101630000000000013010000000000000000000096
:10164000000000000000000000000000000000009A
:10165000000000000000000000000000000000008A
:10166000E7E7E7E7C2C2C2C2E7C2C3C4C5C6C7C88C
:081670000805FF020090D00301
:0400000500000201F4
:00000001FF
