:020000040000FA
:10000000909A0020F90200000103000003030000A1
:1000100005030000070300000903000000000000C2
:100020000000000000000000000000000B030000C2
:100030000D030000000000000F030000110300008A
:1000400013030000130300001986000013030000CF
:100050001303000013030000130300001303000048
:100060001303000013030000130300001303000038
:1000700013030000B5830000130300001303000006
:100080001303000013030000130300001303000018
:100090001303000013030000130300001303000008
:1000A00013030000130300001303000013030000F8
:1000B0001303000013030000000000000000000014
:1000C00013030000130300001303000013030000D8
:1000D00013030000130300001303000013030000C8
:1000E0001303000013030000D10300000000000010
:1000F00000000000130300000000000013030000D4
:1001000000000000000000000000000000000000EF
:1001100000000000000000000000000000000000DF
:1001200000000000000000000000000000000000CF
:1001300000000000000000000000000000000000BF
:1001400000000000000000000000000000000000AF
:10015000000000000000000000000000000000009F
:10016000000000000000000000000000000000008F
:10017000000000000000000000000000000000007F
:10018000000000000000000000000000000000006F
:10019000000000000000000000000000000000005F
:1001A000000000000000000000000000000000004F
:1001B000000000000000000000000000000000003F
:1001C000000000000000000000000000000000002F
:1001D000000000000000000000000000000000001F
:1001E000000000000000000000000000000000000F
:1001F00000000000000000000000000000000000FF
:10020000DFF80CD000F0D2F8004800472190000041
:10021000909A002030B4044654E8000F0D4644E89C
:100220000053002BF8D1156030BC704730B4044641
:1002300054E8000F40EA010544E80053002BF7D1D1
:10024000156030BC704730B4044654E8000F00EA33
:10025000010544E80053002BF7D1156030BC70470E
:1002600030B4044654E8000F80EA010544E8005326
:10027000002BF7D1156030BC704730B4044654E809
:10028000000F00EB010544E80053002BF7D1156087
:1002900030BC704730B4044654E8000FA0EB0105B1
:1002A00044E80053002BF7D1156030BC704770B4A0
:1002B00004464FF0000054E8006F0D68AE4207BFDF
:1002C00044E80023012044E800630E60002B1CBFBB
:1002D0000020F0E770BC704730B4044654E8000FCB
:1002E00088422CBF451A054644E80053002BF5D13F
:1002F000156030BC7047000006488047064800473C
:10030000FEE7FEE7FEE7FEE7FEE7FEE7FEE7FEE7C5
:10031000FEE7FEE73D840000010200000048704750
:10032000E4B8000010B5441A0346944209D2841878
:10033000114403E011F8013D04F8013D521EF9D2C9
:1003400010BD40EA0104A40703D009E010C9121F40
:1003500010C3042AFAD203E011F8014B03F8014B51
:10036000521EF9D210BDD2B201E000F8012B491E95
:10037000FBD270470022F6E710B513460A46044642
:100380001946FFF7F0FF204610BD421C10F8011B74
:100390000029FBD1801A7047034611F8012B00F8A1
:1003A000012B002AF9D1184670470000064C074D72
:1003B00006E0E06840F0010394E807009847103435
:1003C000AC42F6D3FFF720FFACEC0000CCEC000011
:1003D0000B490C4B0C4A4FF0FF3008601B68BFF311
:1003E0005B8F52E8001F42E800300028F9D1BFF3CC
:1003F0005B8F9942F3D1BFF35F8F044A136070475C
:1004000004BA025000BA0250887A002008BA02509A
:100410009942F0B50DD801EB03044FEA540467D3B9
:10042000002C7DD04FF0000C171F2146051F62469F
:1004300032E003F1804C0CF1FF3C051F002600EB7D
:100440008C0C05EB810E34465CF8047FE64546EAE9
:100450000706F9D116F1FF3744F1FF3C6FEA0C0CA7
:1004600099420CF0010C3ED201F1804E0EF1FF3E9C
:10047000171F02EB8E0507EB830355F8042FAB42E1
:1004800046EA0206F9D116F1FF3644F1FF32D243B3
:1004900002F0010291B3051F002305EB810E2846EF
:1004A0003C46194650F8046F54F8045FAE4218BF3A
:1004B000002103F0010318BF002388BF41F00101B0
:1004C00038BF43F001038645ECD1A9B182F00100A9
:1004D000BCF1000F00D108408CF0010402B91C40AF
:1004E00000EB4400F0BDC3B1171F19460022D3E74B
:1004F00000263446B446B7E7002BE7D1BCF1000F25
:1005000003D132B160461446EAE782F001000023CD
:10051000E2E7104613461446E1E760461C46DEE774
:1005200020462346DBE700BFF0B4441831B114F88D
:10053000015D4E1E15B931460029F8D1D41833B1EA
:1005400014F8015D5E1E45B93346002BF8D10D1E2F
:1005500018BF01252846F0BC70478B4222D325D80E
:100560004C1EA64228BF2646002E23DB01369419D6
:100570000025821904E0012D38BF012590420BD0DF
:1005800012F8016D14F8017DB742F4D3F6D9002DAD
:1005900008BF02259042F3D18B4218BF00252846A0
:1005A000F0BC704701252846F0BC7047022528465C
:1005B000F0BC70470025EFE788420CD030B41346FA
:1005C0006FF04045033305EB9303002540F82350BB
:1005D00030BC07F053B87047814202D0920007F058
:1005E0004DB8704730B40AB300B3DBB113F0030564
:1005F00018D18B4216D3A9B1904208D002D9134426
:10060000984217D3904202D243189A4212D9114409
:10061000431E11F8014D03F8014F8A42F9D12846D3
:1006200030BC7047044D284630BC7047034D284607
:1006300030BC7047024DF6E7050DF000040DF000E8
:10064000060DF000002A48D02DE9F04104460028AC
:1006500045D015465A1E053234D811F0030631D163
:100660008B422FD8CF1C27F003028A4232D8A2EB4C
:10067000030840441A46294607F000F84146204640
:100680004FEA970806F0FEFFB8F1010F1DD0FF08F2
:1006900004EB87000438231F04EB880553F8042F6C
:1006A00055F8041D12BA09BA834219602A60F5D1BF
:1006B00018F0010007D054F827301BBA44F827304F
:1006C000002000E00748BDE8F08123681BBA3046EF
:1006D0002360F8E70448BDE8F08104487047034808
:1006E000F1E700BF050DF000090DF000040DF0006A
:1006F0004218084630B112F8013D411E1BB90846A8
:100700000028F8D170471A064FEAC00018D45906DD
:1007100000F1FF3215D49906A0F1020211D4D906D6
:10072000A0F103020DD41907A0F1040209D459075E
:10073000A0F1050205D49B07A0F1060201D40738F9
:1007400070471046704700BFA1B100EB810001E087
:1007500001390FD050F8043D002BF9D04801A0F129
:10076000200202E00138904206D0002B4FEA4303FA
:10077000F8DA704708467047704700BF3AB10A443C
:10078000013812F8013D00F8013F8A42F9D10020FA
:10079000704700BF2DE9F04F83B01446DDE90E8AA3
:1007A000DDE90C29DDF840B0002C6BD01D46002B94
:1007B0006DD0092A019255D84B4B0F4629689942B2
:1007C00004D04A4A104603B0BDE8F08F064640F612
:1007D000CC01204606F056FF454B019A9B5CBBB30B
:1007E000444BC4F8642403EBC20133F83220496857
:1007F000C4F86024052905D804F54C7000F088FD84
:100800000246A0BB4FF44C722946204606F034FF46
:10081000394A384BC4F8CC28B9F1000F39D0B8F1B7
:10082000005F0BD2D4F8642403EBC2035B68052B92
:1008300039D9D4F86034B8EB830F4DD020464FF44B
:100840000D6106F01FFF2D4A104603B0BDE8F08F82
:1008500020464FF40D6106F015FF294A104603B0FB
:10086000BDE8F08F264A104603B0BDE8F08F204661
:100870004FF40D61019206F005FF019A104603B096
:10088000BDE8F08F1F4A104603B0BDE8F08F1E4A46
:1008900098E7B8F1000FC5D020464FF40D6106F07F
:1008A000F1FE1A4A8EE74246494604F54C7000F0C4
:1008B00093FD02460028DAD14FF0000C0125534683
:1008C0003A4631462046CDE90D5CCDF830B003B054
:1008D000BDE8F04F07F09CB94246494604F58460F4
:1008E00006F0CAFEE8E700BF020000EC5808F0007E
:1008F000DCCC00008CCC0000030000EC5508F000BC
:100900005308F0005108F0005208F0005408F000BD
:100910002DE9F04F85B000286DD00F4600296FD02B
:10092000092A154651D80A681E46784B9A4204D0C7
:10093000774D284605B0BDE8F08F40F28452002183
:10094000044606F09DFE734B5B5D002B38D0DFF84C
:10095000F081C4F8A85408EBC50238F83530516866
:10096000C4F8A434052906D804F55D7000F0D0FC65
:100970000546002836D139464FF45D72204606F010
:100980007BFE654BC4F884350F9B002B3AD0109B3F
:10099000B3F1005F80F0AD80D4F8A83408EBC30257
:1009A0005268052A16D938F83330109AB2EB830F03
:1009B0002DD020464FF4B16106F064FE574DB8E7E4
:1009C00020464FF4B16106F05DFE554D284605B056
:1009D000BDE8F08FDDE90F1204F55D7000F0FCFC5E
:1009E0000546C8B120464FF4B16106F04BFE2846DB
:1009F00005B0BDE8F08F4B4D284605B0BDE8F08F3F
:100A0000494D96E7109B002BC6D0484D91E70F99B2
:100A100004F2644006F030FE3F4BD4F884259A423D
:100A200062D1002E6FD0D4F8A834092BCDD8D4F8D9
:100A300050830E9A08F10707FF08B2EB470F60D109
:100A4000042B04F2644A08D8514604F55D7000F0A6
:100A500013FC054600287FF46CAF08F11F056D09F3
:100A600004F2AC4BD4F8A4240392E90058464FEAB0
:100A700085080BEBC50906F005FE4146484606F021
:100A800001FED4F85013039A0BEB8503B1EB421F20
:100A9000029330D20A464846514602F017F8A8F1B0
:100AA00004084FF0000A3A4631464BF808A0584671
:100AB000FFF764FE029BF11943F808A01E463A4670
:100AC0001846FFF75BFE5B462A4649460096201D06
:100AD00002F024F8164B051E4FF4B161204618BFF2
:100AE0001D4606F0CFFD24E7124D284605B0BDE8AF
:100AF000F08F0A4D1DE7920051464846FFF73EFE33
:100B0000CDE70D4D15E70D4D13E700BF010000ECDB
:100B10008308F000DCCC0000040000EC8108F00049
:100B20007308F0007108F0007208F0008008F0000F
:100B30008408F0008208F0007708F0007608F000E2
:100B40008CCC00002DE9F04F83B060B30C4651B35C
:100B5000174642B31E4633B30E9B23B30C9B13B30D
:100B60000D9B002B37D0054601F024FA2168426A1C
:100B7000B1EBC20F81464FEA820A4FEAC20B2DD376
:100B8000326852452AD3DDE90C030E9A1FFA8AF126
:100B90009847804668B10E98514606F073FD40466E
:100BA00003B0BDE8F08FDFF84080404603B0BDE8F9
:100BB000F08F0E9B03F1200200924B460E9A2946BD
:100BC000384601F0FBF980460028E4D1C4F800B0B3
:100BD000C6F800A0DFE7DFF81480E0E7DFF8108058
:100BE000404603B0BDE8F08F0023F0000523F0007D
:100BF0000123F000F0B583B0099F98B116468AB181
:100C00001C467BB1089B6BB167B10A9B53B123684B
:100C10003F2B04D93B681F2B01D9202905D00C4854
:100C200003B0F0BD0B4803B0F0BD054601F0C2F9BA
:100C30000A9A009203462A460898314601F0BEF906
:100C40000028EDD14022202322603B60E8E700BF6E
:100C50000123F0000023F0002DE9F04782B0002AC4
:100C600037D01E46002B34D0804690B30F4681B358
:100C70000A9B73B30C9B63B30B9B002B43D01446AE
:100C800001F0FEFA3268D0F88C30B2EB830F4FEAF5
:100C9000830A3AD33B68534537D3436A0A981FFA0D
:100CA0008AF122464FEA83090B9B98470546A8B173
:100CB0000C984FF4B07106F0E5FC4946404606F04A
:100CC000E1FC2046514606F0DDFC284602B0BDE8B6
:100CD000F087104D284602B0BDE8F0870C9BC7F89E
:100CE00000903946009322465346404600F018F8DB
:100CF00005460028DCD10C98C6F800A04FF4B0716E
:100D000006F0C0FCE6E7044DE4E7044D284602B0D7
:100D1000BDE8F0873023F0000523F0003123F00018
:100D20002DE9F04F85B00E9F002854D00C460029C5
:100D300051D01646002A4ED0002F4CD09A46054678
:100D400001F09EFA2268416AD0F88C30B2EB810F34
:100D500080464FEA81094FEA830337D39A4535D15C
:100D6000AAF1040B524631463846FFF725FC57F8E6
:100D70000B303A68CDE9012323F0404343F0804330
:100D800047F80B303B6807F1200A23F007033B606C
:100D90005046434608F12802394601F08DFC039085
:100DA000F0B1174BBE4205D038464946019306F0D4
:100DB00069FC019B55450AD050464946019306F00F
:100DC00061FC019B184605B0BDE8F08F0D4B18463D
:100DD00005B0BDE8F08F0C4B184605B0BDE8F08FAC
:100DE0000199029B396047F80B305146D8F824200E
:100DF0002846FFF7F1FB039BC4F80090D2E700BF41
:100E00003423F0003123F0003023F0002DE9F043CB
:100E100083B0002955D01D46002B57D0044600282A
:100E200056D0D0F8B832B3F5107F28D81646D0F88F
:100E3000BC2201339A4222D807324FEAD2081EB3AD
:100E4000464521D805F104090A46484633464C2157
:100E5000FFF7F8FB074650BBF11C46454FEA9101EE
:100E600017D04846FFF770FC08B321464FF437729D
:100E700005F1500006F000FC164B2B6000E0164F09
:100E8000384603B0BDE8F083144F384603B0BDE8E0
:100E9000F083D4F8BC3201911F33C3F34F1304F134
:100EA000D8024846FFF7B4FA02280199D9D028465B
:100EB0004FF44C7106F0E6FB094F384603B0BDE82D
:100EC000F083084F384603B0BDE8F083064FD7E7FC
:100ED000064FD5E7020000EC9508F0000B08F00083
:100EE0000C08F0000908F0000A08F0000208F00001
:100EF000F0B10B46F1B110B50F4904688C4211D125
:100F000092B1D0F80C4311680734B1EBD40F0DD374
:100F1000021D18464C23FFF765FB084B002818BF3D
:100F2000184610BD064810BD064810BD064810BD45
:100F30000648704706487047020000ECC508F000FC
:100F4000C208F000C308F000C408F000C008F000B8
:100F5000C108F0002DE9F04383B0019300283DD093
:100F60001646002A67D002681F46354B9A4204464F
:100F70001BD18FB3052914D0072912D8D0F84C33D0
:100F8000C56C21F0020203F10709042A03F11F03D3
:100F90004FEAD9094FEA531305F0010522D002297F
:100FA00007D0284803B0BDE8F083274803B0BDE868
:100FB000F0833A6809F1010842453ED3304645F0D6
:100FC000020500F8015B9B00221D4946FFF70AFB62
:100FD00048BBC7F80080E5E71C48E3E71C4803B0BE
:100FE000BDE8F0833A684FEA490808F10108424534
:100FF00023D3042930460CBF0D4645F006059B005F
:1010000000F8015B221D49460193FFF7EBFA50B946
:1010100009F10100019B04F14C0230444946FFF7FD
:10102000E1FA0028D5D03046396806F02BFB0023C2
:1010300008483B60B6E70848B4E70848B2E700BF95
:10104000010000EC1508F0001A08F0001708F00085
:101050001408F0001B08F0001608F0001808F00053
:101060002DE9F04782B0DDE90A98002A5CD01D46E0
:10107000002B5ED0B9F1000F5DD0B8F1000F5CD04D
:10108000074600285BD08A46002948D014461846F7
:101090004FF44C7106F0F6FA4FF45D71484606F0D5
:1010A000F1FAD4F8BC621F367609B200013E04F1B1
:1010B000D801404605EB860606F0DEFA0023736091
:1010C0002B1DD4F8BC22009351463846434600F00D
:1010D000F7FB0646C8B128464FF44C7106F0D2FA29
:1010E00048464FF45D7106F0CDFA0C9B23B140F6F3
:1010F0006811184606F0C6FA40464FF4537106F0E0
:10110000C1FA304602B0BDE8F087204643464A4661
:10111000294601F0C9FD06460028E6D0DBE7094E66
:10112000304602B0BDE8F087074E304602B0BDE859
:10113000F087064EE5E7064EE3E7064EE1E7064E8A
:10114000DFE700BF9008F0000208F0000308F0009D
:101150000408F0000508F0009108F0000B2804D8FE
:10116000034B53F8203003B118470020704700BFED
:101170005CCC0000F0B5BDB004460E466846F021D8
:1011800017461D4606F07EFA042C2FD8DFE804F03F
:1011900030351F2E0300032300938023294A179321
:1011A000294B2A4C3994CDE93A236846A047284C6C
:1011B000A0421BD032D828B3B0F5720F3BD1254CDA
:1011C0006846F02106F05EFA20463DB0F0BD224CA4
:1011D000224A39940123009340231793204B6846F9
:1011E000CDE93A23A0471A4CA042E3D11D4CE7E7D2
:1011F000194C1A4A39940023EDE7174C174A3994D1
:101200000223E8E78FB1DEB1019BBBB93A46314614
:10121000684606F0D3FFA042E8D004D9124B9842AA
:1012200009D1124CCCE70028C6D12946684600F007
:1012300023F80446C4E74FF47504C1E70C4CBFE73C
:101240000C4CBDE7E970000021320000F9340000C9
:101250000100F2000002F000A5340000C16E0000A1
:101260009D3100000102F0000200F2000202F000D5
:101270000C02F0000302F00070B5002837D00E46D3
:10128000002937D0026E0446DAB9114601236360A3
:101290002046D4F8E8309847B0B9D4F8EC3020466E
:1012A00098470546C0B923682066032B1CD8144A0A
:1012B00004F1080152F82320304606F0DDF92846F3
:1012C00070BD00F16401E1E7A0F57203022B13D8B1
:1012D000A0F5FF35284670BDA0F57203022B0BD890
:1012E000A0F5FF35284670BD064D284670BD064D59
:1012F000284670BD054DE2E74FF47505DFE700BFF6
:1013000048C000000102F0000002F0000502F000F9
:10131000002849D038B50D46F021044606F0B2F950
:10132000042D04D8DFE805F01E2A310305001F480C
:1013300038BD1F491F4A204BC4F8E430C4E93A12B3
:10134000032580202560E065204698471B4B984286
:10135000EDD021D80028EBD0B0F5720F21D1A0F547
:10136000FF3038BD164B1749174AC4F8E430002542
:101370004020C4E93A122560E065E5E7104B1149C9
:10138000114AC4F8E4300225F2E70D4B0D490E4A2C
:10139000C4F8E4300125EBE70C4B984201D10C482E
:1013A00038BD4FF4750038BD0A4870470102F0009F
:1013B000E970000021320000F93400000100F20061
:1013C000A5340000C16E00009D3100000200F20053
:1013D0000202F0000002F0002DE9F041002853D095
:1013E000154622B30E46002961D0D0F80480044689
:1013F000B8F1000F20D1D0E91723D01AB0FBF2F7D3
:1014000002FB1707AF4228BF2F4687BB9A4224D062
:10141000B5FBF2F702FB07F747B1D4F8E8303A46DC
:10142000314620469847A0BB3E44ED1B4DB94FF0D6
:1014300000084046BDE8F081DFF88C804046BDE8FA
:10144000F081206E19302A46314604EB800006F008
:1014500013F9226E2A442266EBE7D4F8E83004F14F
:10146000640120469847A0B9E26D2066D0E704F1F8
:10147000640018443A4606F0FFF8D4E917233B44C9
:101480003E44ED1B2366C1E7DFF838804046BDE8E7
:10149000F0810B4B984210D0013398420AD0094B8F
:1014A000B0F5720F14BF4FF475089846C1E7DFF826
:1014B0001C80BEE7DFF81880BBE7DFF81880B8E7CC
:1014C0000100F2000002F0000C02F0000302F00044
:1014D0000202F0000102F0002DE9F84300284FD08D
:1014E0000E461446054639B1302A01D8930723D059
:1014F000264F3846BDE8F883002A45D1DFF8A080A2
:101500004FF0FF31D8F8000006F0DCF8074648BB82
:10151000402105F1840006F0B5F8A408D8F80000D1
:10152000C5F8C44006F0E8F80028E2D0184806F0F4
:1015300031F83846BDE8F883DFF864804FF0FF31BA
:10154000D8F8000006F0BEF8074678B905F184091E
:101550004846402106F096F831464846224606F0B5
:101560008BF8DAE70B4806F015F8D1E7094805F1E2
:10157000840906F00FF84846402106F083F8EBE7AF
:10158000054F3846BDE8F883044FB2E7040CF0007D
:10159000D8BF0000C0BF0000250CF000030CF00015
:1015A000909A00202DE9F04F9DB0002800F03B817B
:1015B0001646002A00F03D810D4621B98B4658465B
:1015C0001DB0BDE8F08FB14F04464FF0FF313868D1
:1015D00006F078F8002840F01981AD4BD4F8DC20F3
:1015E0009A4216D0DFF8B8B22946304606F04AF8DB
:1015F000D4F8C430002B40F00D81386806F07CF838
:101600000028DCD0A34805F0C5FF58461DB0BDE852
:10161000F08FD4F8D430DA0740F10E81D4F8CC3012
:10162000113300F20F81D4F8D080B8F1040F05D047
:10163000B8F1080F02D0DFF86CB2D5E7D4F8C420B7
:101640000C2A00F2FC8004F14003029304F1840AA6
:10165000002A00F0FD809200514604F1480006F097
:101660000BF8D4F8C420029908F104039B000093FE
:1016700092005346204606F0D7F883460028B3D19F
:10168000034622465146204606F086FA8346002845
:10169000AAD104EB88090122D9F80C301BBA9B1897
:1016A0001BBAC9F80C304FEA880B16D3D9F80830AA
:1016B0001BBA9B181BBAC9F808300ED3D9F80430EE
:1016C0001BBA9B181BBAC9F8043006D354F828304B
:1016D0001BBA13441BBA44F82830002309A8194642
:1016E000032205F02BFE002840F0AF8001460823BE
:1016F00007AA09A8CDE9074B05F078FE002840F0BD
:10170000A480494609A805F059FE002840F09D80B4
:10171000614AD4F8D4301A4200F0A2802B0915F0A7
:101720000F0B049300F0998001330493CDF80CB0B3
:101730005B469D420DD0EA1A11463046059205F0EF
:10174000A1FF059A3346314609A805F045FD00285A
:101750007BD104F1300B10220298594605F08CFF22
:101760005846102105F08EFF102306A90191CDF8EF
:1017700000B009A85A461946069305F06BFD0028EB
:1017800063D1039AA81A3044594605F075FFD4F87E
:10179000D430DB0509D45A460298049B314602F046
:1017A0005BFA834600287FF41FAFD9F80C30049A07
:1017B0001BBAD3181BBAC9F80C3017D3D9F80830A4
:1017C00001221BBA9B181BBAC9F808300ED3D9F8EE
:1017D00004301BBA9B181BBAC9F8043006D354F85E
:1017E00028301BBA13441BBA44F828305146012351
:1017F0002246204606F0D0F9834600287FF4F4AE56
:10180000D4F8CC300133C4F8CC30F1E6234805F0ED
:10181000C1FEE2E60023C4F8C43004F18400402194
:1018200005F030FFE9E6DFF880B058461DB0BDE8AE
:10183000F08FDFF878B0C2E6DFF874B0D4E6DFF8F6
:1018400074B0D1E6DFF870B0CEE6DFF870B0CBE66A
:101850005046402105F016FF1BE71023039368E76D
:1018600004F1300318461021039305F00BFF039B8E
:101870001022194609A805F0AFFC0028E5D1D4F8DC
:10188000D43043F48033C4F8D43047E7909A002032
:10189000CDAB2301D8BF000000010100C0BF000094
:1018A0000E0CF000210CF000270CF000000CF000F2
:1018B000080CF000040CF000070CF000360CF000EF
:1018C00030B4029D4DB1064D941EAC4202D830BCDE
:1018D00000F00CB8034830BC7047034830BC704778
:1018E000FDFF0700310CF000300CF0002DE9F04F47
:1018F0002DED028B164687B007321C46D308129D89
:101900000393002800F0BC800F46002900F0BF8040
:10191000002C54D0BDF80C1080462046FEF7E8FE9F
:101920000228064640F2AA8003285DD12378032BC3
:1019300040F2A480039B681C591E0123019305F00B
:10194000A1FE019B0493019B76429AB206F0070622
:101950004FF0FF0A4AFA06FA08EE102A5E1E4FF60A
:10196000FF72103B5FFA8AFA2E440292059318EE3A
:10197000101A2A464046B84700287DD133780AEA33
:1019800003033370049B102B40D0BDF80430224673
:1019900019462846FEF7C8FD022852D0029B013B9B
:1019A0000293E4D13E4B03990193284605F06AFE69
:1019B000019B184607B0BDEC028BBDE8F08F99B2D1
:1019C0002A461C46B84703460028ECD1611E700722
:1019D0006A5C42F080025CD16A540023184607B06A
:1019E000BDEC028BBDE8F08F039B00F10709A3EB70
:1019F000D90105EBD90005F045FE4FEAD903B9F14D
:101A0000870F019388BF102304939CE7059B05EB88
:101A1000030904EB030B07E0002BB6D0B84758BB13
:101A200033780AEA03033370102319465A464846AE
:101A3000FEF77AFD0346022B4A464FF0100140465E
:101A4000EAD1019B002BC8D0013DE918012315F80C
:101A5000012F13448D422B704FEA2323F7D1019BB2
:101A6000013C2344022214F8011F0A449C422270C4
:101A70004FEA2222F7D1B0E7034694E7094B92E7F9
:101A8000094B184607B0BDEC028BBDE8F08F074B41
:101A90008FE7764206F0070632416A5489E700BFB5
:101AA000010CF000320CF000250CF000140CF000DA
:101AB00070B5002849D00D46002943D0244E044675
:101AC0004FF0FF31306805F0FDFD90BB002005F0C0
:101AD00025FE50BB20462A46012105F0BDFF0446E5
:101AE000012005F01BFEB8B9306805F005FE50B9BD
:101AF000012005F013FE08B9204670BD154805F019
:101B000049FD204670BD144805F044FD012005F054
:101B100005FE0028F0D0F1E70E4805F03BFD3068E7
:101B200005F0EAFD0028E3D0EDE70C4805F032FDB2
:101B3000D0E70B4805F02EFD002005F0EFFD002852
:101B4000C8D0F2E7074C204670BD074C204670BD58
:101B5000949A0020F0BF0000D8BF000010C0000021
:101B6000C0BF0000200CF000250CF00070B500296B
:101B700050D0044600284AD0294E0D4630684FF018
:101B8000FF3105F09FFD002838D1002005F0C6FD8B
:101B900058BB244BD4F8DC209A4213D1D4F8D4306B
:101BA000DB073AD520462A46002105F055FF0446BA
:101BB000012005F0B3FD58B9306805F09DFD78B9F6
:101BC000204670BD0120184C05F0A8FD0028F3D078
:101BD000164805F0DFFC306805F08EFD0028EFD0D8
:101BE000134805F0D7FC204670BD124805F0D2FC22
:101BF0000C4BD4F8DC209A42D0D0E3E70E4805F035
:101C0000C9FC002005F08AFD0028C2D0EDE70B4C8E
:101C1000204670BD0A4C204670BD0A4CC8E700BF84
:101C2000949A0020CDAB23010E0CF000F0BF000011
:101C3000D8BF000010C00000C0BF0000250CF0009D
:101C4000200CF000080CF00000284CD0F0B50D4638
:101C500089B0002938D00446E42105F013FD01A91C
:101C6000204605F087FA10B1204809B0F0BD204F9A
:101C70004FF0FF31386805F025FD80BB002005F0EE
:101C80004DFD40BB01A92A46204602F011F8064648
:101C9000012005F043FDD0B9386805F02DFD78B975
:101CA000002EE1D12046E42105F0ECFC2946204637
:101CB000FFF7FEFE0F4B002818BF184609B0F0BD15
:101CC0000D4805F067FCEBE70C4809B0F0BD0C4887
:101CD00005F060FCE0E70B4805F05CFCD2E70A4841
:101CE00005F058FCCAE70948704700BF110CF00026
:101CF000949A0020120CF000D8BF0000200CF000D5
:101D0000F0BF000010C00000C0BF0000250CF000B4
:101D10002DE9F04F97B0DDE920744FEA043E4EEA1A
:101D2000844E4EEA83149D4D44F0045C9C012E6861
:101D30000096009EF607FAD5229DDFF86482974E42
:101D4000C8F800C0920142EA834242EA053545F0F4
:101D500010454FEA834832680192019AD207FAD5BA
:101D60008F4ADFF838C215604EEA811E4EF0104EE1
:101D70008E01DCF800200292029AD507F9D53D03C6
:101D800045EA8745864A854FC2F800E044EA0509DE
:101D900049F004593A680392039AD207FAD5804A67
:101DA000DFF8F8E1C2F8009044EA033C48EA0C0787
:101DB00047F004574FEA033ADEF800200492049AF1
:101DC000D207F9D5764ADFF8D4E117604CEA8149A9
:101DD00049F010498F04DEF800200592059AD207D9
:101DE000F9D56F4ADFF8B4E1C2F8009045F010452C
:101DF00045F48075DEF800200692069AD207F9D5E0
:101E0000DFF89CE1674ADFF89491CEF8005042EA8F
:101E100080124FEA801ED9F800500795079DED0704
:101E2000F9D5DFF87CB1DFF884915C4DCBF8002068
:101E300049EA00394FEA003B2A680892089AD2071B
:101E4000FAD5574DC5F80090239A574D45EA824977
:101E5000524A12680992099AD507F9D5504A4F4D4E
:101E6000C2F800904CF0245949F400192A680A92EB
:101E70000A9AD207FAD54A4D484AC5F800904EEA68
:101E8000030343F0484343F4821315680B950B9DFD
:101E9000ED07FAD54EEA0B05DFF804E13F4ACEF82C
:101EA000003045EA080545F0045513680C930C9B77
:101EB000DB07FAD53A4B394A1D604CEA804040F0C6
:101EC000045013680D930D9BDD07FAD5344BDFF8F2
:101ED000E0C0324A18604AEA0C0C13680E930E9B5D
:101EE000D807FAD52E4B2D4DC3F800C047EA01376D
:101EF00046EA070C4CF004500A032B680F930F9B23
:101F0000DB07FAD5264B254D18604CF0104C2B689A
:101F10001093109BDB07FAD5214B204DC3F800C06E
:101F20002B681193119BDB07FAD51D4B1B4D1860D5
:101F3000274347F004572B681293129BDB07FAD50F
:101F4000174B16481F60239B44EA080444EA0334F5
:101F500044F0104403681393139BDD07FAD5104B2C
:101F60000E481C60324342F0245242F410120368BF
:101F70001493149BDC07FAD5094B08481A600E43EA
:101F800046F0484646F4A21603681593159BDB07F6
:101F9000FAD5034B1E6017B0BDE8F08FB0B0025009
:101FA00080B00250004010210041002100011021AA
:101FB000400128290048704758C000002DE9F04F23
:101FC00087B05C6A109D16464FEA84090F464FF0B1
:101FD000000C9A4680464A4631462B460420039719
:101FE000CDF814C0FFF7C6F8074660B104EB44040F
:101FF000A100284605F046FB059803F04DFC384645
:1020000007B0BDE8F08F2B484FF0FF3105F05AFBC9
:1020100000284AD1002005F081FB002841D11E2371
:10202000DAF82000059305AA002103F059FDB0BBA2
:102030002B68CDF800A023F00703A9F1040A2B6058
:1020400055F80A3023F0404343F0804305EB090B79
:1020500045F80A30594623462A4605EB490000F068
:1020600031F807460028C1D15BF824105BF80A203C
:1020700042EAC1723146039E4BF80A2030464A4676
:1020800005F0FAFA224659464046FEF7A5FA3346CD
:102090004B444A464146184605F0EEFAA6E7064F7D
:1020A000A4E7064805F076FAB9E7054805F072FAA4
:1020B000B0E700BF989A00203323F00060C500000D
:1020C00080C500002DE9F04784B09A460C9C8146FB
:1020D000884610461946656A1646FEF735FBBAF182
:1020E000000F00F0BA802B46224607210746002049
:1020F00002F006FC052304F2D4420721012002F07D
:10210000FFFB2B4604F5EA7207210C2002F0F8FBD6
:102110002B4604F5FA7207210D2002F0F1FB2B4645
:1021200004F5057207210E2002F0EAFB2B4604F5A8
:102130000D7207210F2002F0E3FB2B4604F5157208
:102140000721102002F0DCFB2B4604F51D7207214D
:10215000112002F0D5FB2B4604F525720721122031
:1021600002F0CEFB2B4604F52D720721132002F05E
:10217000C7FB2B4604F535720721142002F0C0FB83
:102180002B4604F53D720721152002F0B9FB2B46C2
:1021900004F545720721162002F0B2FB2B4604F528
:1021A0004D720721172002F0ABFB2B4604F21442BC
:1021B0000721082002F0A4FB2B4604F23442072139
:1021C000092002F09DFB04F254422B4607210B200C
:1021D00002F096FB234A13680093009BDB07FAD5B5
:1021E000214B22491F4A196013680193019BD807AC
:1021F000FAD51D4B1E491B4A196013680293029BB6
:10220000D907FAD5184B1B49164A1960136803936E
:10221000039BDB07FAD5144B174A1A60072104F217
:10222000744208462B4602F06BFB3946304603F0F9
:1022300005F8044618B1204604B0BDE8F0874846CA
:102240002946102202F030FB40462946112202F0B6
:102250002BFB204604B0BDE8F087084C204604B0B4
:10226000BDE8F087B0B0025080B0025080022A472B
:1022700080122A4F80010021806118210223F00082
:102280000048704798C500002DE9F041069C0E46B5
:10229000154698462246636A01210746002002F04F
:1022A0002FFB012104F1B4020846052302F028FBAC
:1022B000636A04F194020121062002F021FB636AA3
:1022C00042460121082002F01BFB2946304600F05F
:1022D0000DF8044630B905F11F01490938460722B7
:1022E00002F0E2FA2046BDE8F08100BF2DE9F04F90
:1022F000A7B0092304460B221846039405930692BF
:102300000C2301220A250C4604210893079502F0AC
:102310001FFA059BA14A990141EA834141F092418C
:1023200041F4043113680993099BDF07FAD59C4AED
:102330009C4B11600699303243EA811113680A936D
:102340000A9BDE07FAD5964B944A1960089B9901BF
:1023500041EA834141F0924141F4043113680B9307
:102360000B9BDD07FAD58E4B8C4A196013680C93D2
:102370000C9BD807FAD58A4B8B49884A1960136899
:102380000D930D9BD907FAD5854B884A1A6014F135
:102390001E0248BF04F13D026FF0404303EB62139D
:1023A000039A671E52F823300293002FC0F239813E
:1023B000DFF81482794C7A4D002206AB0DF1140B34
:1023C0000DF1200A0DF11C0907F01F061F2E04D184
:1023D0000398791150F8211002910299009321FA83
:1023E00006F606F00106194672405846019204F0BE
:1023F000F7F8019A5146484604F0F2F8089A009B13
:1024000048EA023122680E920E9AD207FAD5296064
:10241000069A674941EA824122680F920F9AD007D3
:10242000FAD52960079A48EA023122681092109A78
:10243000D207FAD52960059A5E4941EA82412268AD
:102440001192119AD007FAD52960059A079891013F
:1024500041EA804141EA023141F00451226812927E
:10246000129AD207FAD52960DDE90612089892017E
:1024700042EA814141EA003141F00451226813925D
:10248000139AD007FAD52960089A0598910141EA74
:10249000003141F0104141F4002122681492149A55
:1024A000D207FAD52960079A910141EA023141F039
:1024B000104141F4402122681592159AD007FAD5AF
:1024C000296022681692169AD107FAD53A4A2A60EC
:1024D000059A110341EA824141F0104141F0C001E7
:1024E00022681792179AD207FAD52960DDE9070109
:1024F000069A920142EA814141EA003141F00451D9
:1025000022681892189AD007FAD52960079A48EAE3
:10251000023122681992199AD207FAD52960DDE9A9
:102520000720910141EA804141F0045141F480418A
:1025300022681A921A9AD007FAD52960059A1F497B
:1025400041EA821122681B921B9AD207FAD52960B0
:1025500022681C921C9AD007FAD5194A2A60226870
:102560001D921D9AD107FAD5164A2A60079A910141
:1025700041EA824141EA023141F0104122681E9253
:102580001E9AD207FAD52960069A910141EA824142
:1025900041EA023141F0104118E000BFB0B00250F2
:1025A00080B0025000002249400100214051142116
:1025B00080400021C040002180300C9000200C9011
:1025C00000211429C0400C210001142922681F9207
:1025D0001F9AD007FAD5296022682092209AD10745
:1025E000FAD52F4A2A60DDE90702910141EA00315C
:1025F00041F0104141F4001122682192219AD20742
:10260000FAD52960079A274941EA82112268229265
:10261000229AD007FAD5013F7A1C296009D03246A8
:10262000D2E6002606AB0DF1140B0DF1200A0DF1D8
:102630001C0919465846324603F0D2FF324651462D
:10264000484603F0CDFF069B1749184A41EA83111B
:1026500013682393239BDC07FAD5154B134A1960A3
:10266000DDE90630190341EA804141F0184141F0AB
:10267000800113682493249BD807FAD50C4A0D4B8C
:1026800011600599303243EA814113682593259BF7
:10269000DB07FAD5064B0020196027B0BDE8F08FA4
:1026A000823018C800200C9000200229B0B00250DF
:1026B00080B00250C02100882DE9F04184B0074667
:1026C0000E460D24174803944FF0FF3190461D46E7
:1026D00004F0F8FF10BB002005F020F8D0B9286AFC
:1026E00003AA002103F0FCF9044660B9D5F88C1068
:1026F0003046FEF729F800950246434631463846F3
:10270000FFF7C2FD0446039803F0C6F8204604B064
:10271000BDE8F081044804F03DFFE0E7034804F021
:1027200039FFD8E7989A002090C60000B0C6000094
:102730002DE9F04F2DED028BA3B005910993049084
:10274000002800F09F81002900F0A3819246D2E981
:10275000C1321F32B2F5207F03F11F0380F04F8199
:10276000B3F5187F80F04B813299AC4FDFF8C8B2D7
:102770005B09520901EB830808EB82010792920082
:1027800001EB8306131F0692F21843440B930AF1E0
:102790004C0308EE903A08910A924FF000092E9BE4
:1027A000002B40F04B81B9F1000F40F02F81069AC9
:1027B0002F99404604F060FF089A0292329A0396DD
:1027C0000AF5DC73CDE9003218EE900A0AF5B87309
:1027D000079A414602F03AFE0346002840F0108175
:1027E000DAE9C14000F11F022023B2F5207F04F195
:1027F0001F04149380F00381B4F5187F0C9280F0CD
:10280000FE80874A92F902300D93134692F9032015
:102810000E921A4693F904300F93134614A993F9B4
:102820000650129593F9075092F90520139593F9E4
:1028300008501092119503F015F90346002840F056
:1028400016810C9A510908EE101A0B460AF592727D
:10285000012102F055F89DF834009DF838500C9095
:102860000121084605230AF506720D9502F048F885
:1028700063090C989DF83C40329A012102F040F81F
:10288000284618EE103A099A9DF84050012102F0AE
:1028900037F8204618EE103A4246012102F030F88F
:1028A0005246012118EE103A284602F029F89DF808
:1028B00044108A0142EA844C4CF0274CA4043B6843
:1028C0001593159BD807FAD5564B44F0AE40C3F884
:1028D00000C040F402303B681693169BDB07FAD524
:1028E000504B1860DBF800301793179BDB07F9D5C6
:1028F0004D4B1B68D8047ED442F0245242F4083277
:102900003B681893189BDB07FAD59DF8480044EA0A
:10291000801343EA0131434B41F018411A603B6890
:102920001993199BDC07FAD5404A3E4B42EA804294
:1029300019603B681A931A9BD907FAD5394B1A606C
:10294000DBF800301B931B9BDB07F9D5364B1B686C
:10295000DC0450D49DF84C200C9BAC0444EA821457
:1029600044EA033444F008444FEA821C3B681C9359
:102970001C9BD907FAD50D9B990141EA8341294B4C
:1029800041F058411C603B681D931D9BDB07FAD545
:102990000D9B4CEA033343EA8244224B44F04454F7
:1029A000196091043B681E931E9BDD07FAD51D4BF1
:1029B0004CEA0030084340F008401C603B681F931D
:1029C0001F9BDC07FAD5174B41F0A24141F40231BD
:1029D00018603B682093209BD807FAD5114B1960EB
:1029E000DBF800302193219BDB07F9D50E4B1B68E8
:1029F00013F480534FD0149802F04EFF3AE00C4B82
:102A0000184623B0BDEC028BBDE8F08F094B184689
:102A100023B0BDEC028BBDE8F08F00BFB0B0025018
:102A200018CD000080B0025088B00250000802515A
:102A30003108F1001108F100B4B002500A9B069A67
:102A400000241C600AF59271304604F015FE0B9BC1
:102A50001C60CDF800803346DDE90401DAF8082374
:102A6000FEF72EFF034600283FF4A6AEC8E7144A3F
:102A70009042C5D12E9B0BB3B9F1650F1ED009F161
:102A800001098CE60F4B184623B0BDEC028BBDE864
:102A9000F08F0D4BB4E718EE101A309804931446DB
:102AA0000C9A01F001FF18EE101A3198224601F03D
:102AB000FBFE149802F0F0FE049BA1E7004B9FE799
:102AC0001008F1009108F0009008F000F8B51546E4
:102AD0000732D2086C420646FDF750FE14F0070498
:102AE0001BD01F356D09B5F1010C12D0331F3168B1
:102AF00003EB8505C4F12007334621FA04F0596839
:102B000001FA07F2024343F8042B9D42F5D106EB8C
:102B10008C06336823FA04F43460F8BD2DE9F047DD
:102B2000D0E9D2A682B00446B6F5187F4FF0200057
:102B300001907DDCBAF5107F7ADCB24550460F4635
:102B4000B8BF304601A99046994602F08BFF054672
:102B500018B1284602B0BDE8F08716F11F0548BF3E
:102B600006F13E05354A364B16606D11C3F800A0DC
:102B700004F5B4722B460121002001F0C1FE0121B1
:102B8000084604F51772052301F0BAFE2B464A46A3
:102B900001211C2001F0B4FE0A9A2B4601210320DA
:102BA00001F0AEFE43463A460121022001F0A8FEA4
:102BB0001AF11F0548BF0AF13E056D112B4604F1BD
:102BC000900201211A2001F09BFE04F512720523E8
:102BD00001211B2001F094FE2B4604F5DA7201213D
:102BE000142001F08DFE2B4604F5FE720121152004
:102BF00001F086FE2B4622460121162001F080FEC0
:102C00002B4604F148020121172001F079FE2B46E2
:102C100004F1D80201210B2001F072FE02F0ACFC9D
:102C20000546019802F038FE284602B0BDE8F0875C
:102C3000044D284602B0BDE8F08700BF90B00250B6
:102C400098B002503108F10070B5D0E9D2421F347B
:102C500084B0640900F148030D4601EB84061F327D
:102C600001EBC4010391009300F5B4710346CDE973
:102C700001565209903002F0E9FB70B93046214606
:102C8000FDF762FD30B921462846FDF75DFD08B924
:102C900004B070BD024804B070BD024804B070BDFD
:102CA0001008F0003008F0002DE9F04385B000284E
:102CB0004CD00E4600294ED01546002A4DD0002B90
:102CC0003FD0D0F8BC22039305F14C0700F5B67352
:102CD0001F3201F1040905F10408CDE901870093D1
:102CE0005209494600F59273044602F0AFFB0746CD
:102CF000A8B94FF43772214606F1500004F0BCFC2D
:102D0000174B336021464FF4377205F1940004F0FD
:102D1000B3FC144B2B60384605B0BDE8F0830024AB
:102D20004846346021462C604C2204F0A9FC404601
:102D30002146902204F0A4FC0B4F384605B0BDE8B4
:102D4000F0830A4F384605B0BDE8F083084F384697
:102D500005B0BDE8F083074FDDE7074FDBE700BFB5
:102D6000020000EC010000EC3008F0000508F00063
:102D70000208F0000308F0000408F000F0B5044673
:102D8000D0F848038DB000F11F062023B6F5187F58
:102D900000937ED20F46694602F064FE054610B1EC
:102DA00028460DB0F0BD7609334604F190020121AA
:102DB00001F0A6FD01210846052304F5127201F079
:102DC0009FFD334622460121022001F099FD334642
:102DD00004F1D8020121042001F092FD04F5907263
:102DE00033460121052001F08BFD424A136801930F
:102DF000019BDB07FAD5404B40493E4A19601368F6
:102E00000293029BD807FAD53B4B3D49394A1960DA
:102E100013680393039BD907FAD5374B3949354AD1
:102E2000196013680493049BDB07FAD5324B364ACA
:102E30001A6007F00603022B2FD004F14802334634
:102E40000121032001F05CFD2A4A13680593059BCC
:102E5000DC07FAD5284B2D49264A196013680693DA
:102E6000069BD807FAD5244B29492A4A19601368CA
:102E70000793079BD907FAD5274A284B126812F403
:102E8000805F08BF1D46009802F006FD28460DB081
:102E9000F0BD234D28460DB0F0BD03F0C9FB00285E
:102EA00026D01C4A13680893089BDB07FAD51D4BF4
:102EB000184A196813680A930A9BD807FAD51A4A60
:102EC0001A4B11601B680993099B5F40F90708D5ED
:102ED000343A13680B930B9BDB07FAD5064B144A65
:102EE0001A60314604F14800032201F0DDFCCAE714
:102EF000104DC8E7B0B0025080B002508021088861
:102F000080411831806108880051183180310C8867
:102F100000681051B4B0025088B002501008F000A0
:102F20000F08F0000CB00250E4B00250DCB00250C8
:102F3000C03000294021F0002DE9F041002800F0C8
:102F400081801D46036A072B0F46044616D055B9EB
:102F5000032B0FD1036B6BB9C0E90F55C0E91155B5
:102F600000F13C0710252B4639462046BDE8F041CC
:102F700003F034BE2E463046BDE8F081436B002B93
:102F800037D1B5F5805F39D215B9236B002B35D118
:102F900067484FF0FF3104F095FB002840F0978020
:102FA000002004F0BBFB002840F09980614B012217
:102FB0001A60236A032B23DC002B23DA5E4E5F4A60
:102FC0001368002BFCD15B495D4A0B60106840F030
:102FD000400004F067FA012004F0A0FB00287AD139
:102FE000534804F089FB0028C5D0564804F0D2FAB3
:102FF000C1E7012BC8D1B5F5803FC5D3524EBAE722
:10300000072BDBD1636A012B78D8636B012B57D870
:10301000A36B012B00F28480204600F0E9F90646FC
:103020000028CCD1A36A012B6AD033F0020271D000
:10303000236A013B062B13D8DFE803F00944091289
:10304000121209004FF471063046BDE8F0813F4B83
:1030500022681A6062685A60A2689A60E268DA6060
:103060003B493C4A01230B601560002D3BD1226B8C
:103070000AB9394A1360314B1E68002EFCD1236A0D
:10308000013B062B9BD801A252F823F0A930000087
:10309000C9300000A9300000BF2F0000BF2F000082
:1030A000BF2F0000A9300000284A2C4B1268226074
:1030B0001A6862605A68A26008331B68E3607EE7A2
:1030C000274E7CE7274BC3E7264A274BEEE72748E6
:1030D00004F060FA64E7264804F05CFA80E72548CB
:1030E00004F058FA62E7636B012B1BD0224A234B92
:1030F000176010201D6004F0DDF9BCE7204E5EE78C
:10310000204B22691A6062695A60A2699A60E2697A
:10311000DA608DE71C491D4A0B600123136087E7C5
:103120001B4E4CE71B4A1C4B176040201D60E2E71A
:10313000A49A002010B802500100F10010B902500A
:1031400004BA025098CA00000500F10040B40250D1
:103150007CB40250BCB4025024B5025044B40250B6
:103160000300F10060B4025064B4025080CA000051
:1031700040CA000060CA000030BC025034BC02509B
:103180000200F10000B4025038BA025078B4025084
:103190000400F10028BC02502CBC025000283BD097
:1031A000F0B482B0436A0193836893FA83FC019B75
:1031B000D0E90712D0E90376D0E905541BBA43627F
:1031C000436C019309BA836AC16112BA02623FBAC1
:1031D000D0E90F1236BA2DBA24BAC0E902C7C0E945
:1031E0000465C76A066B456B846193FA83FC846B44
:1031F000019B3FBA36BA2DBA24BA09BA12BA1BBA21
:10320000C0E90AC7C0E90C65C0E90E41C0E9102356
:10321000002002B0F0BC70474FF47200704700BF4E
:10322000002800F098802DE9F0414C4B826D9A42C5
:10323000E0B0804603D04A4860B0BDE8F081016E3E
:1032400000F148052846C900042200F08BF8D8F8A0
:10325000543020A84FF4807200211CBA04F010FAF8
:10326000D8F85C20E308B3FBF2F402FB1434141B1F
:10327000102C98BFA41820ABA4F1100018442946C4
:10328000102280258DF8805004F0F6F92A46684611
:1032900008F1640104F0F0F9D8E917230DEB0501FA
:1032A0000DEB0300D21A04F0E7F9D8E91753ED1A31
:1032B000ADB26946404600F039F9A5423FD3D8E99E
:1032C0000641D8E90823D8E90207D8E9046500BA1D
:1032D0003FBA24BA09BA12BAC8E9027036BAD8F8A5
:1032E0003400C8F81C402DBAD8F83040C8F818107F
:1032F0001BBAC8F82420D8E90F12D8F83870C8F8DB
:103300001460C8F81050D8F82860D8F82C50C8F8C5
:103310002030D8F8443024BA00BAC8E90C0436BAD0
:103320002DBA3FBA09BA12BA1BBA0020C8E90A5628
:10333000C8E90E17C8E9103260B0BDE8F08120ABD3
:1033400059196846D8F85C2004F096F96946404659
:1033500000F0ECF8B3E74FF472007047785634127F
:103360000200F200F0B48AB3051F2B4605EB82067B
:10337000970053F8044F24BA9E421C60F9D13C1FB9
:1033800003595918015116D3931E00EB830150F8CD
:103390002340661CA64240F823600CD80BB90AE013
:1033A0003BB151F8044D651CA54203F1FF330D609C
:1033B000F6D94AB1051F2846002150F8043F0131D3
:1033C0001BBA8A420360F8D8F0BC704750F8043C3E
:1033D0005B1840F8043CF7D350F8084C631C9C423F
:1033E00040F8083CA0F10801EED36FF00103D8E7E4
:1033F00038B5224B224A0121054619601368002B7B
:10340000FCD1204A1368002BFCD11F4A1368002B03
:10341000FCD11E4A1368002BFCD11D4B1C68002CEC
:10342000FCD14FF0FF3004F031F82B6A23F0040395
:10343000032B184B18680CBF20F0400020F08000D0
:1034400004F030F8144B00221A602B6A23F00402B7
:10345000032A18BF6C6A114A4FEA830318BF04F0AD
:10346000010403F01C031C4314602B6A072B02D1D8
:103470000B4B01221A60002038BD00BF00B902507A
:1034800070B4025020BD025020BC025038BD025022
:1034900038BC025004BA0250BCB40250C0B402504E
:1034A0007CB40250E8B110B50468012C04D0022CA1
:1034B00010D044B10C4810BD0C490830202204F053
:1034C000DBF8002010BD0A490830142204F0D4F8BB
:1034D000204610BD07490830202204F0CDF8002016
:1034E00010BD4FF4720070470100F200FCC60000EE
:1034F000C8C60000DCC6000078B110B50368032B15
:10350000044601D0064810BD06494022083004F0A8
:10351000B3F8054BA365002010BD4FF4720070474F
:103520000100F20080BF0000785634122DE9F04F00
:103530002DED028BADF5597D00F108050C464022BA
:10354000002128A8FCF718FF294628A8402204F0EB
:1035500093F82A9B1493319B1593329B1693339BBC
:103560001793349B1893359B1993369B1A93379B6B
:103570001B93289B1293299B2B9A2D982F9F309E4B
:103580002C99139308EE105A784B2E9D1C921E9086
:1035900021971F961D91209504F1040C01930D9223
:1035A000DDE915420292179A0392189A149B0B9226
:1035B000199A0093DDE91AAB03460C923046DDE917
:1035C00012620DF1E009CDE90607CDF820A0CDF893
:1035D00024B00A9104951746CA469B4612E0029908
:1035E0000B9103990C9100990A910699DDF834B07A
:1035F0000096CDE902140D97CDF818E044461E461A
:103600001746704683044FEA844EA1034EEA903E6B
:1036100043EA943841EA90410B9BC2058503029826
:103620008EEA010142EA542283EA000E06984A40DB
:1036300045EA9445E10588EA05030EEA000E0C9D73
:10364000249241EA502103980B9ADDF8909059405A
:1036500045400C9B2591DCF800005CF8041C2540DB
:103660005D408EEA0202964690FA80F8259A2595EA
:1036700009BA3D01CAE900810198259945EA167801
:10368000B50745EA970519EB0E0388EA0505F0E949
:10369000028941EB0202710641EAD7114D400190C7
:1036A0000A9900982495350145EA177E0143BD0724
:1036B0000A9845EA96058EEA050586460098314047
:1036C0000EEA000E41EA0E010D982291790641EAB8
:1036D000D61113EB080385EA01054BEA000142EB22
:1036E00009023940FAE8028925950BEA00050D43E5
:1036F000DDF890E022992395089D099813EB0803C3
:1037000042EB09025B1942EB00000246DDF89480AF
:103710000498239D11EB0E0145EB080510EB030EF9
:103720000798CDF81CB040EB0208CDE92215CB1864
:103730000B99089158A945EB02020A980C9D049038
:1037400051450CF1080C09957FF449AF1946084B17
:103750000E93B6ABCDF83CB0CDE90746DDF800B02E
:103760000997CDE9001236A8119314E018C700009C
:1037700098C70000069A0292079A0392DDE908B200
:103780000D92009A0892019A0992CDE90034CDE990
:1037900006E8CE46D046D0E91E64F300620343EA51
:1037A000547342EAD6425A40A30643EA9613D0E93C
:1037B000047C5A404FEAC409730343EAD44349EAFC
:1037C0005676056D5E4086EA94164FEACC73446DDA
:1037D000A91843EA57094FEA0C6344EB060643EA8B
:1037E00017234FEA884489EA030344EA9E394FEAE3
:1037F000883444EA9E44C0E9221689EA0404F0E9C8
:10380000029ACDE9049A4FEA4C6949EAD71983EA4A
:10381000090326934FEA0769FB0743EA5C0349EA79
:103820001C275F404FEACE53029A069DDDF898A010
:1038300043EA58235C40249414466C4004EA0E0486
:10384000079D5440039A87EADC174FEA8E434FEAFC
:103850008E3C27974CEA984C82EA050743EA983356
:10386000049D83EA0C0307EA08074FEAC85C574047
:103870004CEA5E2C4A19059D83EA0C03DDF89CC0D6
:10388000259345EB060612EB0A0246EB0C01019E5E
:10389000249B009D2494DDE924942597370147EA71
:1038A00015770E9DDDF894C0C0F8802013EB090356
:1038B000F5E9029A0E95009D109144EB0C044FEA35
:1038C000857C009DC0F88410CDE9049A4CEA960CE2
:1038D0004FEA0519009D009987EA0C0749EA167915
:1038E0004FEA867C089E4CEA950C009D89EA0C09FB
:1038F0004BEA060C0CEA050C049D5B19059D45EB93
:103900000404019D4FEA416A4AEAD51A009987EA00
:103910000A0A6F0647EAD117099D0D9989EA070738
:103920000BEA06094CEA090CCDF888C09B1841EA5D
:10393000050C01EA0502109D019E45EB04040B9D58
:10394000CDE924A75B190C9D0CEA060C4CEA020297
:1039500044EB0505DDF888C091462C46259A0A9D62
:10396000CDF828B01CEB0A0749EB020215EB03095E
:103970000F9D0F9145EB040AFB1842EB0404CDE9BF
:103980002272029A0B92039A0C92119A82427FF44D
:10399000F1AE129A0898219E159FD318139ADDE96B
:1039A000001542EB0404149A52181C99009241EB42
:1039B00005051D99099A2B9509181E98019140EB50
:1039C000020220980D99049210EB0B0046EB0101C6
:1039D0001F9E08901698069A049D099116EB0906F9
:1039E00047EB0A0710EB0E0E179840EB08081898E3
:1039F00010EB020C1998079A40EB02091A98029AE8
:103A000010EB020A1B98039A2D95099D2F95009D96
:103A10002A95019D2C9540EB020B089DCDF8C8E03E
:103A200038A84FF420720021CDE92834CDF8D0C059
:103A30003197CDF8CC80CDF8D490CDF8DCB02E9570
:103A40003096CDF8D8A003F01BFE18EE100A28A976
:103A5000402203F011FE0DF5597DBDEC028BBDE84F
:103A6000F08F00BF002861D02DE9F0414C1EB4F565
:103A7000047F27D233B32AB3CD00012B05F1FF3EDB
:103A800030D000218C460F460E4603F1FF384C091A
:103A900001F01F0550F824401F2D24FA05F418BF2B
:103AA00004F0010421B90126B44631462746EEE769
:103AB000B34213D0A74201D10CF1010C464504D109
:103AC000624502D21A48BDE8F0813C4601318E457C
:103AD00006F10106EAD20020BDE8F08100264FF091
:103AE000010CF3E70026B44637463446610904F07A
:103AF0001F0350F821101F2B21FA03F118BF01F00A
:103B000001013CB15FB98C4501D0614608E0013646
:103B1000614605E0012634468C460127E6E73E462D
:103B2000B242CFD30134AC42F6D1D4E7004870475B
:103B3000370CF10030B585B004460D4610480392AD
:103B40004FF0FF3103F0BEFD039A68B9204600959F
:103B50000123002103F04EF90446094803F0CCFD8F
:103B600038B9204605B030BD064803F013FD039A6E
:103B7000ECE7054803F00EFD204605B030BD00BF60
:103B8000A49A0020A0C90000B8C900000B6802E098
:103B9000082B0B6006D8426813424FEA4303F7D064
:103BA0000020704700487047310CF10001380728A9
:103BB00005D8DFE800F00A0E0412040404060948E0
:103BC00070478B698B6000207047CB688B6000204A
:103BD00070470B698B60002070474B698B60002039
:103BE000704700BF310CF10030B4DDE90234049DB0
:103BF00002940024CDE9035430BC04F0ADB900BFF9
:103C0000F0B4C900002401F1FF3C2646274606E037
:103C10009F4216D00126654519D82C461F466309D8
:103C200004F01F0150F823301F2923FA01F304F197
:103C3000010518BF03F00103002CE9D10126354628
:103C4000EBE701369642E6D10248F0BC704700200F
:103C5000F0BC7047360CF100012BF8B516461CD0AD
:103C600010221D460C4603F0EFFCE0B1AF1E3146BA
:103C700004EB0710102203F0E7FCA0B1022D0ADDCF
:103C80000025204610342146102203F0DDFC0135CA
:103C900048B1BD42F5D10020F8BD1146102203F015
:103CA000D3FC0028F7D10148F8BD00BF020CF0009A
:103CB00010B586B005AB0124CDE9012400930022A4
:103CC00004AB04F049F906B010BD00BF084B094A27
:103CD000002119601368002BFCD107480749084AE6
:103CE00003604FF480604FF0FF330860136070474B
:103CF0002CB1025010B90250C4B1025008BA02509F
:103D000008B1025038B504464FF4806003F0D2FB8E
:103D1000054D06480649074A00232B6003600B68DF
:103D20002360136038BD00BFC8B102502CB10250EF
:103D300004B1025008B10250F0B58FB01203DDE9B2
:103D4000147C42EA8015564C45F0245E85012268B9
:103D50000092009AD607FAD53F03524A504EC2F855
:103D600000E047EA804747F0045747F4507784045F
:103D700032680192019AD207FAD54A4E4A4A376010
:103D800042EA0C3C303632680292029AD707FAD5E2
:103D9000444A464F424EC2F800C047EA8347326861
:103DA0000392039AD207FAD53E4A3D4E1760326815
:103DB0000492049AD207FAD53A4A3D4F384E17601A
:103DC00032680592059AD707FAD5364A394F344EEC
:103DD000176032680692069AD207FAD51E0346EAA1
:103DE0008116304B344A2E4F1A6046F0104646F486
:103DF00040268A013B680793079BDB07FAD5294BCE
:103E0000274F1E6044F0104646F482463B680893F4
:103E1000089BDB07FAD5234B284F1E60204E2F430B
:103E200033680993099BDB07FAD51E4B1C4E1F60B4
:103E300045EA003545F0045545F4801533680A938A
:103E40000A9BDB07FAD5174B154E1D6033680B93A1
:103E50000B9BDF07FAD5134B114E1D6044F0045441
:103E600044F4824433680C930C9BDD07FAD50D4B68
:103E70000B4D1C600A4342F0484444F404242B6870
:103E80000D930D9BDB07FAD5064B0A461C600146D5
:103E90000D2300200FB0BDE8F04001F0A9BE00BF27
:103EA000B0B0025080B00250800000298020002174
:103EB00000D13490C0403490C0302029032008C87D
:103EC0002DE9F04F99B0DDE923C74FEA073B4BEAF4
:103ED000874B4BEA831B9F4D4FEA87484BF01044BA
:103EE0009F012E680396039EF607FAD5229D9A4EEF
:103EF000DFF860A234604FEA053949EA801949F0D9
:103F0000245545F420154FEA801EDAF80060049627
:103F1000049EF607F9D5259CDFF838A240EA844BC9
:103F20008D4C4BEA033B25604BF0484545F0C005FE
:103F30004FEA0339DAF800400594059EF407F9D5F5
:103F4000854EDFF810A2356047EA090448EA040B01
:103F50004BF01045DAF800600696069EF607F9D594
:103F60007D4EDFF8F0A13560269D44EA854545F099
:103F70001045DAF800600796079EF607F9D5DFF8D6
:103F8000D8A1744ECAF8005044F0245A4AF4001ADA
:103F900035680895089DED07FAD56F4D6D4EC5F84B
:103FA00000A044EA8C4A4AF0045A35680995099DF4
:103FB000ED07FAD5684D674EC5F800A048EA8218AB
:103FC00048F0104848F4405835680A950A9DED07B6
:103FD000FAD5614D5F4EC5F8008035680B950B9D95
:103FE000ED07FAD55C4DDFF87C815A4EC5F80080AC
:103FF00035680C950C9DED07FAD5574DDFF86881B3
:10400000544EC5F8008035680D950D9DED07FAD525
:10401000514D524E2E604FEA0C3C4CEA811C4CF044
:10402000104C8D01DFF82C8101954CF4402CD8F810
:1040300000500E950E9DEE07F9D5DFF81C81484D16
:10404000DFF810A1C8F800C045EA80484FEA804C6C
:10405000DAF800500F950F9DED07F9D549EA834531
:10406000DFF8F4B0DFF8EC90CBF800804EEA050AF8
:104070004AF0484A9B044AF0030AD9F800601096B7
:10408000DDF8408018F0010FF7D04EEA003E3248CC
:10409000DFF8C080C0F800A04EF0045E4EF4801E31
:1040A000D8F8000011901198C007F9D52A48DFF818
:1040B000A480C0F800E0D8F8000012901298C6075B
:1040C000F9D52548DFF88C80C0F800E04CF0045C9E
:1040D0004CF4824CD8F8000013901398C007F9D51F
:1040E000019E1C480B431E431B4B46F04846C3F839
:1040F00000C046F4804603681493149BDB07FAD58E
:10410000130343EA8242144B12481E603A4342F0C2
:10411000104203681593159BD907FAD50E4B0D492C
:104120001A602F4347F010470B681693169BDA0767
:10413000FAD5094B074A1F6044F0104444F4301488
:1041400013681793179BDB07FAD5034B1C6019B054
:10415000BDE8F08FB0B0025080B00250C0302029CE
:104160000041009000310C90C0400C902DE9F04FC0
:1041700099B0DFF870C2269C239D270347EA844943
:1041800049F0104646F0800699464FEA844EDCF826
:1041900000300193019BDC07F9D5914B914C1E60D7
:1041A0004FEA894949EA801949F0104646F4005619
:1041B0004FEA801A23680293029BDB07FAD5884BEB
:1041C000884C1E604AEA003C4CF0245646F4001627
:1041D00023680393039BDB07FAD5814B814C1E6058
:1041E0004EF0104646F4025623680493049BDB0706
:1041F000FAD5229B7B4C4FEA834E4EEA811E784BC8
:104200004EF0104E1E604EF4005E8E012368059342
:10421000059BDB07FAD5724B724CC3F800E046EA07
:10422000013949F0245B4BF4001B23680693069B7D
:10423000DB07FAD54FEA053E694B6A4CC3F800B07C
:104240004EEA854E4EF0104E4EF0800E4FEA8548F5
:1042500023680793079BDD07FAD5249B604C40EA4F
:10426000834545F048455F4BC4F800E045F40355ED
:104270001C680894089CE407FAD5594B594C1D60FA
:1042800048F0104545F4025523680993099BDB0764
:10429000FAD5259BDFF848E1524CCEF8005041EAB0
:1042A000834343F0484545F4025523680A930A9B2B
:1042B000DB07FAD547EA8217494B4A4C1D6047EAAB
:1042C000080848F01047950123680B930B9BDB0708
:1042D000FAD5434B434C1F6045EA824242F01042FC
:1042E00042F4405223680C930C9BDD07FAD53C4BFB
:1042F0003C4C1A6023680D930D9BDA07FAD5384BB6
:10430000394C384A1C6013680E930E9BDB07FAD5B4
:10431000334B364C334A1C6013680F930F9BDF07F7
:10432000FAD52F4B324C1C602E4A49F0104444F40D
:10433000402413681093109BDD07FAD5284B2D4DB0
:10434000284A1C6045EA8045800413681193119B3C
:10435000DC07FAD5224B284C224A1D604AEA0404A5
:1043600013681293129BDB07FAD51D4B1D4A1C6084
:104370004CF0045444F4801413681393139BDF0728
:10438000FAD5174B174A1C6013681493149BDD076A
:10439000FAD5134B134A1C6040F0045040F482409D
:1043A00013681593159BDC07FAD50D4B0D4A186061
:1043B0000E4346F0484646F4042613681693169BAF
:1043C000D907FAD5064B074A1E6013681793179B47
:1043D000DB07FAD5024BC3F800B019B0BDE8F08F87
:1043E00080B00250B0B0025000310C90C0400C9030
:1043F000C030202900410090032008C82DE9F04F6B
:104400009FB0AF4F2D9D289E2C0344EA854C4CEA6B
:10441000831C4FEA854E01944CF0104C9D013C6882
:104420000494049CE407FAD54FEA801BA54F4BEA9D
:10443000033848EA8646DFF88882C7F800C046F0AD
:1044400010461F03D8F800400594059CE407F9D5F1
:10445000DFF87082DFF868C24BEA00340294C8F8D3
:10446000006044F0245848F40018DCF8004006943A
:10447000069CE607F9D5DFF84C92914EC9F800800A
:1044800045EA070C4EEA0C0E4EF0104E34680794C5
:10449000079CE407FAD5299CDFF82892DFF82082F0
:1044A000C9F800E047EA811646EA84468C0146F0E6
:1044B00010460094D8F800400894089CE407F9D509
:1044C000009CDFF80082DFF8F891C8F8006044EA49
:1044D000013E4EF0245848F40018D9F800400994E1
:1044E000099CE607F9D52A9CDFF8D891744EC9F8E3
:1044F00000804FEA043A4AEA844A2A9C4AEA050ABA
:104500004AF0104A4FEA844934680A940A9CE40746
:10451000FAD52B9C47EA844606430396694E684CBD
:10452000C6F800A0039E46F0484A4AF0C00A266832
:104530000B960B9EF607FAD5624C614EC4F800A0AC
:1045400049EA0C0A4AF0104A34680C940C9CE407BF
:10455000FAD52C9C47EA84460E430396594E584C94
:10456000C6F800A0039E2E4346F0484A26680D96E2
:104570000D9EF607FAD5019C44EA8216514C46EA94
:1045800009094F4EC4F800A049F010494FEA821AB9
:1045900034680E940E9CE407FAD54A4C484EC4F891
:1045A00000904AEA824A4AF0104A4AF4405A4FEAD6
:1045B000824934680F940F9CE407FAD5414E404C71
:1045C000C6F800A026681096109EF607FAD53D4E54
:1045D000DFF8F8A03A4CC6F800A026681196119EA4
:1045E000F607FAD5374EDFF8E8A0354CC6F800A03C
:1045F00026681296129EF607FAD5324EDFF8D4A03E
:104600002F4CC6F800A04EF0104E4EF4402E2668F7
:104610001396139EF607FAD52A4E2B4CC6F800E0E7
:1046200044EA804E3036800434681494149CE407C5
:10463000FAD547EA8347DFF88CA0214CCAF800E09E
:104640004BEA070646F0484646F003064FEA834A1F
:1046500023681593159BDB07FAD5DFF868E0184C43
:10466000CEF80060029B43F0045646F4801623689F
:104670001693169BDB07FAD5124CDFF844E0266050
:10468000DEF800301793179BDC07F9D50D4CDFF8E7
:1046900030E0266040F0045040F48240DEF8003004
:1046A0001893189BDB07F9D5009B054C4AEA0101DA
:1046B0001943044B41F04841186041F480410BE03C
:1046C000B0B0025080B002500041009000310C9018
:1046D000C0400C90C030202923681993199BDE0735
:1046E000FAD5194B1948196003681A931A9BDC070D
:1046F000FAD5154B1549C3F8008049EA02322A431E
:1047000042F010420B681B931B9BD807FAD50E4B47
:104710000E491A602F4347F010470B681C931C9BEF
:10472000DA07FAD5084B094A1F604CF0104141F4F2
:10473000301113681D931D9BDB07FAD5024B1960DE
:104740001FB0BDE8F08F00BF80B00250B0B0025083
:104750002DE9F0434E4C89B023680193019BDD079E
:10476000FAD54C4B13449B000A181D681E2A05F10C
:104770001F0588BF1E224FEA551502FB05F288BFB0
:10478000C0F11E01B2F5806F04D94FF48061B1FB16
:10479000F5F1091A002976DD00F1A05000F52C4052
:1047A00005F1010E4FF0000C394ADFF8F4803A4C65
:1047B00087002EF00106604613680293029BDB0718
:1047C000FAD5D7F8009013680393039BDB07FAD55B
:1047D000C8F80090002355B101339D422060FBD101
:1047E000AE4204D92B4601339E422060FBD10CF12E
:1047F000010C614507F10407DED1254A13680493D3
:10480000049BDC07FAD5254B214A196813680593E8
:10481000059BD807FAD5224B19607DB100231E49AC
:104820001A4601339D420A60FBD1AE4206D91A49AD
:104830002B46002201339E420A60FBD1144A1368C2
:104840000693069BD907FAD5164B114A19681368C7
:104850000793079BDB07FAD5114B196035B100238D
:104860000D491A4601339D420A60FBD1AE4207D979
:10487000094A002301E00EF1010E76451360FAD1DA
:1048800009B0BDE8F08305F1010E2EF00106B4E792
:10489000B4B0025024AC0014D8B002507CB0025026
:1048A000D4B0025078B0025010B4124C85B02368D6
:1048B0000193019BDB07FAD502F1A05202F52C42CD
:1048C00093000C4A1C6813680393039BDB07FAD51B
:1048D000094B1C6051B10438084A00EB8101136890
:1048E0000293029B40F8043F8842F8D105B05DF87E
:1048F000044B7047B4B00250E4B00250DCB0025038
:1049000070B42F4D85B02C680094009CE407FAD554
:1049100000F1A05000F52C408000294C056820686B
:1049200001900198C607FAD52648012605609BB17B
:10493000043A254E02EB830452F8040F3060A24281
:10494000FAD15E1C26F00102934205D21E4C0020D3
:10495000013393422060FBD1194A26F0010013680D
:104960000293029BDC07FAD5184B0B449B001B6893
:104970001F33B0EB531F4FEA53121DD210490B687F
:104980000393039BDB07FAD50E4B0544121A1D60F7
:1049900012D000230C481946013393420160FBD129
:1049A0005A1C22F00101994206D90748002300E071
:1049B00001328A420360FBD105B070BC704700BF72
:1049C000B4B00250D4B00250D8B0025024AC00149D
:1049D000F0B595B07D4C1A9E370347EA864747F0FD
:1049E000045545F0800526680096009EF607FAD526
:1049F0001B9C764E920142EA0434754A44F01044FE
:104A0000156044F4002432680192019AD507FAD562
:104A10006F4A6E4E146047EA811747F010478A01CB
:104A200034680294029CE407FAD54FEA033C4CEA4E
:104A3000834C674B654C1F604CF0045646F0800673
:104A400023680393039BDF07FAD5614B5F4C1E601D
:104A500023680493049BDD07FAD55D4B5D4F5E4CE4
:104A60005A4E1C6047EA81478C0433680593059BC6
:104A7000DB07FAD5564B554E1F604CF0104C4CF4EA
:104A8000807C33680693069BDD07FAD5504E534D64
:104A90004E4FC6F800C045EA801586013B68079373
:104AA000079BDB07FAD54A4F4D4BDFF820C13D602D
:104AB00043EA003E0703DCF800300893089BDD075B
:104AC000F9D5434DDFF828C1C5F800E01C9B30350F
:104AD0004CEA834E2B680993099BDB07FAD53C4BC4
:104AE0003A4DC3F800E02B680A930A9BDB07FAD51E
:104AF000374B3C4DDFF8FCC01D60344D46EA0C0CD2
:104B00002B680B930B9BDB07FAD5314B2F4DC3F86A
:104B100000C03E4346F0045646F400262B680C9332
:104B20000C9BDF07FAD52A4D2F4B2E6043EA8040BD
:104B300030352B680D930D9BDE07FAD5244B234DA2
:104B400018602B680E930E9BDB07FAD5204B274D80
:104B50001E481D60144344EA013444F004550E031A
:104B600003680F930F9BDF07FAD5194B17481D6099
:104B700044F0104403681093109BDB07FAD5144BE4
:104B800012481C6003681193119BDF07FAD5104B84
:104B90000E481D60164346F0245646F4101603686E
:104BA0001293129BDC07FAD5094B08481E600A4392
:104BB00042F0484242F4A21203681393139BDB07AE
:104BC000FAD5034B1A6015B0F0BD00BFB0B002506B
:104BD00080B00250802000908020082100401021E9
:104BE0000001102180202029802000214021282937
:104BF00000410021024010C82DE9F04198B0DDE9E4
:104C00001E744FEA043C4CEA844C4CF00458219D3D
:104C1000984E48F4407834680194019CE407FAD532
:104C2000209C920142EA0436934A924CC2F80080DA
:104C300046F0104646F4401622680292029AD207C5
:104C4000FAD58D4ADFF82CE216604CEA811C4CF054
:104C5000104C8C01DEF800200392039AD607F9D598
:104C60004FEA073E844A834EC2F800C04EEA874EA0
:104C70004EF0045747F4407732680492049AD20702
:104C8000FAD57D4A7B4E176032680592059AD707A0
:104C9000FAD5794E794ADFF804C2764FC6F800C0DB
:104CA00042EA814C8E043A680692069AD207FAD5F7
:104CB000714A704FC2F800C04EF0104E4EF4807E24
:104CC0003A680792079AD207FAD56B4F6C4ADFF819
:104CD000A4C1C7F800E042EA80188701DCF8002090
:104CE0000892089AD207F9D5DFF88CC1654ADFF837
:104CF00084E1CCF8008042EA00384FEA003CDEF85C
:104D000000200992099AD207F9D5DFF86CE15E4AD2
:104D1000CEF800800EF1300E42EA8548DEF8002021
:104D20000A920A9AD207F9D5534ADFF848E1C2F845
:104D30000080DEF800200B920B9AD207F9D54E4A7C
:104D4000DFF85CE1DFF85C81C2F800E0DFF824E125
:104D500047EA0808DEF800200C920C9AD207F9D531
:104D600047EA0C0C444A434FC2F800804CF0045C04
:104D70004CF4401C3A680D920D9AD207FAD53E4F7A
:104D8000424AC7F800C042EA804030373A680E9283
:104D90000E9AD207FAD5384A364F10603A680F9209
:104DA0000F9AD007FAD5344A3948324F106046EA94
:104DB000013644EA060E4EF0045C08033A6810928D
:104DC000109AD207FAD52C4A2A4FC2F800C04EF0EA
:104DD000104E3A681192119AD207FAD5264A254FF9
:104DE000C2F800E03A681292129AD207FAD5224A23
:104DF000204FC2F800C046F0045646F440763A68A8
:104E00001392139AD207FAD51B4F224A3E60194ECD
:104E100042EA053532681492149AD707FAD5164A31
:104E2000144E1560204340F0245040F410103268B6
:104E30001592159AD507FAD50F4A0E4D10600C43FE
:104E400044F0484444F4A2142A681692169AD207F1
:104E5000FAD509481049074A046041EA83111368EA
:104E60001793179BDB07FAD5034B196018B0BDE801
:104E7000F08100BFB0B0025080B0025000C300907B
:104E800000401021000110210041002100C3002139
:104E900040C12829000330900000324900C330216E
:104EA00000C320290C4010C82DE9F00B93B06A4EC6
:104EB0001A9C6A4FDDE91B584FEA043B46EA043668
:104EC0003C680194019CE407FAD5654C654F266067
:104ED00047EA0537303426680296029EF607FAD56F
:104EE0005F4E614C37601F9F303644EA07343768A5
:104EF0000397039FFF07FAD5594F584E3C604BEA82
:104F0000854949F0045545F0800537680497049FAA
:104F1000FF07FAD5524C554F25601E9D303447EAA5
:104F2000053627680597059FFD07FAD5209C1D9D2E
:104F30004A4F240344EA8545494C45F01045266014
:104F400045F080053E680696069EF407FAD54FEABE
:104F5000083444EA8848424C404E256048F00455E5
:104F600045F0C00534680794079CE707FAD53C4C28
:104F70003F4F3A4E256047EA83179D0134680894F5
:104F8000089CE407FAD5364C344E276045EA834541
:104F900045F004579B0447F4A04734680994099CE2
:104FA000E407FAD52E4C2D4E276034680A940A9CEB
:104FB000E407FAD52A4C2F4F284E276034680B940B
:104FC0000B9CE707FAD5264C2B4F244E27603468FC
:104FD0000C940C9CE407FAD5214C284F1F4E2760F7
:104FE00034680D940D9CE707FAD543EA80101C4BFA
:104FF000234E1A4C1E6040F0104040F4804023685D
:105000000E930E9BDE07FAD5154C1E4B20601348FD
:1050100043EA811103680F930F9BDC07FAD5104C0C
:10502000194B0E48216043EA821203681093109BCB
:10503000D907FAD50A4B09491A6045F0104545F4DD
:10504000A0450B681193119BDB07FAD5044B1D603B
:1050500013B0BDE8F00B704780001829B0B00250C3
:1050600080B00250800008210001089040010890A3
:105070000040182940411421002118290031102135
:10508000C0200C2100500C9000301090564A94B073
:1050900013680193019BDB07FAD5544B5449524ADC
:1050A000196013680293029BD807FAD54F4B5149F8
:1050B0004D4A196013680393039BD907FAD54B4BEC
:1050C0004D49494A196013680493049BDB07FAD5DC
:1050D000464B4A49444A196013680593059BD80713
:1050E000FAD5424B4649404A196013680693069B1D
:1050F000D907FAD53D4B43493B4A196013680793DA
:10510000079BDB07FAD5394B3F49374A19601368CB
:105110000893089BD807FAD5344B3C49324A1960AA
:1051200013680993099BD907FAD5304B38492E4AA1
:10513000196013680A930A9BDB07FAD52B4B354994
:10514000294A196013680B930B9BD807FAD5274B94
:105150003149254A196013680C930C9BD907FAD57D
:10516000224B2E49204A196013680D930D9BDB07D3
:10517000FAD51E4B2A491C4A196013680E930E9BE0
:10518000D807FAD5194B2749174A196013680F93A6
:105190000F9BD907FAD5154B2349134A1960136899
:1051A0001093109BDB07FAD5104B20490E4A19606B
:1051B00013681193119BD807FAD50C4B1C490A4A66
:1051C000196013681293129BD907FAD5074B194936
:1051D000054A196013681393139BDB07FAD5034B39
:1051E000154A1A6014B07047B0B0025080B0025037
:1051F0008080182980900821002108908080242137
:105200004021089080B02C9080700890C0A0282188
:10521000C0A00C90C0421829C0522C21404114213A
:105220000021182900311021C0200C2100422C90AF
:1052300040520C9080321090C0522C902DE9F043D7
:10524000FF2993B027D1C36909939B0F012B054612
:1052500004D0734C204613B0BDE8F08309A9FE22A8
:1052600001F0CCF90128F4D1FC244FF0FF394FF0C4
:10527000160815271426224609A9284601F0BEF96A
:1052800000EB89030433072BE3D8DFE803F0555024
:105290004B4639341F09634C204613B0BDE8F083F8
:1052A000CDE905780B230A22092108200496CDE9CF
:1052B0000223CDE90001FFF7F7FD4FF0FF39023C73
:1052C00045D0FFF7E3FEFFF7E1FED4E712211120FE
:1052D0004FF0100C069105900B230A22092108209B
:1052E000CDF810C0CDE90223CDE90001FFF7DCFDC8
:1052F0004FF00009E3E70E210D204FF00C0CE9E719
:105300000E210D204FF00C0C069105900B230A2264
:1053100009210820CDF810C0C9E70F210C204FF05B
:105320000D0CD7E7132110204FF0110CD2E71321F9
:1053300010204FF0110CE7E74FF0170CCDE9047681
:105340000B230A2209210820CDF818C0CAE72246FB
:1053500009A9284601F052F9044600287FF479AFE4
:105360000F220C230B200A21069205930922082301
:105370000D25CDE90121CDE9030500931622172360
:1053800015211420FFF790FD274AB9F1000F23D112
:1053900013680E930E9BDD07FAD5244B2449224A4D
:1053A000196013680F930F9BD807FAD51F4B21493B
:1053B0001D4A196013681093109BD907FAD51B4B2F
:1053C0001D49194A196013681193119BDB07FAD51F
:1053D000164B1A4A1A603DE713680A930A9BD907CD
:1053E000FAD5124B1249104A196013680B930B9BA4
:1053F000DB07FAD50D4B12490B4A196013680C9361
:105400000C9BDF07FAD5094B0E49074A1960136850
:105410000D930D9BDE07FAD5044B0B4A1A6019E772
:105420000323F0000223F000B0B0025080B002501D
:1054300080210229C0612898007420884074248843
:10544000C061589800745088407454882DE9F04F1A
:105450000D4687B004461146284600929846FBF751
:1054600073F9D4F8BC32009904F1D80A1F33064608
:105470005B0952462846FAF7CBFF002E70D0012870
:105480006ED0D4E9AEB0394B584593F91A2093F950
:105490001CC000924FF0200793F91B2093F91D3098
:1054A000059738BF584605A90192CDF808C0039367
:1054B00000F0D8FA074618B1384607B0BDE8F08FBB
:1054C0002B490BF11F094FEA59194B46C1F800B09F
:1054D00022460121FFF714FA0121084604F5DC7287
:1054E0000523FFF70DFA4B4604F1480201210B207A
:1054F000FFF706FAD4F8BC329DF808409DF800008A
:105500001F3352465B099DF80CA00121FFF7F8F903
:1055100042464B4620460121FFF7F2F9109A4B46CE
:1055200050460121FFF7ECF906F11F035B099DF8D6
:1055300004002A460121FFF7E3F900F0BFFB1198B0
:1055400022464946FFF7B0F9129852464946FFF7FE
:10555000ABF9059800F0A0F9384607B0BDE8F08F28
:10556000044F384607B0BDE8F08F00BF18CD0000EB
:1055700090B002503008F10030B5834A834B146874
:1055800083491A68A5B00B680593059BDD07FAD51A
:10559000804B81487E4918600B680693069BD807AC
:1055A000FAD57C4B7D487E4918600B680793079BB2
:1055B000DB07FAD57B4B76491868C0F340200B68AF
:1055C0000893089BDD07FAD5724B774D74491D602F
:1055D0000B680993099BDB07FAD5724B1B68C3F371
:1055E0004023002800F03E81002B00F03B816849F9
:1055F0000B680A930A9BDD07FAD5664B6B4868492E
:1056000018600B680B930B9BD807FAD5654B604964
:105610001868C0F340200B680C930C9BDB07FAD58D
:105620005C4B634D5E491D600B680D930D9BDD0760
:10563000FAD55C4B1B68C3F34023002800F00F81B0
:10564000002B00F00C8152490B680E930E9BDB0778
:10565000FAD5504B50484E4918600B680F930F9B7A
:10566000DD07FAD54B4B5348494918600B68109336
:10567000109BD807FAD5474B4F48454918600B682F
:105680001193119BDB07FAD5424B4C4840491860F7
:105690000B681293129BDD07FAD53E4B48483C49F4
:1056A00018600B681393139BD807FAD5394B4548FC
:1056B000374918600B681493149BDB07FAD5354BF8
:1056C0004148334918600B681593159BDD07FAD5DF
:1056D000304B3E482E4918600B681693169BD8072E
:1056E000FAD52C4B3A482E4918600B681793179B34
:1056F000DB07FAD5244B26491A600B681893189BD0
:10570000DD07FAD5234B2B49214A196013681993F9
:10571000199BD807FAD51F4B2E491D4A19601368EB
:105720001A931A9BD907FAD51A4B2B49184A1960B4
:1057300013681B931B9BDB07FAD5164B2749144AAA
:10574000196013681C931C9BDD07FAD5114B244983
:105750000F4A196013681D931D9BD807FAD50D4B8E
:1057600020490B4A196013681E931E9BD907FAD56E
:10577000084B1D49064A196013681F931F9BDB07DE
:10578000FAD5044B32E000BF90B0025098B00250FE
:10579000B0B0025080B0025000100251C01F7229F8
:1057A000B4B0025088B00250C0CF0129C01F0E29EA
:1057B000C03F002940010249003184A80000164979
:1057C000400108A180440888C044708880077A415D
:1057D000C0077E4100006A498006164940006E49B4
:1057E0000002002100822021408220211F4A1A60ED
:1057F00015201321162217238DE80F0014231222DF
:105800001921182000F098FC002826D1184A1368A6
:105810002093209BDD07FAD5164B174A1C601368AE
:105820002193219BDC07FAD5144B1549124A1960C4
:1058300013682293229BD907FAD5104B11490C4AC1
:10584000196013682393239BDB07FAD50E4A0F4B8D
:10585000126812F4805F08BF184625B030BD0C48AE
:1058600025B030BD0B4825B030BD00BF808224215B
:10587000B4B0025090B00250B0B0025080B00250AC
:1058800040A161A100C8615188B002500308F10035
:105890000208F1000108F10008B558B90F4B0022C9
:1058A0001A60012001F03AFF98B90D4801F024FF79
:1058B00050B908BD202801464FF0070228BF20211B
:1058C0000020FEF745FFE9E7BDE80840054801F084
:1058D00061BE054801F05EFEE7E700BF1CB802505C
:1058E000989A0020D0C90000E8C9000070B41C6874
:1058F00085B001F01F0644B91E2E06D01068F04096
:1059000000F0030005B070BC70470F4D2C68019487
:10591000019CE407FAD500F1A05404F52C44A4003E
:10592000094D20682C680394039CE407FAD5074CC2
:1059300000EB611106482160016802910299116033
:1059400000211960DAE700BFB4B00250E4B00250A1
:10595000DCB00250F0B41C6884B001F01F0644B9FA
:105960001F2E06D010684300C00F136004B0F0BCB7
:105970007047134D2C680194019CE407FAD500F19F
:10598000A05000F52C4080000D4C05682068039065
:105990000398C007FAD50B4F0B4C05EB61153D6022
:1059A000206802901F2E029808D0C94301F01F0101
:1059B00000FA01F1116000211960D3E71060FAE7E5
:1059C000B4B00250E4B00250DCB0025030B4214A0E
:1059D00084B013680093009BDC07FAD500F1A05354
:1059E00003F52C439B001B4A186813680193019B25
:1059F000D907FAD5184B1A6812F11F0348BF02F1F4
:105A00003E035B11591E0FD4124A144D144C1368F7
:105A10000393039BDB07FAD50B182B6023680293D3
:105A2000029B2BB90139F2D2580104B030BC704747
:105A300001314801A0F120014FF0004202E001389D
:105A40008142F2D013424FEA5202F8D004B030BC87
:105A5000704700BFB4B00250ACB00250E4B0025086
:105A6000DCB0025038B504460D4619484FF0FF31FE
:105A700001F028FE60B9002001F050FE80B92046F8
:105A80002A46002100F02CF80446A0B9204638BD73
:105A9000104801F07FFD002001F040FE0028EED00C
:105AA0000D4801F077FD20462A46002100F018F845
:105AB00004460028EAD0012001F030FE20B9044855
:105AC00001F01AFE204638BD044801F063FDF6E7F8
:105AD000989A002028CA000008CA0000E8C90000FF
