:020000040000FA
:1000000050320020F9020000010300000303000049
:1000100005030000070300000903000000000000C2
:100020000000000000000000000000000B030000C2
:100030000D030000000000000F030000110300008A
:100040001303000013030000DD4800001303000049
:100050001303000000000000130300000000000074
:100060001303000013030000130300001303000038
:1000700013030000C1460000130300001303000037
:100080001303000013030000130300001303000018
:100090001303000013030000130300001303000008
:1000A000130300001303000013030000000000000E
:1000B0000000000000000000000000000000000040
:1000C0000000000000000000000000000000000030
:1000D000000000000000000000000000130300000A
:1000E0000000000000000000000000000000000010
:1000F0000000000000000000000000000000000000
:1001000000000000000000000000000000000000EF
:1001100000000000000000000000000000000000DF
:1001200000000000000000000000000000000000CF
:1001300000000000000000000000000000000000BF
:1001400000000000000000000000000000000000AF
:10015000000000000000000000000000000000009F
:10016000000000000000000000000000000000008F
:10017000000000000000000000000000000000007F
:10018000000000000000000000000000000000006F
:10019000000000000000000000000000000000005F
:1001A000000000000000000000000000000000004F
:1001B000000000000000000000000000000000003F
:1001C000000000000000000000000000000000002F
:1001D000000000000000000000000000000000001F
:1001E000000000000000000000000000000000000F
:1001F00000000000000000000000000000000000FF
:10020000DFF80CD002F0C4F8004800474952000063
:100210005032002030B4044654E8000F0D4644E844
:100220000053002BF8D1156030BC704730B4044641
:1002300054E8000F40EA010544E80053002BF7D1D1
:10024000156030BC704730B4044654E8000F00EA33
:10025000010544E80053002BF7D1156030BC70470E
:1002600030B4044654E8000F80EA010544E8005326
:10027000002BF7D1156030BC704730B4044654E809
:10028000000F00EB010544E80053002BF7D1156087
:1002900030BC704730B4044654E8000FA0EB0105B1
:1002A00044E80053002BF7D1156030BC704770B4A0
:1002B00004464FF0000054E8006F0D68AE4207BFDF
:1002C00044E80023012044E800630E60002B1CBFBB
:1002D0000020F0E770BC704730B4044654E8000FCB
:1002E00088422CBF451A054644E80053002BF5D13F
:1002F000156030BC7047000006488047064800473C
:10030000FEE7FEE7FEE7FEE7FEE7FEE7FEE7FEE7C5
:10031000FEE7FEE7494700000102000070B491E8E3
:100320007800B2E802105B1854EB0C04B2E802103B
:100330004D4156EB0C0680E878008041013070BCDE
:10034000704700BF70B491E87800B2E802105B1A01
:1003500074EB0C04B2E802108D4176EB0C0680E8D9
:1003600078008041404270BC704700BF2DE9F00723
:1003700091E8F807B2E802105B1854EB0C04B2E8FD
:1003800002104D4156EB0C06B2E802104F4158EBFB
:100390000C08B2E8021059EB01095AEB0C0A80E88C
:1003A000F80780410130BDE8F00770472DE9F007FC
:1003B00091E8F807B2E802105B1A74EB0C04B2E89B
:1003C00002108D4176EB0C06B2E802108F4178EBFB
:1003D0000C08B2E8021079EB01097AEB0C0A80E80C
:1003E000F80780414042BDE8F00770472DE9F0076B
:1003F000524290E87800B1E880071740DB1918EA0C
:10040000020854EB080419EA020955EB09051AEA37
:10041000020A56EB0A0678C090E87800B1E8800737
:1004200017407B4118EA020854EB080419EA020954
:1004300055EB09051AEA020A56EB0A0678C0804114
:100440000130BDE8F00770472DE9F007524290E80F
:100450007800B1E880071740DB1B18EA020874EB4C
:10046000080419EA020975EB09051AEA020A76EB93
:100470000A0678C090E87800B1E880071740BB41D1
:1004800018EA020874EB080419EA020975EB090579
:100490001AEA020A76EB0A0678C080414042BDE8BB
:1004A000F007704790E8300091E8C000A31B1340AC
:1004B000E41AF618EB1B1340ED1AFF1830C0C0C148
:1004C000704700BFF0B55242FFF7ECFFFFF7EAFFBD
:1004D000FFF7E8FFFFF7E6FFF0BD00BF2DE9F007EB
:1004E0003AC91668A1FB069A4FF0000CE3FB06AC74
:1004F0004FF00007E4FB06C74FF00008E5FB067865
:1005000040F8049B56684FF00009E1FB06A9E3FBA5
:1005100066C9E4FB6679E5FB668940F804AB96683A
:100520004FF0000AE1FB06CAE3FB667AE4FB668A49
:10053000E5FB669A40F804CBD6684FF0000CE1FB6F
:10054000067CE3FB668CE4FB669CE5FB66AC80E81E
:100550008017BDE8F00770470A4600BF2DE9F04F4D
:1005600092E8F00F2DE9F30F87B01EC90998A1FB9F
:1005700000784FF00009E2FB00894FF0000AE3FB2E
:10058000009A4FF0000BE4FB00AB0D984FF0000C0D
:10059000E1FB00BC4FF0000EE2FB00CE4FF0000587
:1005A000E3FB00E54FF00006E4FB005600970A98D5
:1005B0004FF00007E1FB0087E2FB6097E3FB60A7D9
:1005C000E4FB60B70E98E1FB60C7E2FB60E7E3FB8A
:1005D0006057E4FB6067CDF804800B984FF000088B
:1005E000E1FB0098E2FB60A8E3FB60B8E4FB60C8B5
:1005F0000F98E1FB60E8E2FB6058E3FB6068E4FB16
:100600006078CDF808900C984FF00009E1FB00A944
:10061000E2FB60B9E3FB60C9E4FB60E91098E1FB31
:100620006059E2FB6069E3FB6079E4FB6089CDF827
:100630000CA0089901F110011EC909984FF0000A99
:10064000E1FB00BAE2FB60CAE3FB60EAE4FB605A4C
:100650000D98E1FB606AE2FB607AE3FB608AE4FBF1
:10066000609ACDF810B00A984FF0000BE1FB00CB78
:10067000E2FB60EBE3FB605BE4FB606B0E98E1FB8D
:10068000607BE2FB608BE3FB609BE4FB60ABCDF83F
:1006900014C00B984FF0000CE1FB00ECE2FB605C37
:1006A000E3FB606CE4FB607C0F98E1FB608CE2FB99
:1006B000609CE3FB60ACE4FB60BCCDF818E00C98F8
:1006C0004FF0000EE1FB005EE2FB606EE3FB607E3C
:1006D000E4FB608E1098E1FB609EE2FB60AEE3FB02
:1006E00060BEE4FB60CE079800F11C0181E8E05F8A
:1006F000BDE8F80380E8F8030AB0BDE8F08F00BF5A
:1007000030B44FF0000310F8014B11F8015B013ACF
:1007100084EA050443EA0403F5D1A3F101034FEA97
:10072000D37030BC704700BF4FF0000310F8012BAE
:10073000013943EA0203F9D1A3F101034FEAD3706F
:10074000704700BF11F8013B00F8013B013AF9D1B5
:10075000704700BF002200F8012B0139FBD1704720
:100760002DE9F00791E8F807B2E802105B1854EBA6
:100770000C04B2E802104D4156EB0C06B2E8021030
:100780004F4158EB0C08B2E8021059EB01095AEB43
:100790000C0A8941B3F1FF3374F1FF3475F1FF3571
:1007A00076F1000677F1000778F1000879F1010988
:1007B0007AF1FF3A51F100015B184C414D4156F17D
:1007C000000657F1000758F1000859EBD1795AEBB0
:1007D000010A80E8F807BDE8F00770472DE9F00747
:1007E00091E8F807B2E802105B1A74EB0C04B2E867
:1007F00002108D4176EB0C06B2E802108F4178EBC7
:100800000C08B2E8021079EB01097AEB0C0A894175
:100810005B184C414D4156F1000657F1000758F165
:10082000000859EBD1795AEB010A80E8F807BDE8D6
:10083000F00770470A4600BF2DE9F04F92E8F00F2D
:100840002DE9F30F87B01EC90998A1FB00784FF07E
:100850000009E2FB00894FF0000AE3FB009A4FF029
:10086000000BE4FB00AB0D984FF0000CE1FB00BC6B
:100870004FF0000EE2FB00CE4FF00005E3FB00E579
:100880004FF00006E4FB005600970A984FF000076F
:10089000E1FB0087E2FB6097E3FB60A7E4FB60B746
:1008A0000E98E1FB60C7E2FB60E7E3FB6057E4FB07
:1008B0006067CDF804800B984FF00008E1FB0098CA
:1008C000E2FB60A8E3FB60B8E4FB60C80F98E1FBC3
:1008D00060E8E2FB6058E3FB6068E4FB6078CDF819
:1008E00008900C984FF00009E1FB00A9E2FB60B909
:1008F000E3FB60C9E4FB60E91098E1FB6059E2FBAF
:100900006069E3FB6079E4FB6089CDF80CA008998D
:1009100001F110011EC909984FF0000AE1FB00BA6D
:10092000E2FB60CAE3FB60EAE4FB605A0D98E1FB7E
:10093000606AE2FB607AE3FB608AE4FB609ACDF8D0
:1009400010B00A984FF0000BE1FB00CBE2FB60EB2C
:10095000E3FB605BE4FB606B0E98E1FB607BE2FB1A
:10096000608BE3FB609BE4FB60ABCDF814C00B989D
:100970004FF0000CE1FB00ECE2FB605CE3FB606C21
:10098000E4FB607C0F98E1FB608CE2FB609CE3FB86
:1009900060ACE4FB60BCCDF818E00C984FF0000EA2
:1009A000E1FB005EE2FB606EE3FB607EE4FB608ED9
:1009B0001098E1FB609EE2FB60AEE3FB60BEE4FBEF
:1009C00060CEDDE90423069C12EB0A0253EB0B0315
:1009D00054EB0C0455EB0E05002040F1000012EB27
:1009E0000B0253EB0C0354EB0E0455EB0E05464182
:1009F0000020474158EB000859EB0A0940F100007C
:100A0000B2EB0E0273F1000374F1000475EB0A05FA
:100A100076EB0B0677EB0C0778EB0A0879EB0C0901
:100A200060F10000B5EB0B0576EB0C0677EB0E07DB
:100A300078EB0B0879EB0E0960F100006FEAE07AC1
:100A4000B2EB0A0273EB0A0374EB0A0475F10005BA
:100A500076F1000677F1000778EBDA7879EB0A098E
:100A600060F100004FEAE07A12EB0A0253EB0A034E
:100A700054EB0A0455F1000556F1000657F1000742
:100A800058EBDA7859EB0A0940F100004FEAE07AB6
:100A900012EB0A0253EB0A0354EB0A0455F100056A
:100AA00056F1000657F1000758EBDA7859EB0A09BE
:100AB000DDE900ABDDE902011AEB060A5BEB070B8F
:100AC00050EB080051EB09015FF0000C4CF1000CF9
:100AD0001AEB070A5BEB080B50EB090051EB09011D
:100AE00052EB0C025FF0000C53EB0C0354EB0C04C4
:100AF00075414CF1000CBAEB090A7BF1000B70F167
:100B00000000B141BA4173EB0803B44175EB08052D
:100B10006CF1000CC91B72EB080273EB0903BC41BA
:100B200075EB09056CF1000C6FEAEC76BAEB060A7E
:100B30007BEB060BB04171F1000172F1000273F121
:100B4000000374EBD674B5416CF1000C4FEAEC76FF
:100B50001AEB060A5BEB060B704151F1000152F1F2
:100B6000000253F1000354EBD67475414CF1000CB4
:100B70004FEAEC761AEB060A5BEB060B704151F17B
:100B8000000152F1000253F1000354EBD674754199
:100B9000079FA7E8000C87E83F0011B0BDE8F08F81
:100BA0002DE9F00791E8F807B2E802105B1854EB62
:100BB0000C04B2E802104D4156EB0C06B2E80210EC
:100BC0004F4158EB0C08B2E8021059EB01095AEBFF
:100BD0000C0A4FF0260261EB010122EA01015B18C9
:100BE00054F1000455F1000556F1000657F10007D5
:100BF00058F1000859F100095AF1000A61EB0101AE
:100C000022EA01010B4480E8F807BDE8F0077047CD
:100C10002DE9F00791E8F807B2E802105B1A74EBCF
:100C20000C04B2E802108D4176EB0C06B2E802101B
:100C30008F4178EB0C08B2E8021079EB01097AEBEE
:100C40000C0A4FF0260261EB010102EA01015B1A76
:100C500074F1000475F1000576F1000677F10007E4
:100C600078F1000879F100097AF1000A61EB0101DD
:100C700002EA0101A3EB010380E8F807BDE8F007F1
:100C8000704700BF0A4600BF2DE9F04F92E8F00F11
:100C90002DE9F30F87B01EC90998A1FB00784FF02A
:100CA0000009E2FB00894FF0000AE3FB009A4FF0D5
:100CB000000BE4FB00AB0D984FF0000CE1FB00BC17
:100CC0004FF0000EE2FB00CE4FF00005E3FB00E525
:100CD0004FF00006E4FB005600970A984FF000071B
:100CE000E1FB0087E2FB6097E3FB60A7E4FB60B7F2
:100CF0000E98E1FB60C7E2FB60E7E3FB6057E4FBB3
:100D00006067CDF804800B984FF00008E1FB009875
:100D1000E2FB60A8E3FB60B8E4FB60C80F98E1FB6E
:100D200060E8E2FB6058E3FB6068E4FB6078CDF8C4
:100D300008900C984FF00009E1FB00A9E2FB60B9B4
:100D4000E3FB60C9E4FB60E91098E1FB6059E2FB5A
:100D50006069E3FB6079E4FB6089CDF80CA0089939
:100D600001F110011EC909984FF0000AE1FB00BA19
:100D7000E2FB60CAE3FB60EAE4FB605A0D98E1FB2A
:100D8000606AE2FB607AE3FB608AE4FB609ACDF87C
:100D900010B00A984FF0000BE1FB00CBE2FB60EBD8
:100DA000E3FB605BE4FB606B0E98E1FB607BE2FBC6
:100DB000608BE3FB609BE4FB60ABCDF814C00B9849
:100DC0004FF0000CE1FB00ECE2FB605CE3FB606CCD
:100DD000E4FB607C0F98E1FB608CE2FB609CE3FB32
:100DE00060ACE4FB60BCCDF818E00C984FF0000E4E
:100DF000E1FB005EE2FB606EE3FB607EE4FB608E85
:100E00001098E1FB609EE2FB60AEE3FB60BEE4FB9A
:100E100060CE4FF02601DDE900234FF00000E6FB35
:100E20000120E7FB6130DDE90267E8FB6160E9FB77
:100E30006170DDE90489EAFB6180EBFB6190DDF81C
:100E400018A0ECFB61A0EEFB615001FB00F0121852
:100E500053F1000356F1000657F1000758F100085E
:100E600059F100095AF1000A55F1000B60EB00003E
:100E700021EA00000244079880E8CC0F11B0BDE8D9
:100E8000F08F00BF2DE9F00791E8F0174FF4EE3135
:100E9000BE39A4FB01234FF00004E5FB01344FF001
:100EA0000005E6FB01454FF00006E7FB01564FF059
:100EB0000007E8FB01674FF00008E9FB01784FF0FD
:100EC0000009EAFB01894FF0000AECFB019A4FF0A0
:100ED000260101FB0AFA12EB0A0253F1000354F156
:100EE000000455F1000556F1000657F1000758F1CE
:100EF000000859F100096AEB0A0A21EA0A010A44CA
:100F000080E8FC03BDE8F007704700BF2DE9F0035F
:100F100090E8F8134FEAEC7202F013022CF0004C48
:100F200002F11301591854F1000155F1000156F175
:100F3000000157F1000158F1000159F100015CF185
:100F400000014FEAE17101F0130111445B1854F103
:100F5000000455F1000556F1000657F1000758F15D
:100F6000000859F100094CF1000C2CF0004C80E80D
:100F7000F813BDE8F00370472DE9F74F88B0C3CAF6
:100F8000CDE90001B2E80303CDE90201B2E8300C7B
:100F9000CDE90445B2E80350CDE9060184EAD46006
:100FA00080EA451085EAD56181EA441180EA14108F
:100FB00080EA057081EA151181EA04711CEB903C0E
:100FC0004EEB913E1CEB814C4EEB804EDDE906234F
:100FD00082EA0A0083EA0B01204029405040594030
:100FE0001CEB000C5EEB010EDDE90801D0E90045C9
:100FF0001CEB040C5EEB050ED1E900451CEB040C68
:101000005EEB050E18EB0C0859EB0E09D0E9024512
:1010100012196B41D1E9024512196B41DDE9044512
:101020008AEA04008BEA050110EA080011EA0901C6
:1010300090EA0A0091EA0B0112184B4188EAD86045
:1010400080EA491089EAD96181EA481180EA1810DA
:1010500080EA097081EA191181EA087112EB903275
:1010600043EB913312EB814243EB8043CDE90623FE
:10107000DDE90023DDE9024582EAD22080EA43501F
:1010800083EAD32181EA425180EA921080EA8360A8
:1010900081EA931181EA82611CEB107C4EEB117E98
:1010A0001CEB011C4EEB001E82EA0601324001EAF5
:1010B000040050401CEB000C01EA0C00504083EA95
:1010C00007023B4012EA050159405EEB010E02EABD
:1010D0000E015940DDE90623A4185D41CDE9024522
:1010E00012184B418CEADC2080EA4E508EEADE2159
:1010F00081EA4C5180EA9C1080EA8E6081EA9E1160
:1011000081EA8C6112EB107243EB117312EB011246
:1011100043EB0013CDE9062384EAD46080EA45104E
:1011200085EAD56181EA441180EA141080EA0570ED
:1011300081EA151181EA04711AEB903A4BEB913B6D
:101140001AEB814A4BEB804BDDE9042382EA08006D
:1011500083EA090120402940504059401AEB000A17
:101160005BEB010BDDE90801D0E904451AEB040A49
:101170005BEB050BD1E904451AEB040A5BEB050BAD
:1011800016EB0A0657EB0B07D0E9064512196B411F
:10119000D1E9064512196B41DDE9024588EA0400F0
:1011A00089EA05013040394090EA080091EA0901D6
:1011B00012184B4186EAD66080EA471087EAD76169
:1011C00081EA461180EA161080EA077081EA171159
:1011D00081EA067112EB903243EB913312EB8142BC
:1011E00043EB8043CDE90423DDE90623DDE9004537
:1011F00082EAD22080EA435083EAD32181EA425135
:1012000080EA921080EA836081EA931181EA826128
:101210001AEB107A4BEB117B1AEB011A4BEB001B0C
:1012200082EA0C0112EA0C0201EA040050401AEBB7
:10123000000A01EA0A00504083EA0E0213EA0E0394
:1012400012EA050159405BEB010B02EA0B01594020
:10125000DDE90423A4185D41CDE9004512184B4196
:101260008AEADA2080EA4B508BEADB2181EA4A5194
:1012700080EA9A1080EA8B6081EA9B1181EA8A6198
:1012800012EB107243EB117312EB011243EB0013DC
:10129000CDE9042384EAD46080EA451085EAD5616B
:1012A00081EA441180EA141080EA057081EA151180
:1012B00081EA047118EB903849EB913918EB8148B9
:1012C00049EB8049DDE9022382EA060083EA07014F
:1012D000204029405040594018EB000859EB0109C3
:1012E000DDE90801D0E9084518EB040859EB0509C8
:1012F000D1E9084518EB040859EB05091CEB080C6B
:101300005EEB090ED0E90A4512196B41D1E90A4595
:1013100012196B41DDE9004586EA040087EA050100
:1013200010EA0C0011EA0E017040794012184B418E
:101330008CEADC6080EA4E108EEADE6181EA4C11B4
:1013400080EA1C1080EA0E7081EA1E1181EA0C719D
:1013500012EB903243EB913312EB814243EB80432B
:10136000CDE90223DDE90423DDE9064582EAD22046
:1013700080EA435083EAD32181EA425180EA921005
:1013800080EA836081EA931181EA826118EB107828
:1013900049EB117918EB011849EB001982EA0A01AF
:1013A00012EA0A0201EA0400504018EB000801EAC0
:1013B0000800504083EA0B0213EA0B0312EA05010E
:1013C000594059EB010902EA09015940DDE90223BC
:1013D000A4185D41CDE9064512184B4188EAD82092
:1013E00080EA495089EAD92181EA485180EA981077
:1013F00080EA896081EA991181EA886112EB1072B2
:1014000043EB117312EB011243EB0013CDE90223FE
:1014100084EAD46080EA451085EAD56181EA441106
:1014200080EA141080EA057081EA151181EA0471DE
:1014300016EB903647EB913716EB814647EB80472A
:10144000DDE9002382EA0C0083EA0E0120402940F6
:101450005040594036184F41DDE90801D0E90C45AC
:1014600036196F41D1E90C4536196F411AEB060A5E
:101470005BEB070BD0E90E4512196B41D1E90E4524
:1014800012196B41DDE906458CEA04008EEA05017C
:1014900010EA0A0011EA0B0190EA0C0091EA0E0131
:1014A00012184B418AEADA6080EA4B108BEADB6162
:1014B00081EA4A1180EA1A1080EA0B7081EA1B1156
:1014C00081EA0A7112EB903243EB913312EB8142C5
:1014D00043EB8043CDE90023DDE90223DDE9044548
:1014E00082EAD22080EA435083EAD32181EA425142
:1014F00080EA921080EA836081EA931181EA826136
:1015000016EB107647EB117716EB011647EB001739
:1015100082EA080112EA080201EA04005040361883
:1015200001EA0600504083EA090213EA090312EABD
:10153000050159404F4102EA07015940DDE9002306
:10154000A4185D41CDE9044512184B4186EAD62026
:1015500080EA475087EAD72181EA465180EA96100F
:1015600080EA876081EA971181EA866112EB107246
:1015700043EB117312EB011243EB0013CDE900238F
:1015800084EAD46080EA451085EAD56181EA441195
:1015900080EA141080EA057081EA151181EA04716D
:1015A0001CEB903C4EEB913E1CEB814C4EEB804E85
:1015B000DDE9062382EA0A0083EA0B012040294084
:1015C000504059401CEB000C5EEB010EDDE90801B8
:1015D000D0E910451CEB040C5EEB050ED1E910457B
:1015E0001CEB040C5EEB050E18EB0C0859EB0E0916
:1015F000D0E9124512196B41D1E9124512196B411C
:10160000DDE904458AEA04008BEA050110EA0800D6
:1016100011EA090190EA0A0091EA0B0112184B4104
:1016200088EAD86080EA491089EAD96181EA4811DC
:1016300080EA181080EA097081EA191181EA0871BC
:1016400012EB903243EB913312EB814243EB804338
:10165000CDE90623DDE90023DDE9024582EAD22057
:1016600080EA435083EAD32181EA425180EA921012
:1016700080EA836081EA931181EA82611CEB107C2D
:101680004EEB117E1CEB011C4EEB001E82EA0601A4
:10169000324001EA040050401CEB000C01EA0C004F
:1016A000504083EA07023B4012EA050159405EEBD5
:1016B000010E02EA0E015940DDE90623A4185D413E
:1016C000CDE9024512184B418CEADC2080EA4E50ED
:1016D0008EEADE2181EA4C5180EA9C1080EA8E601D
:1016E00081EA9E1181EA8C6112EB107243EB117357
:1016F00012EB011243EB0013CDE9062384EAD46018
:1017000080EA451085EAD56181EA441180EA141027
:1017100080EA057081EA151181EA04711AEB903AAA
:101720004BEB913B1AEB814A4BEB804BDDE90423F9
:1017300082EA080083EA09012040294050405940CC
:101740001AEB000A5BEB010BDDE90801D0E9144557
:101750001AEB040A5BEB050BD1E914451AEB040AFA
:101760005BEB050B16EB0A0657EB0B07D0E91645AA
:1017700012196B41D1E9164512196B41DDE9024599
:1017800088EA040089EA05013040394090EA0800FF
:1017900091EA090112184B4186EAD66080EA4710A7
:1017A00087EAD76181EA461180EA161080EA07705D
:1017B00081EA171181EA067112EB903243EB913303
:1017C00012EB814243EB8043CDE90423DDE906239C
:1017D000DDE9004582EAD22080EA435083EAD32142
:1017E00081EA425180EA921080EA836081EA931193
:1017F00081EA82611AEB107A4BEB117B1AEB011A2A
:101800004BEB001B82EA0C0112EA0C0201EA040015
:1018100050401AEB000A01EA0A00504083EA0E0227
:1018200013EA0E0312EA050159405BEB010B02EAD1
:101830000B015940DDE90423A4185D41CDE90045C1
:1018400012184B418AEADA2080EA4B508BEADB21FE
:1018500081EA4A5180EA9A1080EA8B6081EA9B1102
:1018600081EA8A6112EB107243EB117312EB0112E1
:1018700043EB0013CDE9042384EAD46080EA4510E9
:1018800085EAD56181EA441180EA141080EA057086
:1018900081EA151181EA047118EB903849EB91390E
:1018A00018EB814849EB8049DDE9022382EA060012
:1018B00083EA0701204029405040594018EB0008B6
:1018C00059EB0109DDE90801D0E9184518EB0408D6
:1018D00059EB0509D1E9184518EB040859EB05093E
:1018E0001CEB080C5EEB090ED0E91A4512196B418E
:1018F000D1E91A4512196B41DDE9004586EA040079
:1019000087EA050110EA0C0011EA0E0170407940E7
:1019100012184B418CEADC6080EA4E108EEADE61E0
:1019200081EA4C1180EA1C1080EA0E7081EA1E11D7
:1019300081EA0C7112EB903243EB913312EB81424E
:1019400043EB8043CDE90223DDE90423DDE90645CD
:1019500082EAD22080EA435083EAD32181EA4251CD
:1019600080EA921080EA836081EA931181EA8261C1
:1019700018EB107849EB117918EB011849EB0019B5
:1019800082EA0A0112EA0A0201EA0400504018EB56
:10199000000801EA0800504083EA0B0213EA0B0337
:1019A00012EA0501594059EB010902EA09015940BF
:1019B000DDE90223A4185D41CDE9064512184B412B
:1019C00088EAD82080EA495089EAD92181EA485139
:1019D00080EA981080EA896081EA991181EA886139
:1019E00012EB107243EB117312EB011243EB001375
:1019F000CDE9022384EAD46080EA451085EAD56106
:101A000081EA441180EA141080EA057081EA151118
:101A100081EA047116EB903647EB913716EB81465D
:101A200047EB8047DDE9002382EA0C0083EA0E01E0
:101A3000204029405040594036184F41DDE9080107
:101A4000D0E91C4536196F41D1E91C4536196F4163
:101A50001AEB060A5BEB070BD0E91E4512196B4126
:101A6000D1E91E4512196B41DDE906458CEA0400F7
:101A70008EEA050110EA0A0011EA0B0190EA0C0057
:101A800091EA0E0112184B418AEADA6080EA4B10A3
:101A90008BEADB6181EA4A1180EA1A1080EA0B7056
:101AA00081EA1B1181EA0A7112EB903243EB913308
:101AB00012EB814243EB8043CDE90023DDE90223B1
:101AC000DDE9044582EAD22080EA435083EAD3214B
:101AD00081EA425180EA921080EA836081EA9311A0
:101AE00081EA826116EB107647EB117716EB01164F
:101AF00047EB001782EA080112EA080201EA040033
:101B00005040361801EA0600504083EA090213EA01
:101B1000090312EA050159404F4102EA0701594001
:101B2000DDE90023A4185D41CDE9044512184B41BD
:101B300086EAD62080EA475087EAD72181EA4651D3
:101B400080EA961080EA876081EA971181EA8661CF
:101B500012EB107243EB117312EB011243EB001303
:101B6000CDE900230A9A1BBCC3C2A2E818031BBC20
:101B7000A2E8030CA2E8185003B0BDE8F08F00BF44
:101B80002DE9F04F84469CE8F00FDCE91201DCE916
:101B90001C23241845EB01054FEA560E8EEAC77E3A
:101BA0008EEA162E8EEA076E8EEAD61E8EEA476EF3
:101BB00014EB0E044FEA570E8EEAC67E8EEA172EFD
:101BC0008EEA066E8EEAD71E45EB0E054FEAD24E20
:101BD0008EEA433E8EEAC20E8EEA537E8EEA921E53
:101BE0008EEA836E14EB0E044FEAD34E8EEA423E29
:101BF0008EEAC30E8EEA527E8EEA931E45EB0E05E8
:101C0000DCE91401DCE91E23361847EB01074FEA33
:101C1000580E8EEAC97E8EEA182E8EEA096E8EEA7A
:101C2000D81E8EEA496E16EB0E064FEA590E8EEA62
:101C3000C87E8EEA192E8EEA086E8EEAD91E47EB10
:101C40000E074FEAD24E8EEA433E8EEAC20E8EEA6D
:101C5000537E8EEA921E8EEA836E16EB0E064FEAD4
:101C6000D34E8EEA423E8EEAC30E8EEA527E8EEA52
:101C7000931E47EB0E07DCE9160118EB000849EB51
:101C800001094FEA5A0E8EEACB7E8EEA1A2E8EEAB0
:101C90000B6E8EEADA1E8EEA4B6E18EB0E084FEAD8
:101CA0005B0E8EEACA7E8EEA1B2E8EEA0A6E8EEAE2
:101CB000DB1E49EB0E094FEAD44E8EEA453E8EEA12
:101CC000C40E8EEA557E8EEA941E8EEA856E18EB5F
:101CD0000E084FEAD54E8EEA443E8EEAC50E8EEAD5
:101CE000547E8EEA951E49EB0E09DCE91801DCE909
:101CF00008231AEB000A4BEB010B4FEA520E8EEA57
:101D0000C37E8EEA122E8EEA036E8EEAD21E8EEA11
:101D1000436E1AEB0E0A4FEA530E8EEAC27E8EEA2B
:101D2000132E8EEA026E8EEAD31E4BEB0E0B4FEA99
:101D3000D64E8EEA473E8EEAC60E8EEA577E8EEA71
:101D4000961E8EEA876E1AEB0E0A4FEAD74E8EEA7F
:101D5000463E8EEAC70E8EEA567E8EEA971E4BEB03
:101D60000E0BACE8F00FDCE91201DCE90267121897
:101D700043EB01034FEA560E8EEAC77E8EEA162E1B
:101D80008EEA076E8EEAD61E8EEA476E12EB0E02C0
:101D90004FEA570E8EEAC67E8EEA172E8EEA066E40
:101DA0008EEAD71E43EB0E034FEAD84E8EEA493E29
:101DB0008EEAC80E8EEA597E8EEA981E8EEA896EE9
:101DC00012EB0E024FEAD94E8EEA483E8EEAC90E59
:101DD0008EEA587E8EEA991E43EB0E03DCE914016D
:101DE000DCE90489361847EB01074FEA580E8EEA02
:101DF000C97E8EEA182E8EEA096E8EEAD81E8EEA09
:101E0000496E16EB0E064FEA590E8EEAC87E8EEA30
:101E1000192E8EEA086E8EEAD91E47EB0E074FEA9E
:101E2000DA4E8EEA4B3E8EEACA0E8EEA5B7E8EEA70
:101E30009A1E8EEA8B6E16EB0E064FEADB4E8EEA8A
:101E40004A3E8EEACB0E8EEA5A7E8EEA9B1E47EB06
:101E50000E07DCE91601DCE906AB18EB000849EBDC
:101E600001094FEA5A0E8EEACB7E8EEA1A2E8EEACE
:101E70000B6E8EEADA1E8EEA4B6E18EB0E084FEAF6
:101E80005B0E8EEACA7E8EEA1B2E8EEA0A6E8EEA00
:101E9000DB1E49EB0E094FEAD24E8EEA433E8EEA34
:101EA000C20E8EEA537E8EEA921E8EEA836E18EB85
:101EB0000E084FEAD34E8EEA423E8EEAC30E8EEAF9
:101EC000527E8EEA931E49EB0E09DCE908011AEBFB
:101ED000040A4BEB050B4FEA500E8EEAC17E8EEAE8
:101EE000102E8EEA016E8EEAD01E8EEA416E1AEB3B
:101EF0000E0A4FEA510E8EEAC07E8EEA112E8EEA4D
:101F0000006E8EEAD11E4BEB0E0B4FEAD64E8EEAD8
:101F1000473E8EEAC60E8EEA577E8EEA961E8EEAFF
:101F2000876E1AEB0E0A4FEAD74E8EEA463E8EEACD
:101F3000C70E8EEA567E8EEA971E4BEB0E0BACE870
:101F4000CC0F5CE90E45DCE90267001941EB0501A5
:101F50004FEA560E8EEAC77E8EEA162E8EEA076E7E
:101F60008EEAD61E8EEA476E10EB0E004FEA570E31
:101F70008EEAC67E8EEA172E8EEA066E8EEAD71E8F
:101F800041EB0E014FEAD84E8EEA493E8EEAC80E6A
:101F90008EEA597E8EEA981E8EEA896E10EB0E004C
:101FA0004FEAD94E8EEA483E8EEAC90E8EEA587E36
:101FB0008EEA991E41EB0E015CE90C45DCE90489CF
:101FC000361947EB05074FEA580E8EEAC97E8EEAAE
:101FD000182E8EEA096E8EEAD81E8EEA496E16EB2E
:101FE0000E064FEA590E8EEAC87E8EEA192E8EEA48
:101FF000086E8EEAD91E47EB0E074FEADA4E8EEADC
:102000004B3E8EEACA0E8EEA5B7E8EEA9A1E8EEAFE
:102010008B6E16EB0E064FEADB4E8EEA4A3E8EEAD8
:10202000CB0E8EEA5A7E8EEA9B1E47EB0E075CE9CA
:102030000A45DCE906AB18EB040849EB05094FEA51
:102040005A0E8EEACB7E8EEA1A2E8EEA0B6E8EEA3E
:10205000DA1E8EEA4B6E18EB0E084FEA5B0E8EEA24
:10206000CA7E8EEA1B2E8EEA0A6E8EEADB1E49EBD2
:102070000E094FEAD04E8EEA413E8EEAC00E8EEA3D
:10208000517E8EEA901E8EEA816E18EB0E084FEAA2
:10209000D14E8EEA403E8EEAC10E8EEA507E8EEA26
:1020A000911E49EB0E09DCE908451AEB020A4BEBDD
:1020B000030B4FEA540E8EEAC57E8EEA142E8EEA8A
:1020C000056E8EEAD41E8EEA456E1AEB0E0A4FEAB2
:1020D000550E8EEAC47E8EEA152E8EEA046E8EEAC6
:1020E000D51E4BEB0E0B4FEAD64E8EEA473E8EEADC
:1020F000C60E8EEA577E8EEA961E8EEA876E1AEB21
:102100000E0A4FEAD74E8EEA463E8EEAC70E8EEA98
:10211000567E8EEA971E4BEB0E0BACE8C30F5CE9C4
:102120000E23DCE90267A41845EB03054FEA560EBF
:102130008EEAC77E8EEA162E8EEA076E8EEAD61ECD
:102140008EEA476E14EB0E044FEA570E8EEAC67EF7
:102150008EEA172E8EEA066E8EEAD71E45EB0E0526
:102160004FEAD84E8EEA493E8EEAC80E8EEA597E74
:102170008EEA981E8EEA896E14EB0E044FEAD94E51
:102180008EEA483E8EEAC90E8EEA587E8EEA991E85
:1021900045EB0E055CE90C23DCE90489B61847EB36
:1021A00003074FEA580E8EEAC97E8EEA182E8EEA91
:1021B000096E8EEAD81E8EEA496E16EB0E064FEABD
:1021C000590E8EEAC87E8EEA192E8EEA086E8EEAC5
:1021D000D91E47EB0E074FEADA4E8EEA4B3E8EEAE7
:1021E000CA0E8EEA5B7E8EEA9A1E8EEA8B6E16EB24
:1021F0000E064FEADB4E8EEA4A3E8EEACB0E8EEAA0
:102200005A7E8EEA9B1E47EB0E075CE90A23DCE947
:1022100006AB18EB020849EB03094FEA5A0E8EEAA7
:10222000CB7E8EEA1A2E8EEA0B6E8EEADA1E8EEACC
:102230004B6E18EB0E084FEA5B0E8EEACA7E8EEAF2
:102240001B2E8EEA0A6E8EEADB1E49EB0E094FEA60
:10225000D44E8EEA453E8EEAC40E8EEA557E8EEA54
:10226000941E8EEA856E18EB0E084FEAD54E8EEA64
:10227000443E8EEAC50E8EEA547E8EEA951E49EBE8
:102280000E095CE918231AEB000A4BEB010B4FEA2D
:10229000520E8EEAC37E8EEA122E8EEA036E8EEA0C
:1022A000D21E8EEA436E1AEB0E0A4FEA530E8EEAE6
:1022B000C27E8EEA132E8EEA026E8EEAD31E4BEB9E
:1022C0000E0B4FEAD64E8EEA473E8EEAC60E8EEAD7
:1022D000577E8EEA961E8EEA876E1AEB0E0A4FEA3A
:1022E000D74E8EEA463E8EEAC70E8EEA567E8EEABC
:1022F000971E4BEB0E0B8CE8F00FBDE8F08F00BF84
:1023000000487047CCA6000010B5441A034694421A
:1023100009D28418114403E011F8013D04F8013D8D
:10232000521EF9D210BD40EA0104A40703D009E00F
:1023300010C9121F10C3042AFAD203E011F8014B8E
:1023400003F8014B521EF9D210BDD2B201E000F8E1
:10235000012B491EFBD270470022F6E710B5134649
:102360000A4604461946FFF7F0FF204610BD421CFE
:1023700010F8011B0029FBD1801A7047034611F8A1
:10238000012B00F8012B002AF9D1184670470000F4
:10239000064C074D06E0E06840F0010394E80700B2
:1023A00098471034AC42F6D3FDF72EFFE8B1000099
:1023B00008B200002DE9F0410446B0B00D460A46CF
:1023C000684604F16008002100F028F904F12006B5
:1023D0004246214628A8FEF757FC04F14007324642
:1023E000214610A8FEF750FC4246394618A8FEF7D1
:1023F0004BFC3A46314620A8FEF746FCEB0F204640
:102400006A4610A900F098F930B0BDE8F08100BF2D
:102410002DE9F0410446B0B00D460A46684604F185
:102420006008012100F0FAF804F120064246214636
:1024300028A8FEF729FC04F140073246214610A8DF
:10244000FEF722FC4246394618A8FEF71DFC3A4624
:10245000314620A8FEF718FCEB0F20466A4610A96B
:1024600000F06AF930B0BDE8F08100BF2DE9F0411D
:10247000B0B0044600F1600868460D4604F120063D
:1024800000F0FEF84246214628A8FEF7FDFB04F1C5
:1024900040073246214610A8FEF7F6FB4246394671
:1024A00018A8FEF7F1FB3A46314620A8FEF7ECFBF0
:1024B000EB0F20466A4610A900F03EF930B0BDE8A7
:1024C000F08100BF2DE9F0430D46A1B001F12009D4
:1024D0001646044649462A4668461F4606F1200825
:1024E000FEF796FB49462A4608A8FEF759FB4146E7
:1024F000324610A8FEF78CFB4146324618A8FEF77C
:102500004FFB3A4618A910A8FDF7DCFF10AA694650
:102510006846FEF7B9FB08A918AA0846FEF7B4FBFF
:1025200006F1600205F1600110A8FEF7ADFB10A9ED
:102530000846174AFEF7A8FB06F1400205F14001E4
:1025400018A8FEF7A1FB18AA11461046FEF728FBB3
:102550006A4608A92046FEF75BFB04F120056A469F
:1025600008A904F16000FEF71BFB4034284610AABE
:1025700018A9FEF74DFB10AA18A92046FEF710FB7C
:102580003A4629462046FDF79DFF21B0BDE8F0837D
:1025900008B1000070B598B0044601F12006684605
:1025A0000D46FEF76FFB314608A8FEF76BFB05F101
:1025B000400110A8FEF766FB10AA11461046FEF770
:1025C000EFFA324629462046FEF7EAFA04F16005A2
:1025D00021462046FEF756FB284608AA6946FEF724
:1025E000DFFA04F140062A4621462046FEF710FB9A
:1025F00008A930466A46FEF70BFB10AA314604F1E3
:102600002000FEF705FB68462021FEF7A3F82A46C6
:1026100069462846FEF7FCFA18B070BD2DE9F8436C
:1026200002EBE27686EAE2760C460021074600F1EC
:10263000200800F07DFD711E104DC90F404600F0CE
:1026400077FD05EB442540354FF0010986EA090482
:10265000013CE40F294622463846FDF7C7FE09F142
:10266000010905F1200122464046FDF7BFFEB9F100
:10267000090F05F14005E9D1BDE8F883C8AA0000BB
:102680002DE9F84301EBE177804687EAE177002105
:1026900000F04EFD08F12009791EC90F484600F0F0
:1026A00047FD0C4E012587EA0504013CE40F314645
:1026B00022464046FDF79AFE013506F120012246EA
:1026C0004846FDF793FE092D06F14006EBD1BDE823
:1026D000F88300BF08AF0000F0B5D1E908358E6A75
:1026E000CA69144F8DB00C46290F41EA06114FEA12
:1026F000137C1B014CEA051C43EA127305463A465B
:1027000004A80291360F6946CDF804C000930396E1
:10271000FDF7E4FE009B21461B0704AA28460B9305
:10272000FDF744FEEA693946D20F2846FDF75EFE02
:102730000DB0F0BDA8AA00002DE9F0430D46A1B0F0
:1027400001F120091646044649462A4668461F46B6
:1027500006F12008FEF75CFA49462A4608A8FEF76B
:102760001FFA4146324610A8FEF752FA4146324659
:1027700018A8FEF715FA3A4618A910A8FDF7A2FE08
:1027800010AA69466846FEF77FFA08A918AA084603
:10279000FEF77AFA4246314610A8FEF775FA10A9FC
:1027A00005F160020846FEF76FFA10A90846144AC0
:1027B000FEF76AFA05F14002114618A8FEF7F0F993
:1027C0006A4608A92046FEF723FA04F120056A4666
:1027D00008A904F16000FEF7E3F94034284610AA86
:1027E00018A9FEF715FA10AA18A92046FEF7D8F97D
:1027F0003A4629462046FDF765FE21B0BDE8F08344
:1028000008B100002DE9F047CC7F91F80090C0B0EE
:102810000B4604F03F04D1F80110D3F809E0D3F8D7
:102820000DC0D3F81170D3F81560D3F80580D3F834
:102830001950CDF8411044F040041146824629F069
:102840000702684693F81D909B7FCDF849E0CDF8CC
:102850004DC08DF85E308DF85F408DF84020CDF88A
:102860005170CDF855608DF85D90CDF84580CDF86C
:10287000595000F041FC2022694618A8FDF762FF7C
:102880006846012100F054FC08A8002100F050FC2B
:1028900018A920A82022FDF755FF28A8012100F043
:1028A00047FC18AF0DF140090624002617F8018DEA
:1028B00048FA04F3354603F0010675402A4620A97C
:1028C0006846FDF7FFFD2A4628A908A8FDF7FAFD8E
:1028D00008AA694630A8FEF763F908AA10466946B7
:1028E000FEF796F928AA20A938A8FEF759F928AAD0
:1028F000104620A9FEF78CF938A9084608AAFEF769
:10290000C3F928A9084630AAFEF7BEF938AA28A9B3
:1029100020A8FEF745F928A938AA0846FEF778F955
:1029200020A90846FEF7AEF928A90846FEF7AAF93D
:1029300028A918AA0846FEF7A7F930A90846FEF705
:10294000A1F908A938A8FEF79DF938AA30A9684668
:10295000FEF79AF930A938AA0846FEF759F930A9C6
:1029600008A8FEF78FFA08A9084638AAFEF718F952
:1029700008A9013C30AA0846FEF786F9631C97D1E6
:102980004F454FF0070491D108A90846012200F0F5
:10299000EBFB08AA69466846FEF776F96946504699
:1029A00000F0F4FC40B0BDE8F08700BF014AFFF73B
:1029B00029BF00BF88A700002DE9F047B8B08A46BC
:1029C0008146114610A8514AFDF7F0FC50490246D5
:1029D00010A8FDF70BFD179F4C4900EAD7778046FA
:1029E000C7F1010210A8FDF701FD179E524628A964
:1029F00018A8F64301F05AFBF60F20A9C6F1010210
:102A0000084600F0DBFCC8F10108FE246A4618A95C
:102A100028A801F0FFFA621138AB03EB820204F040
:102A20001F0152F8A03CCB40354603F0010675402B
:102A30002A4628A918A8FDF745FD2A4630A920A84E
:102A4000FDF740FD013C28A918A801F07DFA631CA0
:102A5000DCD1C6F1010208A820A900F0AFFC7E403D
:102A60006A4618A928A801F0D5FA28A9324618A85C
:102A7000FDF728FD324630A920A8FDF723FD08A95F
:102A80006A460846FDF7D8FE08A9084600F0B2FCE1
:102A900008A909F120040AF120020846FDF7CCFE3E
:102AA00020A908AA2046FDF7C7FE08AA18A968466B
:102AB000FDF7C2FE69466846FDF7BCFE18AA6946E6
:102AC00008A8FDF7B9FE21466846FDF7B3FE08AA3F
:102AD00069461046FDF782FE0E4A08A96846FDF7D2
:102AE0007DFE20462021FDF71FFE08A94342024635
:102AF000684643EA0808FDF7E5FC4846064A694689
:102B0000FDF79AFE404638B0BDE8F087C8B1000036
:102B100068AA000088B1000088AA00000A4601499E
:102B2000FFF74ABFA8A7000038B504460D4600F0DD
:102B300011FD05F1200104F12000BDE8384000F04E
:102B400009BD00BF30B599B00546684600F060FE8B
:102B50006946044608A8FFF7E1FF08A90443284690
:102B6000FFF7E2FF204619B030BD00BF10B52022AC
:102B7000B0B004460DEB020000F076FE9DF83F3049
:102B80009DF8202003F07F0343F0400322F007026A
:102B900008A968468DF83F308DF8202000F008FD28
:102BA000694618A800F086F918A9204600F060F9D7
:102BB00030B010BDF0B5C3B004460E4617461946F6
:102BC0001AA8202200F050FE9DF887509DF868C09A
:102BD000009705F07F052CF0070C334622AA02A8C7
:102BE00045F0400500218DF868C08DF8875000F051
:102BF0004FFA02A92AA800F05DF92AA9204600F0A0
:102C000037F93346489A009721460AA800F040FA5F
:102C10001AA912A800F0CCFC0AA912AA084600F0D2
:102C20004FFD0AA902AA084600F0AEFC0AA904F169
:102C3000200000F09FFD43B0F0BD00BF2DE9F04142
:102C4000D2B004460F4632A819461D46904600F001
:102C5000A9F93B462A46064621460AA8CDF8008037
:102C600000F016FA04F1200112A800F0A1FC12AB4A
:102C70000AAA32A91AA800F00FF81AA902A800F0AF
:102C8000F7F8204602A92022FDF73AFD013830432B
:102C900052B0BDE8F08100BF2DE9F04FADF2045D08
:102CA0000C4607461646C0A880229946FDF74AFD05
:102CB00021466846FFF76EFC694618AA38A8FDF75A
:102CC000E3FF694620A808AAFDF7DEFF18AA10A9AD
:102CD00028A8FDF7D9FF10AA08A930A8FDF7D4FF4E
:102CE000C0AC0DF590680023214620AA6846FFF786
:102CF000E9FB254604F1E00018AA69468034FDF797
:102D0000C3FF204608AA6946FDF7BEFF18AA10A90E
:102D100005F1A000FDF7B8FF10AA08A905F1C00051
:102D2000FDF7B2FF4445DED10DF5807831464046CF
:102D300080AE00F0DBFC3046494600F0D7FCF043A3
:102D40000DF2FD120DF2FD2304E013F9011D31B95E
:102D50009E427AD012F9011DC4180029F5D0002135
:102D6000384607F1200900F0E3F907F1400A484628
:102D7000012100F0DDF95046012100F0D9F9002CC5
:102D80005FDB01342644444439466846FFF702FCC1
:102D900014F9015D18AA694638A8EDB15FEAD57B40
:102DA00018BF6D42FDF770FF08AA694620A8FDF71D
:102DB0006BFF18AA10A928A8FDF766FF10AA08A99A
:102DC00030A8FDF761FFC0AB6A1003EBC21220A967
:102DD0005B466846FFF776FB16F9013D18AA69467F
:102DE00038A81D46E3B15FEAD37B18BF5D42FDF70B
:102DF0004BFF08AA694620A8FDF746FF18AA10A9AC
:102E000028A8FDF741FF10AA08A930A8FDF73CFF4C
:102E1000164A5B4602EB851220A96846FFF78CFC38
:102E200008AA69463846FDF72FFF18AA10A9484698
:102E3000FDF72AFF10AA08A95046FDF725FFA04577
:102E4000A2D10DF2045DBDE8F08F384600F070F9B4
:102E500007F12000012100F06BF907F1400001218A
:102E600000F066F90DF2045DBDE8F08FC8AA00001D
:102E700030B599B004460D4610A84031012200F04B
:102E800073F9294610AA6846FDF7FEFE10AA05F15F
:102E9000200108A8FDF7F8FE08A9204600F076FA00
:102EA000684600F03DF9E37F83EAC013E37719B089
:102EB00030BD00BF2DE9F041B0B0E84604464046C1
:102EC00000F082FC04F140069DF93F102046FFF718
:102ED000D7FB3046012100F02BF904F120070DF15A
:102EE0001505214610A8FFF755FB18AA10A9204682
:102EF000FDF7CAFE28AA20A93846FDF7C5FE20AA7C
:102F000018A93046FDF7C0FE214610A8FFF742FB86
:102F100018AA10A92046FDF7B7FE28AA20A938460E
:102F2000FDF7B2FE20AA18A93046FDF7ADFE2146F6
:102F300010A8FFF72FFB18AA10A92046FDF7A4FE42
:102F400028AA20A93846FDF79FFE20AA18A93046D6
:102F5000FDF79AFE214610A8FFF71CFB15F9011D8D
:102F600010A8FFF727FA95F9151010A8FFF750FAE7
:102F700095F92A1010A8FFF779FA18AA10A9204687
:102F8000FDF782FE28AA20A93846FDF77DFE20AA7B
:102F900018A93046FDF778FEA845A2D130B0BDE8AB
:102FA000F08100BFF0B5044600F1400699B00D462F
:102FB00004F120073046012100F0BAF838462946CE
:102FC00000F09AF8394608A8FDF75CFE08A910A899
:102FD0002D4AFDF759FE08A932460846FDF718FEAE
:102FE00010AA31461046FDF7DBFD10AA08A9684675
:102FF000FDF74AFE69466846002200F0B5F808AAC7
:1030000069462046FDF740FE21466846FDF73AFE38
:1030100010AA69466846FDF737FE08A9684600F021
:103020005BF821460646194A6846FDF72DFEC6F1B3
:10303000010220466946FDF745FA21466846FDF73C
:1030400021FE10AA69466846FDF71EFE08A96846DB
:1030500000F042F821460646684600F073F8204624
:1030600000F05EF8EA7F80EAD21269462046C2F19B
:103070000102FDF727FA04F160003A462146FDF708
:1030800003FE701E19B0F0BD28B1000048B1000069
:10309000F0B5C3B00C46054610A817461E4600F012
:1030A0007BFE24B12146202210A800F0C5FE39463F
:1030B00010A8202200F0C0FE489A314610A800F067
:1030C000BBFE10A8694600F07BFD6946284600F06B
:1030D0009FFA43B0F0BD00BF38B50C460546FDF77A
:1030E00015FF2046FDF712FF214628462022BDE8A5
:1030F0003840FDF705BB00BF0B6803604B684360B9
:103100008B688360CB68C3600B6903614B69436163
:103110008B698361CB6923F00043C361704700BFB3
:1031200010B50446FDF7F2FE206800F0010010BD66
:103130000023C0E90013C0E90233C0E90433C0E949
:103140000633704730B589B0002400250A46694629
:10315000CDE90045CDE90245CDE90445CDE9064577
:10316000FDF756FD09B030BDF0B5A1B00446684684
:1031700016460D46FDF786FD694618A8FDF782FD47
:1031800018A90846FDF77EFD2A4618A908A8FDF7EC
:103190007BFD6A4608A96846FDF776FD694618A8D2
:1031A000FDF770FD08AA104618A9FDF76DFD08A9E6
:1031B00018A8FDF767FD18A90846FDF763FD18A9D3
:1031C0000846FDF75FFD18A90846FDF75BFD18A945
:1031D0000846FDF757FD08AA18A91046FDF754FD4B
:1031E000022708A900E0012718A8FDF74BFD18A940
:1031F0000846FDF747FD18A90846FDF743FD18A945
:103200000846FDF73FFD18A90846FDF73BFD012FD5
:1032100018A9E8D110A808AAFDF736FD042710A9BF
:1032200018A8FDF72FFD18A90846FDF72BFD18A9D2
:103230000846FDF727FD18A90846FDF723FD18A944
:103240000846FDF71FFD013F18A9E9D110AA08465D
:10325000FDF71AFD022700E0012718A90846FDF72F
:1032600011FD18A90846FDF70DFD18A90846FDF740
:1032700009FD18A90846FDF705FD18A90846FDF740
:1032800001FD012FE8D118A908AA10A8FDF7FCFC40
:103290000A2710A918A8FDF7F5FC18A90846FDF79C
:1032A000F1FC18A90846FDF7EDFC18A90846FDF742
:1032B000E9FC18A90846FDF7E5FC013F18A9E9D18A
:1032C00010AA08A8FDF7E0FC142708A918A8FDF724
:1032D000D9FC18A90846FDF7D5FC18A90846FDF742
:1032E000D1FC18A90846FDF7CDFC18A90846FDF742
:1032F000C9FC013F18A9E9D108AA0846FDF7C4FC9A
:103300000A2718A90846FDF7BDFC18A90846FDF7CD
:10331000B9FC18A90846FDF7B5FC18A90846FDF741
:10332000B1FC18A90846FDF7ADFC013FE9D118A989
:10333000084610AAFDF7A8FC18A9084666B9FDF7CB
:10334000A1FC18A90846FDF79DFC2A4618A92046AD
:10335000FDF79AFC21B0F0BDFDF794FC18A90846D2
:10336000FDF790FC18A90846FDF78CFC18A9084643
:10337000FDF788FC18A90846FDF784FC6A4618A9E1
:103380002046FDF781FC21B0F0BD00BF38B50C46EA
:1033900005460846FDF7BAFD23682B6063686B603D
:1033A000A368AB60E368EB6023692B6163696B61C1
:1033B000A369AB61E369EB6138BD00BF70B588B04C
:1033C00004460D46684620211646FDF7C3F9002342
:1033D0002946204620220093FDF7B4F92A46694683
:1033E0006846FDF7FBF9324669462046FDF76AF864
:1033F00008B070BD70B598B00C46054610A8FDF732
:1034000019FA224610A96846FDF716FA694610A86F
:10341000FDF710FA10A90846FDF70CFA6A4610A944
:1034200008A8FDF709FA08A910A8FDF703FA10A9E2
:103430000846FDF7FFF910A90846FDF7FBF910A9AA
:103440000846FDF7F7F910A908AA0846FDF7F4F9B0
:1034500010A90846FDF7EEF910A90846FDF7EAF9AC
:1034600010A96A4608A8FDF7E7F9052608A910A8DB
:10347000FDF7E0F910A90846FDF7DCF9013E10A9B7
:10348000F5D108AA0846FDF7D7F9052610A9084680
:10349000FDF7D0F910A90846FDF7CCF9013EF5D1AA
:1034A00010A908AA0846FDF7C7F910A908A8FDF752
:1034B000C1F908A90846FDF7BDF908A96A4668469A
:1034C000FDF7BAF91026694610A8FDF7B3F910A95F
:1034D0000846FDF7AFF9013E10A9F5D1224608468E
:1034E000FDF7AAF9402610A90846FDF7A3F910A98F
:1034F0000846FDF79FF9013EF5D110A96A46084636
:10350000FDF79AF9102610A90846FDF793F910A9BE
:103510000846FDF78FF9013EF5D110A96A46084625
:10352000FDF78AF9102610A90846FDF783F910A9BE
:103530000846FDF77FF9013EF5D110A908AA084613
:10354000FDF77AF9224610A92846FDF775F918B05B
:1035500070BD00BFCB691BBA03608B691BBA4360A7
:103560004B691BBA83600B691BBAC360CB681BBA7B
:1035700003618B681BBA43614B681BBA83610B689C
:103580001BBAC361704700BF38B5084D0446FCF74D
:10359000EDFE21462A462046FCF708FF2946024652
:1035A0002046BDE83840FCF721BF00BFA8AA0000B4
:1035B000F0B54B078DB01AD1D1E90023D1E902450E
:1035C000CDE90023D1E90467D1E90623CDE902451D
:1035D000CDE90467CDE906230022002300246946D3
:1035E000CDE908230A94FFF777F80DB0F0BD4C68D9
:1035F0008A68CB680E694D69019402928C69CA6928
:1036000003930B680093CDE90465CDE90642E3E737
:10361000F0B54B0793B00D4604462FD1D1E90023F6
:10362000D1E90201CDE90023D5E90423CDE9020166
:10363000CDE90423D5E90601D5E90823CDE9060142
:10364000CDE90823D5E90A01D5E90C67D5E90E23B0
:10365000CDE90A01CDE90C67CDE90E2306A90023C7
:1036600008461093FFF738F803A90846FFF734F827
:1036700069462046FFF730F813B0F0BD4968AA68E4
:10368000EB682869019102926969AA690393049021
:10369000EB69286A05910692696AAA6A2E6B0793FC
:1036A0000890EB6A686B09910A92A96BEA6B0B931D
:1036B0002B680093CDE90C60CDE90E12CEE700BF78
:1036C00010B592B0044601A8FCF748FF07A90023F3
:1036D00008461193FFF700F804A90846FEF7FCFF1F
:1036E00001A92046FEF7F8FF12B010BD2DE9F04702
:1036F0000024451E00F1FC0EC0F1010C26466FF0BF
:1037000009074FF0010812E0C35D53444FFA83F9F3
:10371000B9F1070FDBB2A3F1100327DC00F8079023
:10372000002305F8013F75454FEA54041CD00CEB0B
:1037300005035A1113F01F0F08BF51F82240A219B8
:1037400012F00102A3EB070906EA0406E8D0B9F17A
:10375000030F08FA09FAD7DD1F46012305F8013FD8
:1037600075454FEA5404E2D1BDE8F087C3551646CB
:103770000023D6E740EA01035B0714D1C31D5B1A9F
:103780000E2B10D9D1E90023C0E90023D1E902238F
:10379000C0E90223D1E90423C0E90423D1E90623C7
:1037A000C0E9062370470B6803604B6843608B6871
:1037B0008360CB68C3600B6903614B6943618B69AC
:1037C0008361CB69C3617047F0B40025471E2C4666
:1037D0002E46E30814F0070F08BF51F8235005F0F8
:1037E0000F03334403F1080202F47F6601349B1B8C
:1037F0003F2C4FEA121607F8013F4FEA1515C2F3A6
:103800000712E6D12A4480F83F20F0BC704700BF81
:1038100070B50B68124E1BBAC3614B681BBA83614B
:103820008B681BBA4361CB681BBA03610B691BBA77
:10383000C3604B691BBA83608B691BBA4360CB6959
:103840001BBA0360324601460446FCF7AFFD05464D
:10385000314620462A46FCF7C9FD681E70BD00BFF0
:10386000A8B10000000000002DE9F04DC4A7D7E981
:1038700000670FF2143BDBE900ABB2B0CDE90267A1
:10388000C3A7D7E90067CDE900AB0FF20C3BDBE93A
:1038900000ABCDE90667C2A7D7E90067CDE904AB65
:1038A0000FF2043BDBE900ABCDE90A67C0A7D7E91B
:1038B0000067CDE908AB0FF2003BDBE900ABCDE9D7
:1038C0000E670026CDE90CAB144680463192309647
:1038D000002A40F0818080238DF840307A21012039
:1038E0006D4610AF00F140032B4421F003021A444F
:1038F000002643F8046B9342FBD121F003038B4273
:10390000184413D0431C32AA024400217B2B02F836
:10391000881C0BD032AA1344792800F1020203F864
:10392000881C03D032AB1A4402F8881C620F630D66
:1039300039468DF8BB208DF8BC30620B63092846F0
:10394000E4008DF8BD208DF8BE308DF8BF4000F04A
:1039500097FDDDE90441DDE90623DDE90007DDE946
:10396000026509BA12BA00BA3FBA36BA2DBA24BAF9
:103970001BBAC8F81010C8F81C20DDE90D12C8F8F1
:103980000400C8F800700B980C9FC8F80C60C8F8C9
:103990000850089E099DC8F81440C8F818300A9CC1
:1039A0000F9B36BA2DBA24BA00BA3FBA09BA12BA76
:1039B0001BBAC8F82460C8F82050C8F82C40C8F8D2
:1039C0002800C8F83470C8F83010C8F83C20C8F88F
:1039D000383032B0BDE8F08D6D4628460F4600F015
:1039E000C1FB241A03463C44002800F0C080421E5C
:1039F000022A40F2BA8020F0030610AF264439466E
:103A0000224652F8040B41F8040BB242F9D123F0DC
:103A100003069E42344414D032AA3244217802F87C
:103A2000881C721C93420CD932A90A440236617870
:103A300002F8881CB34204D932AA1644A27806F8C8
:103A4000882C32AA581C1A4480217028309302F81E
:103A5000881C7BD97F2873D832AA10447E2B4FF064
:103A6000000200F8882C03F1020169D032A8014459
:103A70007D2B03F1030001F8882C61D032A90844A2
:103A80007C2B03F1040100F8882C59D032A80144A2
:103A90007B2B03F1050001F8882C51D032A9084492
:103AA0007A2B03F1060100F8882C49D032A8014492
:103AB000792B03F1070001F8882C41D032A9084482
:103AC000782B03F1080100F8882C39D032A8014482
:103AD000772B03F1090001F8882C31D032AA104469
:103AE000762B4FF0000200F8882C03F10A0127D052
:103AF00032A80144752B03F10B0001F8882C1FD06C
:103B000032A90844742B03F10C0100F8882C17D05B
:103B100032A80144732B03F10D0001F8882C0FD05B
:103B200032A90844722B03F10E0100F8882C07D04B
:103B300032A80144702B01F8882C01D18DF8BF20E8
:103B40003946284600F09CFC7A280CD8431C7B2B75
:103B5000C0F17A02C0F17B0188BF0121022A319CA9
:103B60003FF6C0AECFE6319CE0E610AF54E78022CE
:103B70003090319C8DF8402001207A2110AFB1E6C1
:103B80003BA7CA8485AE67BB08C9BCF367E6096A70
:103B9000F1361D5F3AF54FA52BF894FE72F36E3C9B
:103BA0001F6C3E2B8C68059BD182E6AD7F520E5177
:103BB00079217E1319CDE05B6BBD41FBABD9831F2F
:103BC000F8B5D0F8C0300446C218581C80267028BA
:103BD0000D4682F840606FD804F14006C0F17A03C8
:103BE000022BC0F17B010FD900F14003234421F0E7
:103BF00003021A44002743F8047B9A42FBD121F0C8
:103C000003038B42184411D0231800227A2883F82A
:103C1000402000F1010309D02344792800F102017A
:103C200083F8402002D0214481F84020D4F8C430E9
:103C3000580F5A0D84F8BB0084F8BC20580B5A0961
:103C4000DB0084F8BD0084F8BE2084F8BF30314624
:103C5000204600F015FCD4E9002312BA1BBA6A60B2
:103C60002B60D4E9022312BA1BBAEA60AB60D4E934
:103C7000042312BA1BBA6A612B61D4E9062312BA73
:103C80001BBAEA61AB61D4E9082312BA1BBA6A62B3
:103C90002B62D4E90A2312BA1BBAEA62AB62D4E9F6
:103CA0000C2312BA1BBA6A632B63D4E90E2312BA2F
:103CB0001BBAEA63AB63F8BD7F2862D820440022B8
:103CC0007E2B80F8402003F102015AD021447D2B45
:103CD00003F1030081F8402053D020447C2B03F1F2
:103CE000040180F840204CD021447B2B03F10500D7
:103CF00081F8402045D020447A2B03F1060180F85A
:103D000040203ED02144792B03F1070081F8402068
:103D100037D02044782B03F1080180F8402030D0C0
:103D20002144772B03F1090081F8402029D0204459
:103D3000762B80F8402003F10A0122D02144752B14
:103D400003F10B0081F840201BD02044742B03F1B9
:103D50000C0180F8402014D02144732B03F10D0096
:103D600081F840200DD02044722B03F10E0180F821
:103D7000402006D02144702B81F8402001D184F8E6
:103D8000BF2004F140063146204600F079FB7A2836
:103D90007FF624AF4AE700BF17A3D3E90023F0B4AE
:103DA00017A5D5E90045C0E9002317A3D3E90023EF
:103DB00017A7D7E90067C0E9024517A5D5E900456F
:103DC000C0E9062316A3D3E90023C0E90467C0E9CC
:103DD000084515A7D7E9006715A5D5E90045C0E94D
:103DE0000C2300220023C0E90A67C0E90E45C0E9A0
:103DF0003023F0BC704700BF08C9BCF367E6096A0E
:103E00003BA7CA8485AE67BBF1361D5F3AF54FA567
:103E10002BF894FE72F36E3CD182E6AD7F520E51C8
:103E20006BBD41FBABD9831F1F6C3E2B8C68059B80
:103E300079217E1319CDE05B2DE9F843D0E93053A9
:103E40001344074614468846C0F8C430E5B17F2DB8
:103E500076D8D2B105F14006C5F1800906448944FF
:103E60000B4601E0002C52D00133A3EB080213F8FB
:103E7000011C06F8011B4B4504F1FF342A44F1D123
:103E8000802A49D01546C8461CB9C7F8C050BDE8BD
:103E9000F88322464146384600F064F9261A054662
:103EA00046440028F1D0231D1B1A434407F1400269
:103EB00007F144018E4238BF9A4237D3431E072B85
:103EC00034D920F003003044334653F8041B42F841
:103ED000041B8342F9D125F003039D4206EB030145
:103EE000D3D0FA18F05C82F840005A1C9542CCD925
:103EF0003A440233487882F840009D42C5D93B4499
:103F00008A7883F84020C7F8C050BDE8F88315468A
:103F1000C7F8C050BDE8F88307F14001384600F00B
:103F2000AFFAC8460546002CAFD0B2E7444407F1CB
:103F30003F0316F8012B03F8012FA642F9D1A4E79D
:103F40002A4689469CE700BFF0B599B004460D4665
:103F50000A4601466846FCF741FC69466846FCF79C
:103F600069FC21466A4608A805F1200604F12007ED
:103F7000FCF762FC6A4629466846FCF75DFC394658
:103F8000324610A8FCF7ECFB324639463046FCF7C7
:103F900025FC31462846FCF74DFC6A4608A9204618
:103FA000FCF7DEFB224629462846FCF717FC6A464A
:103FB00008A96846FCF712FC6A4639463846FCF701
:103FC0003BFC2A4608A96846FCF708FC6A463146CD
:103FD0003046FCF731FC3A4631463046FCF7FEFBF2
:103FE00010A96846FCF726FC224669462046FCF7E5
:103FF000F5FB08A922460846FCF7F0FB10A908AA21
:104000000846FCF719FC3A4610A93846FCF7E6FBCF
:1040100019B0F0BD2DE9F0410C4688B00546904638
:10402000014622466846FCF7D9FB69466846FCF71C
:1040300001FC6A462946284604F12006FCF7FCFBF1
:1040400005F120076A4621466846FCF7F5FB324633
:1040500030463946FCF7C2FB31462046FCF7EAFB06
:104060002A4621462046FCF7B9FB6A4621462046EF
:10407000FCF7B4FB6A4629464046FCF7AFFB4246D4
:1040800039463846FCF7D8FB224629466846FCF7F5
:10409000A5FB6A4631463046FCF7CEFB3A46314630
:1040A0003046FCF79BFB08B0BDE8F0812DE9F041FC
:1040B00088B00C46064602F12001684606F120074A
:1040C0009046FCF7B7FB6A4669466846FCF748FB32
:1040D00038466946FCF7AEFB3A463946384604F1A5
:1040E0002005FCF73DFB6A4669466846FCF738FB4D
:1040F00028464146FCF79EFB6A4641463046FCF79F
:104100009BFB2A4629466846FCF72AFB2A46694655
:104110006846FCF725FB124A69466846FCF720FB17
:1041200069462046FCF786FB324621462046FCF7CE
:1041300055FB324621462046FCF750FB22463146CD
:104140002846FCF74BFB6A4629462846FCF774FBD9
:104150003A4629462846FCF741FB08B0BDE8F08105
:1041600068B100002DE9F04FBDB07F2A0B9240F2FC
:1041700079818246A2F18004DAF818300193DAF8E6
:104180001C300293DAF820300393DAF824300493D9
:10419000DAE90AB3D0E90020DAE9046524F07F0403
:1041A00089468034DAE902174C440593DAE90D8E2A
:1041B000DAF8303006930A94DAF83C30CDF81CB0C7
:1041C00014462A463D461746D9F80C200C94D9F8D7
:1041D000084008940D901197D9F81400099017BA67
:1041E000089A109616BA099A0F9515BA019A129262
:1041F000029A1392039A1492049A1592079A1692AD
:10420000059A1792069AD9F804B0D9F800C0D9F8DF
:104210001040D9F81C000E91D9F81810CDE91828D3
:10422000CDE91AE3D9F848300193D9F85430029314
:10423000D9F850300393D9F85C300493D9F858304A
:104240000593019BD9F82080D9F82CE0D9F84C20AF
:104250009BFA8BFB9CFA8CFC24BA00BA09BA1BBAF5
:10426000CDE91CBCCDE91E76D9F824B0D9F828C018
:10427000D9F83470D9F83060CDE92054CDE9220165
:10428000D9F83C50D9F83840D9F84400D9F8401052
:104290002F93029B1BBA3093039B1BBA3193049B51
:1042A0001BBA3293059B98FA88F89EFA8EFE9CFA08
:1042B0008CFC3FBA36BA2DBA24BA1BBA9BFA8BFBD8
:1042C000CDE926ECCDE92876D9F860E0D9F86CC0C4
:1042D000D9F86870D9F874603393CDE92A54D9F8C5
:1042E0007830D9F87050D9F87C40CDE924B8D9F8A5
:1042F000648000BA09BA12BA9EFA8EFE9CFA8CFC4F
:104300001BBACDE92C012E921CA90CAA574898FA89
:1043100088F83FBA36BA2DBA24BACDE9348ECDE941
:1043200036C7CDE93865CDE93A43FCF725FE1CA830
:10433000FDF726FC0CAA1CA94D48FCF71DFE1CA885
:10434000FDF71EFC0CAA1CA94A48FCF715FE1CA888
:10435000FDF716FC0CAA1CA94748FCF70DFE1CA88B
:10436000FDF70EFC45480CAA1CA9FCF705FEDDE98B
:104370000C40DAF80020DAF808300E99119F141971
:10438000DAF80420CAF80040DAE9035642EB0000EC
:1043900059180F9BDAF8242043EB0505109BF618FB
:1043A000DAF8143043EB0707DAF81830CAF814705B
:1043B0009C46129B1CEB03030193DAF81C309C46CD
:1043C000139B4CEB030CDAF82030CDF808C09C4668
:1043D000149B1CEB030C159BCDF80CC043EB0202A5
:1043E000019B0492CAE90101CAE90356CAF81830D0
:1043F000029BCAF81C30CAE908C2169BDAF82820CA
:10440000D3180793179ACAF82830DAF82C3053419A
:104410000593189ACAF82C30DAF830309B180693B6
:10442000199ACAF83030DAF8343043EB0208DAF877
:1044300038201B9BCAF8348094461A9A1CEB020E53
:10444000DAF83C2042EB03030A9A09F1800991450E
:10445000CAE90EE37FF4B8AE0B9B03F07F003DB0DA
:10446000BDE8F08F10463DB0BDE8F08FE8A7000032
:1044700068A80000E8A8000068A90000E8A90000FA
:104480002DE9F041D1F804C00D68CC688A684B6909
:104490000F69CE69B0B080469CFA8CFC2DBA24BA64
:1044A00012BA1BBACDE910C5CDE913231294D8E98D
:1044B0000223D8E900453FBA36BACDE91576CDE9F1
:1044C0000045D8E90467D8E90645CDE90223D8E9D3
:1044D0000823CDE90467CDE90645D8E90A67D8E99C
:1044E0000C45CDE908238869D8E90E2300BACDE947
:1044F0000A67CDE90C451790CDE90E23CF6A8E6A85
:104500004D6B0C6BC86B8A6B4B6CD1F824E0D1F807
:1045100020C03FBA36BA2DBA24BA00BA12BA1BBAB2
:104520001A971B960F6CCE6C1C951D948D6C4C6D60
:104530001E901F92086DCA6D20938B6D9EFA8EFEA1
:104540009CFA8CFC3FBA36BA2DBA24BA00BA12BA19
:104550001BBACDE92176CDE92354CDE92502CDE979
:1045600018EC2793D1F864E0486FCA6F534CD1F828
:1045700060C0CF6E8E6E0D6F8B6F00BA11BA9EFA4F
:104580008EFE9CFA8CFC1BBA6A462C902E9120461B
:1045900010A93FBA36BA2DBA2F93CDE928ECCDE950
:1045A0002A762D95FCF7E8FC10A8FDF7E9FA6A4693
:1045B00010A904F18000FCF7DFFC10A8FDF7E0FA79
:1045C0006A4610A904F58070FCF7D6FC10A8FDF728
:1045D000D7FA6A4610A904F5C070FCF7CDFC10A804
:1045E000FDF7CEFA6A4610A904F50070FCF7C4FC8A
:1045F000D8F80000009DD8F80410019ED8F80830C3
:10460000029CD8F80C20D8F81070401946EB010134
:10461000039DC8F800000498C8F804101B190599F8
:10462000D8F81440D8F81860C8F8083045EB0202F2
:10463000069B079DC8F80C203F1844EB0101D8F8F1
:104640001C00089AC8F81070D8F82070C8F8141028
:10465000F6180999D8F82430C8F8186045EB00001E
:10466000BA1841EB0303C8E90702C8F82430D8E9B7
:104670000A01DDE90A56D8F830300C9CD8F834200D
:10468000D8F83870401946EB01010D9DC8F8280094
:104690000E98C8F82C101B190F99D8F83C40C8F890
:1046A000303045EB02023818C8E90D2044EB010117
:1046B0000020C8F83C1030B0BDE8F081E8A7000049
:1046C000064882B00021016000680090044800683C
:1046D0000449C0B2496802B00847000000D1004058
:1046E00008D500404400002000F0FEB870B50E462A
:1046F000144900EB400001EBC0051446E86A183588
:1047000020B101280FD0022805D113E0284600F07F
:104710001FF9A04201D2002411E02246314628466A
:1047200000F04EF90BE0284600F012F9A042F4D256
:104730000446F2E73146284600F015F904462046C3
:1047400070BD0000C409002000B54FF08050002269
:10475000D0E94C100D2901D0102907D14FF080432A
:10476000C3F80C21C3F81021534B1A600D2901D056
:10477000102955D1514A1268514B1A604F4A121DE7
:1047800012681B1D1A604D4A083212681B1D1A6000
:104790004A4A0C3212681B1D1A60484A10321268CD
:1047A0001B1D1A60454A143212681B1D1A60434AC9
:1047B00018321268424B20331A60404A1C32126889
:1047C0001B1D1A603D4A203212681B1D1A603B4AAD
:1047D000243212681B1D1A60384A283212681B1DC9
:1047E0001A60364A2C3212681B1D1A60334A303266
:1047F0001268334B40331A60304A343212681B1D42
:104800001A602E4A383212681B1D1A602B4A3C323D
:1048100012681B1D1A60294A403212681B1D1A605B
:104820000D2901D0102906D1264A1368DB0702D0D2
:104830006FF0010313604FF010220D2902D01029F0
:1048400004D00DE060B1012805D109E040B1012894
:1048500006D0022804D0D2F8080217492031086097
:10486000D2F80002002803DBD2F8040200281EDA86
:10487000012003F0AFF91221C2F8001212480368B8
:10488000002BFCD0C2F8041201680029FCD00020E3
:1048900003F0A0F9BFF34F8F0C4801680C4A01F4F4
:1048A000E06111430160BFF34F8F00BFFDE70A498C
:1048B0000848086000BD00003805004004040010EE
:1048C00020C500400004004000E401400CED00E081
:1048D0000400FA050090D003D400002001480068CD
:1048E000004700003C00002010B5124C022020615F
:1048F000606111A0A06104F17800E0614FF40060F4
:1049000020620020A06260620BA1A164E06204F654
:104910007801E1641021A065C4E91410E06509A1E3
:10492000E01DFDF72BFD08A12046FDF727FD202007
:10493000A07110BDC40900205465726D696E616C70
:1049400000000000525454005345474745520000B0
:104950000269C1688A4203D88068401A104400E0A6
:10496000501A401E70472DE9F047C4681746894623
:1049700006464FF000083069A04201D9051B02E04D
:10498000B168201A0D1AB0686D1E001BA84200D82D
:104990000546BD4200D33D4670682A46204449463C
:1049A000FDF7B2FCB0687F1B2C44A844A944A04288
:1049B00000D10024F460002FDDD14046BDE8F0872F
:1049C0002DE9F04104468846D4E90207C51BE16899
:1049D000606816460844B54206D94146FDF794FC86
:1049E000B819E060BDE8F0812A464146FDF78CFC2D
:1049F000761B08EB050132466068FDF785FCE66032
:104A0000F0E702E008C8121F08C1002AFAD1704777
:104A10007047002001E001C1121F002AFBD170473E
:104A200072B602F039FC00BF02F040FA0028FBD158
:104A300011481249401AC408012000EB044010A19B
:104A400002F0A2FB11480068C00700D000BE02209F
:104A500000EB04400EA102F097FBBFF34F8F0B4811
:104A6000E43801680E4A01F4E06111430160BFF3CC
:104A70004F8F00BFFDE7000060B2000030B20000C1
:104A8000466174616C206572726F7200F0ED00E037
:104A900053797374656D207265736574000000004E
:104AA0000400FA050EB500210091CDE901106A4617
:104AB00044F20100FFF7B4FF0EBD00F003B800F0B0
:104AC00009B8000072B602480168491C01607047CD
:104AD0004C00002003490868401E086000D162B6FF
:104AE000704700004C0000202DE9F04106460868A0
:104AF0000C46411C4FF0A0474FF0010506D005FAC7
:104B000000F1C7F80815206802F0BCF86068411C85
:104B100002D0002102F0A4F83168A069C1F8240590
:104B2000607D227D31681043C1F86C05D4E9001224
:104B30003068C0F81425C0F80C15207D012815D167
:104B4000A068411C02D0002102F08AF8E068411CF4
:104B500005D08540C7F80855E06802F093F8D4E91D
:104B600002123068C0F80825C0F81015BDE8F081C1
:104B70002DE9F041064608680C46411C4FF0A0475D
:104B80004FF0010506D005FA00F1C7F808152068B6
:104B900002F082F86068411C02D0002102F069F83E
:104BA0003168A069C1F82405607D217D3268084321
:104BB000C2F86C05D4E900123068C0F80C15C0F8D2
:104BC0001425207D012815D1A068411C02D00021A8
:104BD00002F04FF8E068411C05D08540C7F8085541
:104BE000E06802F059F8D4E902123068C0F80825EC
:104BF000C0F81015BDE8F0812DE9F04FADF53F7D0F
:104C000014460E468346B2F5C07F05D96FF03700D3
:104C10000DF53F7DBDE8F08F4FF4D0716846FDF78C
:104C20009BFB68A800F02DFC200E8DF81000200CD6
:104C30008DF81100200A8DF8120020208DF8170041
:104C400006AD8DF81340224631462846FDF75CFB41
:104C50008020285504F119080020BAA90854401CE6
:104C60001028FBDB802268A800F010FC070051D15F
:104C70000025AA466E46CDF8B8A2CDF8BCA2CDF864
:104C8000C0A244460DF52E79CDF8C4A217E000204D
:104C90004946335C0A5C5A400A54401C1028F8DB31
:104CA0001036102C01D3102000E02046241AAEABA1
:104CB0001A46012168A800F0D1FB07002AD1002C78
:104CC000E5D1B2A828441022AEA9FDF71DFB9DF83E
:104CD00003001035401C8DF80300202DCADB802214
:104CE000B2A968A800F0D2FB070013D1B6AE5C46AB
:104CF000002533461A46012168A800F0AFFB0700E3
:104D000008D1102231462046FDF7FEFA1034103546
:104D1000202DEEDB68A800F0ADFB4FF4D0716846A3
:104D200001F00AFA2021B2A801F006FA1021BAA86F
:104D300001F002FA1021AEA801F0FEF91FB1202106
:104D4000584601F0F9F9384662E700002DE9F047CE
:104D50000546861C91460F464FF0010A0020FFF7DA
:104D6000ACFE1B4C04F21C4860683860D4E90101B9
:104D7000184F401A3968081A0EE00121404601F028
:104D800043FA00F00FFA0146404601F03DFAD4E93B
:104D90000101401A3968081A401C8642EDD8B9F161
:104DA000000F03D0052065F3891002E0062065F3AB
:104DB0009F5061683A68114004EB8101C8606068E7
:104DC000304460600020FFF77AFE5046BDE8F0876F
:104DD000A40500207C00002070B50D4604460A2979
:104DE00002D10D21FFF7F8FFA0682268411CA160E5
:104DF0001554D4E90101814204D32046BDE8704036
:104E000001F0FFBD70BD0000044881684068814228
:104E100001D101207047002070470000A405002048
:104E200002681368526831B19A4202D38068801ACE
:104E300007E0981A70479A4201D3D01A70478068E9
:104E4000C01A401C70472DE9F04389B088460446DB
:104E50006E4620213046FDF77FFA002504F1200937
:104E60001020211811F8012D521C12F0FF020A70B7
:104E700002D1401E0028F4DC334622460121484678
:104E800000F0ECFA070017D110351036202DE7DBC3
:104E9000694618F800200B5C53400B54401C202836
:104EA000F7DB8022484600F0F1FA070004D104AD98
:104EB00095E80F0084E80F002021684601F03CF9D6
:104EC00009B03846BDE8F08310B50021024801F072
:104ED000A6F980F3100010BDC009002010B50846E7
:104EE000114601F0FCFC002010BD00002DE9F0414E
:104EF0000D460600174609D05DB1144C1449606890
:104F0000884209D048F20250BDE8F08148F21350BF
:104F1000FAE748F21450F7E713462A46314620686C
:104F200001F00AFCA0F505417139EDD100221146CE
:104F3000104601F063FC0028E6D13B462A46314684
:104F40002068BDE8F04101F0F7BB00002000002020
:104F50006572E54B2DE9F0470024884607461E465A
:104F60001546FF212046DDF820A005E02A5C0AB1A5
:104F7000295C03E0401C0834B042F7D3002049000C
:104F80000A0A03D1401C641C0828F8D3BFB3BEB37F
:104F9000B8F1000148F210502FD0002D2DD032462C
:104FA000284600F0EDF860B3DFF86C9053463246C7
:104FB0003946D9F8000001F0BFFB00281DD1E108F7
:104FC0003846FDF7C9F9600708D007EBD40004F0B4
:104FD00007030178FF22DA40114001704146324652
:104FE000384600F0CDF80028E0D032463946284651
:104FF00000F0C6F80028D9D00020BDE8F08701E015
:1050000003E005E048F21350F7E748F21450F4E7E4
:1050100048F21750F1E70000200000202DE9FC5F66
:105020000E008346DDE90C47C6F100009846924623
:10503000814600D40846012503E000BF90FBFAF04A
:105040006D1C5045FADAA84500D9454624B1002E1A
:1050500001DB780700D5641EB80702D5B8F1000F50
:105060000AD0F80708D13CB1A54205D22021584604
:10507000641EFFF7B1FEF6E7002E02DA4E462D2140
:1050800002E0780703D52B215846FFF7A5FE07F06D
:10509000030002280BD1B8F1000F08D13CB1A542A2
:1050A00005D230215846641EFFF796FEF6E7CDE99B
:1050B0000047434652463146584603F0C7F8BDE81C
:1050C000FC9F000070B50D46044600684FF48871DF
:1050D00002F086FA4FF49071206802F081FA4FF4E2
:1050E0009271206802F07CFA4FF4A271206802F0FD
:1050F00077FA4FF4AC71206802F072FA2068124916
:10510000C0F804132068690740F30730090E00282F
:1051100004DB00F1E02080F8001405E000F00F004F
:1051200000F1E02080F8141D206840F307300028CB
:1051300009DB00F01F02012191404009800000F1CD
:10514000E020C0F8001170BD1003420002460020AC
:105150001268530713D502F00300012802D0022879
:105160000CD105E0C2F383100B68801C184404E0E6
:105170000223086803EB9252104408600120704734
:1051800030B500230AE0C45CCD5CAC4205D02006FB
:10519000B0EB056F04D8002030BD5B1C9342F2D306
:1051A000012030BD2DE9FF410026244801F029F8F7
:1051B0002248001F074601F024F8214C2149A0682D
:1051C00000900D6800E000986946284004EB8000DC
:1051D0000C30FFF7BBFF0028F5D101AA009901EAC6
:1051E000050304EB8303491CDB6842F82030401CB4
:1051F00000910228F2D3019800F0030001280BD09F
:10520000022810D10198032101EB90500099BDF8BC
:105210000A6001EB900005E00198BDF80A60C0F358
:10522000831008440090384600F0E8FF08B1009869
:10523000A06004B03046BDE8F0810000BC09002049
:10524000A40500207C00002088B040262020CDE965
:10525000036000210590084601F0F2FF08B1FFF756
:1052600021FC01F009FE44484449401AC5080320C6
:1052700000EB0540044642A101F086FF01F0D0F9A1
:1052800008B1FFF70FFC204643A101F07DFF204647
:105290001122444901F024FF434B4248A3F1480244
:1052A00042490C3801F0D8F808B1FFF7FBFB3E4942
:1052B00004AA4831A1F1900001F012F908B1FFF7FA
:1052C000F1FB20463AA101F05FFF0498364982B213
:1052D0002046483101F004FF334905AA68313248BD
:1052E00001F020F908B1FFF7DDFB204634A101F001
:1052F0004BFF05982C4982B22046683101F0F0FE40
:10530000294F03A88837CDE90070264A1123A7F159
:10531000D001A2F1080001F027F908B1FFF7C2FBA4
:1053200020462AA101F030FF03981F4982B220468F
:10533000883101F0D5FE1B4ACDE9007611231A49C8
:10534000101F01F03FF988B1A0F50541423906D0A0
:10535000FFF7A8FB204620A101F016FFFEE7012081
:1053600000EB054026A101F00FFFFEE7204630A12B
:1053700001F00AFFEEE7000060B2000030B200006A
:105380004564445341206578616D706C6520737489
:1053900061727465642E00004D6573736167653AD0
:1053A000000000000C000020200100206C830000A1
:1053B00050726976617465206B65793A000000006F
:1053C0005075626C6963206B65793A005369676E4A
:1053D00061747572653A00004564445341206578F4
:1053E000616D706C652065786563757465642073A4
:1053F00075636365737366756C6C792E00000000CD
:105400005369676E617475726520697320696E7681
:10541000616C69642E204D657373616765206973E3
:10542000206E6F742061757468656E7469632E00F8
:105430005369676E61747572652069732076616C5B
:1054400069642E204D6573736167652069732061FF
:10545000757468656E7469632E00000030B414467C
:1054600001291A46214602D030BC00F0D5B930BC23
:1054700000F01ABC002803D04FF48C7100F05CBE21
:1054800070474FF48C71FCF767BF0000F0B5802ABD
:1054900007D0C02A07D0B2F5807F0BD06FF01F0075
:1054A000F0BD0A2300E00C23036000F10803002490
:1054B00043600AE00E23F7E701EB8405EE782D68E0
:1054C00066F31F6543F82450641CB4EB521FF3D3FA
:1054D000544A0168A2F508500A2904D00C292BD09F
:1054E0000E2928D156E0002453F80C5B52F8241002
:1054F0004D4002CBC1F30726C1F30747865DC75D68
:1055000086EA0726754000EB1166367885EA06457F
:1055100050FA81F63678641C85EA06651D6053F8FA
:105520000C6C6E405E6053F8085C75406940C3E9DE
:1055300002510A2CD8D373E05FF000041D6852F8C2
:1055400024104D405969C1F30726C1F30747865D12
:10555000C75D86EA0726754000EB1166367885EA56
:10556000064550FA81F63678641C85EA06659D6129
:105570005E686E40DE619D6875401D62DE686E404B
:105580005E621D6975406940C3E90A511833082CF1
:10559000D4D345E05FF000051C6852F825104C405C
:1055A000D969C1F30726C1F30747865DC75D86EA5F
:1055B0000726744000EB1166367884EA064450FAF8
:1055C00081F6367884EA06661E625C6874405C6226
:1055D0009E6866409E62DC687440DC6250FA84F724
:1055E0003F781E69C4F3074C7E40C4F3072710F8C8
:1055F0000CC0C75D00EB14643F0287EA0C472478B7
:105600007E4086EA04641C635E696D1C66405E63CE
:105610009C6974406140C3E90E412033072DBBD320
:105620000020F0BD20A6000010B504000BD004F14E
:105630002000FFF71FFF4FF4A071204600F07CFD13
:105640004FF6F070E06110BD10B504464FF4A07144
:10565000FCF782FE4FF6F070E06110BD08B5002344
:10566000009300F001F808BD2DE9F0418CB0984698
:10567000129F154604460E46B2F5806F04D96FF0AE
:1056800035000CB0BDE8F081B7F5807F02D96FF02E
:105690003700F6E720216846FCF75EFEE1692069E5
:1056A000884201DC606938B13A464146204600F044
:1056B0004AF80028E5D12FE077B33A4641466846DC
:1056C000FFF79AFA070034D169462046FFF7BBFB83
:1056D00007002ED120E01020211811F8012D521CB6
:1056E00012F0FF020A7002D1401E0028F4DC08AB61
:1056F000224601214046FFF7B1FE070019D1102DC7
:1057000001D9102700E02F463A4608A93046FCF799
:10571000FBFD3E44ED1B01E004F12008002DDAD131
:1057200069462046FFF78FFB070002D12069401C25
:1057300020612021684600F0FFFC102108A800F03D
:10574000FBFC38469DE72DE9F041044685694FF49E
:10575000C070E0B016460F46854203D8C5F5C0714B
:10576000B14204D26FF0370060B0BDE8F0818046EE
:1057700001466846FCF7F0FDD4E94E302A466946FA
:10578000984710B16FF03300EEE7A5693FB136B12D
:105790000DEB050032463946FCF7B6FD3544694647
:1057A0002A460846FFF728FA050007D16946204631
:1057B000FFF749FB050001D1012020614146684601
:1057C00000F0BAFC2846CFE72DE9FF470446002049
:1057D000DDF83080009001900290039004F12000E9
:1057E0001F4616460D468146FFF74BFEC4E94E564E
:1057F000A06908B92020A061802269464846FFF7C9
:1058000045FE002804D1424639462046FFF79BFF5B
:1058100004B0BDE8F08700002DE9F047CD780C68B2
:1058200088B0436865F31F64009420CB6C400094FB
:10583000CD794C6865F31F64019420CB6C400194D2
:10584000CD7A8C6865F31F64029453F8085B6C4052
:105850000294CC7BC96864F31F61039153F8044C34
:105860006140039100684FF0FF3101EB6006FE4894
:1058700000F5806900F5006400F5406A0FE10099C9
:1058800080CBC9B2DDF808C050F82110CCF3074C2A
:105890004F40039954F82CC0C1F307218D00DDF867
:1058A0000C8059F80550494685EA0C056F40019D6A
:1058B000C8F307484FEA156C55465AF82CC087EADA
:1058C0000C07DDF804C004970CF0FF0C80CB50F8F7
:1058D0002CC054F8288087EA0C07DDF800C0CCF310
:1058E000072C51F82CC08CEA080C87EA0C07DDF86D
:1058F00008C04FEA1C6C55F82CC087EA0C07DDF88D
:1059000008C005970CF0FF0C53F8087B50F82CC02A
:10591000DDF8008087EA0C07DDF804C0C8F307480B
:10592000CCF3072C54F8288051F82CC08CEA080CD2
:1059300087EA0C07DDF80CC04FEA1C6C55F82CC048
:1059400087EA0C07DDF80CC006970CF0FF0C53F843
:10595000047C50F82CC0DDF8048087EA0C07DDF8E1
:1059600008C0C8F30748CCF3072C54F8288051F836
:105970002CC08CEA080C87EA0C07DDF800C04FEA5F
:105980001C6C55F82CC087EA0C070797DDF810C08F
:1059900053F8107B0CF0FF0CDDF8188050F82CC089
:1059A000C8F3074887EA0C07DDF81CC054F82880C4
:1059B000CCF3072C51F82CC08CEA080C87EA0C07B2
:1059C000DDF814C0DDF81C804FEA1C6CC8F30748F2
:1059D00055F82CC087EA0C070097DDF814C053F87F
:1059E0000C7C0CF0FF0C54F8288050F82CC087EA8F
:1059F0000C07DDF810C0CCF3072C51F82CC08CEA52
:105A0000080C87EA0C07DDF818C0DDF810804FEAB3
:105A10001C6CC8F3074855F82CC087EA0C0701979F
:105A2000DDF818C053F8087C0CF0FF0C54F82880FF
:105A300050F82CC087EA0C07DDF814C0CCF3072C13
:105A400051F82CC08CEA080C87EA0C07DDF81CC062
:105A50004FEA1C6C55F82CC087EA0C070297DDF85A
:105A60001CC053F8047C0CF0FF0C50F82CC087EAE3
:105A70000C07DDF818C0CCF3072C59F82C10DDF812
:105A800014C0CCF3074C54F82CC081EA0C014F40F1
:105A90000499090E5AF821104F40761E0397002EE4
:105AA0003FF7EDAE00991E68C9B2029F50F8211071
:105AB000C7F307474E40039954F82770C1F30721F5
:105AC0008D00DDF80CC059F8055049467D406E4008
:105AD000019DCCF3074C2F0E55465AF827707E4097
