:020000040000FA
:1000000048240020150200001D0200001F0200000D
:100010002102000023020000250200000000000071
:1000200000000000000000000000000027020000A7
:1000300029020000000000002B0200002D02000039
:100040002F020000A5020000350500002F0200006D
:100050002F0200002F0200002F0200002F020000DC
:100060002F0200002F0200002F0200002F020000CC
:100070002F0200002F0200002F0200002F020000BC
:100080002F0200002F0200002F0200002F020000AC
:10009000010300002F0200002F0200002F020000C9
:1000A0002F0200002F0200002F0200002F0200008C
:1000B0002F0200002F0200000000000000000000DE
:1000C0002F0200002F0200002F0200002F0200006C
:1000D0002F0200002F0200002F0200002F0200005C
:1000E0002F0200002F0200002F020000000000007D
:1000F000000000002F020000000000002F0200009E
:1001000000000000000000000000000000000000EF
:1001100000000000000000000000000000000000DF
:1001200000000000000000000000000000000000CF
:1001300000000000000000000000000000000000BF
:1001400000000000000000000000000000000000AF
:10015000000000000000000000000000000000009F
:10016000000000000000000000000000000000008F
:10017000000000000000000000000000000000007F
:10018000000000000000000000000000000000006F
:10019000000000000000000000000000000000005F
:1001A000000000000000000000000000000000004F
:1001B000000000000000000000000000000000003F
:1001C000000000000000000000000000000000002F
:1001D000000000000000000000000000000000001F
:1001E000000000000000000000000000000000000F
:1001F00000000000000000000000000000000000FF
:10020000DFF80CD000F03CF8004800471D08000063
:10021000482400200648804706480047FEE7FEE7DE
:10022000FEE7FEE7FEE7FEE7FEE7FEE7FEE7FEE7A6
:10023000590300000102000040EA01039B0703D0BC
:1002400009E008C9121F08C0042AFAD203E011F815
:10025000013B00F8013B521EF9D27047D2B201E0D7
:1002600000F8012B491EFBD270470022F6E710B5BB
:1002700013460A4604461946FFF7F0FF204610BD14
:10028000064C074D06E0E06840F0010394E80700E3
:1002900098471034AC42F6D3FFF7B6FF581300006E
:1002A0007813000070B5144CD4F80001002628B172
:1002B000D4F80403C00701D0C4F80061D4F80C01DD
:1002C0000E4D40B1D4F80403000704D5C4F80C6106
:1002D000286900B18047D4F8100100280BD0D4F869
:1002E0000403C00607D5C4F81061E868002802D0EE
:1002F000BDE87040004770BD001000403000002095
:100300007CB5144C606A01902078002821D001202F
:1003100000F023F9656800266660012000F02EF9E0
:10032000E169002915D0E80703D08DF80060684620
:100330008847A80705D501208DF80000E1696846C7
:100340008847680705D502208DF80000E1696846F6
:1003500088477CBD3000002030B54FF0805200232C
:10036000D2E94C10082906D1CC06C4F80C31C4F8E7
:100370001031624C2360082955D1614B1B68614CD8
:1003800023605F4B1B1D1B68241D23605C4B0833DF
:100390001B68241D23605A4B0C331B68241D2360EB
:1003A000574B10331B68241D2360554B14331B68B7
:1003B000241D2360524B18331B68524C2034236099
:1003C0004F4B1C331B68241D23604D4B20331B688F
:1003D000241D23604A4B24331B68241D2360484B93
:1003E00028331B68241D2360454B2C331B68241DB8
:1003F0002360434B30331B68424C40342360404BF6
:1004000034331B68241D23603D4B38331B68241D87
:1004100023603B4B3C331B68241D2360384B403327
:100420001B68241D2360082904D1030002D1374C26
:10043000354B2360082904D1030002D1344CFB233F
:100440002360082908D1030006D1324B92F8585294
:100450001C6865F303041C60082904D1030002D161
:100460002D4C8B012360082906D12C480168C9074F
:1004700002D06FF0010101602948016841F4700168
:100480000160BFF34F8FBFF36F8FD2E94C104FF075
:100490001022082906D1032804D9D2F808021749E6
:1004A00020310860D2F80002002803DBD2F80402F1
:1004B00000281FDA012000F08FFC1221C2F8001280
:1004C00018480368002BFCD0C2F804120168002908
:1004D000FCD0002000F080FCBFF34F8F10487C3828
:1004E0000168114A01F4E06111430160BFF34F8FCD
:1004F00000BFFDE70E490D48086030BD38050040DB
:100500000404001020C50040488103008C560040C0
:1005100018F50040E40E0040409602400004004000
:1005200088ED00E000E401400400FA050090D003EB
:1005300078000020014800680047000028000020E3
:10054000002809DB00F01F020121914040098000D2
:1005500000F1E020C0F88012704700280DDB00F0A9
:100560001F02012191404009800000F1E020C0F805
:100570008011BFF34F8FBFF36F8F7047002809DBE7
:1005800000F01F02012191404009800000F1E020AD
:10059000C0F800117047002809DB00F01F0201219C
:1005A00091404009800000F1E020C0F8001270473F
:1005B0004907090E002804DB00F1E02080F8001450
:1005C000704700F00F0000F1E02080F8141D704724
:1005D00002E008C8121F08C1002AFAD1704770470C
:1005E000002001E001C1121F002AFBD17047006802
:1005F00090FAA0F000BA00BA7047000072B609483D
:100600000068C00700D000BEBFF34F8F0548E43834
:100610000168054A01F4E06111430160BFF34F8FA7
:1006200000BFFDE7F0ED00E00400FA050EB5002183
:100630000091CDE901106A4644F20100FFF7DEFFA8
:100640000EBD00002DE9FC410646C0074FF0000535
:100650000ED0104F00240122385D00950023114672
:10066000019500F05DFB641C042CF4D300F01CF831
:10067000B0070DD5074E0024361D0022305D032340
:1006800000951146019500F04BFB641C042CF4D33B
:10069000BDE8FC81501300000249085C012100F014
:1006A00088BB00005013000010B500242046FFF75F
:1006B000F3FF641C042CF9D310BD006890FAA0F07D
:1006C00000BA70474FF080400021C0F800110121AE
:1006D000C0F80010D0F800110029FBD070470000CE
:1006E00000B51BA08BB0006808901AA01AA1006882
:1006F0000990D1E90001CDE90601182218496846A0
:10070000FFF79AFD01208DF800008DF808001548CC
:10071000019000208DF801004FF416718DF814003F
:10072000ADF80C10684600F01BF900280DD108A8A0
:1007300000F0E0F9002808D109A800F0EDF9002840
:1007400003D1082106A800F0F9F90BB000BD0000A4
:10075000E7E7E7E7C2C2C2C2E7C2C3C4C5C6C7C8AB
:100760003813000005090000F8B508240F250326FA
:100770006846009400F0EEFA009900EB8100C0F8A2
:100780000067641CAC42F3D9BDE8F8400120FFF7D4
:1007900059BF000070B500F023FC1E490020A1F5F0
:1007A000947300BF00EB800202EB40121A4441F840
:1007B0002020401C0828F5DB164900202C3101F5CB
:1007C000947200BF00EB800404EB40140C4442F828
:1007D0002040401C0828F5DB00200F4A4FEA0001AA
:1007E00000EB800404EB4014E51800EB4004401CCF
:1007F00042F8245002EB840408282171A160EFDB49
:10080000054A002012F1600242F82010401C08281E
:10081000FADB70BDE4010020A8030020FFF7A4FF6D
:10082000FFF750FFFFF75CFF08B1FFF7FFFE214C19
:10083000214D224E0027E7701E4800F0D9F9A0BBD9
:10084000A079410703D000F00700042801D9012155
:1008500000E000210D2000F099FAA07900F00700D7
:10086000012801D9052801D9012100E000210E202D
:1008700000F08CFAA07900F00700022801D90628C0
:1008800001D9012100E000210F2000F07FFAA079BA
:1008900000F00700032801D8012100E0002110200A
:1008A00000F074FAA079401CA071691C304688479A
:1008B000C1E70000000000203013000000D4300029
:1008C00070B50C494FF4705008600B4C00256570F2
:1008D000257000F085FB20210848FFF7C6FCE56283
:1008E00014202563FFF739FE05490320C1F80002F3
:1008F000002070BD08F501403000002028040020D1
:100900000010004010B50078002808D0012807D05A
:10091000022804D1054800F0A9F80028FAD010BD3B
:1009200000F006F8BDE8104000F04EB97C00002051
:10093000094810B5007860B10120FFF70EFE0748A6
:1009400000218162016241620120FFF717FE002051
:1009500010BD082010BD000030000020E401002080
:1009600070B5050065D0354C207818B1FFF7A8FFA9
:1009700000285DD16868E061182229463048FFF7F9
:100980005BFC0025656020212E48FFF76EFCE562C8
:10099000256300F055FCE8B32B494FF0E7300860C1
:1009A000091D4FF043300860091D28480860091DE3
:1009B00027480860FFF7EEFE264904200860254816
:1009C00008380560244840F20221C0F80012244A89
:1009D00022491160111D08602048001D091D086092
:1009E0001D481030091D0860091D1E4808601B487D
:1009F000F038091D08601B48001D091D0860091D0D
:100A0000194808600E4E707C00F007010120FFF7C6
:100A1000CFFD00E00FE0B07C00F007011420FFF7ED
:100A2000C7FD1420FFF7AAFD65700120207000208B
:100A300070BD0E2070BD072070BD0000300000208A
:100A4000A4000020280400201C150040E743C32315
:100A5000A363E31310A5004000A000400011004074
:100A600060F5014040A100400010004070B505460F
:100A70001E48007880B385B31D4CA06A70B3012076
:100A8000FFF76BFD606A54F820100A782A7054F85A
:100A900020104978697054F820108978A97054F8AA
:100AA00020100979297154F82010C978E97054F898
:100AB0002010681D491DFFF7BFFB606A401C606283
:100AC000082801D300206062A06A401EA0620120B5
:100AD000FFF754FD002070BD01E002E003E00820B4
:100AE000F9E70E20F7E70520F5E7000030000020C9
:100AF00038030020074910B54A780AB1112010BD0B
:100B000030B100684863012000F04EFB002010BDAA
:100B10000E2010BD30000020074910B54A780AB1F8
:100B2000112010BD30B100688863022000F03CFB4A
:100B3000002010BD0E2010BD3000002010B50C4666
:100B40000F49497809B1112010BD18B1082C03D9FB
:100B5000072010BD0E2010BD0146094822463C303A
:100B6000FFF76AFB0648C4F108023430FF21047421
:100B7000D1408174042000F017FB002010BD00005C
:100B8000300000200E4810B50078A0B10D4CA06ACE
:100B900098B10120FFF7E1FCA06A401EA062606AE4
:100BA000401C6062082801D3002060620120FFF72A
:100BB000E5FC002010BD082010BD4FF4807010BD72
:100BC00030000020E4010020074810B5407808B14B
:100BD000112010BD0548806A18B100F05BFA0020B2
:100BE00010BD4FF4807010BD30000020E4010020E3
:100BF0002DE9F047DFF818A106469AF8000040B149
:100C000056B1307868B120280BD8424F397829B1D5
:100C100009E00820BDE8F0870E20FBE7F97C884258
:100C200001D90920F6E73C4CA06A082801D304202A
:100C3000F0E77078082801D30720EBE70120FFF7E1
:100C40008CFCDFF8CC8078784FF0000908F12C0894
:100C500060B13249002000BF00EB400201EB82028C
:100C60001279EAB1401C0828F6DB42E0206A25220E
:100C7000314654F82000FFF7DFFA727818F80210B6
:100C8000491C01F0030108F80210206A54F82020E2
:100C9000401C08281171206228D3C4F8209025E058
:100CA00000EB400011EB800523D001202871C5F82E
:100CB0000890252231462868FFF7BEFA727818F8A6
:100CC0000210491C01F0030108F802102868134AB9
:100CD00001717178603252F8210018B942F8215040
:100CE00004E0084681680029FBD18560A06A401CA9
:100CF000A0620120FFF742FC787830B9387C20B937
:100D00009AF8010008B900F0C5F9002082E7000058
:100D100030000020A4000020E4010020A8030020EF
:100D20002DE9FF411C46DDE90A7815460E46684666
:100D300000F01EF846EA450141EA840141EA072233
:100D400042EA0841009A00EB8200C0F80017BDE8B3
:100D5000FF8100000168202902D24FF0A0407047B7
:100D600001F01F01016001487047000000030050BE
:100D70000168202902D24FF0A040704701F01F0106
:100D800001600148704700000003005038B501249D
:100D90000090684631B1FFF7DDFF00998C40C0F844
:100DA000084538BDFFF7D6FF00998C40C0F80C45C8
:100DB00038BD38B501240090684631B1FFF7D8FF3F
:100DC00000998C40C0F8084538BDFFF7D1FF009965
:100DD0008C40C0F80C4538BD0349086003480168E1
:100DE0000029FCD07047000004E5014000E4014008
:100DF00070B5164CA068164AC2F80002A06A1549E0
:100E00000860154B091D9889823808601348012134
:100E100040F80C1F0021C0F83411C0F83811104DF3
:100E20004FF4E050286050142D1D2860C2F80C11BA
:100E3000187810B96169002088470B490948086093
:100E40000A48E0600320607070BD000030000020A0
:100E50000010004040A50040A400002000A0004079
:100E600004F501408603002004150040AD0E00008B
:100E700010B50C4C606840F001006060FFF782FE26
:100E80000948806A30B11420FFF785FBBDE81040A7
:100E900000F000B900206070BDE810401420FFF79A
:100EA0007ABB000030000020E40100202DE9F0476B
:100EB000414A4FF4E05010604049D1F80C31DFF85E
:100EC000009100273F4CB9F80E004E14DFF8F8806F
:100ED0000125E3B33D4B1B68CBB325611660D8F801
:100EE000041041F00101C8F80410D8F82010401A8D
:100EF000401CC8F82400FFF745FE99F8000088B1AF
:100F000009F2E220017869B1407841083048006870
:100F1000C0B200F073F828B1D8F8040040F0040023
:100F2000C8F804002B48806A50B199F810000128D5
:100F300006D01420FFF72FFBBDE8F04700F0AAB859
:100F400088F80170BDE8F0471420FFF724BBD8F8FB
:100F500020C0BCF1010CC8F820C00BD2256116607E
:100F6000401CC8F82400D8F8040040F00200C8F87B
:100F70000400E5E7D8F808000F4640F00802C1F881
:100F80000022D8F81800D8F81410007888471048C4
:100F90001149283801601148C8F80C00022088F86F
:100FA000010025600448001F0660D4F844010028B1
:100FB00000D03D60BDE8F08708F50140001000401A
:100FC000A400002000A000403000002000140040D9
:100FD0002C150040E401002064030020F10D000006
:100FE0000549002008624862886201F5AA7108621A
:100FF0004862886270470000E40100202DE9F0415A
:10100000224C07468846A06A08283DD2A4F52571DF
:1010100020460A780026006A01F2E225012A03D060
:101020004A7842B1C97C02E0297820292CD854F8AA
:101030002020117002E054F820100E7054F82000A7
:10104000A91C10F8052BFFF7F7F8206A54F82010B8
:101050004F700F49096854F82020917054F82020EF
:1010600082F80480697854F8202041F30001491C7B
:10107000401CD1702062082800D32662A06A401C60
:10108000A0620120BDE8F0810020FBE738030020CA
:10109000481500402DE9F05F3D4C4FF00108C4F8C1
:1010A00024803C48DFF8F0A0A0F5A077416A3B4DD2
:1010B0004FF0000B50F82110A161387807F5307619
:1010C00010B1012843D10DE0087861698847A16912
:1010D0000879307086F801B011F8052BB01CFFF7C5
:1010E000ABF818E0C87820B3387D10B300208146F3
:1010F0000878307008794006000E7070CA78D2B156
:1011000000221043707011F8052BB01CFFF794F803
:10111000B9F1000F11D0A06840F00800C5F8000236
:101120001120C5F80403F88920620220C4F80CA03D
:101130000CE00120DBE70122E3E7A068C5F800022C
:101140001020C5F804031648E06040466070A069AE
:10115000144A417811604078444608FA00F0111DA5
:1011600008600B480F4934302439C07C0860081FE0
:1011700006600120FFF7E4F90120FFF7FFF9C5F849
:1011800004B1C5F808B1C5F810B12C60BDE8F09FF6
:1011900030000020E4010020F10D000000100040AC
:1011A000710E00002C15004010B50446C00704D095
:1011B0000F48FFF71CFA0F490860A00706D50C4836
:1011C000001DFFF714FA0B49091D086060070DD5D3
:1011D00007480830FFF771FA0649083108600448EB
:1011E0000C30FFF76AFA03490C31086010BD0000AB
:1011F000640000201C1500400E490F480A7A026066
:101200000E48492352B1012A05D0032A06D0042AE8
:1012100001D0002070473022826200E083628B8917
:10122000826A3E32934202D2806A3E308881012037
:1012300070470000A400002010150040300000207E
:1012400070B500F03FF8FFF7D7FF1849184A0B7840
:101250007BB1012B0BD00023034016484D7A041FAD
:10126000B5B1012D0ED0022D07D0002417E0124B8E
:1012700000E0124B53610123EEE74FF6FF76066064
:101280000F4803E0FF26066040F20710206002E0EE
:101290000026066026600748083805600124C87CDF
:1012A00051691C408847204670BD0000A400002002
:1012B000300000203C15004005130000D91200004A
:1012C0002110010002480349807A0860704700003D
:1012D000A40000200C150040084A07491160084985
:1012E000497C491E090441EA0021014341F0807014
:1012F000111D086070470000000101001415004036
:101300006400002007490648086007480749407CF8
:10131000401E41EA00400349091D08607047000073
:1013200006000300141500406400002020000001A6
:101330000338FDD8704700000100000000000000E5
:1013400001020000FA00030000010220000000007A
:101350000D0E0F100B0C1819781300000000002060
:101360007C000000D0050000F41300007C00002089
:10137000CC230000E0050000080000000001000090
:10138000001100000000000000000000000000004C
:10139000000000000000000000000000000000004D
:1013A000000000000000000000000000000000003D
:1013B0001301000000000000000000000000000019
:1013C000000000000000000000000000000000001D
:1013D000000000000000000000000000E7E7E7E771
:1013E000C2C2C2C2E7C2C3C4C5C6C7C80805FF029D
:0413F0000090D00396
:0400000500000201F4
:00000001FF
