:020000040000FA
:1000000018200020150200001D0200001F02000041
:100010002102000023020000250200000000000071
:1000200000000000000000000000000027020000A7
:1000300029020000000000002B0200002D02000039
:100040002F0200002F0200002F0200002F020000EC
:100050002F0200002F0200002F0200002F020000DC
:10006000590400002F0200002F0200002F020000A0
:100070002F0200002F0200002F0200002F020000BC
:100080002F0200002F0200002F0200002F020000AC
:100090002F0200002F0200002F0200002F0200009C
:1000A0002F0200002F0200002F0200002F0200008C
:1000B0002F0200002F0200000000000000000000DE
:1000C0002F0200002F0200002F0200002F0200006C
:1000D0002F0200002F0200002F0200002F0200005C
:1000E0002F0200002F0200002F020000000000007D
:1000F000000000002F020000000000002F0200009E
:1001000000000000000000000000000000000000EF
:1001100000000000000000000000000000000000DF
:1001200000000000000000000000000000000000CF
:1001300000000000000000000000000000000000BF
:1001400000000000000000000000000000000000AF
:10015000000000000000000000000000000000009F
:10016000000000000000000000000000000000008F
:10017000000000000000000000000000000000007F
:10018000000000000000000000000000000000006F
:10019000000000000000000000000000000000005F
:1001A000000000000000000000000000000000004F
:1001B000000000000000000000000000000000003F
:1001C000000000000000000000000000000000002F
:1001D000000000000000000000000000000000001F
:1001E000000000000000000000000000000000000F
:1001F00000000000000000000000000000000000FF
:10020000DFF80CD000F028F800480047B5050000E2
:10021000182000200648804706480047FEE7FEE712
:10022000FEE7FEE7FEE7FEE7FEE7FEE7FEE7FEE7A6
:100230007D02000001020000202A04DB203A21FA9E
:1002400002F00021704721FA02F3D040C2F12002EF
:100250009140084319467047064C074D06E0E06898
:1002600040F0010394E8070098471034AC42F6D3FD
:10027000FFF7CAFF240800004408000030B54FF023
:1002800080520023D2E94C10082906D1CC06C4F8CC
:100290000C31C4F81031624C2360082955D1614BF0
:1002A0001B68614C23605F4B1B1D1B68241D236072
:1002B0005C4B08331B68241D23605A4B0C331B68AE
:1002C000241D2360574B10331B68241D2360554B9E
:1002D00014331B68241D2360524B18331B68524C87
:1002E000203423604F4B1C331B68241D23604D4B6F
:1002F00020331B68241D23604A4B24331B68241DB4
:100300002360484B28331B68241D2360454B2C3346
:100310001B68241D2360434B30331B68424C403420
:100320002360404B34331B68241D23603D4B38331E
:100330001B68241D23603B4B3C331B68241D23603A
:10034000384B40331B68241D2360082904D1030067
:1003500002D1374C354B2360082904D1030002D168
:10036000344CFB232360082908D1030006D1324B0B
:1003700092F858521C6865F303041C60082904D1E4
:10038000030002D12D4C8B012360082906D12C4893
:100390000168C90702D06FF00101016029480168B6
:1003A00041F470010160BFF34F8FBFF36F8FD2E94B
:1003B0004C104FF01022082906D1032804D9D2F896
:1003C0000802174920310860D2F80002002803DB38
:1003D000D2F8040200281FDA012000F0FBF91221F4
:1003E000C2F8001218480368002BFCD0C2F80412AF
:1003F00001680029FCD0002000F0ECF9BFF34F8F1A
:1004000010487C380168114A01F4E0611143016031
:10041000BFF34F8F00BFFDE70E490D48086030BDA8
:10042000380500400404001020C500404881030046
:100430008C56004018F50040E40E00404096024003
:100440000004004088ED00E000E401400400FA05EB
:100450000090D003040000202DE9F047104E04273F
:1004600000244FF4A0784FF4803900BF08EB8405D6
:1004700009FA04F0715961B1D6F80413014208D0A9
:100480002946304600F0FFF80648D0E9002128460A
:100490009047641CE4B2BC42E8D3BDE8F08700009A
:1004A000008000400800002002E008C8121F08C1B8
:1004B000002AFAD170477047002001E001C1121FE5
:1004C000002AFBD17047000072B609480068C007D7
:1004D00000D000BEBFF34F8F0548E4380168054ADD
:1004E00001F4E06111430160BFF34F8F00BFFDE7EE
:1004F000F0ED00E00400FA050EB500210091CDE911
:1005000001106A4644F20100FFF7DEFF0EBD000055
:100510002DE9FC410646C0074FF000050ED0104FF4
:1005200000240122385D009500231146019500F05A
:100530006FF8641C042CF4D300F032F8B0070DD52A
:10054000074E0024361D0022305D0323009511461E
:10055000019500F05DF8641C042CF4D3BDE8FC8127
:100560001C080000094908B5085C0090684600F0C6
:1005700069F8D0F80425009B0121994021EA020383
:10058000C0F808351140C0F80C1508BD1C08000063
:100590000249085C012100F063B800001C0800005B
:1005A00010B500242046FFF7F3FF641C042CF9D398
:1005B00010BD00000EB50120FFF7AAFF1149124A35
:1005C000D1E90201CDE9010101A90E4800F0A2F82C
:1005D00008B1FFF791FF0B480068D0F81005002123
:1005E000C2B20A48FFF728FE0246012003460090E7
:1005F0000021044800F078F8024800F067F830BFA6
:10060000FDE700000C080000ED07000000127A0072
:100610002DE9FF411C46DDE90A7815460E4668467D
:1006200000F010F846EA450141EA840141EA072258
:1006300042EA0841009A00EB8200C0F80017BDE8CA
:10064000FF8100000168202902D24FF0A0407047CE
:1006500001F01F01016001487047000000030050D5
:1006600038B501240090684631B1FFF7EBFF0099DF
:100670008C40C0F8084538BDFFF7E4FF00998C4076
:10068000C0F80C4538BD08B50022425040580090D3
:1006900008BD2DE9F04106460D464FF48034006850
:1006A0001746AC404BB14FF4A07101EB8501FFF749
:1006B000EAFF3068C0F8044301E0C0F8084330683E
:1006C00000EB8500C0F84075BDE8F08101680122AB
:1006D0000A600079034A00EB400002EB800002212F
:1006E0000172704708000020F0B40468049E40F2D4
:1006F0000115D4F800728D40AF43C4F8007204684D
:10070000D4F800521D43C4F800523346F0BCFFF742
:10071000C0BF00002DE9F04104460E4600792C4987
:1007200000EB400001EB8007387A10B10820BDE8EB
:10073000F0813A60706800254FF4A078786006E098
:1007400008EB85012068FFF79EFF6D1CEDB2607914
:10075000A842F5D82068F17840F3073000284FEA26
:10076000411104DB00F1E02080F8001405E000F006
:100770000F0000F1E02080F8141D2068012140F3F3
:100780000730002809DB00F01F0201FA02F24009DD
:10079000800000F1E020C0F8002120687278D0F8D5
:1007A000043562F30103C0F804352068B278D0F84C
:1007B000083562F30103C0F8083520683278D0F8B4
:1007C000103562F30303C0F8103539720020AEE72C
:1007D0000800002003490860034801680029FCD094
:1007E0007047000004E5014000E40140064A03466A
:1007F000116801F00300491C1160B3F5A07F01D11D
:10080000FFF7B0BE704700000000002000800040ED
:100810000004000000000306000000000D0E0F1091
:100820000B0C18194408000000000020080000000C
:10083000A80400004C080000080000201020000060
:0C084000B8040000000000000090D0038D
:0400000500000201F4
:00000001FF
