:020000040000FA
:10000000E8200020150200001D0200001F02000071
:100010002102000023020000250200000000000071
:1000200000000000000000000000000027020000A7
:1000300029020000000000002B0200002D02000039
:100040002F0200002F0200002F0200002F020000EC
:100050002F0200002F020000A10200002F0200006A
:1000600021050000350500002F0200002F020000CE
:100070002F0200002F0200002F0200002F020000BC
:100080002F0200002F0200002F0200002F020000AC
:100090002F0200002F0200002F0200002F0200009C
:1000A0002F0200002F0200002F0200002F0200008C
:1000B0002F0200002F0200000000000000000000DE
:1000C0002F0200002F0200002F0200002F0200006C
:1000D0002F0200002F0200002F0200002F0200005C
:1000E0002F0200002F0200002F020000000000007D
:1000F000000000002F020000000000002F0200009E
:1001000000000000000000000000000000000000EF
:1001100000000000000000000000000000000000DF
:1001200000000000000000000000000000000000CF
:1001300000000000000000000000000000000000BF
:1001400000000000000000000000000000000000AF
:10015000000000000000000000000000000000009F
:10016000000000000000000000000000000000008F
:10017000000000000000000000000000000000007F
:10018000000000000000000000000000000000006F
:10019000000000000000000000000000000000005F
:1001A000000000000000000000000000000000004F
:1001B000000000000000000000000000000000003F
:1001C000000000000000000000000000000000002F
:1001D000000000000000000000000000000000001F
:1001E000000000000000000000000000000000000F
:1001F00000000000000000000000000000000000FF
:10020000DFF80CD000F03AF8004800477D0A000003
:10021000E82000200648804706480047FEE7FEE742
:10022000FEE7FEE7FEE7FEE7FEE7FEE7FEE7FEE7A6
:100230004503000001020000202A04DB203A21FAD5
:1002400002F00021704721FA02F3D040C2F12002EF
:10025000914008431946704740EA01039B0703D0C9
:1002600009E008C9121F08C0042AFAD203E011F8F5
:10027000013B00F8013B521EF9D27047064C074D76
:1002800006E0E06840F0010394E807009847103466
:10029000AC42F6D3FFF7B8FF581500007815000000
:1002A0002DE9FC410025DFF8948000954FF480761D
:1002B00001242F460195304600F0FCFC38B1D8F8F7
:1002C0000403204203D0304600F0EAFC2543361DEB
:1002D00064007F1CB6B2082FEDD34FF4BE742046E5
:1002E00000F0E8FC48B1204600F0DAFC45F000459B
:1002F0006A460221002000F061FC15F0FF0F16D0C5
:10030000012600242E420ED008EB8401D1F81005FE
:10031000D1F81015C0F30520094AC1F3014152F884
:10032000242002B190477600641C082CEAD3002DEB
:1003300002DA684600F0B4FFBDE8FC8100600040CE
:100340004000002030B54FF080520023D2E94C101D
:10035000082906D1CC06C4F80C31C4F81031624C1F
:100360002360082955D1614B1B68614C23605F4BAA
:100370001B1D1B68241D23605C4B08331B68241D58
:1003800023605A4B0C331B68241D2360574B1033DA
:100390001B68241D2360554B14331B68241D2360E8
:1003A000524B18331B68524C203423604F4B1C3384
:1003B0001B68241D23604D4B20331B68241D2360C4
:1003C0004A4B24331B68241D2360484B28331B6889
:1003D000241D2360454B2C331B68241D2360434B95
:1003E00030331B68424C40342360404B34331B682D
:1003F000241D23603D4B38331B68241D23603B4B79
:100400003C331B68241D2360384B40331B68241D7C
:100410002360082904D1030002D1374C354B2360F7
:10042000082904D1030002D1344CFB23236008299E
:1004300008D1030006D1324B92F858521C6865F37C
:1004400003041C60082904D1030002D12D4C8B0148
:100450002360082906D12C480168C90702D06FF033
:10046000010101602948016841F470010160BFF396
:100470004F8FBFF36F8FD2E94C104FF01022082935
:1004800006D1032804D9D2F80802174920310860A0
:10049000D2F80002002803DBD2F8040200281FDA99
:1004A000012000F0BFFE1221C2F8001218480368B4
:1004B000002BFCD0C2F8041201680029FCD00020F7
:1004C00000F0B0FEBFF34F8F10487C380168114A2E
:1004D00001F4E06111430160BFF34F8F00BFFDE7FE
:1004E0000E490D48086030BD380500400404001076
:1004F00020C50040488103008C56004018F500409C
:10050000E40E0040409602400004004088ED00E008
:1005100000E401400400FA050090D0031800002018
:1005200004220249024800F073BA00009C00002037
:100530000080004004220249024800F069BA00002D
:10054000A80000200090004002E008C8121F08C167
:10055000002AFAD170477047002001E001C1121F44
:10056000002AFBD17047000072B609480068C00736
:1005700000D000BEBFF34F8F0548E4380168054A3C
:1005800001F4E06111430160BFF34F8F00BFFDE74D
:10059000F0ED00E00400FA050EB500210091CDE970
:1005A00001106A4644F20100FFF7DEFF0EBD0000B5
:1005B00030B542680B4C1379E15C0120FF290ED065
:1005C000FE290DD012684FF4A86505EB8101515842
:1005D000054A52F82320914202D1FF20E054002026
:1005E00030BD00000D000020B400002003681B8B0C
:1005F0009BB253436422B3FBF2F292B2AFF300809A
:1006000070B50446006816460D4690F8212001EBAF
:10061000450100EB8101022A01D0082070BD496824
:10062000B14205D1C16909B36068007988471DE00E
:100630002046FFF7BDFF08B1112070BD61680C4A6C
:10064000FE200979505432462946204600F0F8FE33
:100650002068C06950B16168064A0220097902EB3E
:10066000410148550221606800F00AFD002070BD7C
:100670000D000020C80000202DE9F84F06688946CB
:10068000054601EB490896F821001F46934606EB04
:10069000880410B10820BDE8F88F4FF0000A2F48F9
:1006A000C4F804A0A772006800900A22296802EB2F
:1006B0008800085C40B100208DF80100694658466A
:1006C00000F05AFB88B901E00120F5E746F828B0B0
:1006D000584617B100F094FA01E000F0D7FA00266E
:1006E000A019083000F006FC08B10420D3E7761CFE
:1006F000F6B2022EF4D3207A00F04EFC607A00F0BD
:100700004BFC206837B100F0E3FA0646206800F0A1
:10071000E1FB05E000F0DEFB0646206800F0D8FAB9
:1007200007464946686800F09CFC0146207A32463C
:1007300000F010FC0221686800F093FC0146607A2A
:100740003A4600F007FC0120E0726968044A097922
:1007500002EB410202F809A000209CE74C150000C2
:10076000C80000202DE9F0470025DFF868900768F1
:100770000446A846626805EB450007EB800613793E
:1007800009EB430202F80580F17A71B10A2221686F
:1007900002EB8000085CD8B10021306800F05AFB01
:1007A000306800F045FBC6F804806D1C022DE1D3D3
:1007B0006168094AFF2009795054606800F030FCF4
:1007C000606800F07DFC022087F82100BDE8F0871A
:1007D0000121E2E7C80000200D0000202DE9F74FBD
:1007E00084B00E00044607D0256895F8210028B192
:1007F000082007B0BDE8F08F0B20FAE700F098F969
:1008000018B1852801D00420F3E700F0ABFA20B935
:1008100000F06EFA08B10320EBE75048DFF840A182
:10082000002100784FF0010BC0F30310032821D002
:100830008AF800B0FF2285F82020002091464FF072
:10084000FF3C00BF00EB400705EB8703401CD9725B
:1008500083F8089083F80990C0B245F827C00228B1
:10086000F0D305F1200000F045FB30B1204600F048
:1008700081FDC8E78AF80010DCE7002756F827203A
:10088000501C12D0F0193946037A2046FFF7F4FEC7
:100890005FEA000804D0204600F06CFD4046A8E75F
:1008A000002239462046FFF7ABFE7F1CFFB2022F25
:1008B000E4D3002009224FF48053316901E0490854
:1008C000401C994201D39042F9D39AF8001009B123
:1008D00000B90120234AD2E90112CDE901128DF8B5
:1008E00004006068204A01A900790290606800F065
:1008F0000BFC070004D0204600F03CFD384678E7AA
:10090000616830690968D1F81015CAB2010F000199
:10091000FFF792FC0646A861606800F081FBCDF805
:1009200000B05F46042332460221606800F0D6FB27
:100930000221606800F09DFB0698E86160680B4941
:10094000074A0079521C41F820406168097902F891
:10095000019085F8217000204BE70000E80F00F0BF
:100960000C0000204C150000E9130000D40000200A
:1009700000F002B800F008B872B602480168491CDD
:10098000016070471400002003490868401E086099
:1009900000D162B6704700001400002005494FF0F6
:1009A000FF32082841F8202002D3084480F84C2068
:1009B0007047000040000020F0B54FF0FF3512B145
:1009C0000023082601E0082309260C4C05E000BF9F
:1009D00054F823707F1C04D05B1CB342F8D3284624
:1009E000F0BD26185DB286F8245044F82310002A82
:1009F000F5D1E11881F84C00F1E70000400000203B
:100A00000249084490F9240070470000400000208B
:100A10002DE9F041174688460646002417E000BF3E
:100A20004FF4A07000EB84054FF480307159A04062
:100A300059B1D6F80413014207D02946304600F0D8
:100A400041F9D8E9002128469047641CE4B2BC4231
:100A5000E6D3BDE8F08100000121814003484068F1
:100A6000014201D00120704700207047040000209F
:100A700001218140080300D00120704786B0142274
:100A800024496846FFF7E8FB01208DF8090021485A
:100A9000214A69460838FFF7A1FE08B1FFF77CFD3F
:100AA0001C480838FFF75EFEDFF870800024A1467E
:100AB00001E0142C02D204EB840504E0C4F114001C
:100AC00000EB80056435464688F800901148AAB2CC
:100AD00000210838FFF78AFD1128F7D03078002868
:100AE000FCD00C48AAB201210838FFF77FFD08B1FD
:100AF000FFF752FD074D1926103D4FF47A47691C48
:100B000038468847761EFAD1641CE4B2282CCDD230
:100B1000CFE7000030150000DD13000000000020CA
:100B2000C20800F007030120895C98400840704724
:100B30000448017809B18520704701210170002027
:100B400070470000010000202DE9FF411C46DDE94F
:100B50000A7815460E46684600F05CF846EA4501FC
:100B600041EA840141EA072242EA0841009A00EB87
:100B70008200C0F80017BDE8FF811CB5002100917C
:100B80000B4601220191FFF7DFFF1CBD13B50C4698
:100B9000684600F03FF8009900EB8101D1F800278A
:100BA00022F44032C1F80027009900EB8100D0F810
:100BB000001741EA0441C0F800171CBD3CB50A4CBF
:100BC000D4E90034CDE900346B46441808E000BF96
:100BD00053F82010D1F8205520C2C1F82055401CF0
:100BE0008442F5D83CBD00004415000001B56846BC
:100BF00000F010F8009A01219140C0F80C1508BDD2
:100C000001B5684600F014F8009A01219140C0F83F
:100C10000C1508BD0168202902D24FF0A040704792
:100C200001F01F01016001487047000000030050FF
:100C30000168202902D24FF0A040704701F01F0147
:100C400001600148704700000003005042094FF066
:100C5000000102D0012A05D102E04FF0FF3101E08E
:100C60004FF6FF7100F01F00012282400A4201D0BE
:100C7000012070470020704701B56846FFF7CAFFA2
:100C8000009A01219140C0F8081508BD01B56846D9
:100C9000FFF7CEFF009A01219140C0F8081508BD6A
:100CA000034908B50844002101600068009008BDB0
:100CB0000060004002494058012800D000207047E1
:100CC0000060004008B5002242504058009008BD26
:100CD00010B500F005F80149084410BD006000405F
:100CE00010B5FFF78DFE602101EB8000C0B210BD92
:100CF00070B5194D95F85B0008B1082070BD00244F
:100D0000661E2046FFF7A2FF10B1281980F8246064
:100D1000641CE4B2302CF4D300242046FFF73EFEDE
:100D2000641CE4B2092CF8D3002045F8550F0C4997
:100D3000A8800A4CC02081F8000401264020891FA9
:100D4000C1F800014FF4BE70FFF7AAFFA004C4F879
:100D50000403AE71002070BD400000200060004020
:100D600006E000E0034890F85B00002800D0012076
:100D700070470000400000202DE9FC41044629484E
:100D80000D462044002690F92410491C01D0082665
:100D900041E0A978002751B3012200212046FFF746
:100DA0000BFE411C21D083001F482A781844697823
:100DB000D0F81035DFF874C003EA0C03C0F8103522
:100DC000D0F810354FF47C5C0CEA042C43EA0C0399
:100DD0004FF4403C0CEA02424FF4801C0CEA0151F3
:100DE0000A431343C0F8103504E0042613E0FE2143
:100DF00080F824106878012820460FD0FFF7F6FE0F
:100E0000012220460097002311460197FFF79CFE20
:100E1000204600F02BFA3046BDE8FC81FFF72CFF9E
:100E2000EEE700004000002000600040FFC0ECFF43
:100E30000649084490F92400810005480844D0F888
:100E4000101541F00301C0F8101570474000002054
:100E50000060004001B10121064A104490F92400CD
:100E6000820005481044D0F8102561F31452C0F8F0
:100E700010257047400000200060004010B5044677
:100E800000F002FA70B12046FFF7BAFDC0B2FFF7DA
:100E900085FD2046FFF7B4FD0C4A002102EB8000DF
:100EA000C0F810150A49FF20214481F8240020468B
:100EB00000F0C4F9002807D02046FFF75EFE204668
:100EC000BDE8104000F0C4B910BD00000060004053
:100ED0004000002010B500F005F80149084410BD9D
:100EE0000060004010B5FFF78BFD302101EB800062
:100EF000C0B210BD2DE9F0470427144E81460024EE
:100F00004FF001080020FFF733FD08FA04F53542E1
:100F100003D02046FFF7A0FD58B10020FFF72AFDBF
:100F200027B104F10104AE43E4B2EBD13846BDE889
:100F3000F087074908FA04F000274A681043486020
:100F400089F800403846FFF715FDEFE7FFFF0F0077
:100F5000040000202DE9F04114460D00074612D090
:100F60008CB10026FFF784FD78B13846FFF774FD99
:100F700068B1084800EBC700C0F81055C0F8144528
:100F80003046BDE8F0810E20FBE70726F8E708268B
:100F9000F6E7000000F0014070B504460126002588
:100FA000A640FFF765FD18B12046FFF755FD18B1C3
:100FB00002480660284670BD0825FBE708F5014099
:100FC00070B5044601260025A640FFF751FD18B173
:100FD0002046FFF741FD18B102480660284670BD63
:100FE0000825FBE704F5014070B504460026FFF72D
:100FF0003FFD78B108480125A54005600020FFF7B6
:10100000B7FC06484168A94341600020FFF7B2FCE5
:10101000304670BD0726FBE708F5014004000020BC
:1010200000680121C16070472DE9F04106460D4678
:101030004FF4803400681746AC404BB14FF4A071B8
:1010400001EB8501FFF73EFE3068C0F8044301E084
:10105000C0F80843306800EB8500C0F84075BDE873
:10106000F08102684FF4A07000EB810080B2104460
:10107000704702684FF480308840C2F80803704718
:1010800070B505460C464FF4A07000EB840081B2A9
:101090002868FFF717FE29684FF48030A040C1F898
:1010A000040370BD0268012111610079034A00EB5D
:1010B000400002EB80000172704700009C0000209D
:1010C000016801220A600079034A00EB400002EB4C
:1010D00080000221017270479C000020F0B4046877
:1010E000049E40F20115D4F800728D40AF43C4F85D
:1010F00000720468D4F800521D43C4F8005233460D
:10110000F0BCFFF791BF00002DE9F04104460E4608
:1011100000792C4900EB400001EB8007387A10B1D0
:101120000820BDE8F0813A60706800254FF4A0788F
:10113000786006E008EB85012068FFF7C3FD6D1CB1
:10114000EDB26079A842F5D82068F17840F3073015
:1011500000284FEA411104DB00F1E02080F8001480
:1011600005E000F00F0000F1E02080F8141D206879
:10117000012140F30730002809DB00F01F0201FACB
:1011800002F24009800000F1E020C0F80021206850
:101190007278D0F8043562F30103C0F80435206892
:1011A000B278D0F8083562F30103C0F8083520683A
:1011B0003278D0F8103562F30303C0F81035397275
:1011C0000020AEE79C00002010B50346006840F305
:1011D000073100290DDB01F01F0201209040490971
:1011E000890001F1E021C1F88001BFF34F8FBFF307
:1011F0006F8F19684FF0FF30D1F800220024C1F83A
:1012000000421968C1F808031846FFF74BFF187928
:10121000034900EB400001EB8000047210BD0000A8
:101220009C00002003490860034801680029FCD0A5
:101230007047000004E5014000E4014010B5034997
:10124000FFF76EFC002800D0012010BD95000020A3
:1012500010B50549C20800F007008B5C01248440EA
:10126000A3438B5410BD00009500002010B5054924
:10127000C20800F00703885C01249C402043885486
:1012800010BD0000950000200449084490F9240096
:10129000082801D20120704700207047400000203C
:1012A0002DE9F84FDFF8B88005464FF0010998F9AD
:1012B000540000274446401C41D094F8540029466D
:1012C00020F0C0063046FFF72BFC58B3384600F03C
:1012D00049F8824668460096FFF79CFC009900EBAF
:1012E0008100D0F80007C0F30147022F1BD0022174
:1012F0003046FFF74BFC68460096FFF78BFC009AE0
:1013000009FA02F1C0F820153046FFF779FB54F8CE
:1013100020203AB15046BAF1030F0DD0022F04D06D
:10132000032F06D00BE00321E2E7BAF1010F03D04F
:1013300005E0BAF1020F02D10146304690472A4635
:1013400002210020FFF73AFC5FF0000055F8201062
:101350000029ACD1401C0228F8D3BDE8F88F00006A
:10136000400000200249084490F85400800970476A
:10137000400000202DE9F05F0668834696F82000C3
:10138000FFF732FE002505EB450800244FF0FF0A69
:1013900006EB880707EB040999F80800FF2803D03B
:1013A000FFF722FE89F808A0641CE4B2022CF1D3F6
:1013B00056F82800411C05D0FFF760FD4FF0FF31C3
:1013C00046F8281000206D1CEDB2F872022DDAD319
:1013D000DBF80400BDE8F05FFFF7F6BE014901202D
:1013E00008707047000000202DE9F04113480D46B9
:1013F0000127002400F10C0800EB4506305D28B100
:10140000305D401E3055305D70B10027641CE4B281
:10141000022CF3D3002F0ED058F82500022140688B
:10142000BDE8F041FFF725BE58F825000068C16906
:1014300028468847EAE7BDE8F0810000C8000020A0
:101440002DE9F04788460546076801EB480007EBA1
:101450008004164697F82000FFF79EFDDFF8B09055
:101460004FF0FF0A7EB1B869B04211D886B2207A37
:10147000FFF792FD94F80900FFF7A2FD69680A7969
:1014800009F802A040E0607AFFF786FD207AF3E7D2
:101490006268824228D03AB3B24225D900230321A0
:1014A0006868FFF7C1FDA07A0028206802D0FFF726
:1014B0000FFC01E0FFF70EFD824603216868FFF78D
:1014C000D0FD014617F8200F5246FFF743FD38784C
:1014D000FFF776FD69680A7909F8028068680D49A6
:1014E000007941F8206003E069680A7909F802A0F0
:1014F0000023324641466868FFF796FD207AFFF7E1
:101500005FFD607AFFF75CFD6660BDE8F087000074
:101510000D000020B40000200090004001040000F5
:101520000338FDD8704700001C000020181500008B
:101530000D0000000E00000000000000020000008E
:101540008813000000000050000300500300010059
:1015500000000007000000007815000000000020D7
:101560001C00000048050000941500001C0000202D
:10157000CC20000058050000000000000000000022
:10158000000000000000000000000000000000005B
:041590000090D003F4
:0400000500000201F4
:00000001FF
