{"txid": "2bac7ad1dec654579a71ea9555463f63ac7b7df9d8ba67b4682bba4e514d0f0c", "version": 2, "locktime": 1442661, "vin": [{"txid": "7cc9463285e06dd464357c9775c1666078b04da914270c224640023cbd9d663b", "vout": 0, "sequence": 4294967294, "n": 0, "scriptSig": {"hex": "1600149872cad5fa80293ad1f2faf1ceb238830fa01404"}, "addresses": ["2NGJtNdBoorpBegD9C2SHoFxMB6SmkHgYwo"], "value": "4111.11772162"}], "vout": [{"value": "0.09226912", "n": 0, "scriptPubKey": {"hex": "76a914ed510ecb8a6e8aea8e34b44dfea4f0a30ae2a88788ac", "addresses": ["n39mYWemUp2eahhGvr5hq3ENjNUge1yXFW"]}, "spent": false}, {"value": "4111.0252833", "n": 1, "scriptPubKey": {"hex": "a914713134226fb873dcef4826ad826bbf1e7b005d1387", "addresses": ["2N3ZjHgzcmaJsgVzSrjAJ8qqspre9STxKNm"]}, "spent": true}], "blockhash": "00000000000000e5aec7282e7dbabb1530b76d27a4b028ea7adbbb944ac85fb9", "blockheight": 1442662, "confirmations": 11, "blocktime": 1541766205, "valueOut": "4111.11755242", "valueIn": "4111.11772162", "fees": "0.0001692", "hex": "020000000001013b669dbd3c024046220c2714a94db0786066c175977c3564d46de0853246c97c00000000171600149872cad5fa80293ad1f2faf1ceb238830fa01404feffffff02a0ca8c00000000001976a914ed510ecb8a6e8aea8e34b44dfea4f0a30ae2a88788ac4ac39eb75f00000017a914713134226fb873dcef4826ad826bbf1e7b005d138702473044022017bae642cf9c67040ce0559152c026f6a1326e5a586ad1153eb149a1f27b42df022024de091fc9b2bbb0791527a0e0f4783e34659178a8773f1c356f1394184821d7012102f401ed0fe28b9e3946a2bf658d1f54e06663e3b5fb0d41a1bfcbcfa44f4a551065031600"}