{"txid": "39a1339d9bf26de701345beecc5de75a690bc9533741a3dbe90f2fd88b8ed461", "size": 469, "version": 3, "type": 1, "locktime": 0, "vin": [{"txid": "60344b49716e006d9c875413338e1b26f95b97174e14cbf406d16969f14221c0", "vout": 0, "scriptSig": {"asm": "3045022100d6eb9e25fc3215e6a4b5180a1957319d6658103566f0274452bd50d0eddedff202200824a00f582a29c9e3694d34e5525275cabd08c488a0c55b4350c6bfa4fb2cf8[ALL] 02a8d6433a8f799a13d3495f4aa5b99bd288adca5f59e0c9609f15a221220241c5", "hex": "483045022100d6eb9e25fc3215e6a4b5180a1957319d6658103566f0274452bd50d0eddedff202200824a00f582a29c9e3694d34e5525275cabd08c488a0c55b4350c6bfa4fb2cf8012102a8d6433a8f799a13d3495f4aa5b99bd288adca5f59e0c9609f15a221220241c5"}, "sequence": 4294967294}], "vout": [{"value": 9.99999521, "valueSat": 999999521, "n": 0, "scriptPubKey": {"asm": "OP_DUP OP_HASH160 e54445646929fac8b7d6c71715913af443249784 OP_EQUALVERIFY OP_CHECKSIG", "hex": "76a914e54445646929fac8b7d6c71715913af44324978488ac", "reqSigs": 1, "type": "pubkeyhash", "addresses": ["yhDhNgubyF1NEmT6qtiTXTbr3KMiJwUTxk"]}}], "extraPayloadSize": 274, "extraPayload": "0100000000009b9054ff7839b940277b8eb8211570b2f16850ef729ee635e24d722fbc4a46230100000000000000000000000000ffffc6c74af14e1f891cbc8a94fa7fea64ca9994870dca0f75bbd0750efda51589f86e30cc2305e7388c01ce0309c19a182cf37bced97c7da72236f660c0a395e765e6e06962ecff5a69d7de359c348a574176c210c37a25d4ffd917866fb0a300001976a914e54445646929fac8b7d6c71715913af44324978488ac26d5a99c01521d1fca6299de576bae82f901fb56e4b797a945e876ac69068f36411f9cdb72a01b273a53bd916d8c90dd584bd3a1c01dd84fec84eb046f66a4e3b30d39ea3215293a035166b5072349ebc08efd30c2c73ebd023d920f1db0aef91a4e", "proRegTx": {"version": 1, "collateralHash": "23464abc2f724de235e69e72ef5068f1b2701521b88e7b2740b93978ff54909b", "collateralIndex": 1, "service": "198.199.74.241:19999", "ownerAddress": "yYpRr8VzV2ZsBV8QRKfhaU2zqRtUUWkTBc", "votingAddress": "yRCunhZVjbMxDr1C6fD6Pf37sTwH6wG7Uu", "payoutAddress": "yhDhNgubyF1NEmT6qtiTXTbr3KMiJwUTxk", "pubKeyOperator": "0efda51589f86e30cc2305e7388c01ce0309c19a182cf37bced97c7da72236f660c0a395e765e6e06962ecff5a69d7de", "operatorReward": 0, "inputsHash": "368f0669ac76e845a997b7e456fb01f982ae6b57de9962ca1f1d52019ca9d526"}, "instantlock": false, "instantlock_internal": false, "chainlock": false}